{
  "address": "0xe7f1725E7734CE288F8367e1Bb143E90bb3F0512",
  "abi": [
    {
      "inputs": [
        {
          "internalType": "address",
          "name": "_creator",
          "type": "address"
        },
        {
          "internalType": "uint64",
          "name": "_creatorType",
          "type": "uint64"
        },
        {
          "internalType": "string",
          "name": "_title",
          "type": "string"
        },
        {
          "internalType": "string",
          "name": "_description",
          "type": "string"
        },
        {
          "internalType": "string[]",
          "name": "_tags",
          "type": "string[]"
        },
        {
          "internalType": "uint256",
          "name": "_goalAmount",
          "type": "uint256"
        },
        {
          "internalType": "uint256",
          "name": "_duration",
          "type": "uint256"
        }
      ],
      "stateMutability": "nonpayable",
      "type": "constructor"
    },
    {
      "inputs": [
        {
          "internalType": "address",
          "name": "_campaignAddress",
          "type": "address"
        }
      ],
      "name": "Campaign__AlreadyExpired",
      "type": "error"
    },
    {
      "inputs": [
        {
          "internalType": "address",
          "name": "_address",
          "type": "address"
        }
      ],
      "name": "Campaign__DonatorIsCreator",
      "type": "error"
    },
    {
      "inputs": [
        {
          "internalType": "address",
          "name": "_donatorAddress",
          "type": "address"
        }
      ],
      "name": "Campaign__NoDonationsHere",
      "type": "error"
    },
    {
      "inputs": [
        {
          "internalType": "address",
          "name": "_address",
          "type": "address"
        }
      ],
      "name": "Campaign__NotCreator",
      "type": "error"
    },
    {
      "inputs": [],
      "name": "Campaign__NotInState",
      "type": "error"
    },
    {
      "inputs": [
        {
          "internalType": "address",
          "name": "_campaignAddress",
          "type": "address"
        }
      ],
      "name": "Campaign__NotRefundable",
      "type": "error"
    },
    {
      "inputs": [],
      "name": "Campaign__RefundFailed",
      "type": "error"
    },
    {
      "inputs": [],
      "name": "Campaign__UpkeepNotNeeded",
      "type": "error"
    },
    {
      "anonymous": false,
      "inputs": [
        {
          "indexed": false,
          "internalType": "address",
          "name": "campaignAddress",
          "type": "address"
        }
      ],
      "name": "CampaignExpired",
      "type": "event"
    },
    {
      "anonymous": false,
      "inputs": [
        {
          "indexed": false,
          "internalType": "address",
          "name": "campaignAddress",
          "type": "address"
        }
      ],
      "name": "CampaignSuccessful",
      "type": "event"
    },
    {
      "anonymous": false,
      "inputs": [
        {
          "indexed": false,
          "internalType": "address",
          "name": "creator",
          "type": "address"
        },
        {
          "indexed": false,
          "internalType": "address",
          "name": "campaignAddress",
          "type": "address"
        }
      ],
      "name": "CreatorPaid",
      "type": "event"
    },
    {
      "anonymous": false,
      "inputs": [
        {
          "indexed": true,
          "internalType": "address",
          "name": "contributor",
          "type": "address"
        },
        {
          "indexed": false,
          "internalType": "uint256",
          "name": "amount",
          "type": "uint256"
        },
        {
          "indexed": false,
          "internalType": "uint256",
          "name": "currentBalance",
          "type": "uint256"
        }
      ],
      "name": "FundingRecieved",
      "type": "event"
    },
    {
      "inputs": [],
      "name": "allowRefunds",
      "outputs": [],
      "stateMutability": "nonpayable",
      "type": "function"
    },
    {
      "inputs": [
        {
          "internalType": "bytes",
          "name": "",
          "type": "bytes"
        }
      ],
      "name": "checkUpkeep",
      "outputs": [
        {
          "internalType": "bool",
          "name": "upkeepNeeded",
          "type": "bool"
        },
        {
          "internalType": "bytes",
          "name": "",
          "type": "bytes"
        }
      ],
      "stateMutability": "view",
      "type": "function"
    },
    {
      "inputs": [],
      "name": "creator",
      "outputs": [
        {
          "internalType": "address payable",
          "name": "",
          "type": "address"
        }
      ],
      "stateMutability": "view",
      "type": "function"
    },
    {
      "inputs": [],
      "name": "creatorType",
      "outputs": [
        {
          "internalType": "enum Campaign.CreatorType",
          "name": "",
          "type": "uint8"
        }
      ],
      "stateMutability": "view",
      "type": "function"
    },
    {
      "inputs": [],
      "name": "currentBalance",
      "outputs": [
        {
          "internalType": "uint256",
          "name": "",
          "type": "uint256"
        }
      ],
      "stateMutability": "view",
      "type": "function"
    },
    {
      "inputs": [],
      "name": "description",
      "outputs": [
        {
          "internalType": "string",
          "name": "",
          "type": "string"
        }
      ],
      "stateMutability": "view",
      "type": "function"
    },
    {
      "inputs": [],
      "name": "donate",
      "outputs": [],
      "stateMutability": "payable",
      "type": "function"
    },
    {
      "inputs": [
        {
          "internalType": "address",
          "name": "",
          "type": "address"
        }
      ],
      "name": "donations",
      "outputs": [
        {
          "internalType": "uint256",
          "name": "",
          "type": "uint256"
        }
      ],
      "stateMutability": "view",
      "type": "function"
    },
    {
      "inputs": [],
      "name": "duration",
      "outputs": [
        {
          "internalType": "uint256",
          "name": "",
          "type": "uint256"
        }
      ],
      "stateMutability": "view",
      "type": "function"
    },
    {
      "inputs": [],
      "name": "endCampaign",
      "outputs": [],
      "stateMutability": "nonpayable",
      "type": "function"
    },
    {
      "inputs": [],
      "name": "getBalance",
      "outputs": [
        {
          "internalType": "uint256",
          "name": "",
          "type": "uint256"
        }
      ],
      "stateMutability": "view",
      "type": "function"
    },
    {
      "inputs": [],
      "name": "getCampaignDetails",
      "outputs": [
        {
          "components": [
            {
              "internalType": "address",
              "name": "creator",
              "type": "address"
            },
            {
              "internalType": "enum Campaign.CreatorType",
              "name": "creatorType",
              "type": "uint8"
            },
            {
              "internalType": "string",
              "name": "title",
              "type": "string"
            },
            {
              "internalType": "string",
              "name": "description",
              "type": "string"
            },
            {
              "internalType": "string[]",
              "name": "tags",
              "type": "string[]"
            },
            {
              "internalType": "uint256",
              "name": "goalAmount",
              "type": "uint256"
            },
            {
              "internalType": "uint256",
              "name": "duration",
              "type": "uint256"
            },
            {
              "internalType": "uint256",
              "name": "currentBalance",
              "type": "uint256"
            },
            {
              "internalType": "enum Campaign.State",
              "name": "currentState",
              "type": "uint8"
            }
          ],
          "internalType": "struct Campaign.CampaignObject",
          "name": "",
          "type": "tuple"
        }
      ],
      "stateMutability": "view",
      "type": "function"
    },
    {
      "inputs": [],
      "name": "getCampaignState",
      "outputs": [
        {
          "internalType": "enum Campaign.State",
          "name": "",
          "type": "uint8"
        }
      ],
      "stateMutability": "view",
      "type": "function"
    },
    {
      "inputs": [
        {
          "internalType": "address",
          "name": "_donator",
          "type": "address"
        }
      ],
      "name": "getDonations",
      "outputs": [
        {
          "internalType": "uint256",
          "name": "",
          "type": "uint256"
        }
      ],
      "stateMutability": "view",
      "type": "function"
    },
    {
      "inputs": [],
      "name": "goalAmount",
      "outputs": [
        {
          "internalType": "uint256",
          "name": "",
          "type": "uint256"
        }
      ],
      "stateMutability": "view",
      "type": "function"
    },
    {
      "inputs": [],
      "name": "nowPayable",
      "outputs": [
        {
          "internalType": "bool",
          "name": "",
          "type": "bool"
        }
      ],
      "stateMutability": "view",
      "type": "function"
    },
    {
      "inputs": [],
      "name": "nowRefunding",
      "outputs": [
        {
          "internalType": "bool",
          "name": "",
          "type": "bool"
        }
      ],
      "stateMutability": "view",
      "type": "function"
    },
    {
      "inputs": [
        {
          "internalType": "bytes",
          "name": "",
          "type": "bytes"
        }
      ],
      "name": "performUpkeep",
      "outputs": [],
      "stateMutability": "nonpayable",
      "type": "function"
    },
    {
      "inputs": [
        {
          "internalType": "address",
          "name": "_donator",
          "type": "address"
        }
      ],
      "name": "refund",
      "outputs": [],
      "stateMutability": "nonpayable",
      "type": "function"
    },
    {
      "inputs": [],
      "name": "state",
      "outputs": [
        {
          "internalType": "enum Campaign.State",
          "name": "",
          "type": "uint8"
        }
      ],
      "stateMutability": "view",
      "type": "function"
    },
    {
      "inputs": [
        {
          "internalType": "uint256",
          "name": "",
          "type": "uint256"
        }
      ],
      "name": "tags",
      "outputs": [
        {
          "internalType": "string",
          "name": "",
          "type": "string"
        }
      ],
      "stateMutability": "view",
      "type": "function"
    },
    {
      "inputs": [],
      "name": "title",
      "outputs": [
        {
          "internalType": "string",
          "name": "",
          "type": "string"
        }
      ],
      "stateMutability": "view",
      "type": "function"
    },
    {
      "inputs": [
        {
          "internalType": "string",
          "name": "_newDescription",
          "type": "string"
        }
      ],
      "name": "updateDescription",
      "outputs": [],
      "stateMutability": "nonpayable",
      "type": "function"
    },
    {
      "inputs": [
        {
          "internalType": "uint256",
          "name": "_addedTime",
          "type": "uint256"
        }
      ],
      "name": "updateDuration",
      "outputs": [],
      "stateMutability": "nonpayable",
      "type": "function"
    },
    {
      "inputs": [
        {
          "internalType": "string",
          "name": "_newTitle",
          "type": "string"
        }
      ],
      "name": "updateTitle",
      "outputs": [],
      "stateMutability": "nonpayable",
      "type": "function"
    }
  ],
  "transactionHash": "0x23c056dba1bed7f499f5814f45fcc5a8904da756f8d21773a0c495286b44df05",
  "args": [
    "0xf39Fd6e51aad88F6F4ce6aB8827279cffFb92266",
    1,
    "Help Jane Lynn",
    "help Jane Lynn reach her goal",
    [
      "movie",
      "acting",
      "fundraise"
    ],
    "3000000000000000000",
    "345600"
  ],
  "numDeployments": 1,
  "solcInputHash": "000dbe284ae38f9727ac9674e8ddb796",
  "bytecode": "0x60806040526001600860006101000a81548160ff021916908360028111156200002d576200002c62000321565b5b02179055503480156200003f57600080fd5b506040516200280a3803806200280a8339818101604052810190620000659190620006ce565b866000806101000a81548173ffffffffffffffffffffffffffffffffffffffff021916908373ffffffffffffffffffffffffffffffffffffffff1602179055508567ffffffffffffffff166001811115620000c557620000c462000321565b5b600060146101000a81548160ff02191690836001811115620000ec57620000eb62000321565b5b02179055508460019080519060200190620001099291906200019c565b508360029080519060200190620001229291906200019c565b5082600390805190602001906200013b9291906200022d565b5081600481905550806005819055504260078190555060006006819055506000600a60006101000a81548160ff0219169083151502179055506000600a60016101000a81548160ff0219169083151502179055505050505050505062000843565b828054620001aa906200080d565b90600052602060002090601f016020900481019282620001ce57600085556200021a565b82601f10620001e957805160ff19168380011785556200021a565b828001600101855582156200021a579182015b8281111562000219578251825591602001919060010190620001fc565b5b50905062000229919062000294565b5090565b82805482825590600052602060002090810192821562000281579160200282015b82811115620002805782518290805190602001906200026f9291906200019c565b50916020019190600101906200024e565b5b509050620002909190620002b3565b5090565b5b80821115620002af57600081600090555060010162000295565b5090565b5b80821115620002d75760008181620002cd9190620002db565b50600101620002b4565b5090565b508054620002e9906200080d565b6000825580601f10620002fd57506200031e565b601f0160209004906000526020600020908101906200031d919062000294565b5b50565b7f4e487b7100000000000000000000000000000000000000000000000000000000600052602160045260246000fd5b6000604051905090565b600080fd5b600080fd5b600073ffffffffffffffffffffffffffffffffffffffff82169050919050565b6000620003918262000364565b9050919050565b620003a38162000384565b8114620003af57600080fd5b50565b600081519050620003c38162000398565b92915050565b600067ffffffffffffffff82169050919050565b620003e881620003c9565b8114620003f457600080fd5b50565b6000815190506200040881620003dd565b92915050565b600080fd5b600080fd5b6000601f19601f8301169050919050565b7f4e487b7100000000000000000000000000000000000000000000000000000000600052604160045260246000fd5b620004638262000418565b810181811067ffffffffffffffff8211171562000485576200048462000429565b5b80604052505050565b60006200049a62000350565b9050620004a8828262000458565b919050565b600067ffffffffffffffff821115620004cb57620004ca62000429565b5b620004d68262000418565b9050602081019050919050565b60005b8381101562000503578082015181840152602081019050620004e6565b8381111562000513576000848401525b50505050565b6000620005306200052a84620004ad565b6200048e565b9050828152602081018484840111156200054f576200054e62000413565b5b6200055c848285620004e3565b509392505050565b600082601f8301126200057c576200057b6200040e565b5b81516200058e84826020860162000519565b91505092915050565b600067ffffffffffffffff821115620005b557620005b462000429565b5b602082029050602081019050919050565b600080fd5b6000620005e2620005dc8462000597565b6200048e565b90508083825260208201905060208402830185811115620006085762000607620005c6565b5b835b818110156200065657805167ffffffffffffffff8111156200063157620006306200040e565b5b80860162000640898262000564565b855260208501945050506020810190506200060a565b5050509392505050565b600082601f8301126200067857620006776200040e565b5b81516200068a848260208601620005cb565b91505092915050565b6000819050919050565b620006a88162000693565b8114620006b457600080fd5b50565b600081519050620006c8816200069d565b92915050565b600080600080600080600060e0888a031215620006f057620006ef6200035a565b5b6000620007008a828b01620003b2565b9750506020620007138a828b01620003f7565b965050604088015167ffffffffffffffff8111156200073757620007366200035f565b5b620007458a828b0162000564565b955050606088015167ffffffffffffffff8111156200076957620007686200035f565b5b620007778a828b0162000564565b945050608088015167ffffffffffffffff8111156200079b576200079a6200035f565b5b620007a98a828b0162000660565b93505060a0620007bc8a828b01620006b7565b92505060c0620007cf8a828b01620006b7565b91505092959891949750929550565b7f4e487b7100000000000000000000000000000000000000000000000000000000600052602260045260246000fd5b600060028204905060018216806200082657607f821691505b602082108114156200083d576200083c620007de565b5b50919050565b611fb780620008536000396000f3fe6080604052600436106101665760003560e01c806359c656df116100d1578063c19d93fb1161008a578063e735b48a11610064578063e735b48a1461050d578063ed44c6ab14610536578063ed88c68e14610561578063fa89401a1461056b57610166565b8063c19d93fb1461047a578063cc6cb19a146104a5578063ce845d1d146104e257610166565b806359c656df1461038d5780636e04ff0d146103a457806371aac7f9146103e25780637284e416146103f95780637fb3761e14610424578063baf9ec5e1461044f57610166565b806320822abc1161012357806320822abc1461027d5780632636b945146102ba57806337fb13b0146102e55780634298b0cd1461030e5780634585e33b146103395780634a79d50c1461036257610166565b806302d05d3f1461016b5780630c611f24146101965780630fb5a6b4146101c157806312065fe0146101ec5780631910bdc2146102175780631b50ad0914610254575b600080fd5b34801561017757600080fd5b50610180610594565b60405161018d91906114ea565b60405180910390f35b3480156101a257600080fd5b506101ab6105b8565b6040516101b8919061182c565b60405180910390f35b3480156101cd57600080fd5b506101d6610868565b6040516101e3919061185d565b60405180910390f35b3480156101f857600080fd5b5061020161086e565b60405161020e919061185d565b60405180910390f35b34801561022357600080fd5b5061023e600480360381019061023991906118b8565b610878565b60405161024b919061185d565b60405180910390f35b34801561026057600080fd5b5061027b60048036038101906102769190611911565b6108c1565b005b34801561028957600080fd5b506102a4600480360381019061029f9190611911565b6108df565b6040516102b19190611988565b60405180910390f35b3480156102c657600080fd5b506102cf61098b565b6040516102dc919061185d565b60405180910390f35b3480156102f157600080fd5b5061030c60048036038101906103079190611adf565b610991565b005b34801561031a57600080fd5b506103236109ab565b6040516103309190611b43565b60405180910390f35b34801561034557600080fd5b50610360600480360381019061035b9190611bbe565b6109be565b005b34801561036e57600080fd5b50610377610b70565b6040516103849190611988565b60405180910390f35b34801561039957600080fd5b506103a2610bfe565b005b3480156103b057600080fd5b506103cb60048036038101906103c69190611cac565b610c1b565b6040516103d9929190611d4a565b60405180910390f35b3480156103ee57600080fd5b506103f7610ce4565b005b34801561040557600080fd5b5061040e610d89565b60405161041b9190611988565b60405180910390f35b34801561043057600080fd5b50610439610e17565b6040516104469190611d89565b60405180910390f35b34801561045b57600080fd5b50610464610e2e565b6040516104719190611b43565b60405180910390f35b34801561048657600080fd5b5061048f610e41565b60405161049c9190611d89565b60405180910390f35b3480156104b157600080fd5b506104cc60048036038101906104c791906118b8565b610e54565b6040516104d9919061185d565b60405180910390f35b3480156104ee57600080fd5b506104f7610e6c565b604051610504919061185d565b60405180910390f35b34801561051957600080fd5b50610534600480360381019061052f9190611adf565b610e72565b005b34801561054257600080fd5b5061054b610e8c565b6040516105589190611db3565b60405180910390f35b610569610e9f565b005b34801561057757600080fd5b50610592600480360381019061058d91906118b8565b6110a3565b005b60008054906101000a900473ffffffffffffffffffffffffffffffffffffffff1681565b6105c0611380565b60405180610120016040528060008054906101000a900473ffffffffffffffffffffffffffffffffffffffff1673ffffffffffffffffffffffffffffffffffffffff168152602001600060149054906101000a900460ff16600181111561062a57610629611526565b5b81526020016001805461063c90611dfd565b80601f016020809104026020016040519081016040528092919081815260200182805461066890611dfd565b80156106b55780601f1061068a576101008083540402835291602001916106b5565b820191906000526020600020905b81548152906001019060200180831161069857829003601f168201915b50505050508152602001600280546106cc90611dfd565b80601f01602080910402602001604051908101604052809291908181526020018280546106f890611dfd565b80156107455780601f1061071a57610100808354040283529160200191610745565b820191906000526020600020905b81548152906001019060200180831161072857829003601f168201915b505050505081526020016003805480602002602001604051908101604052809291908181526020016000905b8282101561081d57838290600052602060002001805461079090611dfd565b80601f01602080910402602001604051908101604052809291908181526020018280546107bc90611dfd565b80156108095780601f106107de57610100808354040283529160200191610809565b820191906000526020600020905b8154815290600101906020018083116107ec57829003601f168201915b505050505081526020019060010190610771565b505050508152602001600454815260200160055481526020016006548152602001600860009054906101000a900460ff1660028111156108605761085f611526565b5b815250905090565b60055481565b6000600654905090565b6000600960008373ffffffffffffffffffffffffffffffffffffffff1673ffffffffffffffffffffffffffffffffffffffff168152602001908152602001600020549050919050565b6108d68160055461135490919063ffffffff16565b60058190555050565b600381815481106108ef57600080fd5b90600052602060002001600091509050805461090a90611dfd565b80601f016020809104026020016040519081016040528092919081815260200182805461093690611dfd565b80156109835780601f1061095857610100808354040283529160200191610983565b820191906000526020600020905b81548152906001019060200180831161096657829003601f168201915b505050505081565b60045481565b80600190805190602001906109a7929190611406565b5050565b600a60009054906101000a900460ff1681565b60006109d860405180602001604052806000815250610c1b565b50905080610a12576040517f311f87a100000000000000000000000000000000000000000000000000000000815260040160405180910390fd5b60055460075442610a239190611e5e565b1115610ac6576002600860006101000a81548160ff02191690836002811115610a4f57610a4e611526565b5b02179055506001600a60006101000a81548160ff0219169083151502179055506001600a60016101000a81548160ff0219169083151502179055507f5cf8cd2bd40f758a95257bed666285eb82801f1bf9223b8ec1481e510ba2e82d30604051610ab99190611ea1565b60405180910390a1610b6b565b60045460065410610b6a576000600860006101000a81548160ff02191690836002811115610af757610af6611526565b5b02179055506001600a60006101000a81548160ff0219169083151502179055506001600a60016101000a81548160ff0219169083151502179055507f5369558c667e962b633128a01c31764d053da51f61d17370d327ed17f77deccc30604051610b619190611ea1565b60405180910390a15b5b505050565b60018054610b7d90611dfd565b80601f0160208091040260200160405190810160405280929190818152602001828054610ba990611dfd565b8015610bf65780601f10610bcb57610100808354040283529160200191610bf6565b820191906000526020600020905b815481529060010190602001808311610bd957829003601f168201915b505050505081565b6001600a60016101000a81548160ff021916908315150217905550565b60006060600060045460065410159050600060016002811115610c4157610c40611526565b5b600860009054906101000a900460ff166002811115610c6357610c62611526565b5b149050600060055460075442610c799190611e5e565b119050600080471190508380610c9e5750818015610c945750825b8015610c9d5750805b5b9550856040518060400160405280600381526020017f30783000000000000000000000000000000000000000000000000000000000008152509550955050505050915091565b600280811115610cf757610cf6611526565b5b600860009054906101000a900460ff166002811115610d1957610d18611526565b5b1415610d5c57306040517fd6d7e5c1000000000000000000000000000000000000000000000000000000008152600401610d539190611ea1565b60405180910390fd5b6002600860006101000a81548160ff02191690836002811115610d8257610d81611526565b5b0217905550565b60028054610d9690611dfd565b80601f0160208091040260200160405190810160405280929190818152602001828054610dc290611dfd565b8015610e0f5780601f10610de457610100808354040283529160200191610e0f565b820191906000526020600020905b815481529060010190602001808311610df257829003601f168201915b505050505081565b6000600860009054906101000a900460ff16905090565b600a60019054906101000a900460ff1681565b600860009054906101000a900460ff1681565b60096020528060005260406000206000915090505481565b60065481565b8060029080519060200190610e88929190611406565b5050565b600060149054906101000a900460ff1681565b6001806002811115610eb457610eb3611526565b5b600860009054906101000a900460ff166002811115610ed657610ed5611526565b5b14610f0d576040517f0300809900000000000000000000000000000000000000000000000000000000815260040160405180910390fd5b60008054906101000a900473ffffffffffffffffffffffffffffffffffffffff1673ffffffffffffffffffffffffffffffffffffffff163373ffffffffffffffffffffffffffffffffffffffff161415610f9e57336040517f91101895000000000000000000000000000000000000000000000000000000008152600401610f959190611ea1565b60405180910390fd5b610ff034600960003373ffffffffffffffffffffffffffffffffffffffff1673ffffffffffffffffffffffffffffffffffffffff1681526020019081526020016000205461135490919063ffffffff16565b600960003373ffffffffffffffffffffffffffffffffffffffff1673ffffffffffffffffffffffffffffffffffffffff168152602001908152602001600020819055506110483460065461135490919063ffffffff16565b6006819055503373ffffffffffffffffffffffffffffffffffffffff167fe76ad748537a48e778fef43dda4a6bd1b50cd62385f9f21a9ca267492355120834600654604051611098929190611ebc565b60405180910390a250565b60008054906101000a900473ffffffffffffffffffffffffffffffffffffffff1673ffffffffffffffffffffffffffffffffffffffff163373ffffffffffffffffffffffffffffffffffffffff161461113357336040517fef54c81700000000000000000000000000000000000000000000000000000000815260040161112a9190611ea1565b60405180910390fd5b600a60019054906101000a900460ff1661118457306040517fb1881e1600000000000000000000000000000000000000000000000000000000815260040161117b9190611ea1565b60405180910390fd5b6000600960008373ffffffffffffffffffffffffffffffffffffffff1673ffffffffffffffffffffffffffffffffffffffff168152602001908152602001600020541161120857336040517fc43858590000000000000000000000000000000000000000000000000000000081526004016111ff9190611ea1565b60405180910390fd5b6000600960008373ffffffffffffffffffffffffffffffffffffffff1673ffffffffffffffffffffffffffffffffffffffff1681526020019081526020016000205490506000600960008473ffffffffffffffffffffffffffffffffffffffff1673ffffffffffffffffffffffffffffffffffffffff168152602001908152602001600020819055506112a68160065461136a90919063ffffffff16565b60068190555060008273ffffffffffffffffffffffffffffffffffffffff16826040516112d290611f16565b60006040518083038185875af1925050503d806000811461130f576040519150601f19603f3d011682016040523d82523d6000602084013e611314565b606091505b505090508061134f576040517f92e9f8f100000000000000000000000000000000000000000000000000000000815260040160405180910390fd5b505050565b600081836113629190611f2b565b905092915050565b600081836113789190611e5e565b905092915050565b604051806101200160405280600073ffffffffffffffffffffffffffffffffffffffff168152602001600060018111156113bd576113bc611526565b5b815260200160608152602001606081526020016060815260200160008152602001600081526020016000815260200160006002811115611400576113ff611526565b5b81525090565b82805461141290611dfd565b90600052602060002090601f016020900481019282611434576000855561147b565b82601f1061144d57805160ff191683800117855561147b565b8280016001018555821561147b579182015b8281111561147a57825182559160200191906001019061145f565b5b509050611488919061148c565b5090565b5b808211156114a557600081600090555060010161148d565b5090565b600073ffffffffffffffffffffffffffffffffffffffff82169050919050565b60006114d4826114a9565b9050919050565b6114e4816114c9565b82525050565b60006020820190506114ff60008301846114db565b92915050565b6000611510826114a9565b9050919050565b61152081611505565b82525050565b7f4e487b7100000000000000000000000000000000000000000000000000000000600052602160045260246000fd5b6002811061156657611565611526565b5b50565b600081905061157782611555565b919050565b600061158782611569565b9050919050565b6115978161157c565b82525050565b600081519050919050565b600082825260208201905092915050565b60005b838110156115d75780820151818401526020810190506115bc565b838111156115e6576000848401525b50505050565b6000601f19601f8301169050919050565b60006116088261159d565b61161281856115a8565b93506116228185602086016115b9565b61162b816115ec565b840191505092915050565b600081519050919050565b600082825260208201905092915050565b6000819050602082019050919050565b600061166e83836115fd565b905092915050565b6000602082019050919050565b600061168e82611636565b6116988185611641565b9350836020820285016116aa85611652565b8060005b858110156116e657848403895281516116c78582611662565b94506116d283611676565b925060208a019950506001810190506116ae565b50829750879550505050505092915050565b6000819050919050565b61170b816116f8565b82525050565b6003811061172257611721611526565b5b50565b600081905061173382611711565b919050565b600061174382611725565b9050919050565b61175381611738565b82525050565b6000610120830160008301516117726000860182611517565b506020830151611785602086018261158e565b506040830151848203604086015261179d82826115fd565b915050606083015184820360608601526117b782826115fd565b915050608083015184820360808601526117d18282611683565b91505060a08301516117e660a0860182611702565b5060c08301516117f960c0860182611702565b5060e083015161180c60e0860182611702565b5061010083015161182161010086018261174a565b508091505092915050565b600060208201905081810360008301526118468184611759565b905092915050565b611857816116f8565b82525050565b6000602082019050611872600083018461184e565b92915050565b6000604051905090565b600080fd5b600080fd5b61189581611505565b81146118a057600080fd5b50565b6000813590506118b28161188c565b92915050565b6000602082840312156118ce576118cd611882565b5b60006118dc848285016118a3565b91505092915050565b6118ee816116f8565b81146118f957600080fd5b50565b60008135905061190b816118e5565b92915050565b60006020828403121561192757611926611882565b5b6000611935848285016118fc565b91505092915050565b600082825260208201905092915050565b600061195a8261159d565b611964818561193e565b93506119748185602086016115b9565b61197d816115ec565b840191505092915050565b600060208201905081810360008301526119a2818461194f565b905092915050565b600080fd5b600080fd5b7f4e487b7100000000000000000000000000000000000000000000000000000000600052604160045260246000fd5b6119ec826115ec565b810181811067ffffffffffffffff82111715611a0b57611a0a6119b4565b5b80604052505050565b6000611a1e611878565b9050611a2a82826119e3565b919050565b600067ffffffffffffffff821115611a4a57611a496119b4565b5b611a53826115ec565b9050602081019050919050565b82818337600083830152505050565b6000611a82611a7d84611a2f565b611a14565b905082815260208101848484011115611a9e57611a9d6119af565b5b611aa9848285611a60565b509392505050565b600082601f830112611ac657611ac56119aa565b5b8135611ad6848260208601611a6f565b91505092915050565b600060208284031215611af557611af4611882565b5b600082013567ffffffffffffffff811115611b1357611b12611887565b5b611b1f84828501611ab1565b91505092915050565b60008115159050919050565b611b3d81611b28565b82525050565b6000602082019050611b586000830184611b34565b92915050565b600080fd5b600080fd5b60008083601f840112611b7e57611b7d6119aa565b5b8235905067ffffffffffffffff811115611b9b57611b9a611b5e565b5b602083019150836001820283011115611bb757611bb6611b63565b5b9250929050565b60008060208385031215611bd557611bd4611882565b5b600083013567ffffffffffffffff811115611bf357611bf2611887565b5b611bff85828601611b68565b92509250509250929050565b600067ffffffffffffffff821115611c2657611c256119b4565b5b611c2f826115ec565b9050602081019050919050565b6000611c4f611c4a84611c0b565b611a14565b905082815260208101848484011115611c6b57611c6a6119af565b5b611c76848285611a60565b509392505050565b600082601f830112611c9357611c926119aa565b5b8135611ca3848260208601611c3c565b91505092915050565b600060208284031215611cc257611cc1611882565b5b600082013567ffffffffffffffff811115611ce057611cdf611887565b5b611cec84828501611c7e565b91505092915050565b600081519050919050565b600082825260208201905092915050565b6000611d1c82611cf5565b611d268185611d00565b9350611d368185602086016115b9565b611d3f816115ec565b840191505092915050565b6000604082019050611d5f6000830185611b34565b8181036020830152611d718184611d11565b90509392505050565b611d8381611738565b82525050565b6000602082019050611d9e6000830184611d7a565b92915050565b611dad8161157c565b82525050565b6000602082019050611dc86000830184611da4565b92915050565b7f4e487b7100000000000000000000000000000000000000000000000000000000600052602260045260246000fd5b60006002820490506001821680611e1557607f821691505b60208210811415611e2957611e28611dce565b5b50919050565b7f4e487b7100000000000000000000000000000000000000000000000000000000600052601160045260246000fd5b6000611e69826116f8565b9150611e74836116f8565b925082821015611e8757611e86611e2f565b5b828203905092915050565b611e9b81611505565b82525050565b6000602082019050611eb66000830184611e92565b92915050565b6000604082019050611ed1600083018561184e565b611ede602083018461184e565b9392505050565b600081905092915050565b50565b6000611f00600083611ee5565b9150611f0b82611ef0565b600082019050919050565b6000611f2182611ef3565b9150819050919050565b6000611f36826116f8565b9150611f41836116f8565b9250827fffffffffffffffffffffffffffffffffffffffffffffffffffffffffffffffff03821115611f7657611f75611e2f565b5b82820190509291505056fea26469706673582212200b58d29eb54557622487001bd81405d9a8b3e9542bcf299bac26c40e754ad55464736f6c63430008080033",
  "devdoc": {
    "kind": "dev",
    "methods": {
      "checkUpkeep(bytes)": {
        "details": "this is the function chainlink keepers calls chekupkeep returns true to trigger the action after the interval has passed"
      }
    },
    "version": 1
  },
  "userdoc": {
    "kind": "user",
    "methods": {},
    "version": 1
  },
  "storageLayout": {
    "storage": [
      {
        "astId": 384,
        "contract": "contracts/Campaign.sol:Campaign",
        "label": "creator",
        "offset": 0,
        "slot": "0",
        "type": "t_address_payable"
      },
      {
        "astId": 387,
        "contract": "contracts/Campaign.sol:Campaign",
        "label": "creatorType",
        "offset": 20,
        "slot": "0",
        "type": "t_enum(CreatorType)382"
      },
      {
        "astId": 389,
        "contract": "contracts/Campaign.sol:Campaign",
        "label": "title",
        "offset": 0,
        "slot": "1",
        "type": "t_string_storage"
      },
      {
        "astId": 391,
        "contract": "contracts/Campaign.sol:Campaign",
        "label": "description",
        "offset": 0,
        "slot": "2",
        "type": "t_string_storage"
      },
      {
        "astId": 394,
        "contract": "contracts/Campaign.sol:Campaign",
        "label": "tags",
        "offset": 0,
        "slot": "3",
        "type": "t_array(t_string_storage)dyn_storage"
      },
      {
        "astId": 396,
        "contract": "contracts/Campaign.sol:Campaign",
        "label": "goalAmount",
        "offset": 0,
        "slot": "4",
        "type": "t_uint256"
      },
      {
        "astId": 398,
        "contract": "contracts/Campaign.sol:Campaign",
        "label": "duration",
        "offset": 0,
        "slot": "5",
        "type": "t_uint256"
      },
      {
        "astId": 400,
        "contract": "contracts/Campaign.sol:Campaign",
        "label": "currentBalance",
        "offset": 0,
        "slot": "6",
        "type": "t_uint256"
      },
      {
        "astId": 402,
        "contract": "contracts/Campaign.sol:Campaign",
        "label": "s_lastTimeStamp",
        "offset": 0,
        "slot": "7",
        "type": "t_uint256"
      },
      {
        "astId": 407,
        "contract": "contracts/Campaign.sol:Campaign",
        "label": "state",
        "offset": 0,
        "slot": "8",
        "type": "t_enum(State)379"
      },
      {
        "astId": 411,
        "contract": "contracts/Campaign.sol:Campaign",
        "label": "donations",
        "offset": 0,
        "slot": "9",
        "type": "t_mapping(t_address,t_uint256)"
      },
      {
        "astId": 413,
        "contract": "contracts/Campaign.sol:Campaign",
        "label": "nowPayable",
        "offset": 0,
        "slot": "10",
        "type": "t_bool"
      },
      {
        "astId": 415,
        "contract": "contracts/Campaign.sol:Campaign",
        "label": "nowRefunding",
        "offset": 1,
        "slot": "10",
        "type": "t_bool"
      }
    ],
    "types": {
      "t_address": {
        "encoding": "inplace",
        "label": "address",
        "numberOfBytes": "20"
      },
      "t_address_payable": {
        "encoding": "inplace",
        "label": "address payable",
        "numberOfBytes": "20"
      },
      "t_array(t_string_storage)dyn_storage": {
        "base": "t_string_storage",
        "encoding": "dynamic_array",
        "label": "string[]",
        "numberOfBytes": "32"
      },
      "t_bool": {
        "encoding": "inplace",
        "label": "bool",
        "numberOfBytes": "1"
      },
      "t_enum(CreatorType)382": {
        "encoding": "inplace",
        "label": "enum Campaign.CreatorType",
        "numberOfBytes": "1"
      },
      "t_enum(State)379": {
        "encoding": "inplace",
        "label": "enum Campaign.State",
        "numberOfBytes": "1"
      },
      "t_mapping(t_address,t_uint256)": {
        "encoding": "mapping",
        "key": "t_address",
        "label": "mapping(address => uint256)",
        "numberOfBytes": "32",
        "value": "t_uint256"
      },
      "t_string_storage": {
        "encoding": "bytes",
        "label": "string",
        "numberOfBytes": "32"
      },
      "t_uint256": {
        "encoding": "inplace",
        "label": "uint256",
        "numberOfBytes": "32"
      }
    }
  }
}