{
  "address": "0xe7f1725E7734CE288F8367e1Bb143E90bb3F0512",
  "abi": [
    {
      "inputs": [
        {
          "internalType": "address",
          "name": "_crowdfunder",
          "type": "address"
        },
        {
          "internalType": "address",
          "name": "_creator",
          "type": "address"
        },
        {
          "internalType": "string",
          "name": "_title",
          "type": "string"
        },
        {
          "internalType": "string",
          "name": "_description",
          "type": "string"
        },
        {
          "internalType": "string",
          "name": "_category",
          "type": "string"
        },
        {
          "internalType": "string",
          "name": "_tags",
          "type": "string"
        },
        {
          "internalType": "uint256",
          "name": "_goalAmount",
          "type": "uint256"
        },
        {
          "internalType": "uint256",
          "name": "_duration",
          "type": "uint256"
        },
        {
          "internalType": "string",
          "name": "_imageURI",
          "type": "string"
        }
      ],
      "stateMutability": "nonpayable",
      "type": "constructor"
    },
    {
      "inputs": [],
      "name": "Cmp_Bankrupt",
      "type": "error"
    },
    {
      "inputs": [],
      "name": "Cmp_DIC",
      "type": "error"
    },
    {
      "inputs": [],
      "name": "Cmp_NIS",
      "type": "error"
    },
    {
      "inputs": [],
      "name": "Cmp_NoDns",
      "type": "error"
    },
    {
      "inputs": [],
      "name": "Cmp_NotCrtr",
      "type": "error"
    },
    {
      "inputs": [],
      "name": "Cmp_RefF",
      "type": "error"
    },
    {
      "inputs": [],
      "name": "Cmp_UpkNN",
      "type": "error"
    },
    {
      "anonymous": false,
      "inputs": [],
      "name": "CampaignCanceled",
      "type": "event"
    },
    {
      "anonymous": false,
      "inputs": [
        {
          "indexed": false,
          "internalType": "address",
          "name": "campaignAddress",
          "type": "address"
        }
      ],
      "name": "CampaignExpired",
      "type": "event"
    },
    {
      "anonymous": false,
      "inputs": [
        {
          "indexed": false,
          "internalType": "address",
          "name": "creator",
          "type": "address"
        },
        {
          "indexed": false,
          "internalType": "address",
          "name": "campaignAddress",
          "type": "address"
        }
      ],
      "name": "CreatorPaid",
      "type": "event"
    },
    {
      "anonymous": false,
      "inputs": [
        {
          "indexed": true,
          "internalType": "address",
          "name": "contributor",
          "type": "address"
        },
        {
          "indexed": false,
          "internalType": "uint256",
          "name": "amount",
          "type": "uint256"
        },
        {
          "indexed": false,
          "internalType": "uint256",
          "name": "currentBalance",
          "type": "uint256"
        }
      ],
      "name": "FundingRecieved",
      "type": "event"
    },
    {
      "inputs": [
        {
          "internalType": "address",
          "name": "",
          "type": "address"
        }
      ],
      "name": "aggrDonations",
      "outputs": [
        {
          "internalType": "uint256",
          "name": "",
          "type": "uint256"
        }
      ],
      "stateMutability": "view",
      "type": "function"
    },
    {
      "inputs": [],
      "name": "c_state",
      "outputs": [
        {
          "internalType": "enum Campaign.C_State",
          "name": "",
          "type": "uint8"
        }
      ],
      "stateMutability": "view",
      "type": "function"
    },
    {
      "inputs": [
        {
          "internalType": "bytes",
          "name": "",
          "type": "bytes"
        }
      ],
      "name": "checkUpkeep",
      "outputs": [
        {
          "internalType": "bool",
          "name": "upkeepNeeded",
          "type": "bool"
        },
        {
          "internalType": "bytes",
          "name": "",
          "type": "bytes"
        }
      ],
      "stateMutability": "view",
      "type": "function"
    },
    {
      "inputs": [],
      "name": "currentBalance",
      "outputs": [
        {
          "internalType": "uint256",
          "name": "",
          "type": "uint256"
        }
      ],
      "stateMutability": "view",
      "type": "function"
    },
    {
      "inputs": [],
      "name": "deadline",
      "outputs": [
        {
          "internalType": "uint256",
          "name": "",
          "type": "uint256"
        }
      ],
      "stateMutability": "view",
      "type": "function"
    },
    {
      "inputs": [
        {
          "internalType": "address",
          "name": "_donator",
          "type": "address"
        }
      ],
      "name": "donate",
      "outputs": [],
      "stateMutability": "payable",
      "type": "function"
    },
    {
      "inputs": [],
      "name": "duration",
      "outputs": [
        {
          "internalType": "uint256",
          "name": "",
          "type": "uint256"
        }
      ],
      "stateMutability": "view",
      "type": "function"
    },
    {
      "inputs": [],
      "name": "endCampaign",
      "outputs": [],
      "stateMutability": "nonpayable",
      "type": "function"
    },
    {
      "inputs": [],
      "name": "getCampaignDetails",
      "outputs": [
        {
          "components": [
            {
              "internalType": "address",
              "name": "i_creator",
              "type": "address"
            },
            {
              "internalType": "string",
              "name": "s_title",
              "type": "string"
            },
            {
              "internalType": "string",
              "name": "s_description",
              "type": "string"
            },
            {
              "internalType": "string",
              "name": "s_category",
              "type": "string"
            },
            {
              "internalType": "string",
              "name": "s_tags",
              "type": "string"
            },
            {
              "internalType": "uint256",
              "name": "goalAmount",
              "type": "uint256"
            },
            {
              "internalType": "uint256",
              "name": "duration",
              "type": "uint256"
            },
            {
              "internalType": "uint256",
              "name": "currentBalance",
              "type": "uint256"
            },
            {
              "internalType": "enum Campaign.C_State",
              "name": "currentC_State",
              "type": "uint8"
            },
            {
              "internalType": "string",
              "name": "s_imageURI",
              "type": "string"
            },
            {
              "internalType": "string",
              "name": "s_campaignURI",
              "type": "string"
            },
            {
              "internalType": "uint256",
              "name": "deadline",
              "type": "uint256"
            }
          ],
          "internalType": "struct Campaign.CampaignObject",
          "name": "",
          "type": "tuple"
        }
      ],
      "stateMutability": "view",
      "type": "function"
    },
    {
      "inputs": [
        {
          "internalType": "uint256",
          "name": "_priceID",
          "type": "uint256"
        }
      ],
      "name": "getReward",
      "outputs": [
        {
          "components": [
            {
              "internalType": "uint256",
              "name": "price",
              "type": "uint256"
            },
            {
              "internalType": "string",
              "name": "title",
              "type": "string"
            },
            {
              "internalType": "string",
              "name": "description",
              "type": "string"
            },
            {
              "internalType": "string",
              "name": "rpic",
              "type": "string"
            },
            {
              "internalType": "string[]",
              "name": "perks",
              "type": "string[]"
            },
            {
              "internalType": "uint256",
              "name": "delDate",
              "type": "uint256"
            },
            {
              "internalType": "uint256",
              "name": "quantity",
              "type": "uint256"
            },
            {
              "internalType": "bool",
              "name": "infinite",
              "type": "bool"
            },
            {
              "internalType": "string[]",
              "name": "shipsTo",
              "type": "string[]"
            },
            {
              "internalType": "address[]",
              "name": "donators",
              "type": "address[]"
            }
          ],
          "internalType": "struct Campaign.reward",
          "name": "",
          "type": "tuple"
        }
      ],
      "stateMutability": "view",
      "type": "function"
    },
    {
      "inputs": [],
      "name": "getRewardKeys",
      "outputs": [
        {
          "internalType": "uint256[]",
          "name": "",
          "type": "uint256[]"
        }
      ],
      "stateMutability": "view",
      "type": "function"
    },
    {
      "inputs": [],
      "name": "goalAmount",
      "outputs": [
        {
          "internalType": "uint256",
          "name": "",
          "type": "uint256"
        }
      ],
      "stateMutability": "view",
      "type": "function"
    },
    {
      "inputs": [],
      "name": "i_creator",
      "outputs": [
        {
          "internalType": "address payable",
          "name": "",
          "type": "address"
        }
      ],
      "stateMutability": "view",
      "type": "function"
    },
    {
      "inputs": [
        {
          "internalType": "uint256",
          "name": "_price",
          "type": "uint256"
        },
        {
          "internalType": "string",
          "name": "_title",
          "type": "string"
        },
        {
          "internalType": "string",
          "name": "_description",
          "type": "string"
        },
        {
          "internalType": "string",
          "name": "_rpic",
          "type": "string"
        },
        {
          "internalType": "string[]",
          "name": "_perks",
          "type": "string[]"
        },
        {
          "internalType": "uint256",
          "name": "_deadline",
          "type": "uint256"
        },
        {
          "internalType": "uint256",
          "name": "_quantity",
          "type": "uint256"
        },
        {
          "internalType": "bool",
          "name": "_infinite",
          "type": "bool"
        },
        {
          "internalType": "string[]",
          "name": "_shipsTo",
          "type": "string[]"
        }
      ],
      "name": "makeReward",
      "outputs": [],
      "stateMutability": "nonpayable",
      "type": "function"
    },
    {
      "inputs": [],
      "name": "payout",
      "outputs": [],
      "stateMutability": "nonpayable",
      "type": "function"
    },
    {
      "inputs": [
        {
          "internalType": "bytes",
          "name": "",
          "type": "bytes"
        }
      ],
      "name": "performUpkeep",
      "outputs": [],
      "stateMutability": "nonpayable",
      "type": "function"
    },
    {
      "inputs": [
        {
          "internalType": "uint256",
          "name": "",
          "type": "uint256"
        }
      ],
      "name": "rKeys",
      "outputs": [
        {
          "internalType": "uint256",
          "name": "",
          "type": "uint256"
        }
      ],
      "stateMutability": "view",
      "type": "function"
    },
    {
      "inputs": [
        {
          "internalType": "address",
          "name": "_donator",
          "type": "address"
        }
      ],
      "name": "refund",
      "outputs": [],
      "stateMutability": "nonpayable",
      "type": "function"
    },
    {
      "inputs": [
        {
          "internalType": "uint256",
          "name": "",
          "type": "uint256"
        }
      ],
      "name": "rewards",
      "outputs": [
        {
          "internalType": "uint256",
          "name": "price",
          "type": "uint256"
        },
        {
          "internalType": "string",
          "name": "title",
          "type": "string"
        },
        {
          "internalType": "string",
          "name": "description",
          "type": "string"
        },
        {
          "internalType": "string",
          "name": "rpic",
          "type": "string"
        },
        {
          "internalType": "uint256",
          "name": "delDate",
          "type": "uint256"
        },
        {
          "internalType": "uint256",
          "name": "quantity",
          "type": "uint256"
        },
        {
          "internalType": "bool",
          "name": "infinite",
          "type": "bool"
        }
      ],
      "stateMutability": "view",
      "type": "function"
    },
    {
      "inputs": [],
      "name": "s_campaignURI",
      "outputs": [
        {
          "internalType": "string",
          "name": "",
          "type": "string"
        }
      ],
      "stateMutability": "view",
      "type": "function"
    },
    {
      "inputs": [],
      "name": "s_category",
      "outputs": [
        {
          "internalType": "string",
          "name": "",
          "type": "string"
        }
      ],
      "stateMutability": "view",
      "type": "function"
    },
    {
      "inputs": [],
      "name": "s_description",
      "outputs": [
        {
          "internalType": "string",
          "name": "",
          "type": "string"
        }
      ],
      "stateMutability": "view",
      "type": "function"
    },
    {
      "inputs": [],
      "name": "s_imageURI",
      "outputs": [
        {
          "internalType": "string",
          "name": "",
          "type": "string"
        }
      ],
      "stateMutability": "view",
      "type": "function"
    },
    {
      "inputs": [],
      "name": "s_tags",
      "outputs": [
        {
          "internalType": "string",
          "name": "",
          "type": "string"
        }
      ],
      "stateMutability": "view",
      "type": "function"
    },
    {
      "inputs": [],
      "name": "s_title",
      "outputs": [
        {
          "internalType": "string",
          "name": "",
          "type": "string"
        }
      ],
      "stateMutability": "view",
      "type": "function"
    },
    {
      "inputs": [
        {
          "internalType": "address",
          "name": "_upkeepCreatorAddress",
          "type": "address"
        },
        {
          "internalType": "address",
          "name": "_linkTokenAddress",
          "type": "address"
        },
        {
          "internalType": "address",
          "name": "_campaignAddress",
          "type": "address"
        }
      ],
      "name": "timeBox",
      "outputs": [],
      "stateMutability": "nonpayable",
      "type": "function"
    },
    {
      "inputs": [
        {
          "internalType": "string",
          "name": "_campaignURI",
          "type": "string"
        }
      ],
      "name": "updateCampaignURI",
      "outputs": [],
      "stateMutability": "nonpayable",
      "type": "function"
    },
    {
      "inputs": [
        {
          "internalType": "uint256",
          "name": "_addedDur",
          "type": "uint256"
        }
      ],
      "name": "updateDur",
      "outputs": [],
      "stateMutability": "nonpayable",
      "type": "function"
    }
  ],
  "transactionHash": "0xc603313b59d6ef2f16df7d33a588894011edda285ee7ae23c286403c28fb42b7",
  "args": [
    "0x5FbDB2315678afecb367f032d93F642f64180aa3",
    "0xf39Fd6e51aad88F6F4ce6aB8827279cffFb92266",
    "Piratopia: Raiders of Pirate Bay",
    "A P2E masterpiece on the AVAX chain",
    "P2E",
    "arcade games/adventure games/web3 gaming",
    "6750000000000000000",
    "1296000",
    "ipfs://QmV9inF2YC5MFUHWwWaCBEVJzj9aGSKmpay7mPSJDjBC4w"
  ],
  "numDeployments": 1,
  "solcInputHash": "1cac5c27fc4df8d574e862fa7ca5aedb",
  "bytecode": "0x60e06040526000600b60006101000a81548160ff021916908360028111156200002d576200002c62000287565b5b02179055503480156200003f57600080fd5b506040516200469e3803806200469e8339818101604052810190620000659190620004f3565b60016000819055508873ffffffffffffffffffffffffffffffffffffffff1660808173ffffffffffffffffffffffffffffffffffffffff1660601b815250508773ffffffffffffffffffffffffffffffffffffffff1660a08173ffffffffffffffffffffffffffffffffffffffff1660601b815250508660019080519060200190620000f3929190620001d7565b5085600290805190602001906200010c929190620001d7565b50846003908051906020019062000125929190620001d7565b5083600690805190602001906200013e929190620001d7565b50826007819055504260c08181525050624f1a00821162000160578162000165565b624f1a005b6008819055506200018960085460c051620001bf60201b620027421790919060201c565b600a819055508060049080519060200190620001a7929190620001d7565b5060006009819055505050505050505050506200075e565b60008183620001cf91906200069c565b905092915050565b828054620001e59062000728565b90600052602060002090601f01602090048101928262000209576000855562000255565b82601f106200022457805160ff191683800117855562000255565b8280016001018555821562000255579182015b828111156200025457825182559160200191906001019062000237565b5b50905062000264919062000268565b5090565b5b808211156200028357600081600090555060010162000269565b5090565b7f4e487b7100000000000000000000000000000000000000000000000000000000600052602160045260246000fd5b6000604051905090565b600080fd5b600080fd5b600073ffffffffffffffffffffffffffffffffffffffff82169050919050565b6000620002f782620002ca565b9050919050565b6200030981620002ea565b81146200031557600080fd5b50565b6000815190506200032981620002fe565b92915050565b600080fd5b600080fd5b6000601f19601f8301169050919050565b7f4e487b7100000000000000000000000000000000000000000000000000000000600052604160045260246000fd5b620003848262000339565b810181811067ffffffffffffffff82111715620003a657620003a56200034a565b5b80604052505050565b6000620003bb620002b6565b9050620003c9828262000379565b919050565b600067ffffffffffffffff821115620003ec57620003eb6200034a565b5b620003f78262000339565b9050602081019050919050565b60005b838110156200042457808201518184015260208101905062000407565b8381111562000434576000848401525b50505050565b6000620004516200044b84620003ce565b620003af565b90508281526020810184848401111562000470576200046f62000334565b5b6200047d84828562000404565b509392505050565b600082601f8301126200049d576200049c6200032f565b5b8151620004af8482602086016200043a565b91505092915050565b6000819050919050565b620004cd81620004b8565b8114620004d957600080fd5b50565b600081519050620004ed81620004c2565b92915050565b60008060008060008060008060006101208a8c031215620005195762000518620002c0565b5b6000620005298c828d0162000318565b99505060206200053c8c828d0162000318565b98505060408a015167ffffffffffffffff81111562000560576200055f620002c5565b5b6200056e8c828d0162000485565b97505060608a015167ffffffffffffffff811115620005925762000591620002c5565b5b620005a08c828d0162000485565b96505060808a015167ffffffffffffffff811115620005c457620005c3620002c5565b5b620005d28c828d0162000485565b95505060a08a015167ffffffffffffffff811115620005f657620005f5620002c5565b5b620006048c828d0162000485565b94505060c0620006178c828d01620004dc565b93505060e06200062a8c828d01620004dc565b9250506101008a015167ffffffffffffffff8111156200064f576200064e620002c5565b5b6200065d8c828d0162000485565b9150509295985092959850929598565b7f4e487b7100000000000000000000000000000000000000000000000000000000600052601160045260246000fd5b6000620006a982620004b8565b9150620006b683620004b8565b9250827fffffffffffffffffffffffffffffffffffffffffffffffffffffffffffffffff03821115620006ee57620006ed6200066d565b5b828201905092915050565b7f4e487b7100000000000000000000000000000000000000000000000000000000600052602260045260246000fd5b600060028204905060018216806200074157607f821691505b60208210811415620007585762000757620006f9565b5b50919050565b60805160601c60a05160601c60c051613eaf620007ef60003960008181611b4301526123f00152600081816107a201528181610b4c01528181611578015281816116a5015281816118230152818161190301528181611a0601528181611ab701528181611bc401528181611df001528181611f9d01526123220152600081816106dd01526124760152613eaf6000f3fe6080604052600436106101b65760003560e01c80636235887a116100ec578063bf66e2c81161008a578063ce845d1d11610064578063ce845d1d146105cd578063f301af42146105f8578063fa6ded391461063b578063fa89401a14610664576101b6565b8063bf66e2c81461054c578063c5cd507814610577578063ce2a0572146105a2576101b6565b80636e60eef7116100c65780636e60eef7146104b657806371aac7f9146104df57806399a8502d146104f6578063b145603e14610521576101b6565b80636235887a1461042457806363bd1d4a146104615780636e04ff0d14610478576101b6565b806329dcb0cf116101595780634d695bdb116101335780634d695bdb1461037c5780634ef89719146103a55780635f700266146103d057806360fa9a72146103f9576101b6565b806329dcb0cf146102fd5780634278ac8b146103285780634585e33b14610353576101b6565b80630fb5a6b4116101955780630fb5a6b41461023f57806315a46ee61461026a5780631c4b774b146102955780632636b945146102d2576101b6565b8062362a95146101bb57806309917c50146101d75780630c611f2414610214575b600080fd5b6101d560048036038101906101d09190612aaf565b61068d565b005b3480156101e357600080fd5b506101fe60048036038101906101f99190612aaf565b610b1e565b60405161020b9190612af5565b60405180910390f35b34801561022057600080fd5b50610229610b36565b6040516102369190612d65565b60405180910390f35b34801561024b57600080fd5b50610254610f30565b6040516102619190612af5565b60405180910390f35b34801561027657600080fd5b5061027f610f36565b60405161028c9190612dd1565b60405180910390f35b3480156102a157600080fd5b506102bc60048036038101906102b79190612e1f565b610fc4565b6040516102c991906130d5565b60405180910390f35b3480156102de57600080fd5b506102e7611421565b6040516102f49190612af5565b60405180910390f35b34801561030957600080fd5b50610312611427565b60405161031f9190612af5565b60405180910390f35b34801561033457600080fd5b5061033d61142d565b60405161034a9190612dd1565b60405180910390f35b34801561035f57600080fd5b5061037a6004803603810190610375919061315c565b6114bb565b005b34801561038857600080fd5b506103a3600480360381019061039e91906132d9565b611576565b005b3480156103b157600080fd5b506103ba611615565b6040516103c79190612dd1565b60405180910390f35b3480156103dc57600080fd5b506103f760048036038101906103f29190613322565b6116a3565b005b34801561040557600080fd5b5061040e6118ca565b60405161041b9190613384565b60405180910390f35b34801561043057600080fd5b5061044b60048036038101906104469190612e1f565b6118dd565b6040516104589190612af5565b60405180910390f35b34801561046d57600080fd5b50610476611901565b005b34801561048457600080fd5b5061049f600480360381019061049a9190613440565b611afb565b6040516104ad9291906134ed565b60405180910390f35b3480156104c257600080fd5b506104dd60048036038101906104d8919061362a565b611bc2565b005b3480156104eb57600080fd5b506104f4611dee565b005b34801561050257600080fd5b5061050b611f0d565b6040516105189190612dd1565b60405180910390f35b34801561052d57600080fd5b50610536611f9b565b60405161054391906137a1565b60405180910390f35b34801561055857600080fd5b50610561611fbf565b60405161056e919061386b565b60405180910390f35b34801561058357600080fd5b5061058c612017565b6040516105999190612dd1565b60405180910390f35b3480156105ae57600080fd5b506105b76120a5565b6040516105c49190612dd1565b60405180910390f35b3480156105d957600080fd5b506105e2612133565b6040516105ef9190612af5565b60405180910390f35b34801561060457600080fd5b5061061f600480360381019061061a9190612e1f565b612139565b604051610632979695949392919061388d565b60405180910390f35b34801561064757600080fd5b50610662600480360381019061065d9190612e1f565b612320565b005b34801561067057600080fd5b5061068b60048036038101906106869190612aaf565b612426565b005b600260005414156106d3576040517f08c379a00000000000000000000000000000000000000000000000000000000081526004016106ca9061395d565b60405180910390fd5b60026000819055507f000000000000000000000000000000000000000000000000000000000000000073ffffffffffffffffffffffffffffffffffffffff163373ffffffffffffffffffffffffffffffffffffffff161461073357600080fd5b6000600281111561074757610746612bc7565b5b600b60009054906101000a900460ff16600281111561076957610768612bc7565b5b146107a0576040517faeb8874900000000000000000000000000000000000000000000000000000000815260040160405180910390fd5b7f000000000000000000000000000000000000000000000000000000000000000073ffffffffffffffffffffffffffffffffffffffff168173ffffffffffffffffffffffffffffffffffffffff161415610826576040517f1e4a120d00000000000000000000000000000000000000000000000000000000815260040160405180910390fd5b61083b3460095461274290919063ffffffff16565b6009819055506000600d6000348152602001908152602001600020600001541180156108885750600d600034815260200190815260200160002060070160009054906101000a900460ff16155b15610969576000600d6000348152602001908152602001600020600601541115610968576108d66001600d60003481526020019081526020016000206006015461275890919063ffffffff16565b600d600034815260200190815260200160002060060181905550600d6000348152602001908152602001600020600901819080600181540180825580915050600190039060005260206000200160009091909190916101000a81548173ffffffffffffffffffffffffffffffffffffffff021916908373ffffffffffffffffffffffffffffffffffffffff1602179055505b5b6000600d6000348152602001908152602001600020600001541180156109af5750600d600034815260200190815260200160002060070160009054906101000a900460ff165b15610a2c57600d6000348152602001908152602001600020600901819080600181540180825580915050600190039060005260206000200160009091909190916101000a81548173ffffffffffffffffffffffffffffffffffffffff021916908373ffffffffffffffffffffffffffffffffffffffff1602179055505b610a7e34600e60008473ffffffffffffffffffffffffffffffffffffffff1673ffffffffffffffffffffffffffffffffffffffff1681526020019081526020016000205461274290919063ffffffff16565b600e60008373ffffffffffffffffffffffffffffffffffffffff1673ffffffffffffffffffffffffffffffffffffffff168152602001908152602001600020819055508073ffffffffffffffffffffffffffffffffffffffff167fe76ad748537a48e778fef43dda4a6bd1b50cd62385f9f21a9ca267492355120834600954604051610b0b92919061397d565b60405180910390a2600160008190555050565b600e6020528060005260406000206000915090505481565b610b3e61276e565b6040518061018001604052807f000000000000000000000000000000000000000000000000000000000000000073ffffffffffffffffffffffffffffffffffffffff16815260200160018054610b93906139d5565b80601f0160208091040260200160405190810160405280929190818152602001828054610bbf906139d5565b8015610c0c5780601f10610be157610100808354040283529160200191610c0c565b820191906000526020600020905b815481529060010190602001808311610bef57829003601f168201915b5050505050815260200160028054610c23906139d5565b80601f0160208091040260200160405190810160405280929190818152602001828054610c4f906139d5565b8015610c9c5780601f10610c7157610100808354040283529160200191610c9c565b820191906000526020600020905b815481529060010190602001808311610c7f57829003601f168201915b5050505050815260200160038054610cb3906139d5565b80601f0160208091040260200160405190810160405280929190818152602001828054610cdf906139d5565b8015610d2c5780601f10610d0157610100808354040283529160200191610d2c565b820191906000526020600020905b815481529060010190602001808311610d0f57829003601f168201915b5050505050815260200160068054610d43906139d5565b80601f0160208091040260200160405190810160405280929190818152602001828054610d6f906139d5565b8015610dbc5780601f10610d9157610100808354040283529160200191610dbc565b820191906000526020600020905b815481529060010190602001808311610d9f57829003601f168201915b50505050508152602001600754815260200160085481526020016009548152602001600b60009054906101000a900460ff166002811115610e0057610dff612bc7565b5b815260200160048054610e12906139d5565b80601f0160208091040260200160405190810160405280929190818152602001828054610e3e906139d5565b8015610e8b5780601f10610e6057610100808354040283529160200191610e8b565b820191906000526020600020905b815481529060010190602001808311610e6e57829003601f168201915b5050505050815260200160058054610ea2906139d5565b80601f0160208091040260200160405190810160405280929190818152602001828054610ece906139d5565b8015610f1b5780601f10610ef057610100808354040283529160200191610f1b565b820191906000526020600020905b815481529060010190602001808311610efe57829003601f168201915b50505050508152602001600a54815250905090565b60085481565b60058054610f43906139d5565b80601f0160208091040260200160405190810160405280929190818152602001828054610f6f906139d5565b8015610fbc5780601f10610f9157610100808354040283529160200191610fbc565b820191906000526020600020905b815481529060010190602001808311610f9f57829003601f168201915b505050505081565b610fcc6127f7565b600d60008381526020019081526020016000206040518061014001604052908160008201548152602001600182018054611005906139d5565b80601f0160208091040260200160405190810160405280929190818152602001828054611031906139d5565b801561107e5780601f106110535761010080835404028352916020019161107e565b820191906000526020600020905b81548152906001019060200180831161106157829003601f168201915b50505050508152602001600282018054611097906139d5565b80601f01602080910402602001604051908101604052809291908181526020018280546110c3906139d5565b80156111105780601f106110e557610100808354040283529160200191611110565b820191906000526020600020905b8154815290600101906020018083116110f357829003601f168201915b50505050508152602001600382018054611129906139d5565b80601f0160208091040260200160405190810160405280929190818152602001828054611155906139d5565b80156111a25780601f10611177576101008083540402835291602001916111a2565b820191906000526020600020905b81548152906001019060200180831161118557829003601f168201915b5050505050815260200160048201805480602002602001604051908101604052809291908181526020016000905b8282101561127c5783829060005260206000200180546111ef906139d5565b80601f016020809104026020016040519081016040528092919081815260200182805461121b906139d5565b80156112685780601f1061123d57610100808354040283529160200191611268565b820191906000526020600020905b81548152906001019060200180831161124b57829003601f168201915b5050505050815260200190600101906111d0565b50505050815260200160058201548152602001600682015481526020016007820160009054906101000a900460ff1615151515815260200160088201805480602002602001604051908101604052809291908181526020016000905b828210156113845783829060005260206000200180546112f7906139d5565b80601f0160208091040260200160405190810160405280929190818152602001828054611323906139d5565b80156113705780601f1061134557610100808354040283529160200191611370565b820191906000526020600020905b81548152906001019060200180831161135357829003601f168201915b5050505050815260200190600101906112d8565b5050505081526020016009820180548060200260200160405190810160405280929190818152602001828054801561141157602002820191906000526020600020905b8160009054906101000a900473ffffffffffffffffffffffffffffffffffffffff1673ffffffffffffffffffffffffffffffffffffffff16815260200190600101908083116113c7575b5050505050815250509050919050565b60075481565b600a5481565b6003805461143a906139d5565b80601f0160208091040260200160405190810160405280929190818152602001828054611466906139d5565b80156114b35780601f10611488576101008083540402835291602001916114b3565b820191906000526020600020905b81548152906001019060200180831161149657829003601f168201915b505050505081565b60006114d560405180602001604052806000815250611afb565b5090508061150f576040517fbc7a0a6300000000000000000000000000000000000000000000000000000000815260040160405180910390fd5b6001600b60006101000a81548160ff0219169083600281111561153557611534612bc7565b5b02179055507f5cf8cd2bd40f758a95257bed666285eb82801f1bf9223b8ec1481e510ba2e82d306040516115699190613a16565b60405180910390a1505050565b7f000000000000000000000000000000000000000000000000000000000000000073ffffffffffffffffffffffffffffffffffffffff163373ffffffffffffffffffffffffffffffffffffffff16146115fb576040517fb167e90c00000000000000000000000000000000000000000000000000000000815260040160405180910390fd5b806005908051906020019061161192919061284c565b5050565b60028054611622906139d5565b80601f016020809104026020016040519081016040528092919081815260200182805461164e906139d5565b801561169b5780601f106116705761010080835404028352916020019161169b565b820191906000526020600020905b81548152906001019060200180831161167e57829003601f168201915b505050505081565b7f000000000000000000000000000000000000000000000000000000000000000073ffffffffffffffffffffffffffffffffffffffff163373ffffffffffffffffffffffffffffffffffffffff1614611728576040517fb167e90c00000000000000000000000000000000000000000000000000000000815260040160405180910390fd5b6000839050600083905060008173ffffffffffffffffffffffffffffffffffffffff166370a08231876040518263ffffffff1660e01b815260040161176d9190613a16565b60206040518083038186803b15801561178557600080fd5b505afa158015611799573d6000803e3d6000fd5b505050506040513d601f19601f820116820180604052508101906117bd9190613a46565b14156117fe576040517f08c379a00000000000000000000000000000000000000000000000000000000081526004016117f590613abf565b60405180910390fd5b8173ffffffffffffffffffffffffffffffffffffffff16634c7e9be36001856207a1207f0000000000000000000000000000000000000000000000000000000000000000671bc16d674ec800006040518663ffffffff1660e01b815260040161186b959493929190613cbd565b602060405180830381600087803b15801561188557600080fd5b505af1158015611899573d6000803e3d6000fd5b505050506040513d601f19601f820116820180604052508101906118bd9190613a46565b600c819055505050505050565b600b60009054906101000a900460ff1681565b600f81815481106118ed57600080fd5b906000526020600020016000915090505481565b7f000000000000000000000000000000000000000000000000000000000000000073ffffffffffffffffffffffffffffffffffffffff163373ffffffffffffffffffffffffffffffffffffffff1614611986576040517fb167e90c00000000000000000000000000000000000000000000000000000000815260040160405180910390fd5b6001600281111561199a57611999612bc7565b5b600b60009054906101000a900460ff1660028111156119bc576119bb612bc7565b5b146119f3576040517faeb8874900000000000000000000000000000000000000000000000000000000815260040160405180910390fd5b60006009549050600060098190555060007f000000000000000000000000000000000000000000000000000000000000000073ffffffffffffffffffffffffffffffffffffffff1682604051611a4890613d82565b60006040518083038185875af1925050503d8060008114611a85576040519150601f19603f3d011682016040523d82523d6000602084013e611a8a565b606091505b505090508015611af2577fba5e837743d81ad0e6deb16089dbb65b549fdda8ad802fd8d4822884d70dc8b27f000000000000000000000000000000000000000000000000000000000000000030604051611ae5929190613d97565b60405180910390a1611af7565b600080fd5b5050565b600060606000806002811115611b1457611b13612bc7565b5b600b60009054906101000a900460ff166002811115611b3657611b35612bc7565b5b1490506000600854611b717f00000000000000000000000000000000000000000000000000000000000000004261275890919063ffffffff16565b119050808015611b7e5750815b9350836040518060400160405280600381526020017f3078300000000000000000000000000000000000000000000000000000000000815250935093505050915091565b7f000000000000000000000000000000000000000000000000000000000000000073ffffffffffffffffffffffffffffffffffffffff163373ffffffffffffffffffffffffffffffffffffffff1614611c47576040517fb167e90c00000000000000000000000000000000000000000000000000000000815260040160405180910390fd5b6000600d60008b8152602001908152602001600020600001541115611c6b57600080fd5b600f89908060018154018082558091505060019003906000526020600020016000909190919091505560606040518061014001604052808b81526020018a8152602001898152602001888152602001878152602001868152602001858152602001841515815260200183815260200182815250600d60008c8152602001908152602001600020600082015181600001556020820151816001019080519060200190611d1792919061284c565b506040820151816002019080519060200190611d3492919061284c565b506060820151816003019080519060200190611d5192919061284c565b506080820151816004019080519060200190611d6e9291906128d2565b5060a0820151816005015560c0820151816006015560e08201518160070160006101000a81548160ff021916908315150217905550610100820151816008019080519060200190611dc09291906128d2565b50610120820151816009019080519060200190611dde929190612932565b5090505050505050505050505050565b7f000000000000000000000000000000000000000000000000000000000000000073ffffffffffffffffffffffffffffffffffffffff163373ffffffffffffffffffffffffffffffffffffffff1614611e73576040517fb167e90c00000000000000000000000000000000000000000000000000000000815260040160405180910390fd5b60016002811115611e8757611e86612bc7565b5b600b60009054906101000a900460ff166002811115611ea957611ea8612bc7565b5b1415611eb457600080fd5b6002600b60006101000a81548160ff02191690836002811115611eda57611ed9612bc7565b5b02179055507fb83ebe09f40e9293bdea1d6567fae3175119d3d0ff13c4b4df15994837dd7f5160405160405180910390a1565b60018054611f1a906139d5565b80601f0160208091040260200160405190810160405280929190818152602001828054611f46906139d5565b8015611f935780601f10611f6857610100808354040283529160200191611f93565b820191906000526020600020905b815481529060010190602001808311611f7657829003601f168201915b505050505081565b7f000000000000000000000000000000000000000000000000000000000000000081565b6060600f80548060200260200160405190810160405280929190818152602001828054801561200d57602002820191906000526020600020905b815481526020019060010190808311611ff9575b5050505050905090565b60068054612024906139d5565b80601f0160208091040260200160405190810160405280929190818152602001828054612050906139d5565b801561209d5780601f106120725761010080835404028352916020019161209d565b820191906000526020600020905b81548152906001019060200180831161208057829003601f168201915b505050505081565b600480546120b2906139d5565b80601f01602080910402602001604051908101604052809291908181526020018280546120de906139d5565b801561212b5780601f106121005761010080835404028352916020019161212b565b820191906000526020600020905b81548152906001019060200180831161210e57829003601f168201915b505050505081565b60095481565b600d602052806000526040600020600091509050806000015490806001018054612162906139d5565b80601f016020809104026020016040519081016040528092919081815260200182805461218e906139d5565b80156121db5780601f106121b0576101008083540402835291602001916121db565b820191906000526020600020905b8154815290600101906020018083116121be57829003601f168201915b5050505050908060020180546121f0906139d5565b80601f016020809104026020016040519081016040528092919081815260200182805461221c906139d5565b80156122695780601f1061223e57610100808354040283529160200191612269565b820191906000526020600020905b81548152906001019060200180831161224c57829003601f168201915b50505050509080600301805461227e906139d5565b80601f01602080910402602001604051908101604052809291908181526020018280546122aa906139d5565b80156122f75780601f106122cc576101008083540402835291602001916122f7565b820191906000526020600020905b8154815290600101906020018083116122da57829003601f168201915b5050505050908060050154908060060154908060070160009054906101000a900460ff16905087565b7f000000000000000000000000000000000000000000000000000000000000000073ffffffffffffffffffffffffffffffffffffffff163373ffffffffffffffffffffffffffffffffffffffff16146123a5576040517fb167e90c00000000000000000000000000000000000000000000000000000000815260040160405180910390fd5b624f1a006123be8260085461274290919063ffffffff16565b116123dd576123d88160085461274290919063ffffffff16565b6123e2565b624f1a005b60088190555061241d6008547f000000000000000000000000000000000000000000000000000000000000000061274290919063ffffffff16565b600a8190555050565b6002600054141561246c576040517f08c379a00000000000000000000000000000000000000000000000000000000081526004016124639061395d565b60405180910390fd5b60026000819055507f000000000000000000000000000000000000000000000000000000000000000073ffffffffffffffffffffffffffffffffffffffff163373ffffffffffffffffffffffffffffffffffffffff16146124cc57600080fd5b600160028111156124e0576124df612bc7565b5b600b60009054906101000a900460ff16600281111561250257612501612bc7565b5b141561253a576040517faeb8874900000000000000000000000000000000000000000000000000000000815260040160405180910390fd5b6000600e60008373ffffffffffffffffffffffffffffffffffffffff1673ffffffffffffffffffffffffffffffffffffffff1681526020019081526020016000205414156125b4576040517f4cc8b68700000000000000000000000000000000000000000000000000000000815260040160405180910390fd5b6000600e60008373ffffffffffffffffffffffffffffffffffffffff1673ffffffffffffffffffffffffffffffffffffffff168152602001908152602001600020549050806009541015612634576040517f4d83c95000000000000000000000000000000000000000000000000000000000815260040160405180910390fd5b6126498160095461275890919063ffffffff16565b60098190555060008273ffffffffffffffffffffffffffffffffffffffff168260405161267590613d82565b60006040518083038185875af1925050503d80600081146126b2576040519150601f19603f3d011682016040523d82523d6000602084013e6126b7565b606091505b50509050806126f2576040517f0520edd000000000000000000000000000000000000000000000000000000000815260040160405180910390fd5b600e60008473ffffffffffffffffffffffffffffffffffffffff1673ffffffffffffffffffffffffffffffffffffffff168152602001908152602001600020600090555050600160008190555050565b600081836127509190613def565b905092915050565b600081836127669190613e45565b905092915050565b604051806101800160405280600073ffffffffffffffffffffffffffffffffffffffff16815260200160608152602001606081526020016060815260200160608152602001600081526020016000815260200160008152602001600060028111156127dc576127db612bc7565b5b81526020016060815260200160608152602001600081525090565b6040518061014001604052806000815260200160608152602001606081526020016060815260200160608152602001600081526020016000815260200160001515815260200160608152602001606081525090565b828054612858906139d5565b90600052602060002090601f01602090048101928261287a57600085556128c1565b82601f1061289357805160ff19168380011785556128c1565b828001600101855582156128c1579182015b828111156128c05782518255916020019190600101906128a5565b5b5090506128ce91906129bc565b5090565b828054828255906000526020600020908101928215612921579160200282015b8281111561292057825182908051906020019061291092919061284c565b50916020019190600101906128f2565b5b50905061292e91906129d9565b5090565b8280548282559060005260206000209081019282156129ab579160200282015b828111156129aa5782518260006101000a81548173ffffffffffffffffffffffffffffffffffffffff021916908373ffffffffffffffffffffffffffffffffffffffff16021790555091602001919060010190612952565b5b5090506129b891906129bc565b5090565b5b808211156129d55760008160009055506001016129bd565b5090565b5b808211156129f957600081816129f091906129fd565b506001016129da565b5090565b508054612a09906139d5565b6000825580601f10612a1b5750612a3a565b601f016020900490600052602060002090810190612a3991906129bc565b5b50565b6000604051905090565b600080fd5b600080fd5b600073ffffffffffffffffffffffffffffffffffffffff82169050919050565b6000612a7c82612a51565b9050919050565b612a8c81612a71565b8114612a9757600080fd5b50565b600081359050612aa981612a83565b92915050565b600060208284031215612ac557612ac4612a47565b5b6000612ad384828501612a9a565b91505092915050565b6000819050919050565b612aef81612adc565b82525050565b6000602082019050612b0a6000830184612ae6565b92915050565b612b1981612a71565b82525050565b600081519050919050565b600082825260208201905092915050565b60005b83811015612b59578082015181840152602081019050612b3e565b83811115612b68576000848401525b50505050565b6000601f19601f8301169050919050565b6000612b8a82612b1f565b612b948185612b2a565b9350612ba4818560208601612b3b565b612bad81612b6e565b840191505092915050565b612bc181612adc565b82525050565b7f4e487b7100000000000000000000000000000000000000000000000000000000600052602160045260246000fd5b60038110612c0757612c06612bc7565b5b50565b6000819050612c1882612bf6565b919050565b6000612c2882612c0a565b9050919050565b612c3881612c1d565b82525050565b600061018083016000830151612c576000860182612b10565b5060208301518482036020860152612c6f8282612b7f565b91505060408301518482036040860152612c898282612b7f565b91505060608301518482036060860152612ca38282612b7f565b91505060808301518482036080860152612cbd8282612b7f565b91505060a0830151612cd260a0860182612bb8565b5060c0830151612ce560c0860182612bb8565b5060e0830151612cf860e0860182612bb8565b50610100830151612d0d610100860182612c2f565b50610120830151848203610120860152612d278282612b7f565b915050610140830151848203610140860152612d438282612b7f565b915050610160830151612d5a610160860182612bb8565b508091505092915050565b60006020820190508181036000830152612d7f8184612c3e565b905092915050565b600082825260208201905092915050565b6000612da382612b1f565b612dad8185612d87565b9350612dbd818560208601612b3b565b612dc681612b6e565b840191505092915050565b60006020820190508181036000830152612deb8184612d98565b905092915050565b612dfc81612adc565b8114612e0757600080fd5b50565b600081359050612e1981612df3565b92915050565b600060208284031215612e3557612e34612a47565b5b6000612e4384828501612e0a565b91505092915050565b600081519050919050565b600082825260208201905092915050565b6000819050602082019050919050565b6000612e848383612b7f565b905092915050565b6000602082019050919050565b6000612ea482612e4c565b612eae8185612e57565b935083602082028501612ec085612e68565b8060005b85811015612efc5784840389528151612edd8582612e78565b9450612ee883612e8c565b925060208a01995050600181019050612ec4565b50829750879550505050505092915050565b60008115159050919050565b612f2381612f0e565b82525050565b600081519050919050565b600082825260208201905092915050565b6000819050602082019050919050565b6000612f618383612b10565b60208301905092915050565b6000602082019050919050565b6000612f8582612f29565b612f8f8185612f34565b9350612f9a83612f45565b8060005b83811015612fcb578151612fb28882612f55565b9750612fbd83612f6d565b925050600181019050612f9e565b5085935050505092915050565b600061014083016000830151612ff16000860182612bb8565b50602083015184820360208601526130098282612b7f565b915050604083015184820360408601526130238282612b7f565b9150506060830151848203606086015261303d8282612b7f565b915050608083015184820360808601526130578282612e99565b91505060a083015161306c60a0860182612bb8565b5060c083015161307f60c0860182612bb8565b5060e083015161309260e0860182612f1a565b506101008301518482036101008601526130ac8282612e99565b9150506101208301518482036101208601526130c88282612f7a565b9150508091505092915050565b600060208201905081810360008301526130ef8184612fd8565b905092915050565b600080fd5b600080fd5b600080fd5b60008083601f84011261311c5761311b6130f7565b5b8235905067ffffffffffffffff811115613139576131386130fc565b5b60208301915083600182028301111561315557613154613101565b5b9250929050565b6000806020838503121561317357613172612a47565b5b600083013567ffffffffffffffff81111561319157613190612a4c565b5b61319d85828601613106565b92509250509250929050565b600080fd5b7f4e487b7100000000000000000000000000000000000000000000000000000000600052604160045260246000fd5b6131e682612b6e565b810181811067ffffffffffffffff82111715613205576132046131ae565b5b80604052505050565b6000613218612a3d565b905061322482826131dd565b919050565b600067ffffffffffffffff821115613244576132436131ae565b5b61324d82612b6e565b9050602081019050919050565b82818337600083830152505050565b600061327c61327784613229565b61320e565b905082815260208101848484011115613298576132976131a9565b5b6132a384828561325a565b509392505050565b600082601f8301126132c0576132bf6130f7565b5b81356132d0848260208601613269565b91505092915050565b6000602082840312156132ef576132ee612a47565b5b600082013567ffffffffffffffff81111561330d5761330c612a4c565b5b613319848285016132ab565b91505092915050565b60008060006060848603121561333b5761333a612a47565b5b600061334986828701612a9a565b935050602061335a86828701612a9a565b925050604061336b86828701612a9a565b9150509250925092565b61337e81612c1d565b82525050565b60006020820190506133996000830184613375565b92915050565b600067ffffffffffffffff8211156133ba576133b96131ae565b5b6133c382612b6e565b9050602081019050919050565b60006133e36133de8461339f565b61320e565b9050828152602081018484840111156133ff576133fe6131a9565b5b61340a84828561325a565b509392505050565b600082601f830112613427576134266130f7565b5b81356134378482602086016133d0565b91505092915050565b60006020828403121561345657613455612a47565b5b600082013567ffffffffffffffff81111561347457613473612a4c565b5b61348084828501613412565b91505092915050565b61349281612f0e565b82525050565b600081519050919050565b600082825260208201905092915050565b60006134bf82613498565b6134c981856134a3565b93506134d9818560208601612b3b565b6134e281612b6e565b840191505092915050565b60006040820190506135026000830185613489565b818103602083015261351481846134b4565b90509392505050565b600067ffffffffffffffff821115613538576135376131ae565b5b602082029050602081019050919050565b600061355c6135578461351d565b61320e565b9050808382526020820190506020840283018581111561357f5761357e613101565b5b835b818110156135c657803567ffffffffffffffff8111156135a4576135a36130f7565b5b8086016135b189826132ab565b85526020850194505050602081019050613581565b5050509392505050565b600082601f8301126135e5576135e46130f7565b5b81356135f5848260208601613549565b91505092915050565b61360781612f0e565b811461361257600080fd5b50565b600081359050613624816135fe565b92915050565b60008060008060008060008060006101208a8c03121561364d5761364c612a47565b5b600061365b8c828d01612e0a565b99505060208a013567ffffffffffffffff81111561367c5761367b612a4c565b5b6136888c828d016132ab565b98505060408a013567ffffffffffffffff8111156136a9576136a8612a4c565b5b6136b58c828d016132ab565b97505060608a013567ffffffffffffffff8111156136d6576136d5612a4c565b5b6136e28c828d016132ab565b96505060808a013567ffffffffffffffff81111561370357613702612a4c565b5b61370f8c828d016135d0565b95505060a06137208c828d01612e0a565b94505060c06137318c828d01612e0a565b93505060e06137428c828d01613615565b9250506101008a013567ffffffffffffffff81111561376457613763612a4c565b5b6137708c828d016135d0565b9150509295985092959850929598565b600061378b82612a51565b9050919050565b61379b81613780565b82525050565b60006020820190506137b66000830184613792565b92915050565b600081519050919050565b600082825260208201905092915050565b6000819050602082019050919050565b60006137f48383612bb8565b60208301905092915050565b6000602082019050919050565b6000613818826137bc565b61382281856137c7565b935061382d836137d8565b8060005b8381101561385e57815161384588826137e8565b975061385083613800565b925050600181019050613831565b5085935050505092915050565b60006020820190508181036000830152613885818461380d565b905092915050565b600060e0820190506138a2600083018a612ae6565b81810360208301526138b48189612d98565b905081810360408301526138c88188612d98565b905081810360608301526138dc8187612d98565b90506138eb6080830186612ae6565b6138f860a0830185612ae6565b61390560c0830184613489565b98975050505050505050565b7f5265656e7472616e637947756172643a207265656e7472616e742063616c6c00600082015250565b6000613947601f83612d87565b915061395282613911565b602082019050919050565b600060208201905081810360008301526139768161393a565b9050919050565b60006040820190506139926000830185612ae6565b61399f6020830184612ae6565b9392505050565b7f4e487b7100000000000000000000000000000000000000000000000000000000600052602260045260246000fd5b600060028204905060018216806139ed57607f821691505b60208210811415613a0157613a006139a6565b5b50919050565b613a1081612a71565b82525050565b6000602082019050613a2b6000830184613a07565b92915050565b600081519050613a4081612df3565b92915050565b600060208284031215613a5c57613a5b612a47565b5b6000613a6a84828501613a31565b91505092915050565b7f6e6f2066756e6473000000000000000000000000000000000000000000000000600082015250565b6000613aa9600883612d87565b9150613ab482613a73565b602082019050919050565b60006020820190508181036000830152613ad881613a9c565b9050919050565b60008190508160005260206000209050919050565b60008154613b01816139d5565b613b0b8186612d87565b94506001821660008114613b265760018114613b3857613b6b565b60ff1983168652602086019350613b6b565b613b4185613adf565b60005b83811015613b6357815481890152600182019150602081019050613b44565b808801955050505b50505092915050565b7f3078000000000000000000000000000000000000000000000000000000000000600082015250565b6000613baa6002836134a3565b9150613bb582613b74565b602082019050919050565b6000819050919050565b600063ffffffff82169050919050565b6000819050919050565b6000613bff613bfa613bf584613bc0565b613bda565b613bca565b9050919050565b613c0f81613be4565b82525050565b6000613c30613c2b613c2684612a51565b613bda565b612a51565b9050919050565b6000613c4282613c15565b9050919050565b6000613c5482613c37565b9050919050565b613c6481613c49565b82525050565b6000819050919050565b60006bffffffffffffffffffffffff82169050919050565b6000613ca7613ca2613c9d84613c6a565b613bda565b613c74565b9050919050565b613cb781613c8c565b82525050565b6000610100820190508181036000830152613cd88188613af4565b90508181036020830152613ceb81613b9d565b9050613cfa6040830187613a07565b613d076060830186613c06565b613d146080830185613c5b565b81810360a0830152613d2581613b9d565b905081810360c0830152613d3881613b9d565b9050613d4760e0830184613cae565b9695505050505050565b600081905092915050565b50565b6000613d6c600083613d51565b9150613d7782613d5c565b600082019050919050565b6000613d8d82613d5f565b9150819050919050565b6000604082019050613dac6000830185613c5b565b613db96020830184613a07565b9392505050565b7f4e487b7100000000000000000000000000000000000000000000000000000000600052601160045260246000fd5b6000613dfa82612adc565b9150613e0583612adc565b9250827fffffffffffffffffffffffffffffffffffffffffffffffffffffffffffffffff03821115613e3a57613e39613dc0565b5b828201905092915050565b6000613e5082612adc565b9150613e5b83612adc565b925082821015613e6e57613e6d613dc0565b5b82820390509291505056fea264697066735822122019740c2ce163497aab1459f6c2fe89c9b49d79248320245147c81eb1aa87d01964736f6c63430008080033",
  "devdoc": {
    "kind": "dev",
    "methods": {
      "checkUpkeep(bytes)": {
        "details": "this is the function chainlink keepers calls chekupkeep returns true to trigger the action after the interval has passed"
      }
    },
    "version": 1
  },
  "userdoc": {
    "errors": {
      "Cmp_NoDns()": [
        {
          "notice": "donator is creator "
        }
      ],
      "Cmp_NotCrtr()": [
        {
          "notice": "not in state "
        }
      ]
    },
    "kind": "user",
    "methods": {},
    "version": 1
  },
  "storageLayout": {
    "storage": [
      {
        "astId": 371,
        "contract": "contracts/Campaign.sol:Campaign",
        "label": "_status",
        "offset": 0,
        "slot": "0",
        "type": "t_uint256"
      },
      {
        "astId": 756,
        "contract": "contracts/Campaign.sol:Campaign",
        "label": "s_title",
        "offset": 0,
        "slot": "1",
        "type": "t_string_storage"
      },
      {
        "astId": 758,
        "contract": "contracts/Campaign.sol:Campaign",
        "label": "s_description",
        "offset": 0,
        "slot": "2",
        "type": "t_string_storage"
      },
      {
        "astId": 760,
        "contract": "contracts/Campaign.sol:Campaign",
        "label": "s_category",
        "offset": 0,
        "slot": "3",
        "type": "t_string_storage"
      },
      {
        "astId": 762,
        "contract": "contracts/Campaign.sol:Campaign",
        "label": "s_imageURI",
        "offset": 0,
        "slot": "4",
        "type": "t_string_storage"
      },
      {
        "astId": 764,
        "contract": "contracts/Campaign.sol:Campaign",
        "label": "s_campaignURI",
        "offset": 0,
        "slot": "5",
        "type": "t_string_storage"
      },
      {
        "astId": 766,
        "contract": "contracts/Campaign.sol:Campaign",
        "label": "s_tags",
        "offset": 0,
        "slot": "6",
        "type": "t_string_storage"
      },
      {
        "astId": 768,
        "contract": "contracts/Campaign.sol:Campaign",
        "label": "goalAmount",
        "offset": 0,
        "slot": "7",
        "type": "t_uint256"
      },
      {
        "astId": 770,
        "contract": "contracts/Campaign.sol:Campaign",
        "label": "duration",
        "offset": 0,
        "slot": "8",
        "type": "t_uint256"
      },
      {
        "astId": 772,
        "contract": "contracts/Campaign.sol:Campaign",
        "label": "currentBalance",
        "offset": 0,
        "slot": "9",
        "type": "t_uint256"
      },
      {
        "astId": 779,
        "contract": "contracts/Campaign.sol:Campaign",
        "label": "deadline",
        "offset": 0,
        "slot": "10",
        "type": "t_uint256"
      },
      {
        "astId": 784,
        "contract": "contracts/Campaign.sol:Campaign",
        "label": "c_state",
        "offset": 0,
        "slot": "11",
        "type": "t_enum(C_State)750"
      },
      {
        "astId": 786,
        "contract": "contracts/Campaign.sol:Campaign",
        "label": "rId",
        "offset": 0,
        "slot": "12",
        "type": "t_uint256"
      },
      {
        "astId": 841,
        "contract": "contracts/Campaign.sol:Campaign",
        "label": "rewards",
        "offset": 0,
        "slot": "13",
        "type": "t_mapping(t_uint256,t_struct(reward)836_storage)"
      },
      {
        "astId": 845,
        "contract": "contracts/Campaign.sol:Campaign",
        "label": "aggrDonations",
        "offset": 0,
        "slot": "14",
        "type": "t_mapping(t_address,t_uint256)"
      },
      {
        "astId": 848,
        "contract": "contracts/Campaign.sol:Campaign",
        "label": "rKeys",
        "offset": 0,
        "slot": "15",
        "type": "t_array(t_uint256)dyn_storage"
      }
    ],
    "types": {
      "t_address": {
        "encoding": "inplace",
        "label": "address",
        "numberOfBytes": "20"
      },
      "t_array(t_address)dyn_storage": {
        "base": "t_address",
        "encoding": "dynamic_array",
        "label": "address[]",
        "numberOfBytes": "32"
      },
      "t_array(t_string_storage)dyn_storage": {
        "base": "t_string_storage",
        "encoding": "dynamic_array",
        "label": "string[]",
        "numberOfBytes": "32"
      },
      "t_array(t_uint256)dyn_storage": {
        "base": "t_uint256",
        "encoding": "dynamic_array",
        "label": "uint256[]",
        "numberOfBytes": "32"
      },
      "t_bool": {
        "encoding": "inplace",
        "label": "bool",
        "numberOfBytes": "1"
      },
      "t_enum(C_State)750": {
        "encoding": "inplace",
        "label": "enum Campaign.C_State",
        "numberOfBytes": "1"
      },
      "t_mapping(t_address,t_uint256)": {
        "encoding": "mapping",
        "key": "t_address",
        "label": "mapping(address => uint256)",
        "numberOfBytes": "32",
        "value": "t_uint256"
      },
      "t_mapping(t_uint256,t_struct(reward)836_storage)": {
        "encoding": "mapping",
        "key": "t_uint256",
        "label": "mapping(uint256 => struct Campaign.reward)",
        "numberOfBytes": "32",
        "value": "t_struct(reward)836_storage"
      },
      "t_string_storage": {
        "encoding": "bytes",
        "label": "string",
        "numberOfBytes": "32"
      },
      "t_struct(reward)836_storage": {
        "encoding": "inplace",
        "label": "struct Campaign.reward",
        "members": [
          {
            "astId": 814,
            "contract": "contracts/Campaign.sol:Campaign",
            "label": "price",
            "offset": 0,
            "slot": "0",
            "type": "t_uint256"
          },
          {
            "astId": 816,
            "contract": "contracts/Campaign.sol:Campaign",
            "label": "title",
            "offset": 0,
            "slot": "1",
            "type": "t_string_storage"
          },
          {
            "astId": 818,
            "contract": "contracts/Campaign.sol:Campaign",
            "label": "description",
            "offset": 0,
            "slot": "2",
            "type": "t_string_storage"
          },
          {
            "astId": 820,
            "contract": "contracts/Campaign.sol:Campaign",
            "label": "rpic",
            "offset": 0,
            "slot": "3",
            "type": "t_string_storage"
          },
          {
            "astId": 823,
            "contract": "contracts/Campaign.sol:Campaign",
            "label": "perks",
            "offset": 0,
            "slot": "4",
            "type": "t_array(t_string_storage)dyn_storage"
          },
          {
            "astId": 825,
            "contract": "contracts/Campaign.sol:Campaign",
            "label": "delDate",
            "offset": 0,
            "slot": "5",
            "type": "t_uint256"
          },
          {
            "astId": 827,
            "contract": "contracts/Campaign.sol:Campaign",
            "label": "quantity",
            "offset": 0,
            "slot": "6",
            "type": "t_uint256"
          },
          {
            "astId": 829,
            "contract": "contracts/Campaign.sol:Campaign",
            "label": "infinite",
            "offset": 0,
            "slot": "7",
            "type": "t_bool"
          },
          {
            "astId": 832,
            "contract": "contracts/Campaign.sol:Campaign",
            "label": "shipsTo",
            "offset": 0,
            "slot": "8",
            "type": "t_array(t_string_storage)dyn_storage"
          },
          {
            "astId": 835,
            "contract": "contracts/Campaign.sol:Campaign",
            "label": "donators",
            "offset": 0,
            "slot": "9",
            "type": "t_array(t_address)dyn_storage"
          }
        ],
        "numberOfBytes": "320"
      },
      "t_uint256": {
        "encoding": "inplace",
        "label": "uint256",
        "numberOfBytes": "32"
      }
    }
  }
}