{
  "address": "0xe7f1725E7734CE288F8367e1Bb143E90bb3F0512",
  "abi": [
    {
      "inputs": [
        {
          "internalType": "address",
          "name": "_creator",
          "type": "address"
        },
        {
          "internalType": "string",
          "name": "_title",
          "type": "string"
        },
        {
          "internalType": "string",
          "name": "_description",
          "type": "string"
        },
        {
          "internalType": "string",
          "name": "_category",
          "type": "string"
        },
        {
          "internalType": "string",
          "name": "_tags",
          "type": "string"
        },
        {
          "internalType": "uint256",
          "name": "_goalAmount",
          "type": "uint256"
        },
        {
          "internalType": "uint256",
          "name": "_duration",
          "type": "uint256"
        },
        {
          "internalType": "string",
          "name": "_imageURI",
          "type": "string"
        }
      ],
      "stateMutability": "nonpayable",
      "type": "constructor"
    },
    {
      "inputs": [],
      "name": "Cmp_Bankrupt",
      "type": "error"
    },
    {
      "inputs": [],
      "name": "Cmp_DIC",
      "type": "error"
    },
    {
      "inputs": [],
      "name": "Cmp_NIS",
      "type": "error"
    },
    {
      "inputs": [],
      "name": "Cmp_NoDns",
      "type": "error"
    },
    {
      "inputs": [],
      "name": "Cmp_NotCrtr",
      "type": "error"
    },
    {
      "inputs": [],
      "name": "Cmp_RefF",
      "type": "error"
    },
    {
      "inputs": [],
      "name": "Cmp_UpkNN",
      "type": "error"
    },
    {
      "anonymous": false,
      "inputs": [],
      "name": "CampaignCanceled",
      "type": "event"
    },
    {
      "anonymous": false,
      "inputs": [
        {
          "indexed": false,
          "internalType": "address",
          "name": "campaignAddress",
          "type": "address"
        }
      ],
      "name": "CampaignExpired",
      "type": "event"
    },
    {
      "anonymous": false,
      "inputs": [
        {
          "indexed": false,
          "internalType": "address",
          "name": "campaignAddress",
          "type": "address"
        }
      ],
      "name": "CampaignSuccessful",
      "type": "event"
    },
    {
      "anonymous": false,
      "inputs": [
        {
          "indexed": false,
          "internalType": "address",
          "name": "creator",
          "type": "address"
        },
        {
          "indexed": false,
          "internalType": "address",
          "name": "campaignAddress",
          "type": "address"
        }
      ],
      "name": "CreatorPaid",
      "type": "event"
    },
    {
      "anonymous": false,
      "inputs": [
        {
          "indexed": true,
          "internalType": "address",
          "name": "contributor",
          "type": "address"
        },
        {
          "indexed": false,
          "internalType": "uint256",
          "name": "amount",
          "type": "uint256"
        },
        {
          "indexed": false,
          "internalType": "uint256",
          "name": "currentBalance",
          "type": "uint256"
        }
      ],
      "name": "FundingRecieved",
      "type": "event"
    },
    {
      "stateMutability": "payable",
      "type": "fallback"
    },
    {
      "inputs": [
        {
          "internalType": "address",
          "name": "",
          "type": "address"
        }
      ],
      "name": "aggrDonations",
      "outputs": [
        {
          "internalType": "uint256",
          "name": "",
          "type": "uint256"
        }
      ],
      "stateMutability": "view",
      "type": "function"
    },
    {
      "inputs": [],
      "name": "c_mode",
      "outputs": [
        {
          "internalType": "enum Campaign.C_Mode",
          "name": "",
          "type": "uint8"
        }
      ],
      "stateMutability": "view",
      "type": "function"
    },
    {
      "inputs": [],
      "name": "c_state",
      "outputs": [
        {
          "internalType": "enum Campaign.C_State",
          "name": "",
          "type": "uint8"
        }
      ],
      "stateMutability": "view",
      "type": "function"
    },
    {
      "inputs": [
        {
          "internalType": "bytes",
          "name": "",
          "type": "bytes"
        }
      ],
      "name": "checkUpkeep",
      "outputs": [
        {
          "internalType": "bool",
          "name": "upkeepNeeded",
          "type": "bool"
        },
        {
          "internalType": "bytes",
          "name": "",
          "type": "bytes"
        }
      ],
      "stateMutability": "view",
      "type": "function"
    },
    {
      "inputs": [],
      "name": "currentBalance",
      "outputs": [
        {
          "internalType": "uint256",
          "name": "",
          "type": "uint256"
        }
      ],
      "stateMutability": "view",
      "type": "function"
    },
    {
      "inputs": [],
      "name": "deadline",
      "outputs": [
        {
          "internalType": "uint256",
          "name": "",
          "type": "uint256"
        }
      ],
      "stateMutability": "view",
      "type": "function"
    },
    {
      "inputs": [
        {
          "internalType": "uint256",
          "name": "_priceID",
          "type": "uint256"
        }
      ],
      "name": "deleteReward",
      "outputs": [],
      "stateMutability": "nonpayable",
      "type": "function"
    },
    {
      "inputs": [],
      "name": "donate",
      "outputs": [],
      "stateMutability": "payable",
      "type": "function"
    },
    {
      "inputs": [
        {
          "internalType": "address",
          "name": "",
          "type": "address"
        },
        {
          "internalType": "uint256",
          "name": "",
          "type": "uint256"
        }
      ],
      "name": "donations",
      "outputs": [
        {
          "internalType": "uint256",
          "name": "",
          "type": "uint256"
        }
      ],
      "stateMutability": "view",
      "type": "function"
    },
    {
      "inputs": [],
      "name": "duration",
      "outputs": [
        {
          "internalType": "uint256",
          "name": "",
          "type": "uint256"
        }
      ],
      "stateMutability": "view",
      "type": "function"
    },
    {
      "inputs": [],
      "name": "endCampaign",
      "outputs": [],
      "stateMutability": "nonpayable",
      "type": "function"
    },
    {
      "inputs": [],
      "name": "getCampaignDetails",
      "outputs": [
        {
          "components": [
            {
              "internalType": "address",
              "name": "i_creator",
              "type": "address"
            },
            {
              "internalType": "string",
              "name": "s_title",
              "type": "string"
            },
            {
              "internalType": "string",
              "name": "s_description",
              "type": "string"
            },
            {
              "internalType": "string",
              "name": "s_category",
              "type": "string"
            },
            {
              "internalType": "string",
              "name": "s_tags",
              "type": "string"
            },
            {
              "internalType": "uint256",
              "name": "goalAmount",
              "type": "uint256"
            },
            {
              "internalType": "uint256",
              "name": "duration",
              "type": "uint256"
            },
            {
              "internalType": "uint256",
              "name": "currentBalance",
              "type": "uint256"
            },
            {
              "internalType": "enum Campaign.C_State",
              "name": "currentC_State",
              "type": "uint8"
            },
            {
              "internalType": "string",
              "name": "s_imageURI",
              "type": "string"
            },
            {
              "internalType": "string",
              "name": "s_campaignURI",
              "type": "string"
            },
            {
              "internalType": "uint256",
              "name": "deadline",
              "type": "uint256"
            }
          ],
          "internalType": "struct Campaign.CampaignObject",
          "name": "",
          "type": "tuple"
        }
      ],
      "stateMutability": "view",
      "type": "function"
    },
    {
      "inputs": [
        {
          "internalType": "address",
          "name": "_donator",
          "type": "address"
        }
      ],
      "name": "getDonations",
      "outputs": [
        {
          "internalType": "uint256[]",
          "name": "",
          "type": "uint256[]"
        }
      ],
      "stateMutability": "view",
      "type": "function"
    },
    {
      "inputs": [
        {
          "internalType": "uint256",
          "name": "_priceID",
          "type": "uint256"
        }
      ],
      "name": "getReward",
      "outputs": [
        {
          "components": [
            {
              "internalType": "uint256",
              "name": "price",
              "type": "uint256"
            },
            {
              "internalType": "string",
              "name": "title",
              "type": "string"
            },
            {
              "internalType": "string",
              "name": "description",
              "type": "string"
            },
            {
              "internalType": "string[]",
              "name": "perks",
              "type": "string[]"
            },
            {
              "internalType": "uint256",
              "name": "delDate",
              "type": "uint256"
            },
            {
              "internalType": "uint256",
              "name": "quantity",
              "type": "uint256"
            },
            {
              "internalType": "bool",
              "name": "infinite",
              "type": "bool"
            },
            {
              "internalType": "string[]",
              "name": "shipsTo",
              "type": "string[]"
            }
          ],
          "internalType": "struct Campaign.reward",
          "name": "",
          "type": "tuple"
        }
      ],
      "stateMutability": "view",
      "type": "function"
    },
    {
      "inputs": [],
      "name": "getRewardKeys",
      "outputs": [
        {
          "internalType": "uint256[]",
          "name": "",
          "type": "uint256[]"
        }
      ],
      "stateMutability": "view",
      "type": "function"
    },
    {
      "inputs": [],
      "name": "goalAmount",
      "outputs": [
        {
          "internalType": "uint256",
          "name": "",
          "type": "uint256"
        }
      ],
      "stateMutability": "view",
      "type": "function"
    },
    {
      "inputs": [],
      "name": "i_creator",
      "outputs": [
        {
          "internalType": "address payable",
          "name": "",
          "type": "address"
        }
      ],
      "stateMutability": "view",
      "type": "function"
    },
    {
      "inputs": [
        {
          "internalType": "uint256",
          "name": "_price",
          "type": "uint256"
        },
        {
          "internalType": "string",
          "name": "_title",
          "type": "string"
        },
        {
          "internalType": "string",
          "name": "_description",
          "type": "string"
        },
        {
          "internalType": "string[]",
          "name": "_perks",
          "type": "string[]"
        },
        {
          "internalType": "uint256",
          "name": "_deadline",
          "type": "uint256"
        },
        {
          "internalType": "uint256",
          "name": "_quantity",
          "type": "uint256"
        },
        {
          "internalType": "bool",
          "name": "_infinite",
          "type": "bool"
        },
        {
          "internalType": "string[]",
          "name": "_shipsTo",
          "type": "string[]"
        }
      ],
      "name": "makeReward",
      "outputs": [],
      "stateMutability": "nonpayable",
      "type": "function"
    },
    {
      "inputs": [],
      "name": "payout",
      "outputs": [],
      "stateMutability": "nonpayable",
      "type": "function"
    },
    {
      "inputs": [
        {
          "internalType": "bytes",
          "name": "",
          "type": "bytes"
        }
      ],
      "name": "performUpkeep",
      "outputs": [],
      "stateMutability": "nonpayable",
      "type": "function"
    },
    {
      "inputs": [
        {
          "internalType": "uint256",
          "name": "",
          "type": "uint256"
        }
      ],
      "name": "rKeys",
      "outputs": [
        {
          "internalType": "uint256",
          "name": "",
          "type": "uint256"
        }
      ],
      "stateMutability": "view",
      "type": "function"
    },
    {
      "inputs": [
        {
          "internalType": "address",
          "name": "_donator",
          "type": "address"
        }
      ],
      "name": "refund",
      "outputs": [],
      "stateMutability": "nonpayable",
      "type": "function"
    },
    {
      "inputs": [
        {
          "internalType": "uint256",
          "name": "",
          "type": "uint256"
        }
      ],
      "name": "rewards",
      "outputs": [
        {
          "internalType": "uint256",
          "name": "price",
          "type": "uint256"
        },
        {
          "internalType": "string",
          "name": "title",
          "type": "string"
        },
        {
          "internalType": "string",
          "name": "description",
          "type": "string"
        },
        {
          "internalType": "uint256",
          "name": "delDate",
          "type": "uint256"
        },
        {
          "internalType": "uint256",
          "name": "quantity",
          "type": "uint256"
        },
        {
          "internalType": "bool",
          "name": "infinite",
          "type": "bool"
        }
      ],
      "stateMutability": "view",
      "type": "function"
    },
    {
      "inputs": [],
      "name": "s_campaignURI",
      "outputs": [
        {
          "internalType": "string",
          "name": "",
          "type": "string"
        }
      ],
      "stateMutability": "view",
      "type": "function"
    },
    {
      "inputs": [],
      "name": "s_category",
      "outputs": [
        {
          "internalType": "string",
          "name": "",
          "type": "string"
        }
      ],
      "stateMutability": "view",
      "type": "function"
    },
    {
      "inputs": [],
      "name": "s_description",
      "outputs": [
        {
          "internalType": "string",
          "name": "",
          "type": "string"
        }
      ],
      "stateMutability": "view",
      "type": "function"
    },
    {
      "inputs": [],
      "name": "s_imageURI",
      "outputs": [
        {
          "internalType": "string",
          "name": "",
          "type": "string"
        }
      ],
      "stateMutability": "view",
      "type": "function"
    },
    {
      "inputs": [],
      "name": "s_tags",
      "outputs": [
        {
          "internalType": "string",
          "name": "",
          "type": "string"
        }
      ],
      "stateMutability": "view",
      "type": "function"
    },
    {
      "inputs": [],
      "name": "s_title",
      "outputs": [
        {
          "internalType": "string",
          "name": "",
          "type": "string"
        }
      ],
      "stateMutability": "view",
      "type": "function"
    },
    {
      "inputs": [
        {
          "internalType": "address",
          "name": "_upkeepCreatorAddress",
          "type": "address"
        },
        {
          "internalType": "address",
          "name": "_linkTokenAddress",
          "type": "address"
        },
        {
          "internalType": "address",
          "name": "_campaignAddress",
          "type": "address"
        }
      ],
      "name": "timeBox",
      "outputs": [],
      "stateMutability": "nonpayable",
      "type": "function"
    },
    {
      "inputs": [
        {
          "internalType": "string",
          "name": "_campaignURI",
          "type": "string"
        }
      ],
      "name": "updateCampaignURI",
      "outputs": [],
      "stateMutability": "nonpayable",
      "type": "function"
    },
    {
      "inputs": [
        {
          "internalType": "uint256",
          "name": "_addedDur",
          "type": "uint256"
        }
      ],
      "name": "updateDur",
      "outputs": [],
      "stateMutability": "nonpayable",
      "type": "function"
    },
    {
      "stateMutability": "payable",
      "type": "receive"
    }
  ],
  "transactionHash": "0x3b7e37c435eedb2229171d949da207c0ec10601d7a5b640d8c9dfaab402035fe",
  "args": [
    "0xf39Fd6e51aad88F6F4ce6aB8827279cffFb92266",
    "Piratopia: Raiders of Pirate Bay",
    "A P2E masterpiece on the AVAX chain",
    "P2E",
    "arcade games/adventure games/web3 gaming",
    "6750000000000000000",
    "1296000",
    "ipfs://QmV9inF2YC5MFUHWwWaCBEVJzj9aGSKmpay7mPSJDjBC4w"
  ],
  "numDeployments": 1,
  "solcInputHash": "03eb8da531791ea82ebfcc0a03af6309",
  "bytecode": "0x60c06040526000600b60006101000a81548160ff021916908360018111156200002d576200002c6200027d565b5b02179055506000600b60016101000a81548160ff021916908360028111156200005b576200005a6200027d565b5b02179055503480156200006d57600080fd5b5060405162004625380380620046258339818101604052810190620000939190620004e9565b60016000819055508773ffffffffffffffffffffffffffffffffffffffff1660808173ffffffffffffffffffffffffffffffffffffffff1660601b815250508660019080519060200190620000ea929190620001cd565b50856002908051906020019062000103929190620001cd565b5084600390805190602001906200011c929190620001cd565b50836006908051906020019062000135929190620001cd565b50826007819055504260a08181525050624f1a0082116200015757816200015c565b624f1a005b6008819055506200018060085460a051620001b560201b620027d51790919060201c565b600a8190555080600490805190602001906200019e929190620001cd565b50600060098190555050505050505050506200073e565b60008183620001c591906200067c565b905092915050565b828054620001db9062000708565b90600052602060002090601f016020900481019282620001ff57600085556200024b565b82601f106200021a57805160ff19168380011785556200024b565b828001600101855582156200024b579182015b828111156200024a5782518255916020019190600101906200022d565b5b5090506200025a91906200025e565b5090565b5b80821115620002795760008160009055506001016200025f565b5090565b7f4e487b7100000000000000000000000000000000000000000000000000000000600052602160045260246000fd5b6000604051905090565b600080fd5b600080fd5b600073ffffffffffffffffffffffffffffffffffffffff82169050919050565b6000620002ed82620002c0565b9050919050565b620002ff81620002e0565b81146200030b57600080fd5b50565b6000815190506200031f81620002f4565b92915050565b600080fd5b600080fd5b6000601f19601f8301169050919050565b7f4e487b7100000000000000000000000000000000000000000000000000000000600052604160045260246000fd5b6200037a826200032f565b810181811067ffffffffffffffff821117156200039c576200039b62000340565b5b80604052505050565b6000620003b1620002ac565b9050620003bf82826200036f565b919050565b600067ffffffffffffffff821115620003e257620003e162000340565b5b620003ed826200032f565b9050602081019050919050565b60005b838110156200041a578082015181840152602081019050620003fd565b838111156200042a576000848401525b50505050565b6000620004476200044184620003c4565b620003a5565b9050828152602081018484840111156200046657620004656200032a565b5b62000473848285620003fa565b509392505050565b600082601f83011262000493576200049262000325565b5b8151620004a584826020860162000430565b91505092915050565b6000819050919050565b620004c381620004ae565b8114620004cf57600080fd5b50565b600081519050620004e381620004b8565b92915050565b600080600080600080600080610100898b0312156200050d576200050c620002b6565b5b60006200051d8b828c016200030e565b985050602089015167ffffffffffffffff811115620005415762000540620002bb565b5b6200054f8b828c016200047b565b975050604089015167ffffffffffffffff811115620005735762000572620002bb565b5b620005818b828c016200047b565b965050606089015167ffffffffffffffff811115620005a557620005a4620002bb565b5b620005b38b828c016200047b565b955050608089015167ffffffffffffffff811115620005d757620005d6620002bb565b5b620005e58b828c016200047b565b94505060a0620005f88b828c01620004d2565b93505060c06200060b8b828c01620004d2565b92505060e089015167ffffffffffffffff8111156200062f576200062e620002bb565b5b6200063d8b828c016200047b565b9150509295985092959890939650565b7f4e487b7100000000000000000000000000000000000000000000000000000000600052601160045260246000fd5b60006200068982620004ae565b91506200069683620004ae565b9250827fffffffffffffffffffffffffffffffffffffffffffffffffffffffffffffffff03821115620006ce57620006cd6200064d565b5b828201905092915050565b7f4e487b7100000000000000000000000000000000000000000000000000000000600052602260045260246000fd5b600060028204905060018216806200072157607f821691505b60208210811415620007385762000737620006d9565b5b50919050565b60805160601c60a051613e63620007c260003960008181611b22015261249001526000818161084a01528181610b460152818161152c01528181611659015281816117d7015281816118e2015281816119e501528181611a9601528181611bb401528181611da501528181611f61015281816120ff01526123c20152613e636000f3fe6080604052600436106101e75760003560e01c80636e04ff0d11610102578063c5cd507811610095578063ed88c68e11610064578063ed88c68e146106ef578063f301af42146106f9578063fa6ded391461073b578063fa89401a14610764576101f6565b8063c5cd507814610645578063ce2a057214610670578063ce845d1d1461069b578063e7cf1ab7146106c6576101f6565b806399a8502d116100d157806399a8502d1461059b5780639a913793146105c6578063b145603e146105ef578063bf66e2c81461061a576101f6565b80636e04ff0d146104de57806371aac7f91461051c578063743857cb1461053357806395086ed11461055e576101f6565b80634278ac8b1161017a5780635f700266116101495780635f7002661461043657806360fa9a721461045f5780636235887a1461048a57806363bd1d4a146104c7576101f6565b80634278ac8b1461038e5780634585e33b146103b95780634d695bdb146103e25780634ef897191461040b576101f6565b80631910bdc2116101b65780631910bdc2146102be5780631c4b774b146102fb5780632636b9451461033857806329dcb0cf14610363576101f6565b806309917c50146102005780630c611f241461023d5780630fb5a6b41461026857806315a46ee614610293576101f6565b366101f6576101f461078d565b005b6101fe61078d565b005b34801561020c57600080fd5b5061022760048036038101906102229190612aec565b610b18565b6040516102349190612b32565b60405180910390f35b34801561024957600080fd5b50610252610b30565b60405161025f9190612da2565b60405180910390f35b34801561027457600080fd5b5061027d610f2a565b60405161028a9190612b32565b60405180910390f35b34801561029f57600080fd5b506102a8610f30565b6040516102b59190612e0e565b60405180910390f35b3480156102ca57600080fd5b506102e560048036038101906102e09190612aec565b610fbe565b6040516102f29190612edf565b60405180910390f35b34801561030757600080fd5b50610322600480360381019061031d9190612f2d565b611055565b60405161032f91906130fc565b60405180910390f35b34801561034457600080fd5b5061034d611392565b60405161035a9190612b32565b60405180910390f35b34801561036f57600080fd5b50610378611398565b6040516103859190612b32565b60405180910390f35b34801561039a57600080fd5b506103a361139e565b6040516103b09190612e0e565b60405180910390f35b3480156103c557600080fd5b506103e060048036038101906103db9190613183565b61142c565b005b3480156103ee57600080fd5b5061040960048036038101906104049190613300565b61152a565b005b34801561041757600080fd5b506104206115c9565b60405161042d9190612e0e565b60405180910390f35b34801561044257600080fd5b5061045d60048036038101906104589190613349565b611657565b005b34801561046b57600080fd5b506104746118a9565b60405161048191906133ab565b60405180910390f35b34801561049657600080fd5b506104b160048036038101906104ac9190612f2d565b6118bc565b6040516104be9190612b32565b60405180910390f35b3480156104d357600080fd5b506104dc6118e0565b005b3480156104ea57600080fd5b5061050560048036038101906105009190613467565b611ada565b604051610513929190613514565b60405180910390f35b34801561052857600080fd5b50610531611bb2565b005b34801561053f57600080fd5b50610548611cd1565b604051610555919061358c565b60405180910390f35b34801561056a57600080fd5b50610585600480360381019061058091906135a7565b611ce4565b6040516105929190612b32565b60405180910390f35b3480156105a757600080fd5b506105b0611d15565b6040516105bd9190612e0e565b60405180910390f35b3480156105d257600080fd5b506105ed60048036038101906105e891906136f4565b611da3565b005b3480156105fb57600080fd5b50610604611f5f565b604051610611919061383b565b60405180910390f35b34801561062657600080fd5b5061062f611f83565b60405161063c9190612edf565b60405180910390f35b34801561065157600080fd5b5061065a611fdb565b6040516106679190612e0e565b60405180910390f35b34801561067c57600080fd5b50610685612069565b6040516106929190612e0e565b60405180910390f35b3480156106a757600080fd5b506106b06120f7565b6040516106bd9190612b32565b60405180910390f35b3480156106d257600080fd5b506106ed60048036038101906106e89190612f2d565b6120fd565b005b6106f761078d565b005b34801561070557600080fd5b50610720600480360381019061071b9190612f2d565b612267565b60405161073296959493929190613856565b60405180910390f35b34801561074757600080fd5b50610762600480360381019061075d9190612f2d565b6123c0565b005b34801561077057600080fd5b5061078b60048036038101906107869190612aec565b6124c6565b005b600260005414156107d3576040517f08c379a00000000000000000000000000000000000000000000000000000000081526004016107ca90613911565b60405180910390fd5b6002600081905550600060028111156107ef576107ee612c04565b5b600b60019054906101000a900460ff16600281111561081157610810612c04565b5b14610848576040517faeb8874900000000000000000000000000000000000000000000000000000000815260040160405180910390fd5b7f000000000000000000000000000000000000000000000000000000000000000073ffffffffffffffffffffffffffffffffffffffff163373ffffffffffffffffffffffffffffffffffffffff1614156108ce576040517f1e4a120d00000000000000000000000000000000000000000000000000000000815260040160405180910390fd5b6108e3346009546127d590919063ffffffff16565b6009819055506000600d6000348152602001908152602001600020600001541180156109305750600d600034815260200190815260200160002060060160009054906101000a900460ff16155b15610a035761095f6001600d6000348152602001908152602001600020600501546127eb90919063ffffffff16565b506000600d6000348152602001908152602001600020600501541415610a0257600d60003481526020019081526020016000206000808201600090556001820160006109ab9190612801565b6002820160006109bb9190612801565b6003820160006109cb9190612841565b600482016000905560058201600090556006820160006101000a81549060ff02191690556007820160006109ff9190612841565b50505b5b600e60003373ffffffffffffffffffffffffffffffffffffffff1673ffffffffffffffffffffffffffffffffffffffff168152602001908152602001600020349080600181540180825580915050600190039060005260206000200160009091909190915055610abb34600f60003373ffffffffffffffffffffffffffffffffffffffff1673ffffffffffffffffffffffffffffffffffffffff168152602001908152602001600020546127d590919063ffffffff16565b503373ffffffffffffffffffffffffffffffffffffffff167fe76ad748537a48e778fef43dda4a6bd1b50cd62385f9f21a9ca267492355120834600954604051610b06929190613931565b60405180910390a26001600081905550565b600f6020528060005260406000206000915090505481565b610b38612862565b6040518061018001604052807f000000000000000000000000000000000000000000000000000000000000000073ffffffffffffffffffffffffffffffffffffffff16815260200160018054610b8d90613989565b80601f0160208091040260200160405190810160405280929190818152602001828054610bb990613989565b8015610c065780601f10610bdb57610100808354040283529160200191610c06565b820191906000526020600020905b815481529060010190602001808311610be957829003601f168201915b5050505050815260200160028054610c1d90613989565b80601f0160208091040260200160405190810160405280929190818152602001828054610c4990613989565b8015610c965780601f10610c6b57610100808354040283529160200191610c96565b820191906000526020600020905b815481529060010190602001808311610c7957829003601f168201915b5050505050815260200160038054610cad90613989565b80601f0160208091040260200160405190810160405280929190818152602001828054610cd990613989565b8015610d265780601f10610cfb57610100808354040283529160200191610d26565b820191906000526020600020905b815481529060010190602001808311610d0957829003601f168201915b5050505050815260200160068054610d3d90613989565b80601f0160208091040260200160405190810160405280929190818152602001828054610d6990613989565b8015610db65780601f10610d8b57610100808354040283529160200191610db6565b820191906000526020600020905b815481529060010190602001808311610d9957829003601f168201915b50505050508152602001600754815260200160085481526020016009548152602001600b60019054906101000a900460ff166002811115610dfa57610df9612c04565b5b815260200160048054610e0c90613989565b80601f0160208091040260200160405190810160405280929190818152602001828054610e3890613989565b8015610e855780601f10610e5a57610100808354040283529160200191610e85565b820191906000526020600020905b815481529060010190602001808311610e6857829003601f168201915b5050505050815260200160058054610e9c90613989565b80601f0160208091040260200160405190810160405280929190818152602001828054610ec890613989565b8015610f155780601f10610eea57610100808354040283529160200191610f15565b820191906000526020600020905b815481529060010190602001808311610ef857829003601f168201915b50505050508152602001600a54815250905090565b60085481565b60058054610f3d90613989565b80601f0160208091040260200160405190810160405280929190818152602001828054610f6990613989565b8015610fb65780601f10610f8b57610100808354040283529160200191610fb6565b820191906000526020600020905b815481529060010190602001808311610f9957829003601f168201915b505050505081565b6060600e60008373ffffffffffffffffffffffffffffffffffffffff1673ffffffffffffffffffffffffffffffffffffffff16815260200190815260200160002080548060200260200160405190810160405280929190818152602001828054801561104957602002820191906000526020600020905b815481526020019060010190808311611035575b50505050509050919050565b61105d6128eb565b600d6000838152602001908152602001600020604051806101000160405290816000820154815260200160018201805461109690613989565b80601f01602080910402602001604051908101604052809291908181526020018280546110c290613989565b801561110f5780601f106110e45761010080835404028352916020019161110f565b820191906000526020600020905b8154815290600101906020018083116110f257829003601f168201915b5050505050815260200160028201805461112890613989565b80601f016020809104026020016040519081016040528092919081815260200182805461115490613989565b80156111a15780601f10611176576101008083540402835291602001916111a1565b820191906000526020600020905b81548152906001019060200180831161118457829003601f168201915b5050505050815260200160038201805480602002602001604051908101604052809291908181526020016000905b8282101561127b5783829060005260206000200180546111ee90613989565b80601f016020809104026020016040519081016040528092919081815260200182805461121a90613989565b80156112675780601f1061123c57610100808354040283529160200191611267565b820191906000526020600020905b81548152906001019060200180831161124a57829003601f168201915b5050505050815260200190600101906111cf565b50505050815260200160048201548152602001600582015481526020016006820160009054906101000a900460ff1615151515815260200160078201805480602002602001604051908101604052809291908181526020016000905b828210156113835783829060005260206000200180546112f690613989565b80601f016020809104026020016040519081016040528092919081815260200182805461132290613989565b801561136f5780601f106113445761010080835404028352916020019161136f565b820191906000526020600020905b81548152906001019060200180831161135257829003601f168201915b5050505050815260200190600101906112d7565b50505050815250509050919050565b60075481565b600a5481565b600380546113ab90613989565b80601f01602080910402602001604051908101604052809291908181526020018280546113d790613989565b80156114245780601f106113f957610100808354040283529160200191611424565b820191906000526020600020905b81548152906001019060200180831161140757829003601f168201915b505050505081565b600061144660405180602001604052806000815250611ada565b50905080611480576040517fbc7a0a6300000000000000000000000000000000000000000000000000000000815260040160405180910390fd5b6001600b60016101000a81548160ff021916908360028111156114a6576114a5612c04565b5b02179055507f5cf8cd2bd40f758a95257bed666285eb82801f1bf9223b8ec1481e510ba2e82d306040516114da91906139ca565b60405180910390a160075460095410611525577f5369558c667e962b633128a01c31764d053da51f61d17370d327ed17f77deccc3060405161151c91906139ca565b60405180910390a15b505050565b7f000000000000000000000000000000000000000000000000000000000000000073ffffffffffffffffffffffffffffffffffffffff163373ffffffffffffffffffffffffffffffffffffffff16146115af576040517fb167e90c00000000000000000000000000000000000000000000000000000000815260040160405180910390fd5b80600590805190602001906115c5929190612932565b5050565b600280546115d690613989565b80601f016020809104026020016040519081016040528092919081815260200182805461160290613989565b801561164f5780601f106116245761010080835404028352916020019161164f565b820191906000526020600020905b81548152906001019060200180831161163257829003601f168201915b505050505081565b7f000000000000000000000000000000000000000000000000000000000000000073ffffffffffffffffffffffffffffffffffffffff163373ffffffffffffffffffffffffffffffffffffffff16146116dc576040517fb167e90c00000000000000000000000000000000000000000000000000000000815260040160405180910390fd5b6000839050600083905060008173ffffffffffffffffffffffffffffffffffffffff166370a08231876040518263ffffffff1660e01b815260040161172191906139ca565b60206040518083038186803b15801561173957600080fd5b505afa15801561174d573d6000803e3d6000fd5b505050506040513d601f19601f8201168201806040525081019061177191906139fa565b14156117b2576040517f08c379a00000000000000000000000000000000000000000000000000000000081526004016117a990613a73565b60405180910390fd5b8173ffffffffffffffffffffffffffffffffffffffff16634c7e9be36001856207a1207f0000000000000000000000000000000000000000000000000000000000000000671bc16d674ec800006040518663ffffffff1660e01b815260040161181f959493929190613c71565b602060405180830381600087803b15801561183957600080fd5b505af115801561184d573d6000803e3d6000fd5b505050506040513d601f19601f8201168201806040525081019061187191906139fa565b600c819055506001600b60006101000a81548160ff0219169083600181111561189d5761189c612c04565b5b02179055505050505050565b600b60019054906101000a900460ff1681565b601081815481106118cc57600080fd5b906000526020600020016000915090505481565b7f000000000000000000000000000000000000000000000000000000000000000073ffffffffffffffffffffffffffffffffffffffff163373ffffffffffffffffffffffffffffffffffffffff1614611965576040517fb167e90c00000000000000000000000000000000000000000000000000000000815260040160405180910390fd5b6001600281111561197957611978612c04565b5b600b60019054906101000a900460ff16600281111561199b5761199a612c04565b5b146119d2576040517faeb8874900000000000000000000000000000000000000000000000000000000815260040160405180910390fd5b60006009549050600060098190555060007f000000000000000000000000000000000000000000000000000000000000000073ffffffffffffffffffffffffffffffffffffffff1682604051611a2790613d36565b60006040518083038185875af1925050503d8060008114611a64576040519150601f19603f3d011682016040523d82523d6000602084013e611a69565b606091505b505090508015611ad1577fba5e837743d81ad0e6deb16089dbb65b549fdda8ad802fd8d4822884d70dc8b27f000000000000000000000000000000000000000000000000000000000000000030604051611ac4929190613d4b565b60405180910390a1611ad6565b600080fd5b5050565b600060606000806002811115611af357611af2612c04565b5b600b60019054906101000a900460ff166002811115611b1557611b14612c04565b5b1490506000600854611b507f0000000000000000000000000000000000000000000000000000000000000000426127eb90919063ffffffff16565b11905060008047119050818015611b645750825b8015611b6d5750805b9450846040518060400160405280600381526020017f307830000000000000000000000000000000000000000000000000000000000081525094509450505050915091565b7f000000000000000000000000000000000000000000000000000000000000000073ffffffffffffffffffffffffffffffffffffffff163373ffffffffffffffffffffffffffffffffffffffff1614611c37576040517fb167e90c00000000000000000000000000000000000000000000000000000000815260040160405180910390fd5b60016002811115611c4b57611c4a612c04565b5b600b60019054906101000a900460ff166002811115611c6d57611c6c612c04565b5b1415611c7857600080fd5b6002600b60016101000a81548160ff02191690836002811115611c9e57611c9d612c04565b5b02179055507fb83ebe09f40e9293bdea1d6567fae3175119d3d0ff13c4b4df15994837dd7f5160405160405180910390a1565b600b60009054906101000a900460ff1681565b600e6020528160005260406000208181548110611d0057600080fd5b90600052602060002001600091509150505481565b60018054611d2290613989565b80601f0160208091040260200160405190810160405280929190818152602001828054611d4e90613989565b8015611d9b5780601f10611d7057610100808354040283529160200191611d9b565b820191906000526020600020905b815481529060010190602001808311611d7e57829003601f168201915b505050505081565b7f000000000000000000000000000000000000000000000000000000000000000073ffffffffffffffffffffffffffffffffffffffff163373ffffffffffffffffffffffffffffffffffffffff1614611e28576040517fb167e90c00000000000000000000000000000000000000000000000000000000815260040160405180910390fd5b6010889080600181540180825580915050600190039060005260206000200160009091909190915055604051806101000160405280898152602001888152602001878152602001868152602001858152602001848152602001831515815260200182815250600d60008a8152602001908152602001600020600082015181600001556020820151816001019080519060200190611ec6929190612932565b506040820151816002019080519060200190611ee3929190612932565b506060820151816003019080519060200190611f009291906129b8565b506080820151816004015560a0820151816005015560c08201518160060160006101000a81548160ff02191690831515021790555060e0820151816007019080519060200190611f519291906129b8565b509050505050505050505050565b7f000000000000000000000000000000000000000000000000000000000000000081565b60606010805480602002602001604051908101604052809291908181526020018280548015611fd157602002820191906000526020600020905b815481526020019060010190808311611fbd575b5050505050905090565b60068054611fe890613989565b80601f016020809104026020016040519081016040528092919081815260200182805461201490613989565b80156120615780601f1061203657610100808354040283529160200191612061565b820191906000526020600020905b81548152906001019060200180831161204457829003601f168201915b505050505081565b6004805461207690613989565b80601f01602080910402602001604051908101604052809291908181526020018280546120a290613989565b80156120ef5780601f106120c4576101008083540402835291602001916120ef565b820191906000526020600020905b8154815290600101906020018083116120d257829003601f168201915b505050505081565b60095481565b7f000000000000000000000000000000000000000000000000000000000000000073ffffffffffffffffffffffffffffffffffffffff163373ffffffffffffffffffffffffffffffffffffffff1614612182576040517fb167e90c00000000000000000000000000000000000000000000000000000000815260040160405180910390fd5b6000600181111561219657612195612c04565b5b600b60009054906101000a900460ff1660018111156121b8576121b7612c04565b5b146121c257600080fd5b6000600d600083815260200190815260200160002060000154111561226457600d600082815260200190815260200160002060008082016000905560018201600061220d9190612801565b60028201600061221d9190612801565b60038201600061222d9190612841565b600482016000905560058201600090556006820160006101000a81549060ff02191690556007820160006122619190612841565b50505b50565b600d60205280600052604060002060009150905080600001549080600101805461229090613989565b80601f01602080910402602001604051908101604052809291908181526020018280546122bc90613989565b80156123095780601f106122de57610100808354040283529160200191612309565b820191906000526020600020905b8154815290600101906020018083116122ec57829003601f168201915b50505050509080600201805461231e90613989565b80601f016020809104026020016040519081016040528092919081815260200182805461234a90613989565b80156123975780601f1061236c57610100808354040283529160200191612397565b820191906000526020600020905b81548152906001019060200180831161237a57829003601f168201915b5050505050908060040154908060050154908060060160009054906101000a900460ff16905086565b7f000000000000000000000000000000000000000000000000000000000000000073ffffffffffffffffffffffffffffffffffffffff163373ffffffffffffffffffffffffffffffffffffffff1614612445576040517fb167e90c00000000000000000000000000000000000000000000000000000000815260040160405180910390fd5b624f1a0061245e826008546127d590919063ffffffff16565b1161247d57612478816008546127d590919063ffffffff16565b612482565b624f1a005b6008819055506124bd6008547f00000000000000000000000000000000000000000000000000000000000000006127d590919063ffffffff16565b600a8190555050565b6002600054141561250c576040517f08c379a000000000000000000000000000000000000000000000000000000000815260040161250390613911565b60405180910390fd5b60026000819055506001600281111561252857612527612c04565b5b600b60019054906101000a900460ff16600281111561254a57612549612c04565b5b1415612582576040517faeb8874900000000000000000000000000000000000000000000000000000000815260040160405180910390fd5b6000600f60008373ffffffffffffffffffffffffffffffffffffffff1673ffffffffffffffffffffffffffffffffffffffff1681526020019081526020016000205414156125fc576040517f4cc8b68700000000000000000000000000000000000000000000000000000000815260040160405180910390fd5b6000600f60008373ffffffffffffffffffffffffffffffffffffffff1673ffffffffffffffffffffffffffffffffffffffff168152602001908152602001600020549050600e60008373ffffffffffffffffffffffffffffffffffffffff1673ffffffffffffffffffffffffffffffffffffffff168152602001908152602001600020600061268b9190612a18565b600f60008373ffffffffffffffffffffffffffffffffffffffff1673ffffffffffffffffffffffffffffffffffffffff1681526020019081526020016000206000905580600954101561270a576040517f4d83c95000000000000000000000000000000000000000000000000000000000815260040160405180910390fd5b61271f816009546127eb90919063ffffffff16565b60098190555060008273ffffffffffffffffffffffffffffffffffffffff168260405161274b90613d36565b60006040518083038185875af1925050503d8060008114612788576040519150601f19603f3d011682016040523d82523d6000602084013e61278d565b606091505b50509050806127c8576040517f0520edd000000000000000000000000000000000000000000000000000000000815260040160405180910390fd5b5050600160008190555050565b600081836127e39190613da3565b905092915050565b600081836127f99190613df9565b905092915050565b50805461280d90613989565b6000825580601f1061281f575061283e565b601f01602090049060005260206000209081019061283d9190612a39565b5b50565b508054600082559060005260206000209081019061285f9190612a56565b50565b604051806101800160405280600073ffffffffffffffffffffffffffffffffffffffff16815260200160608152602001606081526020016060815260200160608152602001600081526020016000815260200160008152602001600060028111156128d0576128cf612c04565b5b81526020016060815260200160608152602001600081525090565b604051806101000160405280600081526020016060815260200160608152602001606081526020016000815260200160008152602001600015158152602001606081525090565b82805461293e90613989565b90600052602060002090601f01602090048101928261296057600085556129a7565b82601f1061297957805160ff19168380011785556129a7565b828001600101855582156129a7579182015b828111156129a657825182559160200191906001019061298b565b5b5090506129b49190612a39565b5090565b828054828255906000526020600020908101928215612a07579160200282015b82811115612a065782518290805190602001906129f6929190612932565b50916020019190600101906129d8565b5b509050612a149190612a56565b5090565b5080546000825590600052602060002090810190612a369190612a39565b50565b5b80821115612a52576000816000905550600101612a3a565b5090565b5b80821115612a765760008181612a6d9190612801565b50600101612a57565b5090565b6000604051905090565b600080fd5b600080fd5b600073ffffffffffffffffffffffffffffffffffffffff82169050919050565b6000612ab982612a8e565b9050919050565b612ac981612aae565b8114612ad457600080fd5b50565b600081359050612ae681612ac0565b92915050565b600060208284031215612b0257612b01612a84565b5b6000612b1084828501612ad7565b91505092915050565b6000819050919050565b612b2c81612b19565b82525050565b6000602082019050612b476000830184612b23565b92915050565b612b5681612aae565b82525050565b600081519050919050565b600082825260208201905092915050565b60005b83811015612b96578082015181840152602081019050612b7b565b83811115612ba5576000848401525b50505050565b6000601f19601f8301169050919050565b6000612bc782612b5c565b612bd18185612b67565b9350612be1818560208601612b78565b612bea81612bab565b840191505092915050565b612bfe81612b19565b82525050565b7f4e487b7100000000000000000000000000000000000000000000000000000000600052602160045260246000fd5b60038110612c4457612c43612c04565b5b50565b6000819050612c5582612c33565b919050565b6000612c6582612c47565b9050919050565b612c7581612c5a565b82525050565b600061018083016000830151612c946000860182612b4d565b5060208301518482036020860152612cac8282612bbc565b91505060408301518482036040860152612cc68282612bbc565b91505060608301518482036060860152612ce08282612bbc565b91505060808301518482036080860152612cfa8282612bbc565b91505060a0830151612d0f60a0860182612bf5565b5060c0830151612d2260c0860182612bf5565b5060e0830151612d3560e0860182612bf5565b50610100830151612d4a610100860182612c6c565b50610120830151848203610120860152612d648282612bbc565b915050610140830151848203610140860152612d808282612bbc565b915050610160830151612d97610160860182612bf5565b508091505092915050565b60006020820190508181036000830152612dbc8184612c7b565b905092915050565b600082825260208201905092915050565b6000612de082612b5c565b612dea8185612dc4565b9350612dfa818560208601612b78565b612e0381612bab565b840191505092915050565b60006020820190508181036000830152612e288184612dd5565b905092915050565b600081519050919050565b600082825260208201905092915050565b6000819050602082019050919050565b6000612e688383612bf5565b60208301905092915050565b6000602082019050919050565b6000612e8c82612e30565b612e968185612e3b565b9350612ea183612e4c565b8060005b83811015612ed2578151612eb98882612e5c565b9750612ec483612e74565b925050600181019050612ea5565b5085935050505092915050565b60006020820190508181036000830152612ef98184612e81565b905092915050565b612f0a81612b19565b8114612f1557600080fd5b50565b600081359050612f2781612f01565b92915050565b600060208284031215612f4357612f42612a84565b5b6000612f5184828501612f18565b91505092915050565b600081519050919050565b600082825260208201905092915050565b6000819050602082019050919050565b6000612f928383612bbc565b905092915050565b6000602082019050919050565b6000612fb282612f5a565b612fbc8185612f65565b935083602082028501612fce85612f76565b8060005b8581101561300a5784840389528151612feb8582612f86565b9450612ff683612f9a565b925060208a01995050600181019050612fd2565b50829750879550505050505092915050565b60008115159050919050565b6130318161301c565b82525050565b6000610100830160008301516130506000860182612bf5565b50602083015184820360208601526130688282612bbc565b915050604083015184820360408601526130828282612bbc565b9150506060830151848203606086015261309c8282612fa7565b91505060808301516130b16080860182612bf5565b5060a08301516130c460a0860182612bf5565b5060c08301516130d760c0860182613028565b5060e083015184820360e08601526130ef8282612fa7565b9150508091505092915050565b600060208201905081810360008301526131168184613037565b905092915050565b600080fd5b600080fd5b600080fd5b60008083601f8401126131435761314261311e565b5b8235905067ffffffffffffffff8111156131605761315f613123565b5b60208301915083600182028301111561317c5761317b613128565b5b9250929050565b6000806020838503121561319a57613199612a84565b5b600083013567ffffffffffffffff8111156131b8576131b7612a89565b5b6131c48582860161312d565b92509250509250929050565b600080fd5b7f4e487b7100000000000000000000000000000000000000000000000000000000600052604160045260246000fd5b61320d82612bab565b810181811067ffffffffffffffff8211171561322c5761322b6131d5565b5b80604052505050565b600061323f612a7a565b905061324b8282613204565b919050565b600067ffffffffffffffff82111561326b5761326a6131d5565b5b61327482612bab565b9050602081019050919050565b82818337600083830152505050565b60006132a361329e84613250565b613235565b9050828152602081018484840111156132bf576132be6131d0565b5b6132ca848285613281565b509392505050565b600082601f8301126132e7576132e661311e565b5b81356132f7848260208601613290565b91505092915050565b60006020828403121561331657613315612a84565b5b600082013567ffffffffffffffff81111561333457613333612a89565b5b613340848285016132d2565b91505092915050565b60008060006060848603121561336257613361612a84565b5b600061337086828701612ad7565b935050602061338186828701612ad7565b925050604061339286828701612ad7565b9150509250925092565b6133a581612c5a565b82525050565b60006020820190506133c0600083018461339c565b92915050565b600067ffffffffffffffff8211156133e1576133e06131d5565b5b6133ea82612bab565b9050602081019050919050565b600061340a613405846133c6565b613235565b905082815260208101848484011115613426576134256131d0565b5b613431848285613281565b509392505050565b600082601f83011261344e5761344d61311e565b5b813561345e8482602086016133f7565b91505092915050565b60006020828403121561347d5761347c612a84565b5b600082013567ffffffffffffffff81111561349b5761349a612a89565b5b6134a784828501613439565b91505092915050565b6134b98161301c565b82525050565b600081519050919050565b600082825260208201905092915050565b60006134e6826134bf565b6134f081856134ca565b9350613500818560208601612b78565b61350981612bab565b840191505092915050565b600060408201905061352960008301856134b0565b818103602083015261353b81846134db565b90509392505050565b6002811061355557613554612c04565b5b50565b600081905061356682613544565b919050565b600061357682613558565b9050919050565b6135868161356b565b82525050565b60006020820190506135a1600083018461357d565b92915050565b600080604083850312156135be576135bd612a84565b5b60006135cc85828601612ad7565b92505060206135dd85828601612f18565b9150509250929050565b600067ffffffffffffffff821115613602576136016131d5565b5b602082029050602081019050919050565b6000613626613621846135e7565b613235565b9050808382526020820190506020840283018581111561364957613648613128565b5b835b8181101561369057803567ffffffffffffffff81111561366e5761366d61311e565b5b80860161367b89826132d2565b8552602085019450505060208101905061364b565b5050509392505050565b600082601f8301126136af576136ae61311e565b5b81356136bf848260208601613613565b91505092915050565b6136d18161301c565b81146136dc57600080fd5b50565b6000813590506136ee816136c8565b92915050565b600080600080600080600080610100898b03121561371557613714612a84565b5b60006137238b828c01612f18565b985050602089013567ffffffffffffffff81111561374457613743612a89565b5b6137508b828c016132d2565b975050604089013567ffffffffffffffff81111561377157613770612a89565b5b61377d8b828c016132d2565b965050606089013567ffffffffffffffff81111561379e5761379d612a89565b5b6137aa8b828c0161369a565b95505060806137bb8b828c01612f18565b94505060a06137cc8b828c01612f18565b93505060c06137dd8b828c016136df565b92505060e089013567ffffffffffffffff8111156137fe576137fd612a89565b5b61380a8b828c0161369a565b9150509295985092959890939650565b600061382582612a8e565b9050919050565b6138358161381a565b82525050565b6000602082019050613850600083018461382c565b92915050565b600060c08201905061386b6000830189612b23565b818103602083015261387d8188612dd5565b905081810360408301526138918187612dd5565b90506138a06060830186612b23565b6138ad6080830185612b23565b6138ba60a08301846134b0565b979650505050505050565b7f5265656e7472616e637947756172643a207265656e7472616e742063616c6c00600082015250565b60006138fb601f83612dc4565b9150613906826138c5565b602082019050919050565b6000602082019050818103600083015261392a816138ee565b9050919050565b60006040820190506139466000830185612b23565b6139536020830184612b23565b9392505050565b7f4e487b7100000000000000000000000000000000000000000000000000000000600052602260045260246000fd5b600060028204905060018216806139a157607f821691505b602082108114156139b5576139b461395a565b5b50919050565b6139c481612aae565b82525050565b60006020820190506139df60008301846139bb565b92915050565b6000815190506139f481612f01565b92915050565b600060208284031215613a1057613a0f612a84565b5b6000613a1e848285016139e5565b91505092915050565b7f6e6f2066756e6473000000000000000000000000000000000000000000000000600082015250565b6000613a5d600883612dc4565b9150613a6882613a27565b602082019050919050565b60006020820190508181036000830152613a8c81613a50565b9050919050565b60008190508160005260206000209050919050565b60008154613ab581613989565b613abf8186612dc4565b94506001821660008114613ada5760018114613aec57613b1f565b60ff1983168652602086019350613b1f565b613af585613a93565b60005b83811015613b1757815481890152600182019150602081019050613af8565b808801955050505b50505092915050565b7f3078000000000000000000000000000000000000000000000000000000000000600082015250565b6000613b5e6002836134ca565b9150613b6982613b28565b602082019050919050565b6000819050919050565b600063ffffffff82169050919050565b6000819050919050565b6000613bb3613bae613ba984613b74565b613b8e565b613b7e565b9050919050565b613bc381613b98565b82525050565b6000613be4613bdf613bda84612a8e565b613b8e565b612a8e565b9050919050565b6000613bf682613bc9565b9050919050565b6000613c0882613beb565b9050919050565b613c1881613bfd565b82525050565b6000819050919050565b60006bffffffffffffffffffffffff82169050919050565b6000613c5b613c56613c5184613c1e565b613b8e565b613c28565b9050919050565b613c6b81613c40565b82525050565b6000610100820190508181036000830152613c8c8188613aa8565b90508181036020830152613c9f81613b51565b9050613cae60408301876139bb565b613cbb6060830186613bba565b613cc86080830185613c0f565b81810360a0830152613cd981613b51565b905081810360c0830152613cec81613b51565b9050613cfb60e0830184613c62565b9695505050505050565b600081905092915050565b50565b6000613d20600083613d05565b9150613d2b82613d10565b600082019050919050565b6000613d4182613d13565b9150819050919050565b6000604082019050613d606000830185613c0f565b613d6d60208301846139bb565b9392505050565b7f4e487b7100000000000000000000000000000000000000000000000000000000600052601160045260246000fd5b6000613dae82612b19565b9150613db983612b19565b9250827fffffffffffffffffffffffffffffffffffffffffffffffffffffffffffffffff03821115613dee57613ded613d74565b5b828201905092915050565b6000613e0482612b19565b9150613e0f83612b19565b925082821015613e2257613e21613d74565b5b82820390509291505056fea264697066735822122067bc8140404d2ae02f55728c0c3be33c9a71dd304032a3687d9d95760bea046064736f6c63430008080033",
  "devdoc": {
    "kind": "dev",
    "methods": {
      "checkUpkeep(bytes)": {
        "details": "this is the function chainlink keepers calls chekupkeep returns true to trigger the action after the interval has passed"
      }
    },
    "version": 1
  },
  "userdoc": {
    "errors": {
      "Cmp_NoDns()": [
        {
          "notice": "donator is creator "
        }
      ],
      "Cmp_NotCrtr()": [
        {
          "notice": "not in state "
        }
      ]
    },
    "kind": "user",
    "methods": {},
    "version": 1
  },
  "storageLayout": {
    "storage": [
      {
        "astId": 371,
        "contract": "contracts/Campaign.sol:Campaign",
        "label": "_status",
        "offset": 0,
        "slot": "0",
        "type": "t_uint256"
      },
      {
        "astId": 757,
        "contract": "contracts/Campaign.sol:Campaign",
        "label": "s_title",
        "offset": 0,
        "slot": "1",
        "type": "t_string_storage"
      },
      {
        "astId": 759,
        "contract": "contracts/Campaign.sol:Campaign",
        "label": "s_description",
        "offset": 0,
        "slot": "2",
        "type": "t_string_storage"
      },
      {
        "astId": 761,
        "contract": "contracts/Campaign.sol:Campaign",
        "label": "s_category",
        "offset": 0,
        "slot": "3",
        "type": "t_string_storage"
      },
      {
        "astId": 763,
        "contract": "contracts/Campaign.sol:Campaign",
        "label": "s_imageURI",
        "offset": 0,
        "slot": "4",
        "type": "t_string_storage"
      },
      {
        "astId": 765,
        "contract": "contracts/Campaign.sol:Campaign",
        "label": "s_campaignURI",
        "offset": 0,
        "slot": "5",
        "type": "t_string_storage"
      },
      {
        "astId": 767,
        "contract": "contracts/Campaign.sol:Campaign",
        "label": "s_tags",
        "offset": 0,
        "slot": "6",
        "type": "t_string_storage"
      },
      {
        "astId": 769,
        "contract": "contracts/Campaign.sol:Campaign",
        "label": "goalAmount",
        "offset": 0,
        "slot": "7",
        "type": "t_uint256"
      },
      {
        "astId": 771,
        "contract": "contracts/Campaign.sol:Campaign",
        "label": "duration",
        "offset": 0,
        "slot": "8",
        "type": "t_uint256"
      },
      {
        "astId": 773,
        "contract": "contracts/Campaign.sol:Campaign",
        "label": "currentBalance",
        "offset": 0,
        "slot": "9",
        "type": "t_uint256"
      },
      {
        "astId": 780,
        "contract": "contracts/Campaign.sol:Campaign",
        "label": "deadline",
        "offset": 0,
        "slot": "10",
        "type": "t_uint256"
      },
      {
        "astId": 785,
        "contract": "contracts/Campaign.sol:Campaign",
        "label": "c_mode",
        "offset": 0,
        "slot": "11",
        "type": "t_enum(C_Mode)753"
      },
      {
        "astId": 790,
        "contract": "contracts/Campaign.sol:Campaign",
        "label": "c_state",
        "offset": 1,
        "slot": "11",
        "type": "t_enum(C_State)750"
      },
      {
        "astId": 792,
        "contract": "contracts/Campaign.sol:Campaign",
        "label": "rId",
        "offset": 0,
        "slot": "12",
        "type": "t_uint256"
      },
      {
        "astId": 842,
        "contract": "contracts/Campaign.sol:Campaign",
        "label": "rewards",
        "offset": 0,
        "slot": "13",
        "type": "t_mapping(t_uint256,t_struct(reward)837_storage)"
      },
      {
        "astId": 847,
        "contract": "contracts/Campaign.sol:Campaign",
        "label": "donations",
        "offset": 0,
        "slot": "14",
        "type": "t_mapping(t_address,t_array(t_uint256)dyn_storage)"
      },
      {
        "astId": 851,
        "contract": "contracts/Campaign.sol:Campaign",
        "label": "aggrDonations",
        "offset": 0,
        "slot": "15",
        "type": "t_mapping(t_address,t_uint256)"
      },
      {
        "astId": 854,
        "contract": "contracts/Campaign.sol:Campaign",
        "label": "rKeys",
        "offset": 0,
        "slot": "16",
        "type": "t_array(t_uint256)dyn_storage"
      }
    ],
    "types": {
      "t_address": {
        "encoding": "inplace",
        "label": "address",
        "numberOfBytes": "20"
      },
      "t_array(t_string_storage)dyn_storage": {
        "base": "t_string_storage",
        "encoding": "dynamic_array",
        "label": "string[]",
        "numberOfBytes": "32"
      },
      "t_array(t_uint256)dyn_storage": {
        "base": "t_uint256",
        "encoding": "dynamic_array",
        "label": "uint256[]",
        "numberOfBytes": "32"
      },
      "t_bool": {
        "encoding": "inplace",
        "label": "bool",
        "numberOfBytes": "1"
      },
      "t_enum(C_Mode)753": {
        "encoding": "inplace",
        "label": "enum Campaign.C_Mode",
        "numberOfBytes": "1"
      },
      "t_enum(C_State)750": {
        "encoding": "inplace",
        "label": "enum Campaign.C_State",
        "numberOfBytes": "1"
      },
      "t_mapping(t_address,t_array(t_uint256)dyn_storage)": {
        "encoding": "mapping",
        "key": "t_address",
        "label": "mapping(address => uint256[])",
        "numberOfBytes": "32",
        "value": "t_array(t_uint256)dyn_storage"
      },
      "t_mapping(t_address,t_uint256)": {
        "encoding": "mapping",
        "key": "t_address",
        "label": "mapping(address => uint256)",
        "numberOfBytes": "32",
        "value": "t_uint256"
      },
      "t_mapping(t_uint256,t_struct(reward)837_storage)": {
        "encoding": "mapping",
        "key": "t_uint256",
        "label": "mapping(uint256 => struct Campaign.reward)",
        "numberOfBytes": "32",
        "value": "t_struct(reward)837_storage"
      },
      "t_string_storage": {
        "encoding": "bytes",
        "label": "string",
        "numberOfBytes": "32"
      },
      "t_struct(reward)837_storage": {
        "encoding": "inplace",
        "label": "struct Campaign.reward",
        "members": [
          {
            "astId": 820,
            "contract": "contracts/Campaign.sol:Campaign",
            "label": "price",
            "offset": 0,
            "slot": "0",
            "type": "t_uint256"
          },
          {
            "astId": 822,
            "contract": "contracts/Campaign.sol:Campaign",
            "label": "title",
            "offset": 0,
            "slot": "1",
            "type": "t_string_storage"
          },
          {
            "astId": 824,
            "contract": "contracts/Campaign.sol:Campaign",
            "label": "description",
            "offset": 0,
            "slot": "2",
            "type": "t_string_storage"
          },
          {
            "astId": 827,
            "contract": "contracts/Campaign.sol:Campaign",
            "label": "perks",
            "offset": 0,
            "slot": "3",
            "type": "t_array(t_string_storage)dyn_storage"
          },
          {
            "astId": 829,
            "contract": "contracts/Campaign.sol:Campaign",
            "label": "delDate",
            "offset": 0,
            "slot": "4",
            "type": "t_uint256"
          },
          {
            "astId": 831,
            "contract": "contracts/Campaign.sol:Campaign",
            "label": "quantity",
            "offset": 0,
            "slot": "5",
            "type": "t_uint256"
          },
          {
            "astId": 833,
            "contract": "contracts/Campaign.sol:Campaign",
            "label": "infinite",
            "offset": 0,
            "slot": "6",
            "type": "t_bool"
          },
          {
            "astId": 836,
            "contract": "contracts/Campaign.sol:Campaign",
            "label": "shipsTo",
            "offset": 0,
            "slot": "7",
            "type": "t_array(t_string_storage)dyn_storage"
          }
        ],
        "numberOfBytes": "256"
      },
      "t_uint256": {
        "encoding": "inplace",
        "label": "uint256",
        "numberOfBytes": "32"
      }
    }
  }
}