{
  "address": "0xe7f1725E7734CE288F8367e1Bb143E90bb3F0512",
  "abi": [
    {
      "inputs": [
        {
          "internalType": "address",
          "name": "_crowdfunder",
          "type": "address"
        },
        {
          "internalType": "address",
          "name": "_creator",
          "type": "address"
        },
        {
          "internalType": "string",
          "name": "_title",
          "type": "string"
        },
        {
          "internalType": "string",
          "name": "_description",
          "type": "string"
        },
        {
          "internalType": "string",
          "name": "_category",
          "type": "string"
        },
        {
          "internalType": "string",
          "name": "_tags",
          "type": "string"
        },
        {
          "internalType": "uint256",
          "name": "_goalAmount",
          "type": "uint256"
        },
        {
          "internalType": "uint256",
          "name": "_duration",
          "type": "uint256"
        },
        {
          "internalType": "string",
          "name": "_imageURI",
          "type": "string"
        }
      ],
      "stateMutability": "nonpayable",
      "type": "constructor"
    },
    {
      "inputs": [],
      "name": "Cmp_Bankrupt",
      "type": "error"
    },
    {
      "inputs": [],
      "name": "Cmp_DIC",
      "type": "error"
    },
    {
      "inputs": [],
      "name": "Cmp_NIS",
      "type": "error"
    },
    {
      "inputs": [],
      "name": "Cmp_NoDns",
      "type": "error"
    },
    {
      "inputs": [],
      "name": "Cmp_NotCrtr",
      "type": "error"
    },
    {
      "inputs": [],
      "name": "Cmp_RefF",
      "type": "error"
    },
    {
      "inputs": [],
      "name": "Cmp_UpkNN",
      "type": "error"
    },
    {
      "anonymous": false,
      "inputs": [],
      "name": "CampaignCanceled",
      "type": "event"
    },
    {
      "anonymous": false,
      "inputs": [
        {
          "indexed": false,
          "internalType": "address",
          "name": "campaignAddress",
          "type": "address"
        }
      ],
      "name": "CampaignExpired",
      "type": "event"
    },
    {
      "anonymous": false,
      "inputs": [
        {
          "indexed": false,
          "internalType": "address",
          "name": "creator",
          "type": "address"
        },
        {
          "indexed": false,
          "internalType": "address",
          "name": "campaignAddress",
          "type": "address"
        }
      ],
      "name": "CreatorPaid",
      "type": "event"
    },
    {
      "anonymous": false,
      "inputs": [
        {
          "indexed": true,
          "internalType": "address",
          "name": "contributor",
          "type": "address"
        },
        {
          "indexed": false,
          "internalType": "uint256",
          "name": "amount",
          "type": "uint256"
        },
        {
          "indexed": false,
          "internalType": "uint256",
          "name": "currentBalance",
          "type": "uint256"
        }
      ],
      "name": "FundingRecieved",
      "type": "event"
    },
    {
      "stateMutability": "payable",
      "type": "fallback"
    },
    {
      "inputs": [
        {
          "internalType": "address",
          "name": "",
          "type": "address"
        }
      ],
      "name": "aggrDonations",
      "outputs": [
        {
          "internalType": "uint256",
          "name": "",
          "type": "uint256"
        }
      ],
      "stateMutability": "view",
      "type": "function"
    },
    {
      "inputs": [],
      "name": "c_state",
      "outputs": [
        {
          "internalType": "enum Campaign.C_State",
          "name": "",
          "type": "uint8"
        }
      ],
      "stateMutability": "view",
      "type": "function"
    },
    {
      "inputs": [
        {
          "internalType": "bytes",
          "name": "",
          "type": "bytes"
        }
      ],
      "name": "checkUpkeep",
      "outputs": [
        {
          "internalType": "bool",
          "name": "upkeepNeeded",
          "type": "bool"
        },
        {
          "internalType": "bytes",
          "name": "",
          "type": "bytes"
        }
      ],
      "stateMutability": "view",
      "type": "function"
    },
    {
      "inputs": [],
      "name": "currentBalance",
      "outputs": [
        {
          "internalType": "uint256",
          "name": "",
          "type": "uint256"
        }
      ],
      "stateMutability": "view",
      "type": "function"
    },
    {
      "inputs": [],
      "name": "deadline",
      "outputs": [
        {
          "internalType": "uint256",
          "name": "",
          "type": "uint256"
        }
      ],
      "stateMutability": "view",
      "type": "function"
    },
    {
      "inputs": [
        {
          "internalType": "address",
          "name": "_donator",
          "type": "address"
        }
      ],
      "name": "donate",
      "outputs": [],
      "stateMutability": "payable",
      "type": "function"
    },
    {
      "inputs": [],
      "name": "duration",
      "outputs": [
        {
          "internalType": "uint256",
          "name": "",
          "type": "uint256"
        }
      ],
      "stateMutability": "view",
      "type": "function"
    },
    {
      "inputs": [],
      "name": "endCampaign",
      "outputs": [],
      "stateMutability": "nonpayable",
      "type": "function"
    },
    {
      "inputs": [
        {
          "internalType": "address",
          "name": "",
          "type": "address"
        },
        {
          "internalType": "uint256",
          "name": "",
          "type": "uint256"
        }
      ],
      "name": "entDonations",
      "outputs": [
        {
          "internalType": "uint256",
          "name": "",
          "type": "uint256"
        }
      ],
      "stateMutability": "view",
      "type": "function"
    },
    {
      "inputs": [],
      "name": "getCampaignDetails",
      "outputs": [
        {
          "components": [
            {
              "internalType": "address",
              "name": "i_creator",
              "type": "address"
            },
            {
              "internalType": "string",
              "name": "s_title",
              "type": "string"
            },
            {
              "internalType": "string",
              "name": "s_description",
              "type": "string"
            },
            {
              "internalType": "string",
              "name": "s_category",
              "type": "string"
            },
            {
              "internalType": "string",
              "name": "s_tags",
              "type": "string"
            },
            {
              "internalType": "uint256",
              "name": "goalAmount",
              "type": "uint256"
            },
            {
              "internalType": "uint256",
              "name": "duration",
              "type": "uint256"
            },
            {
              "internalType": "uint256",
              "name": "currentBalance",
              "type": "uint256"
            },
            {
              "internalType": "enum Campaign.C_State",
              "name": "currentC_State",
              "type": "uint8"
            },
            {
              "internalType": "string",
              "name": "s_imageURI",
              "type": "string"
            },
            {
              "internalType": "string",
              "name": "s_campaignURI",
              "type": "string"
            },
            {
              "internalType": "uint256",
              "name": "deadline",
              "type": "uint256"
            }
          ],
          "internalType": "struct Campaign.CampaignObject",
          "name": "",
          "type": "tuple"
        }
      ],
      "stateMutability": "view",
      "type": "function"
    },
    {
      "inputs": [
        {
          "internalType": "address",
          "name": "_donator",
          "type": "address"
        }
      ],
      "name": "getDonations",
      "outputs": [
        {
          "internalType": "uint256[]",
          "name": "",
          "type": "uint256[]"
        }
      ],
      "stateMutability": "view",
      "type": "function"
    },
    {
      "inputs": [
        {
          "internalType": "uint256",
          "name": "_priceID",
          "type": "uint256"
        }
      ],
      "name": "getReward",
      "outputs": [
        {
          "components": [
            {
              "internalType": "uint256",
              "name": "price",
              "type": "uint256"
            },
            {
              "internalType": "string",
              "name": "title",
              "type": "string"
            },
            {
              "internalType": "string",
              "name": "description",
              "type": "string"
            },
            {
              "internalType": "string",
              "name": "rpic",
              "type": "string"
            },
            {
              "internalType": "string[]",
              "name": "perks",
              "type": "string[]"
            },
            {
              "internalType": "uint256",
              "name": "delDate",
              "type": "uint256"
            },
            {
              "internalType": "uint256",
              "name": "quantity",
              "type": "uint256"
            },
            {
              "internalType": "bool",
              "name": "infinite",
              "type": "bool"
            },
            {
              "internalType": "string[]",
              "name": "shipsTo",
              "type": "string[]"
            }
          ],
          "internalType": "struct Campaign.reward",
          "name": "",
          "type": "tuple"
        }
      ],
      "stateMutability": "view",
      "type": "function"
    },
    {
      "inputs": [],
      "name": "getRewardKeys",
      "outputs": [
        {
          "internalType": "uint256[]",
          "name": "",
          "type": "uint256[]"
        }
      ],
      "stateMutability": "view",
      "type": "function"
    },
    {
      "inputs": [],
      "name": "goalAmount",
      "outputs": [
        {
          "internalType": "uint256",
          "name": "",
          "type": "uint256"
        }
      ],
      "stateMutability": "view",
      "type": "function"
    },
    {
      "inputs": [],
      "name": "i_creator",
      "outputs": [
        {
          "internalType": "address payable",
          "name": "",
          "type": "address"
        }
      ],
      "stateMutability": "view",
      "type": "function"
    },
    {
      "inputs": [
        {
          "internalType": "uint256",
          "name": "_price",
          "type": "uint256"
        },
        {
          "internalType": "string",
          "name": "_title",
          "type": "string"
        },
        {
          "internalType": "string",
          "name": "_description",
          "type": "string"
        },
        {
          "internalType": "string",
          "name": "_rpic",
          "type": "string"
        },
        {
          "internalType": "string[]",
          "name": "_perks",
          "type": "string[]"
        },
        {
          "internalType": "uint256",
          "name": "_deadline",
          "type": "uint256"
        },
        {
          "internalType": "uint256",
          "name": "_quantity",
          "type": "uint256"
        },
        {
          "internalType": "bool",
          "name": "_infinite",
          "type": "bool"
        },
        {
          "internalType": "string[]",
          "name": "_shipsTo",
          "type": "string[]"
        }
      ],
      "name": "makeReward",
      "outputs": [],
      "stateMutability": "nonpayable",
      "type": "function"
    },
    {
      "inputs": [],
      "name": "payout",
      "outputs": [],
      "stateMutability": "nonpayable",
      "type": "function"
    },
    {
      "inputs": [
        {
          "internalType": "bytes",
          "name": "",
          "type": "bytes"
        }
      ],
      "name": "performUpkeep",
      "outputs": [],
      "stateMutability": "nonpayable",
      "type": "function"
    },
    {
      "inputs": [
        {
          "internalType": "uint256",
          "name": "",
          "type": "uint256"
        }
      ],
      "name": "rKeys",
      "outputs": [
        {
          "internalType": "uint256",
          "name": "",
          "type": "uint256"
        }
      ],
      "stateMutability": "view",
      "type": "function"
    },
    {
      "inputs": [
        {
          "internalType": "address",
          "name": "_donator",
          "type": "address"
        }
      ],
      "name": "refund",
      "outputs": [],
      "stateMutability": "nonpayable",
      "type": "function"
    },
    {
      "inputs": [
        {
          "internalType": "uint256",
          "name": "",
          "type": "uint256"
        }
      ],
      "name": "rewards",
      "outputs": [
        {
          "internalType": "uint256",
          "name": "price",
          "type": "uint256"
        },
        {
          "internalType": "string",
          "name": "title",
          "type": "string"
        },
        {
          "internalType": "string",
          "name": "description",
          "type": "string"
        },
        {
          "internalType": "string",
          "name": "rpic",
          "type": "string"
        },
        {
          "internalType": "uint256",
          "name": "delDate",
          "type": "uint256"
        },
        {
          "internalType": "uint256",
          "name": "quantity",
          "type": "uint256"
        },
        {
          "internalType": "bool",
          "name": "infinite",
          "type": "bool"
        }
      ],
      "stateMutability": "view",
      "type": "function"
    },
    {
      "inputs": [],
      "name": "s_campaignURI",
      "outputs": [
        {
          "internalType": "string",
          "name": "",
          "type": "string"
        }
      ],
      "stateMutability": "view",
      "type": "function"
    },
    {
      "inputs": [],
      "name": "s_category",
      "outputs": [
        {
          "internalType": "string",
          "name": "",
          "type": "string"
        }
      ],
      "stateMutability": "view",
      "type": "function"
    },
    {
      "inputs": [],
      "name": "s_description",
      "outputs": [
        {
          "internalType": "string",
          "name": "",
          "type": "string"
        }
      ],
      "stateMutability": "view",
      "type": "function"
    },
    {
      "inputs": [],
      "name": "s_imageURI",
      "outputs": [
        {
          "internalType": "string",
          "name": "",
          "type": "string"
        }
      ],
      "stateMutability": "view",
      "type": "function"
    },
    {
      "inputs": [],
      "name": "s_tags",
      "outputs": [
        {
          "internalType": "string",
          "name": "",
          "type": "string"
        }
      ],
      "stateMutability": "view",
      "type": "function"
    },
    {
      "inputs": [],
      "name": "s_title",
      "outputs": [
        {
          "internalType": "string",
          "name": "",
          "type": "string"
        }
      ],
      "stateMutability": "view",
      "type": "function"
    },
    {
      "inputs": [
        {
          "internalType": "address",
          "name": "_upkeepCreatorAddress",
          "type": "address"
        },
        {
          "internalType": "address",
          "name": "_linkTokenAddress",
          "type": "address"
        },
        {
          "internalType": "address",
          "name": "_campaignAddress",
          "type": "address"
        }
      ],
      "name": "timeBox",
      "outputs": [],
      "stateMutability": "nonpayable",
      "type": "function"
    },
    {
      "inputs": [
        {
          "internalType": "string",
          "name": "_campaignURI",
          "type": "string"
        }
      ],
      "name": "updateCampaignURI",
      "outputs": [],
      "stateMutability": "nonpayable",
      "type": "function"
    },
    {
      "inputs": [
        {
          "internalType": "uint256",
          "name": "_addedDur",
          "type": "uint256"
        }
      ],
      "name": "updateDur",
      "outputs": [],
      "stateMutability": "nonpayable",
      "type": "function"
    },
    {
      "stateMutability": "payable",
      "type": "receive"
    }
  ],
  "transactionHash": "0x08659cd91812b8d76f4768f0e6922dc38e543c66bc229b76430c5cfdbcb82bb0",
  "args": [
    "0x5FbDB2315678afecb367f032d93F642f64180aa3",
    "0xf39Fd6e51aad88F6F4ce6aB8827279cffFb92266",
    "Piratopia: Raiders of Pirate Bay",
    "A P2E masterpiece on the AVAX chain",
    "P2E",
    "arcade games/adventure games/web3 gaming",
    "6750000000000000000",
    "1296000",
    "ipfs://QmV9inF2YC5MFUHWwWaCBEVJzj9aGSKmpay7mPSJDjBC4w"
  ],
  "numDeployments": 1,
  "solcInputHash": "54e68455ad99131f950d1c7dd5b6f4f8",
  "bytecode": "0x60e06040526000600b60006101000a81548160ff021916908360028111156200002d576200002c62000287565b5b02179055503480156200003f57600080fd5b5060405162004687380380620046878339818101604052810190620000659190620004f3565b60016000819055508873ffffffffffffffffffffffffffffffffffffffff1660808173ffffffffffffffffffffffffffffffffffffffff1660601b815250508773ffffffffffffffffffffffffffffffffffffffff1660a08173ffffffffffffffffffffffffffffffffffffffff1660601b815250508660019080519060200190620000f3929190620001d7565b5085600290805190602001906200010c929190620001d7565b50846003908051906020019062000125929190620001d7565b5083600690805190602001906200013e929190620001d7565b50826007819055504260c08181525050624f1a00821162000160578162000165565b624f1a005b6008819055506200018960085460c051620001bf60201b620028261790919060201c565b600a819055508060049080519060200190620001a7929190620001d7565b5060006009819055505050505050505050506200075e565b60008183620001cf91906200069c565b905092915050565b828054620001e59062000728565b90600052602060002090601f01602090048101928262000209576000855562000255565b82601f106200022457805160ff191683800117855562000255565b8280016001018555821562000255579182015b828111156200025457825182559160200191906001019062000237565b5b50905062000264919062000268565b5090565b5b808211156200028357600081600090555060010162000269565b5090565b7f4e487b7100000000000000000000000000000000000000000000000000000000600052602160045260246000fd5b6000604051905090565b600080fd5b600080fd5b600073ffffffffffffffffffffffffffffffffffffffff82169050919050565b6000620002f782620002ca565b9050919050565b6200030981620002ea565b81146200031557600080fd5b50565b6000815190506200032981620002fe565b92915050565b600080fd5b600080fd5b6000601f19601f8301169050919050565b7f4e487b7100000000000000000000000000000000000000000000000000000000600052604160045260246000fd5b620003848262000339565b810181811067ffffffffffffffff82111715620003a657620003a56200034a565b5b80604052505050565b6000620003bb620002b6565b9050620003c9828262000379565b919050565b600067ffffffffffffffff821115620003ec57620003eb6200034a565b5b620003f78262000339565b9050602081019050919050565b60005b838110156200042457808201518184015260208101905062000407565b8381111562000434576000848401525b50505050565b6000620004516200044b84620003ce565b620003af565b90508281526020810184848401111562000470576200046f62000334565b5b6200047d84828562000404565b509392505050565b600082601f8301126200049d576200049c6200032f565b5b8151620004af8482602086016200043a565b91505092915050565b6000819050919050565b620004cd81620004b8565b8114620004d957600080fd5b50565b600081519050620004ed81620004c2565b92915050565b60008060008060008060008060006101208a8c031215620005195762000518620002c0565b5b6000620005298c828d0162000318565b99505060206200053c8c828d0162000318565b98505060408a015167ffffffffffffffff81111562000560576200055f620002c5565b5b6200056e8c828d0162000485565b97505060608a015167ffffffffffffffff811115620005925762000591620002c5565b5b620005a08c828d0162000485565b96505060808a015167ffffffffffffffff811115620005c457620005c3620002c5565b5b620005d28c828d0162000485565b95505060a08a015167ffffffffffffffff811115620005f657620005f5620002c5565b5b620006048c828d0162000485565b94505060c0620006178c828d01620004dc565b93505060e06200062a8c828d01620004dc565b9250506101008a015167ffffffffffffffff8111156200064f576200064e620002c5565b5b6200065d8c828d0162000485565b9150509295985092959850929598565b7f4e487b7100000000000000000000000000000000000000000000000000000000600052601160045260246000fd5b6000620006a982620004b8565b9150620006b683620004b8565b9250827fffffffffffffffffffffffffffffffffffffffffffffffffffffffffffffffff03821115620006ee57620006ed6200066d565b5b828201905092915050565b7f4e487b7100000000000000000000000000000000000000000000000000000000600052602260045260246000fd5b600060028204905060018216806200074157607f821691505b60208210811415620007585762000757620006f9565b5b50919050565b60805160601c60a05160601c60c051613e98620007ef60003960008181611bf3015261248901526000818161083a01528181610bc20152818161162801528181611755015281816118d3015281816119b301528181611ab601528181611b6701528181611c8501528181611e890152818161203601526123bb015260008181610775015261250f0152613e986000f3fe6080604052600436106101d05760003560e01c806360fa9a72116100f7578063b145603e11610095578063ce845d1d11610064578063ce845d1d14610665578063f301af4214610690578063fa6ded39146106d3578063fa89401a146106fc576101d7565b8063b145603e146105b9578063bf66e2c8146105e4578063c5cd50781461060f578063ce2a05721461063a576101d7565b80636e04ff0d116100d15780636e04ff0d146105105780636e60eef71461054e57806371aac7f91461057757806399a8502d1461058e576101d7565b806360fa9a72146104915780636235887a146104bc57806363bd1d4a146104f9576101d7565b80631c4b774b1161016f5780634585e33b1161013e5780634585e33b146103eb5780634d695bdb146104145780634ef897191461043d5780635f70026614610468576101d7565b80631c4b774b1461032d5780632636b9451461036a57806329dcb0cf146103955780634278ac8b146103c0576101d7565b80630fb5a6b4116101ab5780630fb5a6b41461025d57806315a46ee6146102885780631774d960146102b35780631910bdc2146102f0576101d7565b8062362a95146101d957806309917c50146101f55780630c611f2414610232576101d7565b366101d757005b005b6101f360048036038101906101ee9190612b23565b610725565b005b34801561020157600080fd5b5061021c60048036038101906102179190612b23565b610b94565b6040516102299190612b69565b60405180910390f35b34801561023e57600080fd5b50610247610bac565b6040516102549190612dd9565b60405180910390f35b34801561026957600080fd5b50610272610fa6565b60405161027f9190612b69565b60405180910390f35b34801561029457600080fd5b5061029d610fac565b6040516102aa9190612e45565b60405180910390f35b3480156102bf57600080fd5b506102da60048036038101906102d59190612e93565b61103a565b6040516102e79190612b69565b60405180910390f35b3480156102fc57600080fd5b5061031760048036038101906103129190612b23565b61106b565b6040516103249190612f82565b60405180910390f35b34801561033957600080fd5b50610354600480360381019061034f9190612fa4565b611102565b604051610361919061318f565b60405180910390f35b34801561037657600080fd5b5061037f6114d1565b60405161038c9190612b69565b60405180910390f35b3480156103a157600080fd5b506103aa6114d7565b6040516103b79190612b69565b60405180910390f35b3480156103cc57600080fd5b506103d56114dd565b6040516103e29190612e45565b60405180910390f35b3480156103f757600080fd5b50610412600480360381019061040d9190613216565b61156b565b005b34801561042057600080fd5b5061043b60048036038101906104369190613393565b611626565b005b34801561044957600080fd5b506104526116c5565b60405161045f9190612e45565b60405180910390f35b34801561047457600080fd5b5061048f600480360381019061048a91906133dc565b611753565b005b34801561049d57600080fd5b506104a661197a565b6040516104b3919061343e565b60405180910390f35b3480156104c857600080fd5b506104e360048036038101906104de9190612fa4565b61198d565b6040516104f09190612b69565b60405180910390f35b34801561050557600080fd5b5061050e6119b1565b005b34801561051c57600080fd5b50610537600480360381019061053291906134fa565b611bab565b6040516105459291906135a7565b60405180910390f35b34801561055a57600080fd5b50610575600480360381019061057091906136e4565b611c83565b005b34801561058357600080fd5b5061058c611e87565b005b34801561059a57600080fd5b506105a3611fa6565b6040516105b09190612e45565b60405180910390f35b3480156105c557600080fd5b506105ce612034565b6040516105db919061385b565b60405180910390f35b3480156105f057600080fd5b506105f9612058565b6040516106069190612f82565b60405180910390f35b34801561061b57600080fd5b506106246120b0565b6040516106319190612e45565b60405180910390f35b34801561064657600080fd5b5061064f61213e565b60405161065c9190612e45565b60405180910390f35b34801561067157600080fd5b5061067a6121cc565b6040516106879190612b69565b60405180910390f35b34801561069c57600080fd5b506106b760048036038101906106b29190612fa4565b6121d2565b6040516106ca9796959493929190613876565b60405180910390f35b3480156106df57600080fd5b506106fa60048036038101906106f59190612fa4565b6123b9565b005b34801561070857600080fd5b50610723600480360381019061071e9190612b23565b6124bf565b005b6002600054141561076b576040517f08c379a000000000000000000000000000000000000000000000000000000000815260040161076290613946565b60405180910390fd5b60026000819055507f000000000000000000000000000000000000000000000000000000000000000073ffffffffffffffffffffffffffffffffffffffff163373ffffffffffffffffffffffffffffffffffffffff16146107cb57600080fd5b600060028111156107df576107de612c3b565b5b600b60009054906101000a900460ff16600281111561080157610800612c3b565b5b14610838576040517faeb8874900000000000000000000000000000000000000000000000000000000815260040160405180910390fd5b7f000000000000000000000000000000000000000000000000000000000000000073ffffffffffffffffffffffffffffffffffffffff168173ffffffffffffffffffffffffffffffffffffffff1614156108be576040517f1e4a120d00000000000000000000000000000000000000000000000000000000815260040160405180910390fd5b6108d33460095461282690919063ffffffff16565b6009819055506000600d6000348152602001908152602001600020600001541180156109205750600d600034815260200190815260200160002060070160009054906101000a900460ff16155b156109f0576000600d60003481526020019081526020016000206006015411156109ef5761096e6001600d60003481526020019081526020016000206006015461283c90919063ffffffff16565b600d600034815260200190815260200160002060060181905550600e60008273ffffffffffffffffffffffffffffffffffffffff1673ffffffffffffffffffffffffffffffffffffffff1681526020019081526020016000203490806001815401808255809150506001900390600052602060002001600090919091909150555b5b6000600d600034815260200190815260200160002060000154118015610a365750600d600034815260200190815260200160002060070160009054906101000a900460ff165b15610aa257600e60008273ffffffffffffffffffffffffffffffffffffffff1673ffffffffffffffffffffffffffffffffffffffff1681526020019081526020016000203490806001815401808255809150506001900390600052602060002001600090919091909150555b610af434600f60008473ffffffffffffffffffffffffffffffffffffffff1673ffffffffffffffffffffffffffffffffffffffff1681526020019081526020016000205461282690919063ffffffff16565b600f60008373ffffffffffffffffffffffffffffffffffffffff1673ffffffffffffffffffffffffffffffffffffffff168152602001908152602001600020819055508073ffffffffffffffffffffffffffffffffffffffff167fe76ad748537a48e778fef43dda4a6bd1b50cd62385f9f21a9ca267492355120834600954604051610b81929190613966565b60405180910390a2600160008190555050565b600f6020528060005260406000206000915090505481565b610bb4612852565b6040518061018001604052807f000000000000000000000000000000000000000000000000000000000000000073ffffffffffffffffffffffffffffffffffffffff16815260200160018054610c09906139be565b80601f0160208091040260200160405190810160405280929190818152602001828054610c35906139be565b8015610c825780601f10610c5757610100808354040283529160200191610c82565b820191906000526020600020905b815481529060010190602001808311610c6557829003601f168201915b5050505050815260200160028054610c99906139be565b80601f0160208091040260200160405190810160405280929190818152602001828054610cc5906139be565b8015610d125780601f10610ce757610100808354040283529160200191610d12565b820191906000526020600020905b815481529060010190602001808311610cf557829003601f168201915b5050505050815260200160038054610d29906139be565b80601f0160208091040260200160405190810160405280929190818152602001828054610d55906139be565b8015610da25780601f10610d7757610100808354040283529160200191610da2565b820191906000526020600020905b815481529060010190602001808311610d8557829003601f168201915b5050505050815260200160068054610db9906139be565b80601f0160208091040260200160405190810160405280929190818152602001828054610de5906139be565b8015610e325780601f10610e0757610100808354040283529160200191610e32565b820191906000526020600020905b815481529060010190602001808311610e1557829003601f168201915b50505050508152602001600754815260200160085481526020016009548152602001600b60009054906101000a900460ff166002811115610e7657610e75612c3b565b5b815260200160048054610e88906139be565b80601f0160208091040260200160405190810160405280929190818152602001828054610eb4906139be565b8015610f015780601f10610ed657610100808354040283529160200191610f01565b820191906000526020600020905b815481529060010190602001808311610ee457829003601f168201915b5050505050815260200160058054610f18906139be565b80601f0160208091040260200160405190810160405280929190818152602001828054610f44906139be565b8015610f915780601f10610f6657610100808354040283529160200191610f91565b820191906000526020600020905b815481529060010190602001808311610f7457829003601f168201915b50505050508152602001600a54815250905090565b60085481565b60058054610fb9906139be565b80601f0160208091040260200160405190810160405280929190818152602001828054610fe5906139be565b80156110325780601f1061100757610100808354040283529160200191611032565b820191906000526020600020905b81548152906001019060200180831161101557829003601f168201915b505050505081565b600e602052816000526040600020818154811061105657600080fd5b90600052602060002001600091509150505481565b6060600e60008373ffffffffffffffffffffffffffffffffffffffff1673ffffffffffffffffffffffffffffffffffffffff1681526020019081526020016000208054806020026020016040519081016040528092919081815260200182805480156110f657602002820191906000526020600020905b8154815260200190600101908083116110e2575b50505050509050919050565b61110a6128db565b600d60008381526020019081526020016000206040518061012001604052908160008201548152602001600182018054611143906139be565b80601f016020809104026020016040519081016040528092919081815260200182805461116f906139be565b80156111bc5780601f10611191576101008083540402835291602001916111bc565b820191906000526020600020905b81548152906001019060200180831161119f57829003601f168201915b505050505081526020016002820180546111d5906139be565b80601f0160208091040260200160405190810160405280929190818152602001828054611201906139be565b801561124e5780601f106112235761010080835404028352916020019161124e565b820191906000526020600020905b81548152906001019060200180831161123157829003601f168201915b50505050508152602001600382018054611267906139be565b80601f0160208091040260200160405190810160405280929190818152602001828054611293906139be565b80156112e05780601f106112b5576101008083540402835291602001916112e0565b820191906000526020600020905b8154815290600101906020018083116112c357829003601f168201915b5050505050815260200160048201805480602002602001604051908101604052809291908181526020016000905b828210156113ba57838290600052602060002001805461132d906139be565b80601f0160208091040260200160405190810160405280929190818152602001828054611359906139be565b80156113a65780601f1061137b576101008083540402835291602001916113a6565b820191906000526020600020905b81548152906001019060200180831161138957829003601f168201915b50505050508152602001906001019061130e565b50505050815260200160058201548152602001600682015481526020016007820160009054906101000a900460ff1615151515815260200160088201805480602002602001604051908101604052809291908181526020016000905b828210156114c2578382906000526020600020018054611435906139be565b80601f0160208091040260200160405190810160405280929190818152602001828054611461906139be565b80156114ae5780601f10611483576101008083540402835291602001916114ae565b820191906000526020600020905b81548152906001019060200180831161149157829003601f168201915b505050505081526020019060010190611416565b50505050815250509050919050565b60075481565b600a5481565b600380546114ea906139be565b80601f0160208091040260200160405190810160405280929190818152602001828054611516906139be565b80156115635780601f1061153857610100808354040283529160200191611563565b820191906000526020600020905b81548152906001019060200180831161154657829003601f168201915b505050505081565b600061158560405180602001604052806000815250611bab565b509050806115bf576040517fbc7a0a6300000000000000000000000000000000000000000000000000000000815260040160405180910390fd5b6001600b60006101000a81548160ff021916908360028111156115e5576115e4612c3b565b5b02179055507f5cf8cd2bd40f758a95257bed666285eb82801f1bf9223b8ec1481e510ba2e82d3060405161161991906139ff565b60405180910390a1505050565b7f000000000000000000000000000000000000000000000000000000000000000073ffffffffffffffffffffffffffffffffffffffff163373ffffffffffffffffffffffffffffffffffffffff16146116ab576040517fb167e90c00000000000000000000000000000000000000000000000000000000815260040160405180910390fd5b80600590805190602001906116c1929190612929565b5050565b600280546116d2906139be565b80601f01602080910402602001604051908101604052809291908181526020018280546116fe906139be565b801561174b5780601f106117205761010080835404028352916020019161174b565b820191906000526020600020905b81548152906001019060200180831161172e57829003601f168201915b505050505081565b7f000000000000000000000000000000000000000000000000000000000000000073ffffffffffffffffffffffffffffffffffffffff163373ffffffffffffffffffffffffffffffffffffffff16146117d8576040517fb167e90c00000000000000000000000000000000000000000000000000000000815260040160405180910390fd5b6000839050600083905060008173ffffffffffffffffffffffffffffffffffffffff166370a08231876040518263ffffffff1660e01b815260040161181d91906139ff565b60206040518083038186803b15801561183557600080fd5b505afa158015611849573d6000803e3d6000fd5b505050506040513d601f19601f8201168201806040525081019061186d9190613a2f565b14156118ae576040517f08c379a00000000000000000000000000000000000000000000000000000000081526004016118a590613aa8565b60405180910390fd5b8173ffffffffffffffffffffffffffffffffffffffff16634c7e9be36001856207a1207f0000000000000000000000000000000000000000000000000000000000000000671bc16d674ec800006040518663ffffffff1660e01b815260040161191b959493929190613ca6565b602060405180830381600087803b15801561193557600080fd5b505af1158015611949573d6000803e3d6000fd5b505050506040513d601f19601f8201168201806040525081019061196d9190613a2f565b600c819055505050505050565b600b60009054906101000a900460ff1681565b6010818154811061199d57600080fd5b906000526020600020016000915090505481565b7f000000000000000000000000000000000000000000000000000000000000000073ffffffffffffffffffffffffffffffffffffffff163373ffffffffffffffffffffffffffffffffffffffff1614611a36576040517fb167e90c00000000000000000000000000000000000000000000000000000000815260040160405180910390fd5b60016002811115611a4a57611a49612c3b565b5b600b60009054906101000a900460ff166002811115611a6c57611a6b612c3b565b5b14611aa3576040517faeb8874900000000000000000000000000000000000000000000000000000000815260040160405180910390fd5b60006009549050600060098190555060007f000000000000000000000000000000000000000000000000000000000000000073ffffffffffffffffffffffffffffffffffffffff1682604051611af890613d6b565b60006040518083038185875af1925050503d8060008114611b35576040519150601f19603f3d011682016040523d82523d6000602084013e611b3a565b606091505b505090508015611ba2577fba5e837743d81ad0e6deb16089dbb65b549fdda8ad802fd8d4822884d70dc8b27f000000000000000000000000000000000000000000000000000000000000000030604051611b95929190613d80565b60405180910390a1611ba7565b600080fd5b5050565b600060606000806002811115611bc457611bc3612c3b565b5b600b60009054906101000a900460ff166002811115611be657611be5612c3b565b5b1490506000600854611c217f00000000000000000000000000000000000000000000000000000000000000004261283c90919063ffffffff16565b11905060008047119050818015611c355750825b8015611c3e5750805b9450846040518060400160405280600381526020017f307830000000000000000000000000000000000000000000000000000000000081525094509450505050915091565b7f000000000000000000000000000000000000000000000000000000000000000073ffffffffffffffffffffffffffffffffffffffff163373ffffffffffffffffffffffffffffffffffffffff1614611d08576040517fb167e90c00000000000000000000000000000000000000000000000000000000815260040160405180910390fd5b60108990806001815401808255809150506001900390600052602060002001600090919091909150556000600d60008b81526020019081526020016000206000015414611d5457600080fd5b6040518061012001604052808a8152602001898152602001888152602001878152602001868152602001858152602001848152602001831515815260200182815250600d60008b8152602001908152602001600020600082015181600001556020820151816001019080519060200190611dcf929190612929565b506040820151816002019080519060200190611dec929190612929565b506060820151816003019080519060200190611e09929190612929565b506080820151816004019080519060200190611e269291906129af565b5060a0820151816005015560c0820151816006015560e08201518160070160006101000a81548160ff021916908315150217905550610100820151816008019080519060200190611e789291906129af565b50905050505050505050505050565b7f000000000000000000000000000000000000000000000000000000000000000073ffffffffffffffffffffffffffffffffffffffff163373ffffffffffffffffffffffffffffffffffffffff1614611f0c576040517fb167e90c00000000000000000000000000000000000000000000000000000000815260040160405180910390fd5b60016002811115611f2057611f1f612c3b565b5b600b60009054906101000a900460ff166002811115611f4257611f41612c3b565b5b1415611f4d57600080fd5b6002600b60006101000a81548160ff02191690836002811115611f7357611f72612c3b565b5b02179055507fb83ebe09f40e9293bdea1d6567fae3175119d3d0ff13c4b4df15994837dd7f5160405160405180910390a1565b60018054611fb3906139be565b80601f0160208091040260200160405190810160405280929190818152602001828054611fdf906139be565b801561202c5780601f106120015761010080835404028352916020019161202c565b820191906000526020600020905b81548152906001019060200180831161200f57829003601f168201915b505050505081565b7f000000000000000000000000000000000000000000000000000000000000000081565b606060108054806020026020016040519081016040528092919081815260200182805480156120a657602002820191906000526020600020905b815481526020019060010190808311612092575b5050505050905090565b600680546120bd906139be565b80601f01602080910402602001604051908101604052809291908181526020018280546120e9906139be565b80156121365780601f1061210b57610100808354040283529160200191612136565b820191906000526020600020905b81548152906001019060200180831161211957829003601f168201915b505050505081565b6004805461214b906139be565b80601f0160208091040260200160405190810160405280929190818152602001828054612177906139be565b80156121c45780601f10612199576101008083540402835291602001916121c4565b820191906000526020600020905b8154815290600101906020018083116121a757829003601f168201915b505050505081565b60095481565b600d6020528060005260406000206000915090508060000154908060010180546121fb906139be565b80601f0160208091040260200160405190810160405280929190818152602001828054612227906139be565b80156122745780601f1061224957610100808354040283529160200191612274565b820191906000526020600020905b81548152906001019060200180831161225757829003601f168201915b505050505090806002018054612289906139be565b80601f01602080910402602001604051908101604052809291908181526020018280546122b5906139be565b80156123025780601f106122d757610100808354040283529160200191612302565b820191906000526020600020905b8154815290600101906020018083116122e557829003601f168201915b505050505090806003018054612317906139be565b80601f0160208091040260200160405190810160405280929190818152602001828054612343906139be565b80156123905780601f1061236557610100808354040283529160200191612390565b820191906000526020600020905b81548152906001019060200180831161237357829003601f168201915b5050505050908060050154908060060154908060070160009054906101000a900460ff16905087565b7f000000000000000000000000000000000000000000000000000000000000000073ffffffffffffffffffffffffffffffffffffffff163373ffffffffffffffffffffffffffffffffffffffff161461243e576040517fb167e90c00000000000000000000000000000000000000000000000000000000815260040160405180910390fd5b624f1a006124578260085461282690919063ffffffff16565b11612476576124718160085461282690919063ffffffff16565b61247b565b624f1a005b6008819055506124b66008547f000000000000000000000000000000000000000000000000000000000000000061282690919063ffffffff16565b600a8190555050565b60026000541415612505576040517f08c379a00000000000000000000000000000000000000000000000000000000081526004016124fc90613946565b60405180910390fd5b60026000819055507f000000000000000000000000000000000000000000000000000000000000000073ffffffffffffffffffffffffffffffffffffffff163373ffffffffffffffffffffffffffffffffffffffff161461256557600080fd5b6001600281111561257957612578612c3b565b5b600b60009054906101000a900460ff16600281111561259b5761259a612c3b565b5b14156125d3576040517faeb8874900000000000000000000000000000000000000000000000000000000815260040160405180910390fd5b6000600f60008373ffffffffffffffffffffffffffffffffffffffff1673ffffffffffffffffffffffffffffffffffffffff16815260200190815260200160002054141561264d576040517f4cc8b68700000000000000000000000000000000000000000000000000000000815260040160405180910390fd5b6000600f60008373ffffffffffffffffffffffffffffffffffffffff1673ffffffffffffffffffffffffffffffffffffffff1681526020019081526020016000205490508060095410156126cd576040517f4d83c95000000000000000000000000000000000000000000000000000000000815260040160405180910390fd5b6126e28160095461283c90919063ffffffff16565b60098190555060008273ffffffffffffffffffffffffffffffffffffffff168260405161270e90613d6b565b60006040518083038185875af1925050503d806000811461274b576040519150601f19603f3d011682016040523d82523d6000602084013e612750565b606091505b505090508061278b576040517f0520edd000000000000000000000000000000000000000000000000000000000815260040160405180910390fd5b600e60008473ffffffffffffffffffffffffffffffffffffffff1673ffffffffffffffffffffffffffffffffffffffff16815260200190815260200160002060006127d69190612a0f565b600f60008473ffffffffffffffffffffffffffffffffffffffff1673ffffffffffffffffffffffffffffffffffffffff168152602001908152602001600020600090555050600160008190555050565b600081836128349190613dd8565b905092915050565b6000818361284a9190613e2e565b905092915050565b604051806101800160405280600073ffffffffffffffffffffffffffffffffffffffff16815260200160608152602001606081526020016060815260200160608152602001600081526020016000815260200160008152602001600060028111156128c0576128bf612c3b565b5b81526020016060815260200160608152602001600081525090565b60405180610120016040528060008152602001606081526020016060815260200160608152602001606081526020016000815260200160008152602001600015158152602001606081525090565b828054612935906139be565b90600052602060002090601f016020900481019282612957576000855561299e565b82601f1061297057805160ff191683800117855561299e565b8280016001018555821561299e579182015b8281111561299d578251825591602001919060010190612982565b5b5090506129ab9190612a30565b5090565b8280548282559060005260206000209081019282156129fe579160200282015b828111156129fd5782518290805190602001906129ed929190612929565b50916020019190600101906129cf565b5b509050612a0b9190612a4d565b5090565b5080546000825590600052602060002090810190612a2d9190612a30565b50565b5b80821115612a49576000816000905550600101612a31565b5090565b5b80821115612a6d5760008181612a649190612a71565b50600101612a4e565b5090565b508054612a7d906139be565b6000825580601f10612a8f5750612aae565b601f016020900490600052602060002090810190612aad9190612a30565b5b50565b6000604051905090565b600080fd5b600080fd5b600073ffffffffffffffffffffffffffffffffffffffff82169050919050565b6000612af082612ac5565b9050919050565b612b0081612ae5565b8114612b0b57600080fd5b50565b600081359050612b1d81612af7565b92915050565b600060208284031215612b3957612b38612abb565b5b6000612b4784828501612b0e565b91505092915050565b6000819050919050565b612b6381612b50565b82525050565b6000602082019050612b7e6000830184612b5a565b92915050565b612b8d81612ae5565b82525050565b600081519050919050565b600082825260208201905092915050565b60005b83811015612bcd578082015181840152602081019050612bb2565b83811115612bdc576000848401525b50505050565b6000601f19601f8301169050919050565b6000612bfe82612b93565b612c088185612b9e565b9350612c18818560208601612baf565b612c2181612be2565b840191505092915050565b612c3581612b50565b82525050565b7f4e487b7100000000000000000000000000000000000000000000000000000000600052602160045260246000fd5b60038110612c7b57612c7a612c3b565b5b50565b6000819050612c8c82612c6a565b919050565b6000612c9c82612c7e565b9050919050565b612cac81612c91565b82525050565b600061018083016000830151612ccb6000860182612b84565b5060208301518482036020860152612ce38282612bf3565b91505060408301518482036040860152612cfd8282612bf3565b91505060608301518482036060860152612d178282612bf3565b91505060808301518482036080860152612d318282612bf3565b91505060a0830151612d4660a0860182612c2c565b5060c0830151612d5960c0860182612c2c565b5060e0830151612d6c60e0860182612c2c565b50610100830151612d81610100860182612ca3565b50610120830151848203610120860152612d9b8282612bf3565b915050610140830151848203610140860152612db78282612bf3565b915050610160830151612dce610160860182612c2c565b508091505092915050565b60006020820190508181036000830152612df38184612cb2565b905092915050565b600082825260208201905092915050565b6000612e1782612b93565b612e218185612dfb565b9350612e31818560208601612baf565b612e3a81612be2565b840191505092915050565b60006020820190508181036000830152612e5f8184612e0c565b905092915050565b612e7081612b50565b8114612e7b57600080fd5b50565b600081359050612e8d81612e67565b92915050565b60008060408385031215612eaa57612ea9612abb565b5b6000612eb885828601612b0e565b9250506020612ec985828601612e7e565b9150509250929050565b600081519050919050565b600082825260208201905092915050565b6000819050602082019050919050565b6000612f0b8383612c2c565b60208301905092915050565b6000602082019050919050565b6000612f2f82612ed3565b612f398185612ede565b9350612f4483612eef565b8060005b83811015612f75578151612f5c8882612eff565b9750612f6783612f17565b925050600181019050612f48565b5085935050505092915050565b60006020820190508181036000830152612f9c8184612f24565b905092915050565b600060208284031215612fba57612fb9612abb565b5b6000612fc884828501612e7e565b91505092915050565b600081519050919050565b600082825260208201905092915050565b6000819050602082019050919050565b60006130098383612bf3565b905092915050565b6000602082019050919050565b600061302982612fd1565b6130338185612fdc565b93508360208202850161304585612fed565b8060005b8581101561308157848403895281516130628582612ffd565b945061306d83613011565b925060208a01995050600181019050613049565b50829750879550505050505092915050565b60008115159050919050565b6130a881613093565b82525050565b6000610120830160008301516130c76000860182612c2c565b50602083015184820360208601526130df8282612bf3565b915050604083015184820360408601526130f98282612bf3565b915050606083015184820360608601526131138282612bf3565b9150506080830151848203608086015261312d828261301e565b91505060a083015161314260a0860182612c2c565b5060c083015161315560c0860182612c2c565b5060e083015161316860e086018261309f565b50610100830151848203610100860152613182828261301e565b9150508091505092915050565b600060208201905081810360008301526131a981846130ae565b905092915050565b600080fd5b600080fd5b600080fd5b60008083601f8401126131d6576131d56131b1565b5b8235905067ffffffffffffffff8111156131f3576131f26131b6565b5b60208301915083600182028301111561320f5761320e6131bb565b5b9250929050565b6000806020838503121561322d5761322c612abb565b5b600083013567ffffffffffffffff81111561324b5761324a612ac0565b5b613257858286016131c0565b92509250509250929050565b600080fd5b7f4e487b7100000000000000000000000000000000000000000000000000000000600052604160045260246000fd5b6132a082612be2565b810181811067ffffffffffffffff821117156132bf576132be613268565b5b80604052505050565b60006132d2612ab1565b90506132de8282613297565b919050565b600067ffffffffffffffff8211156132fe576132fd613268565b5b61330782612be2565b9050602081019050919050565b82818337600083830152505050565b6000613336613331846132e3565b6132c8565b90508281526020810184848401111561335257613351613263565b5b61335d848285613314565b509392505050565b600082601f83011261337a576133796131b1565b5b813561338a848260208601613323565b91505092915050565b6000602082840312156133a9576133a8612abb565b5b600082013567ffffffffffffffff8111156133c7576133c6612ac0565b5b6133d384828501613365565b91505092915050565b6000806000606084860312156133f5576133f4612abb565b5b600061340386828701612b0e565b935050602061341486828701612b0e565b925050604061342586828701612b0e565b9150509250925092565b61343881612c91565b82525050565b6000602082019050613453600083018461342f565b92915050565b600067ffffffffffffffff82111561347457613473613268565b5b61347d82612be2565b9050602081019050919050565b600061349d61349884613459565b6132c8565b9050828152602081018484840111156134b9576134b8613263565b5b6134c4848285613314565b509392505050565b600082601f8301126134e1576134e06131b1565b5b81356134f184826020860161348a565b91505092915050565b6000602082840312156135105761350f612abb565b5b600082013567ffffffffffffffff81111561352e5761352d612ac0565b5b61353a848285016134cc565b91505092915050565b61354c81613093565b82525050565b600081519050919050565b600082825260208201905092915050565b600061357982613552565b613583818561355d565b9350613593818560208601612baf565b61359c81612be2565b840191505092915050565b60006040820190506135bc6000830185613543565b81810360208301526135ce818461356e565b90509392505050565b600067ffffffffffffffff8211156135f2576135f1613268565b5b602082029050602081019050919050565b6000613616613611846135d7565b6132c8565b90508083825260208201905060208402830185811115613639576136386131bb565b5b835b8181101561368057803567ffffffffffffffff81111561365e5761365d6131b1565b5b80860161366b8982613365565b8552602085019450505060208101905061363b565b5050509392505050565b600082601f83011261369f5761369e6131b1565b5b81356136af848260208601613603565b91505092915050565b6136c181613093565b81146136cc57600080fd5b50565b6000813590506136de816136b8565b92915050565b60008060008060008060008060006101208a8c03121561370757613706612abb565b5b60006137158c828d01612e7e565b99505060208a013567ffffffffffffffff81111561373657613735612ac0565b5b6137428c828d01613365565b98505060408a013567ffffffffffffffff81111561376357613762612ac0565b5b61376f8c828d01613365565b97505060608a013567ffffffffffffffff8111156137905761378f612ac0565b5b61379c8c828d01613365565b96505060808a013567ffffffffffffffff8111156137bd576137bc612ac0565b5b6137c98c828d0161368a565b95505060a06137da8c828d01612e7e565b94505060c06137eb8c828d01612e7e565b93505060e06137fc8c828d016136cf565b9250506101008a013567ffffffffffffffff81111561381e5761381d612ac0565b5b61382a8c828d0161368a565b9150509295985092959850929598565b600061384582612ac5565b9050919050565b6138558161383a565b82525050565b6000602082019050613870600083018461384c565b92915050565b600060e08201905061388b600083018a612b5a565b818103602083015261389d8189612e0c565b905081810360408301526138b18188612e0c565b905081810360608301526138c58187612e0c565b90506138d46080830186612b5a565b6138e160a0830185612b5a565b6138ee60c0830184613543565b98975050505050505050565b7f5265656e7472616e637947756172643a207265656e7472616e742063616c6c00600082015250565b6000613930601f83612dfb565b915061393b826138fa565b602082019050919050565b6000602082019050818103600083015261395f81613923565b9050919050565b600060408201905061397b6000830185612b5a565b6139886020830184612b5a565b9392505050565b7f4e487b7100000000000000000000000000000000000000000000000000000000600052602260045260246000fd5b600060028204905060018216806139d657607f821691505b602082108114156139ea576139e961398f565b5b50919050565b6139f981612ae5565b82525050565b6000602082019050613a1460008301846139f0565b92915050565b600081519050613a2981612e67565b92915050565b600060208284031215613a4557613a44612abb565b5b6000613a5384828501613a1a565b91505092915050565b7f6e6f2066756e6473000000000000000000000000000000000000000000000000600082015250565b6000613a92600883612dfb565b9150613a9d82613a5c565b602082019050919050565b60006020820190508181036000830152613ac181613a85565b9050919050565b60008190508160005260206000209050919050565b60008154613aea816139be565b613af48186612dfb565b94506001821660008114613b0f5760018114613b2157613b54565b60ff1983168652602086019350613b54565b613b2a85613ac8565b60005b83811015613b4c57815481890152600182019150602081019050613b2d565b808801955050505b50505092915050565b7f3078000000000000000000000000000000000000000000000000000000000000600082015250565b6000613b9360028361355d565b9150613b9e82613b5d565b602082019050919050565b6000819050919050565b600063ffffffff82169050919050565b6000819050919050565b6000613be8613be3613bde84613ba9565b613bc3565b613bb3565b9050919050565b613bf881613bcd565b82525050565b6000613c19613c14613c0f84612ac5565b613bc3565b612ac5565b9050919050565b6000613c2b82613bfe565b9050919050565b6000613c3d82613c20565b9050919050565b613c4d81613c32565b82525050565b6000819050919050565b60006bffffffffffffffffffffffff82169050919050565b6000613c90613c8b613c8684613c53565b613bc3565b613c5d565b9050919050565b613ca081613c75565b82525050565b6000610100820190508181036000830152613cc18188613add565b90508181036020830152613cd481613b86565b9050613ce360408301876139f0565b613cf06060830186613bef565b613cfd6080830185613c44565b81810360a0830152613d0e81613b86565b905081810360c0830152613d2181613b86565b9050613d3060e0830184613c97565b9695505050505050565b600081905092915050565b50565b6000613d55600083613d3a565b9150613d6082613d45565b600082019050919050565b6000613d7682613d48565b9150819050919050565b6000604082019050613d956000830185613c44565b613da260208301846139f0565b9392505050565b7f4e487b7100000000000000000000000000000000000000000000000000000000600052601160045260246000fd5b6000613de382612b50565b9150613dee83612b50565b9250827fffffffffffffffffffffffffffffffffffffffffffffffffffffffffffffffff03821115613e2357613e22613da9565b5b828201905092915050565b6000613e3982612b50565b9150613e4483612b50565b925082821015613e5757613e56613da9565b5b82820390509291505056fea2646970667358221220593a1c22cf867ee62f040ee747695cfb9efca970e8ef942a3f24c2ce03060ed764736f6c63430008080033",
  "devdoc": {
    "kind": "dev",
    "methods": {
      "checkUpkeep(bytes)": {
        "details": "this is the function chainlink keepers calls chekupkeep returns true to trigger the action after the interval has passed"
      }
    },
    "version": 1
  },
  "userdoc": {
    "errors": {
      "Cmp_NoDns()": [
        {
          "notice": "donator is creator "
        }
      ],
      "Cmp_NotCrtr()": [
        {
          "notice": "not in state "
        }
      ]
    },
    "kind": "user",
    "methods": {},
    "version": 1
  },
  "storageLayout": {
    "storage": [
      {
        "astId": 371,
        "contract": "contracts/Campaign.sol:Campaign",
        "label": "_status",
        "offset": 0,
        "slot": "0",
        "type": "t_uint256"
      },
      {
        "astId": 756,
        "contract": "contracts/Campaign.sol:Campaign",
        "label": "s_title",
        "offset": 0,
        "slot": "1",
        "type": "t_string_storage"
      },
      {
        "astId": 758,
        "contract": "contracts/Campaign.sol:Campaign",
        "label": "s_description",
        "offset": 0,
        "slot": "2",
        "type": "t_string_storage"
      },
      {
        "astId": 760,
        "contract": "contracts/Campaign.sol:Campaign",
        "label": "s_category",
        "offset": 0,
        "slot": "3",
        "type": "t_string_storage"
      },
      {
        "astId": 762,
        "contract": "contracts/Campaign.sol:Campaign",
        "label": "s_imageURI",
        "offset": 0,
        "slot": "4",
        "type": "t_string_storage"
      },
      {
        "astId": 764,
        "contract": "contracts/Campaign.sol:Campaign",
        "label": "s_campaignURI",
        "offset": 0,
        "slot": "5",
        "type": "t_string_storage"
      },
      {
        "astId": 766,
        "contract": "contracts/Campaign.sol:Campaign",
        "label": "s_tags",
        "offset": 0,
        "slot": "6",
        "type": "t_string_storage"
      },
      {
        "astId": 768,
        "contract": "contracts/Campaign.sol:Campaign",
        "label": "goalAmount",
        "offset": 0,
        "slot": "7",
        "type": "t_uint256"
      },
      {
        "astId": 770,
        "contract": "contracts/Campaign.sol:Campaign",
        "label": "duration",
        "offset": 0,
        "slot": "8",
        "type": "t_uint256"
      },
      {
        "astId": 772,
        "contract": "contracts/Campaign.sol:Campaign",
        "label": "currentBalance",
        "offset": 0,
        "slot": "9",
        "type": "t_uint256"
      },
      {
        "astId": 779,
        "contract": "contracts/Campaign.sol:Campaign",
        "label": "deadline",
        "offset": 0,
        "slot": "10",
        "type": "t_uint256"
      },
      {
        "astId": 784,
        "contract": "contracts/Campaign.sol:Campaign",
        "label": "c_state",
        "offset": 0,
        "slot": "11",
        "type": "t_enum(C_State)750"
      },
      {
        "astId": 786,
        "contract": "contracts/Campaign.sol:Campaign",
        "label": "rId",
        "offset": 0,
        "slot": "12",
        "type": "t_uint256"
      },
      {
        "astId": 838,
        "contract": "contracts/Campaign.sol:Campaign",
        "label": "rewards",
        "offset": 0,
        "slot": "13",
        "type": "t_mapping(t_uint256,t_struct(reward)833_storage)"
      },
      {
        "astId": 843,
        "contract": "contracts/Campaign.sol:Campaign",
        "label": "entDonations",
        "offset": 0,
        "slot": "14",
        "type": "t_mapping(t_address,t_array(t_uint256)dyn_storage)"
      },
      {
        "astId": 847,
        "contract": "contracts/Campaign.sol:Campaign",
        "label": "aggrDonations",
        "offset": 0,
        "slot": "15",
        "type": "t_mapping(t_address,t_uint256)"
      },
      {
        "astId": 850,
        "contract": "contracts/Campaign.sol:Campaign",
        "label": "rKeys",
        "offset": 0,
        "slot": "16",
        "type": "t_array(t_uint256)dyn_storage"
      }
    ],
    "types": {
      "t_address": {
        "encoding": "inplace",
        "label": "address",
        "numberOfBytes": "20"
      },
      "t_array(t_string_storage)dyn_storage": {
        "base": "t_string_storage",
        "encoding": "dynamic_array",
        "label": "string[]",
        "numberOfBytes": "32"
      },
      "t_array(t_uint256)dyn_storage": {
        "base": "t_uint256",
        "encoding": "dynamic_array",
        "label": "uint256[]",
        "numberOfBytes": "32"
      },
      "t_bool": {
        "encoding": "inplace",
        "label": "bool",
        "numberOfBytes": "1"
      },
      "t_enum(C_State)750": {
        "encoding": "inplace",
        "label": "enum Campaign.C_State",
        "numberOfBytes": "1"
      },
      "t_mapping(t_address,t_array(t_uint256)dyn_storage)": {
        "encoding": "mapping",
        "key": "t_address",
        "label": "mapping(address => uint256[])",
        "numberOfBytes": "32",
        "value": "t_array(t_uint256)dyn_storage"
      },
      "t_mapping(t_address,t_uint256)": {
        "encoding": "mapping",
        "key": "t_address",
        "label": "mapping(address => uint256)",
        "numberOfBytes": "32",
        "value": "t_uint256"
      },
      "t_mapping(t_uint256,t_struct(reward)833_storage)": {
        "encoding": "mapping",
        "key": "t_uint256",
        "label": "mapping(uint256 => struct Campaign.reward)",
        "numberOfBytes": "32",
        "value": "t_struct(reward)833_storage"
      },
      "t_string_storage": {
        "encoding": "bytes",
        "label": "string",
        "numberOfBytes": "32"
      },
      "t_struct(reward)833_storage": {
        "encoding": "inplace",
        "label": "struct Campaign.reward",
        "members": [
          {
            "astId": 814,
            "contract": "contracts/Campaign.sol:Campaign",
            "label": "price",
            "offset": 0,
            "slot": "0",
            "type": "t_uint256"
          },
          {
            "astId": 816,
            "contract": "contracts/Campaign.sol:Campaign",
            "label": "title",
            "offset": 0,
            "slot": "1",
            "type": "t_string_storage"
          },
          {
            "astId": 818,
            "contract": "contracts/Campaign.sol:Campaign",
            "label": "description",
            "offset": 0,
            "slot": "2",
            "type": "t_string_storage"
          },
          {
            "astId": 820,
            "contract": "contracts/Campaign.sol:Campaign",
            "label": "rpic",
            "offset": 0,
            "slot": "3",
            "type": "t_string_storage"
          },
          {
            "astId": 823,
            "contract": "contracts/Campaign.sol:Campaign",
            "label": "perks",
            "offset": 0,
            "slot": "4",
            "type": "t_array(t_string_storage)dyn_storage"
          },
          {
            "astId": 825,
            "contract": "contracts/Campaign.sol:Campaign",
            "label": "delDate",
            "offset": 0,
            "slot": "5",
            "type": "t_uint256"
          },
          {
            "astId": 827,
            "contract": "contracts/Campaign.sol:Campaign",
            "label": "quantity",
            "offset": 0,
            "slot": "6",
            "type": "t_uint256"
          },
          {
            "astId": 829,
            "contract": "contracts/Campaign.sol:Campaign",
            "label": "infinite",
            "offset": 0,
            "slot": "7",
            "type": "t_bool"
          },
          {
            "astId": 832,
            "contract": "contracts/Campaign.sol:Campaign",
            "label": "shipsTo",
            "offset": 0,
            "slot": "8",
            "type": "t_array(t_string_storage)dyn_storage"
          }
        ],
        "numberOfBytes": "288"
      },
      "t_uint256": {
        "encoding": "inplace",
        "label": "uint256",
        "numberOfBytes": "32"
      }
    }
  }
}