{
  "address": "0xe7f1725E7734CE288F8367e1Bb143E90bb3F0512",
  "abi": [
    {
      "inputs": [
        {
          "internalType": "address",
          "name": "_creator",
          "type": "address"
        },
        {
          "internalType": "string",
          "name": "_title",
          "type": "string"
        },
        {
          "internalType": "string",
          "name": "_description",
          "type": "string"
        },
        {
          "internalType": "string",
          "name": "_category",
          "type": "string"
        },
        {
          "internalType": "string",
          "name": "_tags",
          "type": "string"
        },
        {
          "internalType": "uint256",
          "name": "_goalAmount",
          "type": "uint256"
        },
        {
          "internalType": "uint256",
          "name": "_duration",
          "type": "uint256"
        },
        {
          "internalType": "string",
          "name": "_imageURI",
          "type": "string"
        }
      ],
      "stateMutability": "nonpayable",
      "type": "constructor"
    },
    {
      "inputs": [],
      "name": "Cmp_Bankrupt",
      "type": "error"
    },
    {
      "inputs": [],
      "name": "Cmp_DIC",
      "type": "error"
    },
    {
      "inputs": [],
      "name": "Cmp_NIS",
      "type": "error"
    },
    {
      "inputs": [],
      "name": "Cmp_NoDns",
      "type": "error"
    },
    {
      "inputs": [],
      "name": "Cmp_NotCrtr",
      "type": "error"
    },
    {
      "inputs": [],
      "name": "Cmp_RefF",
      "type": "error"
    },
    {
      "inputs": [],
      "name": "Cmp_UpkNN",
      "type": "error"
    },
    {
      "anonymous": false,
      "inputs": [],
      "name": "CampaignCanceled",
      "type": "event"
    },
    {
      "anonymous": false,
      "inputs": [
        {
          "indexed": false,
          "internalType": "address",
          "name": "campaignAddress",
          "type": "address"
        }
      ],
      "name": "CampaignExpired",
      "type": "event"
    },
    {
      "anonymous": false,
      "inputs": [
        {
          "indexed": false,
          "internalType": "address",
          "name": "campaignAddress",
          "type": "address"
        }
      ],
      "name": "CampaignSuccessful",
      "type": "event"
    },
    {
      "anonymous": false,
      "inputs": [
        {
          "indexed": false,
          "internalType": "address",
          "name": "creator",
          "type": "address"
        },
        {
          "indexed": false,
          "internalType": "address",
          "name": "campaignAddress",
          "type": "address"
        }
      ],
      "name": "CreatorPaid",
      "type": "event"
    },
    {
      "anonymous": false,
      "inputs": [
        {
          "indexed": true,
          "internalType": "address",
          "name": "contributor",
          "type": "address"
        },
        {
          "indexed": false,
          "internalType": "uint256",
          "name": "amount",
          "type": "uint256"
        },
        {
          "indexed": false,
          "internalType": "uint256",
          "name": "currentBalance",
          "type": "uint256"
        }
      ],
      "name": "FundingRecieved",
      "type": "event"
    },
    {
      "stateMutability": "payable",
      "type": "fallback"
    },
    {
      "inputs": [
        {
          "internalType": "address",
          "name": "",
          "type": "address"
        }
      ],
      "name": "aggrDonations",
      "outputs": [
        {
          "internalType": "uint256",
          "name": "",
          "type": "uint256"
        }
      ],
      "stateMutability": "view",
      "type": "function"
    },
    {
      "inputs": [],
      "name": "c_mode",
      "outputs": [
        {
          "internalType": "enum Campaign.C_Mode",
          "name": "",
          "type": "uint8"
        }
      ],
      "stateMutability": "view",
      "type": "function"
    },
    {
      "inputs": [],
      "name": "c_state",
      "outputs": [
        {
          "internalType": "enum Campaign.C_State",
          "name": "",
          "type": "uint8"
        }
      ],
      "stateMutability": "view",
      "type": "function"
    },
    {
      "inputs": [
        {
          "internalType": "bytes",
          "name": "",
          "type": "bytes"
        }
      ],
      "name": "checkUpkeep",
      "outputs": [
        {
          "internalType": "bool",
          "name": "upkeepNeeded",
          "type": "bool"
        },
        {
          "internalType": "bytes",
          "name": "",
          "type": "bytes"
        }
      ],
      "stateMutability": "view",
      "type": "function"
    },
    {
      "inputs": [],
      "name": "currentBalance",
      "outputs": [
        {
          "internalType": "uint256",
          "name": "",
          "type": "uint256"
        }
      ],
      "stateMutability": "view",
      "type": "function"
    },
    {
      "inputs": [],
      "name": "deadline",
      "outputs": [
        {
          "internalType": "uint256",
          "name": "",
          "type": "uint256"
        }
      ],
      "stateMutability": "view",
      "type": "function"
    },
    {
      "inputs": [
        {
          "internalType": "uint256",
          "name": "_priceID",
          "type": "uint256"
        }
      ],
      "name": "deleteReward",
      "outputs": [],
      "stateMutability": "nonpayable",
      "type": "function"
    },
    {
      "inputs": [
        {
          "internalType": "address",
          "name": "_donator",
          "type": "address"
        }
      ],
      "name": "donate",
      "outputs": [],
      "stateMutability": "payable",
      "type": "function"
    },
    {
      "inputs": [
        {
          "internalType": "address",
          "name": "",
          "type": "address"
        },
        {
          "internalType": "uint256",
          "name": "",
          "type": "uint256"
        }
      ],
      "name": "donations",
      "outputs": [
        {
          "internalType": "uint256",
          "name": "",
          "type": "uint256"
        }
      ],
      "stateMutability": "view",
      "type": "function"
    },
    {
      "inputs": [],
      "name": "duration",
      "outputs": [
        {
          "internalType": "uint256",
          "name": "",
          "type": "uint256"
        }
      ],
      "stateMutability": "view",
      "type": "function"
    },
    {
      "inputs": [],
      "name": "endCampaign",
      "outputs": [],
      "stateMutability": "nonpayable",
      "type": "function"
    },
    {
      "inputs": [],
      "name": "getCampaignDetails",
      "outputs": [
        {
          "components": [
            {
              "internalType": "address",
              "name": "i_creator",
              "type": "address"
            },
            {
              "internalType": "string",
              "name": "s_title",
              "type": "string"
            },
            {
              "internalType": "string",
              "name": "s_description",
              "type": "string"
            },
            {
              "internalType": "string",
              "name": "s_category",
              "type": "string"
            },
            {
              "internalType": "string",
              "name": "s_tags",
              "type": "string"
            },
            {
              "internalType": "uint256",
              "name": "goalAmount",
              "type": "uint256"
            },
            {
              "internalType": "uint256",
              "name": "duration",
              "type": "uint256"
            },
            {
              "internalType": "uint256",
              "name": "currentBalance",
              "type": "uint256"
            },
            {
              "internalType": "enum Campaign.C_State",
              "name": "currentC_State",
              "type": "uint8"
            },
            {
              "internalType": "string",
              "name": "s_imageURI",
              "type": "string"
            },
            {
              "internalType": "string",
              "name": "s_campaignURI",
              "type": "string"
            },
            {
              "internalType": "uint256",
              "name": "deadline",
              "type": "uint256"
            }
          ],
          "internalType": "struct Campaign.CampaignObject",
          "name": "",
          "type": "tuple"
        }
      ],
      "stateMutability": "view",
      "type": "function"
    },
    {
      "inputs": [
        {
          "internalType": "address",
          "name": "_donator",
          "type": "address"
        }
      ],
      "name": "getDonations",
      "outputs": [
        {
          "internalType": "uint256[]",
          "name": "",
          "type": "uint256[]"
        }
      ],
      "stateMutability": "view",
      "type": "function"
    },
    {
      "inputs": [
        {
          "internalType": "uint256",
          "name": "_priceID",
          "type": "uint256"
        }
      ],
      "name": "getReward",
      "outputs": [
        {
          "components": [
            {
              "internalType": "uint256",
              "name": "price",
              "type": "uint256"
            },
            {
              "internalType": "string",
              "name": "title",
              "type": "string"
            },
            {
              "internalType": "string",
              "name": "description",
              "type": "string"
            },
            {
              "internalType": "string[]",
              "name": "perks",
              "type": "string[]"
            },
            {
              "internalType": "uint256",
              "name": "delDate",
              "type": "uint256"
            },
            {
              "internalType": "uint256",
              "name": "quantity",
              "type": "uint256"
            },
            {
              "internalType": "bool",
              "name": "infinite",
              "type": "bool"
            },
            {
              "internalType": "string[]",
              "name": "shipsTo",
              "type": "string[]"
            }
          ],
          "internalType": "struct Campaign.reward",
          "name": "",
          "type": "tuple"
        }
      ],
      "stateMutability": "view",
      "type": "function"
    },
    {
      "inputs": [],
      "name": "getRewardKeys",
      "outputs": [
        {
          "internalType": "uint256[]",
          "name": "",
          "type": "uint256[]"
        }
      ],
      "stateMutability": "view",
      "type": "function"
    },
    {
      "inputs": [],
      "name": "goalAmount",
      "outputs": [
        {
          "internalType": "uint256",
          "name": "",
          "type": "uint256"
        }
      ],
      "stateMutability": "view",
      "type": "function"
    },
    {
      "inputs": [],
      "name": "i_creator",
      "outputs": [
        {
          "internalType": "address payable",
          "name": "",
          "type": "address"
        }
      ],
      "stateMutability": "view",
      "type": "function"
    },
    {
      "inputs": [
        {
          "internalType": "uint256",
          "name": "_price",
          "type": "uint256"
        },
        {
          "internalType": "string",
          "name": "_title",
          "type": "string"
        },
        {
          "internalType": "string",
          "name": "_description",
          "type": "string"
        },
        {
          "internalType": "string[]",
          "name": "_perks",
          "type": "string[]"
        },
        {
          "internalType": "uint256",
          "name": "_deadline",
          "type": "uint256"
        },
        {
          "internalType": "uint256",
          "name": "_quantity",
          "type": "uint256"
        },
        {
          "internalType": "bool",
          "name": "_infinite",
          "type": "bool"
        },
        {
          "internalType": "string[]",
          "name": "_shipsTo",
          "type": "string[]"
        }
      ],
      "name": "makeReward",
      "outputs": [],
      "stateMutability": "nonpayable",
      "type": "function"
    },
    {
      "inputs": [],
      "name": "payout",
      "outputs": [],
      "stateMutability": "nonpayable",
      "type": "function"
    },
    {
      "inputs": [
        {
          "internalType": "bytes",
          "name": "",
          "type": "bytes"
        }
      ],
      "name": "performUpkeep",
      "outputs": [],
      "stateMutability": "nonpayable",
      "type": "function"
    },
    {
      "inputs": [
        {
          "internalType": "uint256",
          "name": "",
          "type": "uint256"
        }
      ],
      "name": "rKeys",
      "outputs": [
        {
          "internalType": "uint256",
          "name": "",
          "type": "uint256"
        }
      ],
      "stateMutability": "view",
      "type": "function"
    },
    {
      "inputs": [
        {
          "internalType": "address",
          "name": "_donator",
          "type": "address"
        }
      ],
      "name": "refund",
      "outputs": [],
      "stateMutability": "nonpayable",
      "type": "function"
    },
    {
      "inputs": [
        {
          "internalType": "uint256",
          "name": "",
          "type": "uint256"
        }
      ],
      "name": "rewards",
      "outputs": [
        {
          "internalType": "uint256",
          "name": "price",
          "type": "uint256"
        },
        {
          "internalType": "string",
          "name": "title",
          "type": "string"
        },
        {
          "internalType": "string",
          "name": "description",
          "type": "string"
        },
        {
          "internalType": "uint256",
          "name": "delDate",
          "type": "uint256"
        },
        {
          "internalType": "uint256",
          "name": "quantity",
          "type": "uint256"
        },
        {
          "internalType": "bool",
          "name": "infinite",
          "type": "bool"
        }
      ],
      "stateMutability": "view",
      "type": "function"
    },
    {
      "inputs": [],
      "name": "s_campaignURI",
      "outputs": [
        {
          "internalType": "string",
          "name": "",
          "type": "string"
        }
      ],
      "stateMutability": "view",
      "type": "function"
    },
    {
      "inputs": [],
      "name": "s_category",
      "outputs": [
        {
          "internalType": "string",
          "name": "",
          "type": "string"
        }
      ],
      "stateMutability": "view",
      "type": "function"
    },
    {
      "inputs": [],
      "name": "s_description",
      "outputs": [
        {
          "internalType": "string",
          "name": "",
          "type": "string"
        }
      ],
      "stateMutability": "view",
      "type": "function"
    },
    {
      "inputs": [],
      "name": "s_imageURI",
      "outputs": [
        {
          "internalType": "string",
          "name": "",
          "type": "string"
        }
      ],
      "stateMutability": "view",
      "type": "function"
    },
    {
      "inputs": [],
      "name": "s_tags",
      "outputs": [
        {
          "internalType": "string",
          "name": "",
          "type": "string"
        }
      ],
      "stateMutability": "view",
      "type": "function"
    },
    {
      "inputs": [],
      "name": "s_title",
      "outputs": [
        {
          "internalType": "string",
          "name": "",
          "type": "string"
        }
      ],
      "stateMutability": "view",
      "type": "function"
    },
    {
      "inputs": [
        {
          "internalType": "address",
          "name": "_upkeepCreatorAddress",
          "type": "address"
        },
        {
          "internalType": "address",
          "name": "_linkTokenAddress",
          "type": "address"
        },
        {
          "internalType": "address",
          "name": "_campaignAddress",
          "type": "address"
        }
      ],
      "name": "timeBox",
      "outputs": [],
      "stateMutability": "nonpayable",
      "type": "function"
    },
    {
      "inputs": [
        {
          "internalType": "string",
          "name": "_campaignURI",
          "type": "string"
        }
      ],
      "name": "updateCampaignURI",
      "outputs": [],
      "stateMutability": "nonpayable",
      "type": "function"
    },
    {
      "inputs": [
        {
          "internalType": "uint256",
          "name": "_addedDur",
          "type": "uint256"
        }
      ],
      "name": "updateDur",
      "outputs": [],
      "stateMutability": "nonpayable",
      "type": "function"
    },
    {
      "stateMutability": "payable",
      "type": "receive"
    }
  ],
  "transactionHash": "0xb35e8ffee6f2ace536bc7d70a5920916bb382e81da7cd1afea2d99c1b57640b2",
  "args": [
    "0xf39Fd6e51aad88F6F4ce6aB8827279cffFb92266",
    "Piratopia: Raiders of Pirate Bay",
    "A P2E masterpiece on the AVAX chain",
    "P2E",
    "arcade games/adventure games/web3 gaming",
    "6750000000000000000",
    "1296000",
    "ipfs://QmV9inF2YC5MFUHWwWaCBEVJzj9aGSKmpay7mPSJDjBC4w"
  ],
  "numDeployments": 1,
  "solcInputHash": "0410397416d4eb7f9bb1f6a79e9cee72",
  "bytecode": "0x60c06040526000600b60006101000a81548160ff021916908360018111156200002d576200002c6200027d565b5b02179055506000600b60016101000a81548160ff021916908360028111156200005b576200005a6200027d565b5b02179055503480156200006d57600080fd5b5060405162004639380380620046398339818101604052810190620000939190620004e9565b60016000819055508773ffffffffffffffffffffffffffffffffffffffff1660808173ffffffffffffffffffffffffffffffffffffffff1660601b815250508660019080519060200190620000ea929190620001cd565b50856002908051906020019062000103929190620001cd565b5084600390805190602001906200011c929190620001cd565b50836006908051906020019062000135929190620001cd565b50826007819055504260a08181525050624f1a0082116200015757816200015c565b624f1a005b6008819055506200018060085460a051620001b560201b620027e91790919060201c565b600a8190555080600490805190602001906200019e929190620001cd565b50600060098190555050505050505050506200073e565b60008183620001c591906200067c565b905092915050565b828054620001db9062000708565b90600052602060002090601f016020900481019282620001ff57600085556200024b565b82601f106200021a57805160ff19168380011785556200024b565b828001600101855582156200024b579182015b828111156200024a5782518255916020019190600101906200022d565b5b5090506200025a91906200025e565b5090565b5b80821115620002795760008160009055506001016200025f565b5090565b7f4e487b7100000000000000000000000000000000000000000000000000000000600052602160045260246000fd5b6000604051905090565b600080fd5b600080fd5b600073ffffffffffffffffffffffffffffffffffffffff82169050919050565b6000620002ed82620002c0565b9050919050565b620002ff81620002e0565b81146200030b57600080fd5b50565b6000815190506200031f81620002f4565b92915050565b600080fd5b600080fd5b6000601f19601f8301169050919050565b7f4e487b7100000000000000000000000000000000000000000000000000000000600052604160045260246000fd5b6200037a826200032f565b810181811067ffffffffffffffff821117156200039c576200039b62000340565b5b80604052505050565b6000620003b1620002ac565b9050620003bf82826200036f565b919050565b600067ffffffffffffffff821115620003e257620003e162000340565b5b620003ed826200032f565b9050602081019050919050565b60005b838110156200041a578082015181840152602081019050620003fd565b838111156200042a576000848401525b50505050565b6000620004476200044184620003c4565b620003a5565b9050828152602081018484840111156200046657620004656200032a565b5b62000473848285620003fa565b509392505050565b600082601f83011262000493576200049262000325565b5b8151620004a584826020860162000430565b91505092915050565b6000819050919050565b620004c381620004ae565b8114620004cf57600080fd5b50565b600081519050620004e381620004b8565b92915050565b600080600080600080600080610100898b0312156200050d576200050c620002b6565b5b60006200051d8b828c016200030e565b985050602089015167ffffffffffffffff811115620005415762000540620002bb565b5b6200054f8b828c016200047b565b975050604089015167ffffffffffffffff811115620005735762000572620002bb565b5b620005818b828c016200047b565b965050606089015167ffffffffffffffff811115620005a557620005a4620002bb565b5b620005b38b828c016200047b565b955050608089015167ffffffffffffffff811115620005d757620005d6620002bb565b5b620005e58b828c016200047b565b94505060a0620005f88b828c01620004d2565b93505060c06200060b8b828c01620004d2565b92505060e089015167ffffffffffffffff8111156200062f576200062e620002bb565b5b6200063d8b828c016200047b565b9150509295985092959890939650565b7f4e487b7100000000000000000000000000000000000000000000000000000000600052601160045260246000fd5b60006200068982620004ae565b91506200069683620004ae565b9250827fffffffffffffffffffffffffffffffffffffffffffffffffffffffffffffffff03821115620006ce57620006cd6200064d565b5b828201905092915050565b7f4e487b7100000000000000000000000000000000000000000000000000000000600052602260045260246000fd5b600060028204905060018216806200072157607f821691505b60208210811415620007385762000737620006d9565b5b50919050565b60805160601c60a051613e77620007c260003960008181611b3601526124a401526000818161085d01528181610b5a015281816115400152818161166d015281816117eb015281816118f6015281816119f901528181611aaa01528181611bc801528181611db901528181611f750152818161211301526123d60152613e776000f3fe6080604052600436106101e65760003560e01c806363bd1d4a11610102578063bf66e2c811610095578063e7cf1ab711610064578063e7cf1ab7146106e3578063f301af421461070c578063fa6ded391461074e578063fa89401a14610777576101f6565b8063bf66e2c814610637578063c5cd507814610662578063ce2a05721461068d578063ce845d1d146106b8576101f6565b806395086ed1116100d157806395086ed11461057b57806399a8502d146105b85780639a913793146105e3578063b145603e1461060c576101f6565b806363bd1d4a146104e45780636e04ff0d146104fb57806371aac7f914610539578063743857cb14610550576101f6565b806329dcb0cf1161017a5780634ef89719116101495780634ef89719146104285780635f7002661461045357806360fa9a721461047c5780636235887a146104a7576101f6565b806329dcb0cf146103805780634278ac8b146103ab5780634585e33b146103d65780634d695bdb146103ff576101f6565b806315a46ee6116101b657806315a46ee6146102b05780631910bdc2146102db5780631c4b774b146103185780632636b94514610355576101f6565b8062362a951461020157806309917c501461021d5780630c611f241461025a5780630fb5a6b414610285576101f6565b366101f6576101f4336107a0565b005b6101ff336107a0565b005b61021b60048036038101906102169190612b00565b6107a0565b005b34801561022957600080fd5b50610244600480360381019061023f9190612b00565b610b2c565b6040516102519190612b46565b60405180910390f35b34801561026657600080fd5b5061026f610b44565b60405161027c9190612db6565b60405180910390f35b34801561029157600080fd5b5061029a610f3e565b6040516102a79190612b46565b60405180910390f35b3480156102bc57600080fd5b506102c5610f44565b6040516102d29190612e22565b60405180910390f35b3480156102e757600080fd5b5061030260048036038101906102fd9190612b00565b610fd2565b60405161030f9190612ef3565b60405180910390f35b34801561032457600080fd5b5061033f600480360381019061033a9190612f41565b611069565b60405161034c9190613110565b60405180910390f35b34801561036157600080fd5b5061036a6113a6565b6040516103779190612b46565b60405180910390f35b34801561038c57600080fd5b506103956113ac565b6040516103a29190612b46565b60405180910390f35b3480156103b757600080fd5b506103c06113b2565b6040516103cd9190612e22565b60405180910390f35b3480156103e257600080fd5b506103fd60048036038101906103f89190613197565b611440565b005b34801561040b57600080fd5b5061042660048036038101906104219190613314565b61153e565b005b34801561043457600080fd5b5061043d6115dd565b60405161044a9190612e22565b60405180910390f35b34801561045f57600080fd5b5061047a6004803603810190610475919061335d565b61166b565b005b34801561048857600080fd5b506104916118bd565b60405161049e91906133bf565b60405180910390f35b3480156104b357600080fd5b506104ce60048036038101906104c99190612f41565b6118d0565b6040516104db9190612b46565b60405180910390f35b3480156104f057600080fd5b506104f96118f4565b005b34801561050757600080fd5b50610522600480360381019061051d919061347b565b611aee565b604051610530929190613528565b60405180910390f35b34801561054557600080fd5b5061054e611bc6565b005b34801561055c57600080fd5b50610565611ce5565b60405161057291906135a0565b60405180910390f35b34801561058757600080fd5b506105a2600480360381019061059d91906135bb565b611cf8565b6040516105af9190612b46565b60405180910390f35b3480156105c457600080fd5b506105cd611d29565b6040516105da9190612e22565b60405180910390f35b3480156105ef57600080fd5b5061060a60048036038101906106059190613708565b611db7565b005b34801561061857600080fd5b50610621611f73565b60405161062e919061384f565b60405180910390f35b34801561064357600080fd5b5061064c611f97565b6040516106599190612ef3565b60405180910390f35b34801561066e57600080fd5b50610677611fef565b6040516106849190612e22565b60405180910390f35b34801561069957600080fd5b506106a261207d565b6040516106af9190612e22565b60405180910390f35b3480156106c457600080fd5b506106cd61210b565b6040516106da9190612b46565b60405180910390f35b3480156106ef57600080fd5b5061070a60048036038101906107059190612f41565b612111565b005b34801561071857600080fd5b50610733600480360381019061072e9190612f41565b61227b565b6040516107459695949392919061386a565b60405180910390f35b34801561075a57600080fd5b5061077560048036038101906107709190612f41565b6123d4565b005b34801561078357600080fd5b5061079e60048036038101906107999190612b00565b6124da565b005b600260005414156107e6576040517f08c379a00000000000000000000000000000000000000000000000000000000081526004016107dd90613925565b60405180910390fd5b60026000819055506000600281111561080257610801612c18565b5b600b60019054906101000a900460ff16600281111561082457610823612c18565b5b1461085b576040517faeb8874900000000000000000000000000000000000000000000000000000000815260040160405180910390fd5b7f000000000000000000000000000000000000000000000000000000000000000073ffffffffffffffffffffffffffffffffffffffff168173ffffffffffffffffffffffffffffffffffffffff1614156108e1576040517f1e4a120d00000000000000000000000000000000000000000000000000000000815260040160405180910390fd5b6108f6346009546127e990919063ffffffff16565b6009819055506000600d6000348152602001908152602001600020600001541180156109435750600d600034815260200190815260200160002060060160009054906101000a900460ff16155b15610a16576109726001600d6000348152602001908152602001600020600501546127ff90919063ffffffff16565b506000600d6000348152602001908152602001600020600501541415610a1557600d60003481526020019081526020016000206000808201600090556001820160006109be9190612815565b6002820160006109ce9190612815565b6003820160006109de9190612855565b600482016000905560058201600090556006820160006101000a81549060ff0219169055600782016000610a129190612855565b50505b5b600e60008273ffffffffffffffffffffffffffffffffffffffff1673ffffffffffffffffffffffffffffffffffffffff168152602001908152602001600020349080600181540180825580915050600190039060005260206000200160009091909190915055610ace34600f60008473ffffffffffffffffffffffffffffffffffffffff1673ffffffffffffffffffffffffffffffffffffffff168152602001908152602001600020546127e990919063ffffffff16565b508073ffffffffffffffffffffffffffffffffffffffff167fe76ad748537a48e778fef43dda4a6bd1b50cd62385f9f21a9ca267492355120834600954604051610b19929190613945565b60405180910390a2600160008190555050565b600f6020528060005260406000206000915090505481565b610b4c612876565b6040518061018001604052807f000000000000000000000000000000000000000000000000000000000000000073ffffffffffffffffffffffffffffffffffffffff16815260200160018054610ba19061399d565b80601f0160208091040260200160405190810160405280929190818152602001828054610bcd9061399d565b8015610c1a5780601f10610bef57610100808354040283529160200191610c1a565b820191906000526020600020905b815481529060010190602001808311610bfd57829003601f168201915b5050505050815260200160028054610c319061399d565b80601f0160208091040260200160405190810160405280929190818152602001828054610c5d9061399d565b8015610caa5780601f10610c7f57610100808354040283529160200191610caa565b820191906000526020600020905b815481529060010190602001808311610c8d57829003601f168201915b5050505050815260200160038054610cc19061399d565b80601f0160208091040260200160405190810160405280929190818152602001828054610ced9061399d565b8015610d3a5780601f10610d0f57610100808354040283529160200191610d3a565b820191906000526020600020905b815481529060010190602001808311610d1d57829003601f168201915b5050505050815260200160068054610d519061399d565b80601f0160208091040260200160405190810160405280929190818152602001828054610d7d9061399d565b8015610dca5780601f10610d9f57610100808354040283529160200191610dca565b820191906000526020600020905b815481529060010190602001808311610dad57829003601f168201915b50505050508152602001600754815260200160085481526020016009548152602001600b60019054906101000a900460ff166002811115610e0e57610e0d612c18565b5b815260200160048054610e209061399d565b80601f0160208091040260200160405190810160405280929190818152602001828054610e4c9061399d565b8015610e995780601f10610e6e57610100808354040283529160200191610e99565b820191906000526020600020905b815481529060010190602001808311610e7c57829003601f168201915b5050505050815260200160058054610eb09061399d565b80601f0160208091040260200160405190810160405280929190818152602001828054610edc9061399d565b8015610f295780601f10610efe57610100808354040283529160200191610f29565b820191906000526020600020905b815481529060010190602001808311610f0c57829003601f168201915b50505050508152602001600a54815250905090565b60085481565b60058054610f519061399d565b80601f0160208091040260200160405190810160405280929190818152602001828054610f7d9061399d565b8015610fca5780601f10610f9f57610100808354040283529160200191610fca565b820191906000526020600020905b815481529060010190602001808311610fad57829003601f168201915b505050505081565b6060600e60008373ffffffffffffffffffffffffffffffffffffffff1673ffffffffffffffffffffffffffffffffffffffff16815260200190815260200160002080548060200260200160405190810160405280929190818152602001828054801561105d57602002820191906000526020600020905b815481526020019060010190808311611049575b50505050509050919050565b6110716128ff565b600d600083815260200190815260200160002060405180610100016040529081600082015481526020016001820180546110aa9061399d565b80601f01602080910402602001604051908101604052809291908181526020018280546110d69061399d565b80156111235780601f106110f857610100808354040283529160200191611123565b820191906000526020600020905b81548152906001019060200180831161110657829003601f168201915b5050505050815260200160028201805461113c9061399d565b80601f01602080910402602001604051908101604052809291908181526020018280546111689061399d565b80156111b55780601f1061118a576101008083540402835291602001916111b5565b820191906000526020600020905b81548152906001019060200180831161119857829003601f168201915b5050505050815260200160038201805480602002602001604051908101604052809291908181526020016000905b8282101561128f5783829060005260206000200180546112029061399d565b80601f016020809104026020016040519081016040528092919081815260200182805461122e9061399d565b801561127b5780601f106112505761010080835404028352916020019161127b565b820191906000526020600020905b81548152906001019060200180831161125e57829003601f168201915b5050505050815260200190600101906111e3565b50505050815260200160048201548152602001600582015481526020016006820160009054906101000a900460ff1615151515815260200160078201805480602002602001604051908101604052809291908181526020016000905b8282101561139757838290600052602060002001805461130a9061399d565b80601f01602080910402602001604051908101604052809291908181526020018280546113369061399d565b80156113835780601f1061135857610100808354040283529160200191611383565b820191906000526020600020905b81548152906001019060200180831161136657829003601f168201915b5050505050815260200190600101906112eb565b50505050815250509050919050565b60075481565b600a5481565b600380546113bf9061399d565b80601f01602080910402602001604051908101604052809291908181526020018280546113eb9061399d565b80156114385780601f1061140d57610100808354040283529160200191611438565b820191906000526020600020905b81548152906001019060200180831161141b57829003601f168201915b505050505081565b600061145a60405180602001604052806000815250611aee565b50905080611494576040517fbc7a0a6300000000000000000000000000000000000000000000000000000000815260040160405180910390fd5b6001600b60016101000a81548160ff021916908360028111156114ba576114b9612c18565b5b02179055507f5cf8cd2bd40f758a95257bed666285eb82801f1bf9223b8ec1481e510ba2e82d306040516114ee91906139de565b60405180910390a160075460095410611539577f5369558c667e962b633128a01c31764d053da51f61d17370d327ed17f77deccc3060405161153091906139de565b60405180910390a15b505050565b7f000000000000000000000000000000000000000000000000000000000000000073ffffffffffffffffffffffffffffffffffffffff163373ffffffffffffffffffffffffffffffffffffffff16146115c3576040517fb167e90c00000000000000000000000000000000000000000000000000000000815260040160405180910390fd5b80600590805190602001906115d9929190612946565b5050565b600280546115ea9061399d565b80601f01602080910402602001604051908101604052809291908181526020018280546116169061399d565b80156116635780601f1061163857610100808354040283529160200191611663565b820191906000526020600020905b81548152906001019060200180831161164657829003601f168201915b505050505081565b7f000000000000000000000000000000000000000000000000000000000000000073ffffffffffffffffffffffffffffffffffffffff163373ffffffffffffffffffffffffffffffffffffffff16146116f0576040517fb167e90c00000000000000000000000000000000000000000000000000000000815260040160405180910390fd5b6000839050600083905060008173ffffffffffffffffffffffffffffffffffffffff166370a08231876040518263ffffffff1660e01b815260040161173591906139de565b60206040518083038186803b15801561174d57600080fd5b505afa158015611761573d6000803e3d6000fd5b505050506040513d601f19601f820116820180604052508101906117859190613a0e565b14156117c6576040517f08c379a00000000000000000000000000000000000000000000000000000000081526004016117bd90613a87565b60405180910390fd5b8173ffffffffffffffffffffffffffffffffffffffff16634c7e9be36001856207a1207f0000000000000000000000000000000000000000000000000000000000000000671bc16d674ec800006040518663ffffffff1660e01b8152600401611833959493929190613c85565b602060405180830381600087803b15801561184d57600080fd5b505af1158015611861573d6000803e3d6000fd5b505050506040513d601f19601f820116820180604052508101906118859190613a0e565b600c819055506001600b60006101000a81548160ff021916908360018111156118b1576118b0612c18565b5b02179055505050505050565b600b60019054906101000a900460ff1681565b601081815481106118e057600080fd5b906000526020600020016000915090505481565b7f000000000000000000000000000000000000000000000000000000000000000073ffffffffffffffffffffffffffffffffffffffff163373ffffffffffffffffffffffffffffffffffffffff1614611979576040517fb167e90c00000000000000000000000000000000000000000000000000000000815260040160405180910390fd5b6001600281111561198d5761198c612c18565b5b600b60019054906101000a900460ff1660028111156119af576119ae612c18565b5b146119e6576040517faeb8874900000000000000000000000000000000000000000000000000000000815260040160405180910390fd5b60006009549050600060098190555060007f000000000000000000000000000000000000000000000000000000000000000073ffffffffffffffffffffffffffffffffffffffff1682604051611a3b90613d4a565b60006040518083038185875af1925050503d8060008114611a78576040519150601f19603f3d011682016040523d82523d6000602084013e611a7d565b606091505b505090508015611ae5577fba5e837743d81ad0e6deb16089dbb65b549fdda8ad802fd8d4822884d70dc8b27f000000000000000000000000000000000000000000000000000000000000000030604051611ad8929190613d5f565b60405180910390a1611aea565b600080fd5b5050565b600060606000806002811115611b0757611b06612c18565b5b600b60019054906101000a900460ff166002811115611b2957611b28612c18565b5b1490506000600854611b647f0000000000000000000000000000000000000000000000000000000000000000426127ff90919063ffffffff16565b11905060008047119050818015611b785750825b8015611b815750805b9450846040518060400160405280600381526020017f307830000000000000000000000000000000000000000000000000000000000081525094509450505050915091565b7f000000000000000000000000000000000000000000000000000000000000000073ffffffffffffffffffffffffffffffffffffffff163373ffffffffffffffffffffffffffffffffffffffff1614611c4b576040517fb167e90c00000000000000000000000000000000000000000000000000000000815260040160405180910390fd5b60016002811115611c5f57611c5e612c18565b5b600b60019054906101000a900460ff166002811115611c8157611c80612c18565b5b1415611c8c57600080fd5b6002600b60016101000a81548160ff02191690836002811115611cb257611cb1612c18565b5b02179055507fb83ebe09f40e9293bdea1d6567fae3175119d3d0ff13c4b4df15994837dd7f5160405160405180910390a1565b600b60009054906101000a900460ff1681565b600e6020528160005260406000208181548110611d1457600080fd5b90600052602060002001600091509150505481565b60018054611d369061399d565b80601f0160208091040260200160405190810160405280929190818152602001828054611d629061399d565b8015611daf5780601f10611d8457610100808354040283529160200191611daf565b820191906000526020600020905b815481529060010190602001808311611d9257829003601f168201915b505050505081565b7f000000000000000000000000000000000000000000000000000000000000000073ffffffffffffffffffffffffffffffffffffffff163373ffffffffffffffffffffffffffffffffffffffff1614611e3c576040517fb167e90c00000000000000000000000000000000000000000000000000000000815260040160405180910390fd5b6010889080600181540180825580915050600190039060005260206000200160009091909190915055604051806101000160405280898152602001888152602001878152602001868152602001858152602001848152602001831515815260200182815250600d60008a8152602001908152602001600020600082015181600001556020820151816001019080519060200190611eda929190612946565b506040820151816002019080519060200190611ef7929190612946565b506060820151816003019080519060200190611f149291906129cc565b506080820151816004015560a0820151816005015560c08201518160060160006101000a81548160ff02191690831515021790555060e0820151816007019080519060200190611f659291906129cc565b509050505050505050505050565b7f000000000000000000000000000000000000000000000000000000000000000081565b60606010805480602002602001604051908101604052809291908181526020018280548015611fe557602002820191906000526020600020905b815481526020019060010190808311611fd1575b5050505050905090565b60068054611ffc9061399d565b80601f01602080910402602001604051908101604052809291908181526020018280546120289061399d565b80156120755780601f1061204a57610100808354040283529160200191612075565b820191906000526020600020905b81548152906001019060200180831161205857829003601f168201915b505050505081565b6004805461208a9061399d565b80601f01602080910402602001604051908101604052809291908181526020018280546120b69061399d565b80156121035780601f106120d857610100808354040283529160200191612103565b820191906000526020600020905b8154815290600101906020018083116120e657829003601f168201915b505050505081565b60095481565b7f000000000000000000000000000000000000000000000000000000000000000073ffffffffffffffffffffffffffffffffffffffff163373ffffffffffffffffffffffffffffffffffffffff1614612196576040517fb167e90c00000000000000000000000000000000000000000000000000000000815260040160405180910390fd5b600060018111156121aa576121a9612c18565b5b600b60009054906101000a900460ff1660018111156121cc576121cb612c18565b5b146121d657600080fd5b6000600d600083815260200190815260200160002060000154111561227857600d60008281526020019081526020016000206000808201600090556001820160006122219190612815565b6002820160006122319190612815565b6003820160006122419190612855565b600482016000905560058201600090556006820160006101000a81549060ff02191690556007820160006122759190612855565b50505b50565b600d6020528060005260406000206000915090508060000154908060010180546122a49061399d565b80601f01602080910402602001604051908101604052809291908181526020018280546122d09061399d565b801561231d5780601f106122f25761010080835404028352916020019161231d565b820191906000526020600020905b81548152906001019060200180831161230057829003601f168201915b5050505050908060020180546123329061399d565b80601f016020809104026020016040519081016040528092919081815260200182805461235e9061399d565b80156123ab5780601f10612380576101008083540402835291602001916123ab565b820191906000526020600020905b81548152906001019060200180831161238e57829003601f168201915b5050505050908060040154908060050154908060060160009054906101000a900460ff16905086565b7f000000000000000000000000000000000000000000000000000000000000000073ffffffffffffffffffffffffffffffffffffffff163373ffffffffffffffffffffffffffffffffffffffff1614612459576040517fb167e90c00000000000000000000000000000000000000000000000000000000815260040160405180910390fd5b624f1a00612472826008546127e990919063ffffffff16565b116124915761248c816008546127e990919063ffffffff16565b612496565b624f1a005b6008819055506124d16008547f00000000000000000000000000000000000000000000000000000000000000006127e990919063ffffffff16565b600a8190555050565b60026000541415612520576040517f08c379a000000000000000000000000000000000000000000000000000000000815260040161251790613925565b60405180910390fd5b60026000819055506001600281111561253c5761253b612c18565b5b600b60019054906101000a900460ff16600281111561255e5761255d612c18565b5b1415612596576040517faeb8874900000000000000000000000000000000000000000000000000000000815260040160405180910390fd5b6000600f60008373ffffffffffffffffffffffffffffffffffffffff1673ffffffffffffffffffffffffffffffffffffffff168152602001908152602001600020541415612610576040517f4cc8b68700000000000000000000000000000000000000000000000000000000815260040160405180910390fd5b6000600f60008373ffffffffffffffffffffffffffffffffffffffff1673ffffffffffffffffffffffffffffffffffffffff168152602001908152602001600020549050806009541015612690576040517f4d83c95000000000000000000000000000000000000000000000000000000000815260040160405180910390fd5b6126a5816009546127ff90919063ffffffff16565b60098190555060008273ffffffffffffffffffffffffffffffffffffffff16826040516126d190613d4a565b60006040518083038185875af1925050503d806000811461270e576040519150601f19603f3d011682016040523d82523d6000602084013e612713565b606091505b505090508061274e576040517f0520edd000000000000000000000000000000000000000000000000000000000815260040160405180910390fd5b600e60008473ffffffffffffffffffffffffffffffffffffffff1673ffffffffffffffffffffffffffffffffffffffff16815260200190815260200160002060006127999190612a2c565b600f60008473ffffffffffffffffffffffffffffffffffffffff1673ffffffffffffffffffffffffffffffffffffffff168152602001908152602001600020600090555050600160008190555050565b600081836127f79190613db7565b905092915050565b6000818361280d9190613e0d565b905092915050565b5080546128219061399d565b6000825580601f106128335750612852565b601f0160209004906000526020600020908101906128519190612a4d565b5b50565b50805460008255906000526020600020908101906128739190612a6a565b50565b604051806101800160405280600073ffffffffffffffffffffffffffffffffffffffff16815260200160608152602001606081526020016060815260200160608152602001600081526020016000815260200160008152602001600060028111156128e4576128e3612c18565b5b81526020016060815260200160608152602001600081525090565b604051806101000160405280600081526020016060815260200160608152602001606081526020016000815260200160008152602001600015158152602001606081525090565b8280546129529061399d565b90600052602060002090601f01602090048101928261297457600085556129bb565b82601f1061298d57805160ff19168380011785556129bb565b828001600101855582156129bb579182015b828111156129ba57825182559160200191906001019061299f565b5b5090506129c89190612a4d565b5090565b828054828255906000526020600020908101928215612a1b579160200282015b82811115612a1a578251829080519060200190612a0a929190612946565b50916020019190600101906129ec565b5b509050612a289190612a6a565b5090565b5080546000825590600052602060002090810190612a4a9190612a4d565b50565b5b80821115612a66576000816000905550600101612a4e565b5090565b5b80821115612a8a5760008181612a819190612815565b50600101612a6b565b5090565b6000604051905090565b600080fd5b600080fd5b600073ffffffffffffffffffffffffffffffffffffffff82169050919050565b6000612acd82612aa2565b9050919050565b612add81612ac2565b8114612ae857600080fd5b50565b600081359050612afa81612ad4565b92915050565b600060208284031215612b1657612b15612a98565b5b6000612b2484828501612aeb565b91505092915050565b6000819050919050565b612b4081612b2d565b82525050565b6000602082019050612b5b6000830184612b37565b92915050565b612b6a81612ac2565b82525050565b600081519050919050565b600082825260208201905092915050565b60005b83811015612baa578082015181840152602081019050612b8f565b83811115612bb9576000848401525b50505050565b6000601f19601f8301169050919050565b6000612bdb82612b70565b612be58185612b7b565b9350612bf5818560208601612b8c565b612bfe81612bbf565b840191505092915050565b612c1281612b2d565b82525050565b7f4e487b7100000000000000000000000000000000000000000000000000000000600052602160045260246000fd5b60038110612c5857612c57612c18565b5b50565b6000819050612c6982612c47565b919050565b6000612c7982612c5b565b9050919050565b612c8981612c6e565b82525050565b600061018083016000830151612ca86000860182612b61565b5060208301518482036020860152612cc08282612bd0565b91505060408301518482036040860152612cda8282612bd0565b91505060608301518482036060860152612cf48282612bd0565b91505060808301518482036080860152612d0e8282612bd0565b91505060a0830151612d2360a0860182612c09565b5060c0830151612d3660c0860182612c09565b5060e0830151612d4960e0860182612c09565b50610100830151612d5e610100860182612c80565b50610120830151848203610120860152612d788282612bd0565b915050610140830151848203610140860152612d948282612bd0565b915050610160830151612dab610160860182612c09565b508091505092915050565b60006020820190508181036000830152612dd08184612c8f565b905092915050565b600082825260208201905092915050565b6000612df482612b70565b612dfe8185612dd8565b9350612e0e818560208601612b8c565b612e1781612bbf565b840191505092915050565b60006020820190508181036000830152612e3c8184612de9565b905092915050565b600081519050919050565b600082825260208201905092915050565b6000819050602082019050919050565b6000612e7c8383612c09565b60208301905092915050565b6000602082019050919050565b6000612ea082612e44565b612eaa8185612e4f565b9350612eb583612e60565b8060005b83811015612ee6578151612ecd8882612e70565b9750612ed883612e88565b925050600181019050612eb9565b5085935050505092915050565b60006020820190508181036000830152612f0d8184612e95565b905092915050565b612f1e81612b2d565b8114612f2957600080fd5b50565b600081359050612f3b81612f15565b92915050565b600060208284031215612f5757612f56612a98565b5b6000612f6584828501612f2c565b91505092915050565b600081519050919050565b600082825260208201905092915050565b6000819050602082019050919050565b6000612fa68383612bd0565b905092915050565b6000602082019050919050565b6000612fc682612f6e565b612fd08185612f79565b935083602082028501612fe285612f8a565b8060005b8581101561301e5784840389528151612fff8582612f9a565b945061300a83612fae565b925060208a01995050600181019050612fe6565b50829750879550505050505092915050565b60008115159050919050565b61304581613030565b82525050565b6000610100830160008301516130646000860182612c09565b506020830151848203602086015261307c8282612bd0565b915050604083015184820360408601526130968282612bd0565b915050606083015184820360608601526130b08282612fbb565b91505060808301516130c56080860182612c09565b5060a08301516130d860a0860182612c09565b5060c08301516130eb60c086018261303c565b5060e083015184820360e08601526131038282612fbb565b9150508091505092915050565b6000602082019050818103600083015261312a818461304b565b905092915050565b600080fd5b600080fd5b600080fd5b60008083601f84011261315757613156613132565b5b8235905067ffffffffffffffff81111561317457613173613137565b5b6020830191508360018202830111156131905761318f61313c565b5b9250929050565b600080602083850312156131ae576131ad612a98565b5b600083013567ffffffffffffffff8111156131cc576131cb612a9d565b5b6131d885828601613141565b92509250509250929050565b600080fd5b7f4e487b7100000000000000000000000000000000000000000000000000000000600052604160045260246000fd5b61322182612bbf565b810181811067ffffffffffffffff821117156132405761323f6131e9565b5b80604052505050565b6000613253612a8e565b905061325f8282613218565b919050565b600067ffffffffffffffff82111561327f5761327e6131e9565b5b61328882612bbf565b9050602081019050919050565b82818337600083830152505050565b60006132b76132b284613264565b613249565b9050828152602081018484840111156132d3576132d26131e4565b5b6132de848285613295565b509392505050565b600082601f8301126132fb576132fa613132565b5b813561330b8482602086016132a4565b91505092915050565b60006020828403121561332a57613329612a98565b5b600082013567ffffffffffffffff81111561334857613347612a9d565b5b613354848285016132e6565b91505092915050565b60008060006060848603121561337657613375612a98565b5b600061338486828701612aeb565b935050602061339586828701612aeb565b92505060406133a686828701612aeb565b9150509250925092565b6133b981612c6e565b82525050565b60006020820190506133d460008301846133b0565b92915050565b600067ffffffffffffffff8211156133f5576133f46131e9565b5b6133fe82612bbf565b9050602081019050919050565b600061341e613419846133da565b613249565b90508281526020810184848401111561343a576134396131e4565b5b613445848285613295565b509392505050565b600082601f83011261346257613461613132565b5b813561347284826020860161340b565b91505092915050565b60006020828403121561349157613490612a98565b5b600082013567ffffffffffffffff8111156134af576134ae612a9d565b5b6134bb8482850161344d565b91505092915050565b6134cd81613030565b82525050565b600081519050919050565b600082825260208201905092915050565b60006134fa826134d3565b61350481856134de565b9350613514818560208601612b8c565b61351d81612bbf565b840191505092915050565b600060408201905061353d60008301856134c4565b818103602083015261354f81846134ef565b90509392505050565b6002811061356957613568612c18565b5b50565b600081905061357a82613558565b919050565b600061358a8261356c565b9050919050565b61359a8161357f565b82525050565b60006020820190506135b56000830184613591565b92915050565b600080604083850312156135d2576135d1612a98565b5b60006135e085828601612aeb565b92505060206135f185828601612f2c565b9150509250929050565b600067ffffffffffffffff821115613616576136156131e9565b5b602082029050602081019050919050565b600061363a613635846135fb565b613249565b9050808382526020820190506020840283018581111561365d5761365c61313c565b5b835b818110156136a457803567ffffffffffffffff81111561368257613681613132565b5b80860161368f89826132e6565b8552602085019450505060208101905061365f565b5050509392505050565b600082601f8301126136c3576136c2613132565b5b81356136d3848260208601613627565b91505092915050565b6136e581613030565b81146136f057600080fd5b50565b600081359050613702816136dc565b92915050565b600080600080600080600080610100898b03121561372957613728612a98565b5b60006137378b828c01612f2c565b985050602089013567ffffffffffffffff81111561375857613757612a9d565b5b6137648b828c016132e6565b975050604089013567ffffffffffffffff81111561378557613784612a9d565b5b6137918b828c016132e6565b965050606089013567ffffffffffffffff8111156137b2576137b1612a9d565b5b6137be8b828c016136ae565b95505060806137cf8b828c01612f2c565b94505060a06137e08b828c01612f2c565b93505060c06137f18b828c016136f3565b92505060e089013567ffffffffffffffff81111561381257613811612a9d565b5b61381e8b828c016136ae565b9150509295985092959890939650565b600061383982612aa2565b9050919050565b6138498161382e565b82525050565b60006020820190506138646000830184613840565b92915050565b600060c08201905061387f6000830189612b37565b81810360208301526138918188612de9565b905081810360408301526138a58187612de9565b90506138b46060830186612b37565b6138c16080830185612b37565b6138ce60a08301846134c4565b979650505050505050565b7f5265656e7472616e637947756172643a207265656e7472616e742063616c6c00600082015250565b600061390f601f83612dd8565b915061391a826138d9565b602082019050919050565b6000602082019050818103600083015261393e81613902565b9050919050565b600060408201905061395a6000830185612b37565b6139676020830184612b37565b9392505050565b7f4e487b7100000000000000000000000000000000000000000000000000000000600052602260045260246000fd5b600060028204905060018216806139b557607f821691505b602082108114156139c9576139c861396e565b5b50919050565b6139d881612ac2565b82525050565b60006020820190506139f360008301846139cf565b92915050565b600081519050613a0881612f15565b92915050565b600060208284031215613a2457613a23612a98565b5b6000613a32848285016139f9565b91505092915050565b7f6e6f2066756e6473000000000000000000000000000000000000000000000000600082015250565b6000613a71600883612dd8565b9150613a7c82613a3b565b602082019050919050565b60006020820190508181036000830152613aa081613a64565b9050919050565b60008190508160005260206000209050919050565b60008154613ac98161399d565b613ad38186612dd8565b94506001821660008114613aee5760018114613b0057613b33565b60ff1983168652602086019350613b33565b613b0985613aa7565b60005b83811015613b2b57815481890152600182019150602081019050613b0c565b808801955050505b50505092915050565b7f3078000000000000000000000000000000000000000000000000000000000000600082015250565b6000613b726002836134de565b9150613b7d82613b3c565b602082019050919050565b6000819050919050565b600063ffffffff82169050919050565b6000819050919050565b6000613bc7613bc2613bbd84613b88565b613ba2565b613b92565b9050919050565b613bd781613bac565b82525050565b6000613bf8613bf3613bee84612aa2565b613ba2565b612aa2565b9050919050565b6000613c0a82613bdd565b9050919050565b6000613c1c82613bff565b9050919050565b613c2c81613c11565b82525050565b6000819050919050565b60006bffffffffffffffffffffffff82169050919050565b6000613c6f613c6a613c6584613c32565b613ba2565b613c3c565b9050919050565b613c7f81613c54565b82525050565b6000610100820190508181036000830152613ca08188613abc565b90508181036020830152613cb381613b65565b9050613cc260408301876139cf565b613ccf6060830186613bce565b613cdc6080830185613c23565b81810360a0830152613ced81613b65565b905081810360c0830152613d0081613b65565b9050613d0f60e0830184613c76565b9695505050505050565b600081905092915050565b50565b6000613d34600083613d19565b9150613d3f82613d24565b600082019050919050565b6000613d5582613d27565b9150819050919050565b6000604082019050613d746000830185613c23565b613d8160208301846139cf565b9392505050565b7f4e487b7100000000000000000000000000000000000000000000000000000000600052601160045260246000fd5b6000613dc282612b2d565b9150613dcd83612b2d565b9250827fffffffffffffffffffffffffffffffffffffffffffffffffffffffffffffffff03821115613e0257613e01613d88565b5b828201905092915050565b6000613e1882612b2d565b9150613e2383612b2d565b925082821015613e3657613e35613d88565b5b82820390509291505056fea264697066735822122056787b7aaec243fafc5ff8881b0e6cbd6f6626c97f84d8ac9325d0b770e85d3864736f6c63430008080033",
  "devdoc": {
    "kind": "dev",
    "methods": {
      "checkUpkeep(bytes)": {
        "details": "this is the function chainlink keepers calls chekupkeep returns true to trigger the action after the interval has passed"
      }
    },
    "version": 1
  },
  "userdoc": {
    "errors": {
      "Cmp_NoDns()": [
        {
          "notice": "donator is creator "
        }
      ],
      "Cmp_NotCrtr()": [
        {
          "notice": "not in state "
        }
      ]
    },
    "kind": "user",
    "methods": {},
    "version": 1
  },
  "storageLayout": {
    "storage": [
      {
        "astId": 371,
        "contract": "contracts/Campaign.sol:Campaign",
        "label": "_status",
        "offset": 0,
        "slot": "0",
        "type": "t_uint256"
      },
      {
        "astId": 757,
        "contract": "contracts/Campaign.sol:Campaign",
        "label": "s_title",
        "offset": 0,
        "slot": "1",
        "type": "t_string_storage"
      },
      {
        "astId": 759,
        "contract": "contracts/Campaign.sol:Campaign",
        "label": "s_description",
        "offset": 0,
        "slot": "2",
        "type": "t_string_storage"
      },
      {
        "astId": 761,
        "contract": "contracts/Campaign.sol:Campaign",
        "label": "s_category",
        "offset": 0,
        "slot": "3",
        "type": "t_string_storage"
      },
      {
        "astId": 763,
        "contract": "contracts/Campaign.sol:Campaign",
        "label": "s_imageURI",
        "offset": 0,
        "slot": "4",
        "type": "t_string_storage"
      },
      {
        "astId": 765,
        "contract": "contracts/Campaign.sol:Campaign",
        "label": "s_campaignURI",
        "offset": 0,
        "slot": "5",
        "type": "t_string_storage"
      },
      {
        "astId": 767,
        "contract": "contracts/Campaign.sol:Campaign",
        "label": "s_tags",
        "offset": 0,
        "slot": "6",
        "type": "t_string_storage"
      },
      {
        "astId": 769,
        "contract": "contracts/Campaign.sol:Campaign",
        "label": "goalAmount",
        "offset": 0,
        "slot": "7",
        "type": "t_uint256"
      },
      {
        "astId": 771,
        "contract": "contracts/Campaign.sol:Campaign",
        "label": "duration",
        "offset": 0,
        "slot": "8",
        "type": "t_uint256"
      },
      {
        "astId": 773,
        "contract": "contracts/Campaign.sol:Campaign",
        "label": "currentBalance",
        "offset": 0,
        "slot": "9",
        "type": "t_uint256"
      },
      {
        "astId": 780,
        "contract": "contracts/Campaign.sol:Campaign",
        "label": "deadline",
        "offset": 0,
        "slot": "10",
        "type": "t_uint256"
      },
      {
        "astId": 785,
        "contract": "contracts/Campaign.sol:Campaign",
        "label": "c_mode",
        "offset": 0,
        "slot": "11",
        "type": "t_enum(C_Mode)753"
      },
      {
        "astId": 790,
        "contract": "contracts/Campaign.sol:Campaign",
        "label": "c_state",
        "offset": 1,
        "slot": "11",
        "type": "t_enum(C_State)750"
      },
      {
        "astId": 792,
        "contract": "contracts/Campaign.sol:Campaign",
        "label": "rId",
        "offset": 0,
        "slot": "12",
        "type": "t_uint256"
      },
      {
        "astId": 842,
        "contract": "contracts/Campaign.sol:Campaign",
        "label": "rewards",
        "offset": 0,
        "slot": "13",
        "type": "t_mapping(t_uint256,t_struct(reward)837_storage)"
      },
      {
        "astId": 847,
        "contract": "contracts/Campaign.sol:Campaign",
        "label": "donations",
        "offset": 0,
        "slot": "14",
        "type": "t_mapping(t_address,t_array(t_uint256)dyn_storage)"
      },
      {
        "astId": 851,
        "contract": "contracts/Campaign.sol:Campaign",
        "label": "aggrDonations",
        "offset": 0,
        "slot": "15",
        "type": "t_mapping(t_address,t_uint256)"
      },
      {
        "astId": 854,
        "contract": "contracts/Campaign.sol:Campaign",
        "label": "rKeys",
        "offset": 0,
        "slot": "16",
        "type": "t_array(t_uint256)dyn_storage"
      }
    ],
    "types": {
      "t_address": {
        "encoding": "inplace",
        "label": "address",
        "numberOfBytes": "20"
      },
      "t_array(t_string_storage)dyn_storage": {
        "base": "t_string_storage",
        "encoding": "dynamic_array",
        "label": "string[]",
        "numberOfBytes": "32"
      },
      "t_array(t_uint256)dyn_storage": {
        "base": "t_uint256",
        "encoding": "dynamic_array",
        "label": "uint256[]",
        "numberOfBytes": "32"
      },
      "t_bool": {
        "encoding": "inplace",
        "label": "bool",
        "numberOfBytes": "1"
      },
      "t_enum(C_Mode)753": {
        "encoding": "inplace",
        "label": "enum Campaign.C_Mode",
        "numberOfBytes": "1"
      },
      "t_enum(C_State)750": {
        "encoding": "inplace",
        "label": "enum Campaign.C_State",
        "numberOfBytes": "1"
      },
      "t_mapping(t_address,t_array(t_uint256)dyn_storage)": {
        "encoding": "mapping",
        "key": "t_address",
        "label": "mapping(address => uint256[])",
        "numberOfBytes": "32",
        "value": "t_array(t_uint256)dyn_storage"
      },
      "t_mapping(t_address,t_uint256)": {
        "encoding": "mapping",
        "key": "t_address",
        "label": "mapping(address => uint256)",
        "numberOfBytes": "32",
        "value": "t_uint256"
      },
      "t_mapping(t_uint256,t_struct(reward)837_storage)": {
        "encoding": "mapping",
        "key": "t_uint256",
        "label": "mapping(uint256 => struct Campaign.reward)",
        "numberOfBytes": "32",
        "value": "t_struct(reward)837_storage"
      },
      "t_string_storage": {
        "encoding": "bytes",
        "label": "string",
        "numberOfBytes": "32"
      },
      "t_struct(reward)837_storage": {
        "encoding": "inplace",
        "label": "struct Campaign.reward",
        "members": [
          {
            "astId": 820,
            "contract": "contracts/Campaign.sol:Campaign",
            "label": "price",
            "offset": 0,
            "slot": "0",
            "type": "t_uint256"
          },
          {
            "astId": 822,
            "contract": "contracts/Campaign.sol:Campaign",
            "label": "title",
            "offset": 0,
            "slot": "1",
            "type": "t_string_storage"
          },
          {
            "astId": 824,
            "contract": "contracts/Campaign.sol:Campaign",
            "label": "description",
            "offset": 0,
            "slot": "2",
            "type": "t_string_storage"
          },
          {
            "astId": 827,
            "contract": "contracts/Campaign.sol:Campaign",
            "label": "perks",
            "offset": 0,
            "slot": "3",
            "type": "t_array(t_string_storage)dyn_storage"
          },
          {
            "astId": 829,
            "contract": "contracts/Campaign.sol:Campaign",
            "label": "delDate",
            "offset": 0,
            "slot": "4",
            "type": "t_uint256"
          },
          {
            "astId": 831,
            "contract": "contracts/Campaign.sol:Campaign",
            "label": "quantity",
            "offset": 0,
            "slot": "5",
            "type": "t_uint256"
          },
          {
            "astId": 833,
            "contract": "contracts/Campaign.sol:Campaign",
            "label": "infinite",
            "offset": 0,
            "slot": "6",
            "type": "t_bool"
          },
          {
            "astId": 836,
            "contract": "contracts/Campaign.sol:Campaign",
            "label": "shipsTo",
            "offset": 0,
            "slot": "7",
            "type": "t_array(t_string_storage)dyn_storage"
          }
        ],
        "numberOfBytes": "256"
      },
      "t_uint256": {
        "encoding": "inplace",
        "label": "uint256",
        "numberOfBytes": "32"
      }
    }
  }
}