{
  "address": "0xCf7Ed3AccA5a467e9e704C703E8D87F634fB0Fc9",
  "abi": [
    {
      "inputs": [
        {
          "internalType": "address",
          "name": "_cmpFactory",
          "type": "address"
        },
        {
          "internalType": "address",
          "name": "_rwdFactory",
          "type": "address"
        }
      ],
      "stateMutability": "nonpayable",
      "type": "constructor"
    },
    {
      "anonymous": false,
      "inputs": [
        {
          "indexed": true,
          "internalType": "address",
          "name": "_campaignAddress",
          "type": "address"
        },
        {
          "indexed": true,
          "internalType": "address",
          "name": "_creator",
          "type": "address"
        },
        {
          "indexed": false,
          "internalType": "string",
          "name": "_title",
          "type": "string"
        },
        {
          "indexed": false,
          "internalType": "string",
          "name": "_description",
          "type": "string"
        },
        {
          "indexed": false,
          "internalType": "string",
          "name": "_category",
          "type": "string"
        },
        {
          "indexed": false,
          "internalType": "string",
          "name": "_tags",
          "type": "string"
        },
        {
          "indexed": false,
          "internalType": "string",
          "name": "_imageURI",
          "type": "string"
        }
      ],
      "name": "CampaignAdded",
      "type": "event"
    },
    {
      "anonymous": false,
      "inputs": [
        {
          "indexed": true,
          "internalType": "address",
          "name": "_funder",
          "type": "address"
        },
        {
          "indexed": true,
          "internalType": "address",
          "name": "_campaignAddress",
          "type": "address"
        },
        {
          "indexed": false,
          "internalType": "uint256",
          "name": "_val",
          "type": "uint256"
        },
        {
          "indexed": true,
          "internalType": "address",
          "name": "_c_creator",
          "type": "address"
        }
      ],
      "name": "CampaignFunded",
      "type": "event"
    },
    {
      "anonymous": false,
      "inputs": [
        {
          "indexed": false,
          "internalType": "address",
          "name": "_campaignAddress",
          "type": "address"
        },
        {
          "indexed": false,
          "internalType": "address",
          "name": "_creator",
          "type": "address"
        }
      ],
      "name": "CampaignPublished",
      "type": "event"
    },
    {
      "anonymous": false,
      "inputs": [
        {
          "indexed": true,
          "internalType": "address",
          "name": "_campaignAddress",
          "type": "address"
        }
      ],
      "name": "CampaignRemoved",
      "type": "event"
    },
    {
      "anonymous": false,
      "inputs": [
        {
          "indexed": true,
          "internalType": "address",
          "name": "_withdrawer",
          "type": "address"
        },
        {
          "indexed": true,
          "internalType": "address",
          "name": "_campaignAddress",
          "type": "address"
        },
        {
          "indexed": false,
          "internalType": "uint256",
          "name": "_val",
          "type": "uint256"
        },
        {
          "indexed": true,
          "internalType": "address",
          "name": "_c_creator",
          "type": "address"
        }
      ],
      "name": "CampaignShrunk",
      "type": "event"
    },
    {
      "anonymous": false,
      "inputs": [
        {
          "indexed": true,
          "internalType": "address",
          "name": "_address",
          "type": "address"
        },
        {
          "indexed": false,
          "internalType": "string",
          "name": "_username",
          "type": "string"
        },
        {
          "indexed": false,
          "internalType": "string",
          "name": "_email",
          "type": "string"
        },
        {
          "indexed": false,
          "internalType": "string",
          "name": "_shipAddress",
          "type": "string"
        },
        {
          "indexed": false,
          "internalType": "string",
          "name": "_pfp",
          "type": "string"
        }
      ],
      "name": "UserAdded",
      "type": "event"
    },
    {
      "inputs": [
        {
          "components": [
            {
              "internalType": "string",
              "name": "_title",
              "type": "string"
            },
            {
              "internalType": "string",
              "name": "_description",
              "type": "string"
            },
            {
              "internalType": "string",
              "name": "_category",
              "type": "string"
            },
            {
              "internalType": "string",
              "name": "_tags",
              "type": "string"
            },
            {
              "internalType": "uint256",
              "name": "_goalAmount",
              "type": "uint256"
            },
            {
              "internalType": "uint256",
              "name": "_duration",
              "type": "uint256"
            },
            {
              "internalType": "string",
              "name": "_imageURI",
              "type": "string"
            }
          ],
          "internalType": "struct CampaignFactory.cmpInput",
          "name": "_cmp",
          "type": "tuple"
        }
      ],
      "name": "addCampaign",
      "outputs": [],
      "stateMutability": "nonpayable",
      "type": "function"
    },
    {
      "inputs": [
        {
          "internalType": "address",
          "name": "_address",
          "type": "address"
        },
        {
          "internalType": "string",
          "name": "_username",
          "type": "string"
        },
        {
          "internalType": "string",
          "name": "_email",
          "type": "string"
        },
        {
          "internalType": "string",
          "name": "_shipAddress",
          "type": "string"
        },
        {
          "internalType": "string",
          "name": "_pfp",
          "type": "string"
        }
      ],
      "name": "addUser",
      "outputs": [],
      "stateMutability": "nonpayable",
      "type": "function"
    },
    {
      "inputs": [],
      "name": "campaignCounter",
      "outputs": [
        {
          "internalType": "uint256",
          "name": "",
          "type": "uint256"
        }
      ],
      "stateMutability": "view",
      "type": "function"
    },
    {
      "inputs": [
        {
          "internalType": "address",
          "name": "_campaignAddress",
          "type": "address"
        },
        {
          "internalType": "bool",
          "name": "_rewardable",
          "type": "bool"
        }
      ],
      "name": "donateToCampaign",
      "outputs": [],
      "stateMutability": "payable",
      "type": "function"
    },
    {
      "inputs": [],
      "name": "i_cmpFactory",
      "outputs": [
        {
          "internalType": "address",
          "name": "",
          "type": "address"
        }
      ],
      "stateMutability": "view",
      "type": "function"
    },
    {
      "inputs": [],
      "name": "i_rewardFactory",
      "outputs": [
        {
          "internalType": "address",
          "name": "",
          "type": "address"
        }
      ],
      "stateMutability": "view",
      "type": "function"
    },
    {
      "inputs": [
        {
          "internalType": "address",
          "name": "_campaignAddress",
          "type": "address"
        },
        {
          "internalType": "address",
          "name": "_upkeepCreator",
          "type": "address"
        },
        {
          "internalType": "address",
          "name": "_linkToken",
          "type": "address"
        }
      ],
      "name": "publishCampaign",
      "outputs": [],
      "stateMutability": "nonpayable",
      "type": "function"
    },
    {
      "inputs": [
        {
          "internalType": "address",
          "name": "_campaignAddress",
          "type": "address"
        }
      ],
      "name": "refundFromCampaign",
      "outputs": [],
      "stateMutability": "nonpayable",
      "type": "function"
    },
    {
      "inputs": [
        {
          "internalType": "address",
          "name": "_campaignAddress",
          "type": "address"
        }
      ],
      "name": "removeCampaign",
      "outputs": [],
      "stateMutability": "nonpayable",
      "type": "function"
    }
  ],
  "transactionHash": "0x2fe4779139dd193a3914a6556dc584351505ef059b252ccb5f393e3ca7df3827",
  "args": [
    "0xe7f1725E7734CE288F8367e1Bb143E90bb3F0512",
    "0x9fE46736679d2D9a65F0992F2272dE9f3c7fa6e0"
  ],
  "numDeployments": 1,
  "solcInputHash": "645465ac11977412cb83284d15e4bd14",
  "bytecode": "0x60c06040523480156200001157600080fd5b50604051620014ec380380620014ec833981016040819052620000349162000086565b6001600160a01b0390811660a05216608052620000c9565b60006001600160a01b0382165b92915050565b6200006a816200004c565b81146200007657600080fd5b50565b805162000059816200005f565b600080604083850312156200009e576200009e600080fd5b6000620000ac858562000079565b9250506020620000bf8582860162000079565b9150509250929050565b60805160a0516113f1620000fb60003960008181609d015261059e01526000818160e7015261056d01526113f16000f3fe6080604052600436106100865760003560e01c8063ccf5f27f11610059578063ccf5f27f1461013e578063cd274a401461015e578063e4663a5b1461017e578063fab62a1d1461019e578063fca604d7146101be57600080fd5b806357168c791461008b5780636feb02a1146100d55780639083ef5814610109578063ac3d15fb1461011e575b600080fd5b34801561009757600080fd5b506100bf7f000000000000000000000000000000000000000000000000000000000000000081565b6040516100cc9190610a94565b60405180910390f35b3480156100e157600080fd5b506100bf7f000000000000000000000000000000000000000000000000000000000000000081565b61011c610117366004610ad7565b6101e1565b005b34801561012a57600080fd5b5061011c610139366004610b14565b61035b565b34801561014a57600080fd5b5061011c610159366004610d76565b610553565b34801561016a57600080fd5b5061011c610179366004610db0565b61068d565b34801561018a57600080fd5b5061011c610199366004610b14565b6106db565b3480156101aa57600080fd5b5061011c6101b9366004610e90565b610841565b3480156101ca57600080fd5b506101d460005481565b6040516100cc9190610ee6565b6001600160a01b0380831660009081526001602090815260408083205481516358a2b01f60e11b815291519394169263b145603e926004808401939192918290030181865afa158015610238573d6000803e3d6000fd5b505050506040513d601f19601f8201168201806040525081019061025c9190610eff565b90506000836001600160a01b031634338560405160240161027e929190610f28565b60408051601f198184030181529181526020820180516001600160e01b0316637be4bae160e01b179052516102b39190610f98565b60006040518083038185875af1925050503d80600081146102f0576040519150601f19603f3d011682016040523d82523d6000602084013e6102f5565b606091505b50509050801561008657816001600160a01b0316846001600160a01b0316336001600160a01b03167f5f0f580a49a433afc0cd61faf31f545ff739f7874dd091ba39ecfd0383c8462c3460405161034c9190610ee6565b60405180910390a45b50505050565b6001600160a01b0380821660009081526001602090815260408083205481516358a2b01f60e11b815291519394169263b145603e926004808401939192918290030181865afa1580156103b2573d6000803e3d6000fd5b505050506040513d601f19601f820116820180604052508101906103d69190610eff565b6001600160a01b03808416600090815260016020526040808220549051629917c560e41b815293945090929116906309917c5090610418903390600401610a94565b602060405180830381865afa158015610435573d6000803e3d6000fd5b505050506040513d601f19601f820116820180604052508101906104599190610faf565b90506000811161046857600080fd5b6000836001600160a01b0316336040516024016104859190610a94565b60408051601f198184030181529181526020820180516001600160e01b0316637d44a00d60e11b179052516104ba9190610f98565b6000604051808303816000865af19150503d80600081146104f7576040519150601f19603f3d011682016040523d82523d6000602084013e6104fc565b606091505b50509050801561008657826001600160a01b0316846001600160a01b0316336001600160a01b03167fe627e40c5979c5da4cf94d4b3ce15ce68a4103b1480ec047eec9736d39a0123d8560405161034c9190610ee6565b604051632213cc3b60e21b81526000906001600160a01b037f0000000000000000000000000000000000000000000000000000000000000000169063884f30ec906105c890309033907f00000000000000000000000000000000000000000000000000000000000000009088906004016110b1565b6020604051808303816000875af11580156105e7573d6000803e3d6000fd5b505050506040513d601f19601f8201168201806040525081019061060b9190610eff565b6001600160a01b03811660008181526001602090815260409182902080546001600160a01b0319168417905585519086015186830151606088015160c0890151945196975033967fce55db2394471943657aaa63a10999909b55d5948702c94255bb9ba41ad07e289561068195949392916110f5565b60405180910390a35050565b846001600160a01b03167f10bb073e1ce0977d8bf7b641de8a59b02dd9c9d1c4badc9b30e5a48ac9fc8cb9858585856040516106cc9493929190611161565b60405180910390a25050505050565b6001600160a01b038181166000908152600160209081526040918290205482516358a2b01f60e11b815292513394919091169263b145603e9260048083019391928290030181865afa158015610735573d6000803e3d6000fd5b505050506040513d601f19601f820116820180604052508101906107599190610eff565b6001600160a01b03161461076c57600080fd5b6001600160a01b03808216600090815260016020908152604080832054815163ce845d1d60e01b815291519394169263ce845d1d926004808401939192918290030181865afa1580156107c3573d6000803e3d6000fd5b505050506040513d601f19601f820116820180604052508101906107e79190610faf565b11156107f257600080fd5b6001600160a01b03811660008181526001602052604080822080546001600160a01b0319169055517fd41d62ed7a46b1f2f4c0a4c0fa40c95bbe14a7d55034ff9817b743d6cb7935369190a250565b6040516370a0823160e01b8152829082906001600160a01b038216906370a0823190610871908590600401610a94565b602060405180830381865afa15801561088e573d6000803e3d6000fd5b505050506040513d601f19601f820116820180604052508101906108b29190610faf565b6108d75760405162461bcd60e51b81526004016108ce906111d0565b60405180910390fd5b816001600160a01b0316634c7e9be3866001600160a01b03166399a8502d6040518163ffffffff1660e01b8152600401600060405180830381865afa158015610924573d6000803e3d6000fd5b505050506040513d6000823e601f3d908101601f1916820160405261094c9190810190611238565b876207a120896001600160a01b031663b145603e6040518163ffffffff1660e01b8152600401602060405180830381865afa15801561098f573d6000803e3d6000fd5b505050506040513d601f19601f820116820180604052508101906109b39190610eff565b671bc16d674ec800006040518663ffffffff1660e01b81526004016109dc9594939291906112f1565b6020604051808303816000875af11580156109fb573d6000803e3d6000fd5b505050506040513d601f19601f82011682018060405250810190610a1f9190610faf565b50600054610a2e906001611388565b6000556040517f4ee76a1c89ccbef26f098ac48c95b7da87fe34749fea8758a71a3dc4ccc28bcd90610a6390879033906113a0565b60405180910390a15050505050565b60006001600160a01b0382165b92915050565b610a8e81610a72565b82525050565b60208101610a7f8284610a85565b610aab81610a72565b8114610ab657600080fd5b50565b8035610a7f81610aa2565b801515610aab565b8035610a7f81610ac4565b60008060408385031215610aed57610aed600080fd5b6000610af98585610ab9565b9250506020610b0a85828601610acc565b9150509250929050565b600060208284031215610b2957610b29600080fd5b6000610b358484610ab9565b949350505050565b634e487b7160e01b600052604160045260246000fd5b601f19601f83011681018181106001600160401b0382111715610b7857610b78610b3d565b6040525050565b6000610b8a60405190565b9050610b968282610b53565b919050565b60006001600160401b03821115610bb457610bb4610b3d565b601f19601f83011660200192915050565b82818337506000910152565b6000610be4610bdf84610b9b565b610b7f565b905082815260208101848484011115610bff57610bff600080fd5b610c0a848285610bc5565b509392505050565b600082601f830112610c2657610c26600080fd5b8135610b35848260208601610bd1565b80610aab565b8035610a7f81610c36565b600060e08284031215610c5c57610c5c600080fd5b610c6660e0610b7f565b905081356001600160401b03811115610c8157610c81600080fd5b610c8d84828501610c12565b82525060208201356001600160401b03811115610cac57610cac600080fd5b610cb884828501610c12565b60208301525060408201356001600160401b03811115610cda57610cda600080fd5b610ce684828501610c12565b60408301525060608201356001600160401b03811115610d0857610d08600080fd5b610d1484828501610c12565b6060830152506080610d2884828501610c3c565b60808301525060a0610d3c84828501610c3c565b60a08301525060c08201356001600160401b03811115610d5e57610d5e600080fd5b610d6a84828501610c12565b60c08301525092915050565b600060208284031215610d8b57610d8b600080fd5b81356001600160401b03811115610da457610da4600080fd5b610b3584828501610c47565b600080600080600060a08688031215610dcb57610dcb600080fd5b6000610dd78888610ab9565b95505060208601356001600160401b03811115610df657610df6600080fd5b610e0288828901610c12565b94505060408601356001600160401b03811115610e2157610e21600080fd5b610e2d88828901610c12565b93505060608601356001600160401b03811115610e4c57610e4c600080fd5b610e5888828901610c12565b92505060808601356001600160401b03811115610e7757610e77600080fd5b610e8388828901610c12565b9150509295509295909350565b600080600060608486031215610ea857610ea8600080fd5b6000610eb48686610ab9565b9350506020610ec586828701610ab9565b9250506040610ed686828701610ab9565b9150509250925092565b80610a8e565b60208101610a7f8284610ee0565b8051610a7f81610aa2565b600060208284031215610f1457610f14600080fd5b6000610b358484610ef4565b801515610a8e565b60408101610f368285610a85565b610f436020830184610f20565b9392505050565b60005b83811015610f65578181015183820152602001610f4d565b838111156103555750506000910152565b6000610f80825190565b610f8e818560208601610f4a565b9290920192915050565b6000610f438284610f76565b8051610a7f81610c36565b600060208284031215610fc457610fc4600080fd5b6000610b358484610fa4565b6000610fda825190565b808452602084019350610ff1818560208601610f4a565b601f01601f19169290920192915050565b805160e08084526000919084019061101a8282610fd0565b915050602083015184820360208601526110348282610fd0565b9150506040830151848203604086015261104e8282610fd0565b915050606083015184820360608601526110688282610fd0565b915050608083015161107d6080860182610ee0565b5060a083015161109060a0860182610ee0565b5060c083015184820360c08601526110a88282610fd0565b95945050505050565b608081016110bf8287610a85565b6110cc6020830186610a85565b6110d96040830185610a85565b81810360608301526110eb8184611002565b9695505050505050565b60a080825281016111068188610fd0565b9050818103602083015261111a8187610fd0565b9050818103604083015261112e8186610fd0565b905081810360608301526111428185610fd0565b905081810360808301526111568184610fd0565b979650505050505050565b608080825281016111728187610fd0565b905081810360208301526111868186610fd0565b9050818103604083015261119a8185610fd0565b905081810360608301526110eb8184610fd0565b60088152600060208201676e6f2066756e647360c01b815291505b5060200190565b60208082528101610a7f816111ae565b60006111ee610bdf84610b9b565b90508281526020810184848401111561120957611209600080fd5b610c0a848285610f4a565b600082601f83011261122857611228600080fd5b8151610b358482602086016111e0565b60006020828403121561124d5761124d600080fd5b81516001600160401b0381111561126657611266600080fd5b610b3584828501611214565b6002815260006020820161060f60f31b815291506111c9565b600063ffffffff8216610a7f565b610a8e8161128b565b60006001600160a01b038216610a7f565b6000610a7f826112a2565b6000610a7f826112b3565b610a8e816112be565b60006bffffffffffffffffffffffff8216610a7f565b610a8e816112d2565b61010080825281016113038188610fd0565b9050818103602083015261131681611272565b90506113256040830187610a85565b6113326060830186611299565b61133f60808301856112c9565b81810360a083015261135081611272565b905081810360c083015261136381611272565b90506110eb60e08301846112e8565b634e487b7160e01b600052601160045260246000fd5b6000821982111561139b5761139b611372565b500190565b604081016113ae8285610a85565b610f436020830184610a8556fea2646970667358221220904c1ce9593d8d613457c36dc56fb19cc187b805c4c17c5b9fbf272a774122fa64736f6c634300080b0033",
  "libraries": {
    "RefunderLib": "0x5FbDB2315678afecb367f032d93F642f64180aa3"
  },
  "devdoc": {
    "kind": "dev",
    "methods": {},
    "version": 1
  },
  "userdoc": {
    "kind": "user",
    "methods": {},
    "version": 1
  },
  "storageLayout": {
    "storage": [
      {
        "astId": 1097,
        "contract": "contracts/CrowdFunder.sol:CrowdFunder",
        "label": "campaignCounter",
        "offset": 0,
        "slot": "0",
        "type": "t_uint256"
      },
      {
        "astId": 1101,
        "contract": "contracts/CrowdFunder.sol:CrowdFunder",
        "label": "campaigns",
        "offset": 0,
        "slot": "1",
        "type": "t_mapping(t_address,t_address)"
      }
    ],
    "types": {
      "t_address": {
        "encoding": "inplace",
        "label": "address",
        "numberOfBytes": "20"
      },
      "t_mapping(t_address,t_address)": {
        "encoding": "mapping",
        "key": "t_address",
        "label": "mapping(address => address)",
        "numberOfBytes": "32",
        "value": "t_address"
      },
      "t_uint256": {
        "encoding": "inplace",
        "label": "uint256",
        "numberOfBytes": "32"
      }
    }
  }
}