{
  "address": "0x5FbDB2315678afecb367f032d93F642f64180aa3",
  "abi": [
    {
      "inputs": [
        {
          "internalType": "address",
          "name": "_campaignAddress",
          "type": "address"
        }
      ],
      "name": "CrowdFunder__NoSuchCampaign",
      "type": "error"
    },
    {
      "anonymous": false,
      "inputs": [
        {
          "indexed": true,
          "internalType": "address",
          "name": "_campaignAddress",
          "type": "address"
        },
        {
          "indexed": true,
          "internalType": "address",
          "name": "_creator",
          "type": "address"
        },
        {
          "indexed": false,
          "internalType": "uint256",
          "name": "_creatorType",
          "type": "uint256"
        },
        {
          "indexed": false,
          "internalType": "string",
          "name": "_title",
          "type": "string"
        },
        {
          "indexed": false,
          "internalType": "string",
          "name": "_description",
          "type": "string"
        },
        {
          "indexed": false,
          "internalType": "string[]",
          "name": "_tags",
          "type": "string[]"
        },
        {
          "indexed": false,
          "internalType": "uint256",
          "name": "_goalAmount",
          "type": "uint256"
        },
        {
          "indexed": false,
          "internalType": "uint256",
          "name": "_duration",
          "type": "uint256"
        }
      ],
      "name": "CampaignAdded",
      "type": "event"
    },
    {
      "anonymous": false,
      "inputs": [
        {
          "indexed": true,
          "internalType": "address",
          "name": "_campaignAddress",
          "type": "address"
        }
      ],
      "name": "CampaignCanceled",
      "type": "event"
    },
    {
      "anonymous": false,
      "inputs": [
        {
          "indexed": true,
          "internalType": "address",
          "name": "_campaignAddress",
          "type": "address"
        },
        {
          "indexed": false,
          "internalType": "string",
          "name": "_title",
          "type": "string"
        },
        {
          "indexed": false,
          "internalType": "string",
          "name": "_description",
          "type": "string"
        },
        {
          "indexed": false,
          "internalType": "uint256",
          "name": "_duration",
          "type": "uint256"
        }
      ],
      "name": "CampaignUpdated",
      "type": "event"
    },
    {
      "inputs": [
        {
          "internalType": "uint64",
          "name": "_creatorType",
          "type": "uint64"
        },
        {
          "internalType": "string",
          "name": "_title",
          "type": "string"
        },
        {
          "internalType": "string",
          "name": "_description",
          "type": "string"
        },
        {
          "internalType": "string[]",
          "name": "_tags",
          "type": "string[]"
        },
        {
          "internalType": "uint256",
          "name": "_goalAmount",
          "type": "uint256"
        },
        {
          "internalType": "uint256",
          "name": "_duration",
          "type": "uint256"
        }
      ],
      "name": "addCampaign",
      "outputs": [],
      "stateMutability": "nonpayable",
      "type": "function"
    },
    {
      "inputs": [
        {
          "internalType": "address",
          "name": "_campaignAddress",
          "type": "address"
        }
      ],
      "name": "cancelCampaign",
      "outputs": [],
      "stateMutability": "nonpayable",
      "type": "function"
    },
    {
      "inputs": [
        {
          "internalType": "address",
          "name": "_campaignAddress",
          "type": "address"
        }
      ],
      "name": "getCampaign",
      "outputs": [
        {
          "components": [
            {
              "internalType": "address",
              "name": "creator",
              "type": "address"
            },
            {
              "internalType": "enum Campaign.CreatorType",
              "name": "creatorType",
              "type": "uint8"
            },
            {
              "internalType": "string",
              "name": "title",
              "type": "string"
            },
            {
              "internalType": "string",
              "name": "description",
              "type": "string"
            },
            {
              "internalType": "string[]",
              "name": "tags",
              "type": "string[]"
            },
            {
              "internalType": "uint256",
              "name": "goalAmount",
              "type": "uint256"
            },
            {
              "internalType": "uint256",
              "name": "duration",
              "type": "uint256"
            },
            {
              "internalType": "uint256",
              "name": "currentBalance",
              "type": "uint256"
            },
            {
              "internalType": "enum Campaign.State",
              "name": "currentState",
              "type": "uint8"
            }
          ],
          "internalType": "struct Campaign.CampaignObject",
          "name": "",
          "type": "tuple"
        }
      ],
      "stateMutability": "view",
      "type": "function"
    },
    {
      "inputs": [
        {
          "internalType": "address",
          "name": "_campaignAddress",
          "type": "address"
        },
        {
          "internalType": "string",
          "name": "_newTitle",
          "type": "string"
        },
        {
          "internalType": "string",
          "name": "_newDescription",
          "type": "string"
        },
        {
          "internalType": "uint256",
          "name": "_addedTime",
          "type": "uint256"
        }
      ],
      "name": "updateCampaign",
      "outputs": [],
      "stateMutability": "nonpayable",
      "type": "function"
    }
  ],
  "transactionHash": "0xb6792a95f6eccec32607db8d138a46cb70a3ca47eed6408cf68458d106fa779c",
  "args": [],
  "numDeployments": 1,
  "solcInputHash": "91a27352fe5f1d36d4798f82755ce175",
  "bytecode": "0x608060405234801561001057600080fd5b506141ca806100206000396000f3fe60806040523480156200001157600080fd5b5060043610620000525760003560e01c80630d6454a41462000057578063159780681462000077578063731301cf146200009757806393cca5fc14620000cd575b600080fd5b6200007560048036038101906200006f919062000a60565b620000ed565b005b6200009560048036038101906200008f919062000c2f565b620001e3565b005b620000b56004803603810190620000af919062000a60565b6200062f565b604051620000c491906200101a565b60405180910390f35b620000eb6004803603810190620000e591906200117f565b620007b6565b005b6000808273ffffffffffffffffffffffffffffffffffffffff1673ffffffffffffffffffffffffffffffffffffffff16815260200190815260200160002060006101000a81549073ffffffffffffffffffffffffffffffffffffffff0219169055600160008273ffffffffffffffffffffffffffffffffffffffff1673ffffffffffffffffffffffffffffffffffffffff16815260200190815260200160002060006101000a81549060ff02191690558073ffffffffffffffffffffffffffffffffffffffff167f3be3cf8b79824600b33b84642199163dc824bc8afdc691d0bcd8a849e39f92fc60405160405180910390a250565b600160008573ffffffffffffffffffffffffffffffffffffffff1673ffffffffffffffffffffffffffffffffffffffff16815260200190815260200160002060009054906101000a900460ff166200027457836040517f7a33dd0a0000000000000000000000000000000000000000000000000000000081526004016200026b919062001289565b60405180910390fd5b60008060008673ffffffffffffffffffffffffffffffffffffffff1673ffffffffffffffffffffffffffffffffffffffff16815260200190815260200160002060009054906101000a900473ffffffffffffffffffffffffffffffffffffffff16905060008451111562000352578073ffffffffffffffffffffffffffffffffffffffff166337fb13b0856040518263ffffffff1660e01b81526004016200031d9190620012f8565b600060405180830381600087803b1580156200033857600080fd5b505af11580156200034d573d6000803e3d6000fd5b505050505b600083511115620003cd578073ffffffffffffffffffffffffffffffffffffffff1663e735b48a846040518263ffffffff1660e01b8152600401620003989190620012f8565b600060405180830381600087803b158015620003b357600080fd5b505af1158015620003c8573d6000803e3d6000fd5b505050505b600082111562000447578073ffffffffffffffffffffffffffffffffffffffff16631b50ad09836040518263ffffffff1660e01b81526004016200041291906200132d565b600060405180830381600087803b1580156200042d57600080fd5b505af115801562000442573d6000803e3d6000fd5b505050505b8473ffffffffffffffffffffffffffffffffffffffff167f2012fc73109fb8eff48aefe86c75c0cfa51cae5f3de0ef40179efc32a2caf8068273ffffffffffffffffffffffffffffffffffffffff16634a79d50c6040518163ffffffff1660e01b815260040160006040518083038186803b158015620004c657600080fd5b505afa158015620004db573d6000803e3d6000fd5b505050506040513d6000823e3d601f19601f82011682018060405250810190620005069190620013c8565b8373ffffffffffffffffffffffffffffffffffffffff16637284e4166040518163ffffffff1660e01b815260040160006040518083038186803b1580156200054d57600080fd5b505afa15801562000562573d6000803e3d6000fd5b505050506040513d6000823e3d601f19601f820116820180604052508101906200058d9190620013c8565b8473ffffffffffffffffffffffffffffffffffffffff16630fb5a6b46040518163ffffffff1660e01b815260040160206040518083038186803b158015620005d457600080fd5b505afa158015620005e9573d6000803e3d6000fd5b505050506040513d601f19601f820116820180604052508101906200060f919062001430565b604051620006209392919062001462565b60405180910390a25050505050565b620006396200094d565b600160008373ffffffffffffffffffffffffffffffffffffffff1673ffffffffffffffffffffffffffffffffffffffff16815260200190815260200160002060009054906101000a900460ff16620006ca57816040517f7a33dd0a000000000000000000000000000000000000000000000000000000008152600401620006c1919062001289565b60405180910390fd5b6000808373ffffffffffffffffffffffffffffffffffffffff1673ffffffffffffffffffffffffffffffffffffffff16815260200190815260200160002060009054906101000a900473ffffffffffffffffffffffffffffffffffffffff1673ffffffffffffffffffffffffffffffffffffffff16630c611f246040518163ffffffff1660e01b815260040160006040518083038186803b1580156200076f57600080fd5b505afa15801562000784573d6000803e3d6000fd5b505050506040513d6000823e3d601f19601f82011682018060405250810190620007af91906200173a565b9050919050565b600033878787878787604051620007cd90620009d9565b620007df979695949392919062001899565b604051809103906000f080158015620007fc573d6000803e3d6000fd5b509050806000808373ffffffffffffffffffffffffffffffffffffffff1673ffffffffffffffffffffffffffffffffffffffff16815260200190815260200160002060006101000a81548173ffffffffffffffffffffffffffffffffffffffff021916908373ffffffffffffffffffffffffffffffffffffffff16021790555060018060008373ffffffffffffffffffffffffffffffffffffffff1673ffffffffffffffffffffffffffffffffffffffff16815260200190815260200160002060006101000a81548160ff0219169083151502179055503373ffffffffffffffffffffffffffffffffffffffff168173ffffffffffffffffffffffffffffffffffffffff167f7563b19d7232b4160b809bfee7667784726fc126f7df5faa80c9320e56f9937d8989898989896040516200093c9695949392919062001964565b60405180910390a350505050505050565b604051806101200160405280600073ffffffffffffffffffffffffffffffffffffffff168152602001600060018111156200098d576200098c62000cf0565b5b815260200160608152602001606081526020016060815260200160008152602001600081526020016000815260200160006002811115620009d357620009d262000cf0565b5b81525090565b6127ae80620019e783390190565b6000604051905090565b600080fd5b600080fd5b600073ffffffffffffffffffffffffffffffffffffffff82169050919050565b600062000a2882620009fb565b9050919050565b62000a3a8162000a1b565b811462000a4657600080fd5b50565b60008135905062000a5a8162000a2f565b92915050565b60006020828403121562000a795762000a78620009f1565b5b600062000a898482850162000a49565b91505092915050565b600080fd5b600080fd5b6000601f19601f8301169050919050565b7f4e487b7100000000000000000000000000000000000000000000000000000000600052604160045260246000fd5b62000ae78262000a9c565b810181811067ffffffffffffffff8211171562000b095762000b0862000aad565b5b80604052505050565b600062000b1e620009e7565b905062000b2c828262000adc565b919050565b600067ffffffffffffffff82111562000b4f5762000b4e62000aad565b5b62000b5a8262000a9c565b9050602081019050919050565b82818337600083830152505050565b600062000b8d62000b878462000b31565b62000b12565b90508281526020810184848401111562000bac5762000bab62000a97565b5b62000bb984828562000b67565b509392505050565b600082601f83011262000bd95762000bd862000a92565b5b813562000beb84826020860162000b76565b91505092915050565b6000819050919050565b62000c098162000bf4565b811462000c1557600080fd5b50565b60008135905062000c298162000bfe565b92915050565b6000806000806080858703121562000c4c5762000c4b620009f1565b5b600062000c5c8782880162000a49565b945050602085013567ffffffffffffffff81111562000c805762000c7f620009f6565b5b62000c8e8782880162000bc1565b935050604085013567ffffffffffffffff81111562000cb25762000cb1620009f6565b5b62000cc08782880162000bc1565b925050606062000cd38782880162000c18565b91505092959194509250565b62000cea8162000a1b565b82525050565b7f4e487b7100000000000000000000000000000000000000000000000000000000600052602160045260246000fd5b6002811062000d335762000d3262000cf0565b5b50565b600081905062000d468262000d1f565b919050565b600062000d588262000d36565b9050919050565b62000d6a8162000d4b565b82525050565b600081519050919050565b600082825260208201905092915050565b60005b8381101562000dac57808201518184015260208101905062000d8f565b8381111562000dbc576000848401525b50505050565b600062000dcf8262000d70565b62000ddb818562000d7b565b935062000ded81856020860162000d8c565b62000df88162000a9c565b840191505092915050565b600081519050919050565b600082825260208201905092915050565b6000819050602082019050919050565b600062000e3d838362000dc2565b905092915050565b6000602082019050919050565b600062000e5f8262000e03565b62000e6b818562000e0e565b93508360208202850162000e7f8562000e1f565b8060005b8581101562000ec1578484038952815162000e9f858262000e2f565b945062000eac8362000e45565b925060208a0199505060018101905062000e83565b50829750879550505050505092915050565b62000ede8162000bf4565b82525050565b6003811062000ef85762000ef762000cf0565b5b50565b600081905062000f0b8262000ee4565b919050565b600062000f1d8262000efb565b9050919050565b62000f2f8162000f10565b82525050565b60006101208301600083015162000f50600086018262000cdf565b50602083015162000f65602086018262000d5f565b506040830151848203604086015262000f7f828262000dc2565b9150506060830151848203606086015262000f9b828262000dc2565b9150506080830151848203608086015262000fb7828262000e52565b91505060a083015162000fce60a086018262000ed3565b5060c083015162000fe360c086018262000ed3565b5060e083015162000ff860e086018262000ed3565b506101008301516200100f61010086018262000f24565b508091505092915050565b6000602082019050818103600083015262001036818462000f35565b905092915050565b600067ffffffffffffffff82169050919050565b6200105d816200103e565b81146200106957600080fd5b50565b6000813590506200107d8162001052565b92915050565b600067ffffffffffffffff821115620010a157620010a062000aad565b5b602082029050602081019050919050565b600080fd5b6000620010ce620010c88462001083565b62000b12565b90508083825260208201905060208402830185811115620010f457620010f3620010b2565b5b835b818110156200114257803567ffffffffffffffff8111156200111d576200111c62000a92565b5b8086016200112c898262000bc1565b85526020850194505050602081019050620010f6565b5050509392505050565b600082601f83011262001164576200116362000a92565b5b813562001176848260208601620010b7565b91505092915050565b60008060008060008060c087890312156200119f576200119e620009f1565b5b6000620011af89828a016200106c565b965050602087013567ffffffffffffffff811115620011d357620011d2620009f6565b5b620011e189828a0162000bc1565b955050604087013567ffffffffffffffff811115620012055762001204620009f6565b5b6200121389828a0162000bc1565b945050606087013567ffffffffffffffff811115620012375762001236620009f6565b5b6200124589828a016200114c565b93505060806200125889828a0162000c18565b92505060a06200126b89828a0162000c18565b9150509295509295509295565b620012838162000a1b565b82525050565b6000602082019050620012a0600083018462001278565b92915050565b600082825260208201905092915050565b6000620012c48262000d70565b620012d08185620012a6565b9350620012e281856020860162000d8c565b620012ed8162000a9c565b840191505092915050565b60006020820190508181036000830152620013148184620012b7565b905092915050565b620013278162000bf4565b82525050565b60006020820190506200134460008301846200131c565b92915050565b6000620013616200135b8462000b31565b62000b12565b90508281526020810184848401111562001380576200137f62000a97565b5b6200138d84828562000d8c565b509392505050565b600082601f830112620013ad57620013ac62000a92565b5b8151620013bf8482602086016200134a565b91505092915050565b600060208284031215620013e157620013e0620009f1565b5b600082015167ffffffffffffffff811115620014025762001401620009f6565b5b620014108482850162001395565b91505092915050565b6000815190506200142a8162000bfe565b92915050565b600060208284031215620014495762001448620009f1565b5b6000620014598482850162001419565b91505092915050565b600060608201905081810360008301526200147e8186620012b7565b90508181036020830152620014948185620012b7565b9050620014a560408301846200131c565b949350505050565b600080fd5b600080fd5b600081519050620014c88162000a2f565b92915050565b60028110620014dc57600080fd5b50565b600081519050620014f081620014ce565b92915050565b60006200150d620015078462001083565b62000b12565b90508083825260208201905060208402830185811115620015335762001532620010b2565b5b835b818110156200158157805167ffffffffffffffff8111156200155c576200155b62000a92565b5b8086016200156b898262001395565b8552602085019450505060208101905062001535565b5050509392505050565b600082601f830112620015a357620015a262000a92565b5b8151620015b5848260208601620014f6565b91505092915050565b60038110620015cc57600080fd5b50565b600081519050620015e081620015be565b92915050565b600061012082840312156200160057620015ff620014ad565b5b6200160d61012062000b12565b905060006200161f84828501620014b7565b60008301525060206200163584828501620014df565b602083015250604082015167ffffffffffffffff8111156200165c576200165b620014b2565b5b6200166a8482850162001395565b604083015250606082015167ffffffffffffffff811115620016915762001690620014b2565b5b6200169f8482850162001395565b606083015250608082015167ffffffffffffffff811115620016c657620016c5620014b2565b5b620016d4848285016200158b565b60808301525060a0620016ea8482850162001419565b60a08301525060c0620017008482850162001419565b60c08301525060e0620017168482850162001419565b60e0830152506101006200172d84828501620015cf565b6101008301525092915050565b600060208284031215620017535762001752620009f1565b5b600082015167ffffffffffffffff811115620017745762001773620009f6565b5b6200178284828501620015e6565b91505092915050565b6000819050919050565b6000620017b6620017b0620017aa84620009fb565b6200178b565b620009fb565b9050919050565b6000620017ca8262001795565b9050919050565b6000620017de82620017bd565b9050919050565b620017f081620017d1565b82525050565b62001801816200103e565b82525050565b600082825260208201905092915050565b6000620018258262000e03565b62001831818562001807565b935083602082028501620018458562000e1f565b8060005b8581101562001887578484038952815162001865858262000e2f565b9450620018728362000e45565b925060208a0199505060018101905062001849565b50829750879550505050505092915050565b600060e082019050620018b0600083018a620017e5565b620018bf6020830189620017f6565b8181036040830152620018d38188620012b7565b90508181036060830152620018e98187620012b7565b90508181036080830152620018ff818662001818565b90506200191060a08301856200131c565b6200191f60c08301846200131c565b98975050505050505050565b60006200194c6200194662001940846200103e565b6200178b565b62000bf4565b9050919050565b6200195e816200192b565b82525050565b600060c0820190506200197b600083018962001953565b81810360208301526200198f8188620012b7565b90508181036040830152620019a58187620012b7565b90508181036060830152620019bb818662001818565b9050620019cc60808301856200131c565b620019db60a08301846200131c565b97965050505050505056fe60806040526001600860006101000a81548160ff021916908360028111156200002d576200002c620002eb565b5b02179055503480156200003f57600080fd5b50604051620027ae380380620027ae833981810160405281019062000065919062000698565b866000806101000a81548173ffffffffffffffffffffffffffffffffffffffff021916908373ffffffffffffffffffffffffffffffffffffffff1602179055508567ffffffffffffffff166001811115620000c557620000c4620002eb565b5b600060146101000a81548160ff02191690836001811115620000ec57620000eb620002eb565b5b021790555084600190805190602001906200010992919062000166565b5083600290805190602001906200012292919062000166565b5082600390805190602001906200013b929190620001f7565b508160048190555080600581905550426007819055506000600681905550505050505050506200080d565b8280546200017490620007d7565b90600052602060002090601f016020900481019282620001985760008555620001e4565b82601f10620001b357805160ff1916838001178555620001e4565b82800160010185558215620001e4579182015b82811115620001e3578251825591602001919060010190620001c6565b5b509050620001f391906200025e565b5090565b8280548282559060005260206000209081019282156200024b579160200282015b828111156200024a5782518290805190602001906200023992919062000166565b509160200191906001019062000218565b5b5090506200025a91906200027d565b5090565b5b80821115620002795760008160009055506001016200025f565b5090565b5b80821115620002a15760008181620002979190620002a5565b506001016200027e565b5090565b508054620002b390620007d7565b6000825580601f10620002c75750620002e8565b601f016020900490600052602060002090810190620002e791906200025e565b5b50565b7f4e487b7100000000000000000000000000000000000000000000000000000000600052602160045260246000fd5b6000604051905090565b600080fd5b600080fd5b600073ffffffffffffffffffffffffffffffffffffffff82169050919050565b60006200035b826200032e565b9050919050565b6200036d816200034e565b81146200037957600080fd5b50565b6000815190506200038d8162000362565b92915050565b600067ffffffffffffffff82169050919050565b620003b28162000393565b8114620003be57600080fd5b50565b600081519050620003d281620003a7565b92915050565b600080fd5b600080fd5b6000601f19601f8301169050919050565b7f4e487b7100000000000000000000000000000000000000000000000000000000600052604160045260246000fd5b6200042d82620003e2565b810181811067ffffffffffffffff821117156200044f576200044e620003f3565b5b80604052505050565b6000620004646200031a565b905062000472828262000422565b919050565b600067ffffffffffffffff821115620004955762000494620003f3565b5b620004a082620003e2565b9050602081019050919050565b60005b83811015620004cd578082015181840152602081019050620004b0565b83811115620004dd576000848401525b50505050565b6000620004fa620004f48462000477565b62000458565b905082815260208101848484011115620005195762000518620003dd565b5b62000526848285620004ad565b509392505050565b600082601f830112620005465762000545620003d8565b5b815162000558848260208601620004e3565b91505092915050565b600067ffffffffffffffff8211156200057f576200057e620003f3565b5b602082029050602081019050919050565b600080fd5b6000620005ac620005a68462000561565b62000458565b90508083825260208201905060208402830185811115620005d257620005d162000590565b5b835b818110156200062057805167ffffffffffffffff811115620005fb57620005fa620003d8565b5b8086016200060a89826200052e565b85526020850194505050602081019050620005d4565b5050509392505050565b600082601f830112620006425762000641620003d8565b5b81516200065484826020860162000595565b91505092915050565b6000819050919050565b62000672816200065d565b81146200067e57600080fd5b50565b600081519050620006928162000667565b92915050565b600080600080600080600060e0888a031215620006ba57620006b962000324565b5b6000620006ca8a828b016200037c565b9750506020620006dd8a828b01620003c1565b965050604088015167ffffffffffffffff81111562000701576200070062000329565b5b6200070f8a828b016200052e565b955050606088015167ffffffffffffffff81111562000733576200073262000329565b5b620007418a828b016200052e565b945050608088015167ffffffffffffffff81111562000765576200076462000329565b5b620007738a828b016200062a565b93505060a0620007868a828b0162000681565b92505060c0620007998a828b0162000681565b91505092959891949750929550565b7f4e487b7100000000000000000000000000000000000000000000000000000000600052602260045260246000fd5b60006002820490506001821680620007f057607f821691505b60208210811415620008075762000806620007a8565b5b50919050565b611f91806200081d6000396000f3fe60806040526004361061012a5760003560e01c80634a79d50c116100ab578063c19d93fb1161006f578063c19d93fb146103d1578063cc6cb19a146103fc578063ce845d1d14610439578063e735b48a14610464578063ed44c6ab1461048d578063ed88c68e146104b85761012a565b80634a79d50c146102fb578063590e1ae3146103265780636e04ff0d1461033d5780637284e4161461037b5780637fb3761e146103a65761012a565b80631b50ad09116100f25780631b50ad091461021857806320822abc146102415780632636b9451461027e57806337fb13b0146102a95780634585e33b146102d25761012a565b806302d05d3f1461012f5780630c611f241461015a5780630fb5a6b41461018557806312065fe0146101b05780631910bdc2146101db575b600080fd5b34801561013b57600080fd5b506101446104c2565b6040516101519190611457565b60405180910390f35b34801561016657600080fd5b5061016f6104e6565b60405161017c9190611799565b60405180910390f35b34801561019157600080fd5b5061019a610796565b6040516101a791906117ca565b60405180910390f35b3480156101bc57600080fd5b506101c561079c565b6040516101d291906117ca565b60405180910390f35b3480156101e757600080fd5b5061020260048036038101906101fd9190611825565b6107a6565b60405161020f91906117ca565b60405180910390f35b34801561022457600080fd5b5061023f600480360381019061023a919061187e565b6107ef565b005b34801561024d57600080fd5b506102686004803603810190610263919061187e565b61080d565b60405161027591906118f5565b60405180910390f35b34801561028a57600080fd5b506102936108b9565b6040516102a091906117ca565b60405180910390f35b3480156102b557600080fd5b506102d060048036038101906102cb9190611a4c565b6108bf565b005b3480156102de57600080fd5b506102f960048036038101906102f49190611af5565b6108d9565b005b34801561030757600080fd5b506103106109f0565b60405161031d91906118f5565b60405180910390f35b34801561033257600080fd5b5061033b610a7e565b005b34801561034957600080fd5b50610364600480360381019061035f9190611be3565b610cbc565b604051610372929190611c9c565b60405180910390f35b34801561038757600080fd5b50610390610d85565b60405161039d91906118f5565b60405180910390f35b3480156103b257600080fd5b506103bb610e13565b6040516103c89190611cdb565b60405180910390f35b3480156103dd57600080fd5b506103e6610e2a565b6040516103f39190611cdb565b60405180910390f35b34801561040857600080fd5b50610423600480360381019061041e9190611825565b610e3d565b60405161043091906117ca565b60405180910390f35b34801561044557600080fd5b5061044e610e55565b60405161045b91906117ca565b60405180910390f35b34801561047057600080fd5b5061048b60048036038101906104869190611a4c565b610e5b565b005b34801561049957600080fd5b506104a2610e75565b6040516104af9190611d05565b60405180910390f35b6104c0610e88565b005b60008054906101000a900473ffffffffffffffffffffffffffffffffffffffff1681565b6104ee6112ed565b60405180610120016040528060008054906101000a900473ffffffffffffffffffffffffffffffffffffffff1673ffffffffffffffffffffffffffffffffffffffff168152602001600060149054906101000a900460ff16600181111561055857610557611493565b5b81526020016001805461056a90611d4f565b80601f016020809104026020016040519081016040528092919081815260200182805461059690611d4f565b80156105e35780601f106105b8576101008083540402835291602001916105e3565b820191906000526020600020905b8154815290600101906020018083116105c657829003601f168201915b50505050508152602001600280546105fa90611d4f565b80601f016020809104026020016040519081016040528092919081815260200182805461062690611d4f565b80156106735780601f1061064857610100808354040283529160200191610673565b820191906000526020600020905b81548152906001019060200180831161065657829003601f168201915b505050505081526020016003805480602002602001604051908101604052809291908181526020016000905b8282101561074b5783829060005260206000200180546106be90611d4f565b80601f01602080910402602001604051908101604052809291908181526020018280546106ea90611d4f565b80156107375780601f1061070c57610100808354040283529160200191610737565b820191906000526020600020905b81548152906001019060200180831161071a57829003601f168201915b50505050508152602001906001019061069f565b505050508152602001600454815260200160055481526020016006548152602001600860009054906101000a900460ff16600281111561078e5761078d611493565b5b815250905090565b60055481565b6000600654905090565b6000600960008373ffffffffffffffffffffffffffffffffffffffff1673ffffffffffffffffffffffffffffffffffffffff168152602001908152602001600020549050919050565b6108048160055461108c90919063ffffffff16565b60058190555050565b6003818154811061081d57600080fd5b90600052602060002001600091509050805461083890611d4f565b80601f016020809104026020016040519081016040528092919081815260200182805461086490611d4f565b80156108b15780601f10610886576101008083540402835291602001916108b1565b820191906000526020600020905b81548152906001019060200180831161089457829003601f168201915b505050505081565b60045481565b80600190805190602001906108d5929190611373565b5050565b60006108f360405180602001604052806000815250610cbc565b5090508061092d576040517f311f87a100000000000000000000000000000000000000000000000000000000815260040160405180910390fd5b6005546007544261093e9190611db0565b1115610974576002600860006101000a81548160ff0219169083600281111561096a57610969611493565b5b02179055506109eb565b600454600654106109ea576000600860006101000a81548160ff021916908360028111156109a5576109a4611493565b5b02179055506109b26110a2565b7f5369558c667e962b633128a01c31764d053da51f61d17370d327ed17f77deccc306040516109e19190611df3565b60405180910390a15b5b505050565b600180546109fd90611d4f565b80601f0160208091040260200160405190810160405280929190818152602001828054610a2990611d4f565b8015610a765780601f10610a4b57610100808354040283529160200191610a76565b820191906000526020600020905b815481529060010190602001808311610a5957829003601f168201915b505050505081565b6002806002811115610a9357610a92611493565b5b600860009054906101000a900460ff166002811115610ab557610ab4611493565b5b14610aec576040517f0300809900000000000000000000000000000000000000000000000000000000815260040160405180910390fd5b6000600960003373ffffffffffffffffffffffffffffffffffffffff1673ffffffffffffffffffffffffffffffffffffffff1681526020019081526020016000205411610b7057336040517fc4385859000000000000000000000000000000000000000000000000000000008152600401610b679190611df3565b60405180910390fd5b6000600960003373ffffffffffffffffffffffffffffffffffffffff1673ffffffffffffffffffffffffffffffffffffffff1681526020019081526020016000205490506000600960003373ffffffffffffffffffffffffffffffffffffffff1673ffffffffffffffffffffffffffffffffffffffff16815260200190815260200160002081905550610c0e816006546112d790919063ffffffff16565b60068190555060003373ffffffffffffffffffffffffffffffffffffffff1682604051610c3a90611e3f565b60006040518083038185875af1925050503d8060008114610c77576040519150601f19603f3d011682016040523d82523d6000602084013e610c7c565b606091505b5050905080610cb7576040517f92e9f8f100000000000000000000000000000000000000000000000000000000815260040160405180910390fd5b505050565b60006060600060045460065410159050600060016002811115610ce257610ce1611493565b5b600860009054906101000a900460ff166002811115610d0457610d03611493565b5b149050600060055460075442610d1a9190611db0565b119050600080471190508380610d3f5750818015610d355750825b8015610d3e5750805b5b9550856040518060400160405280600381526020017f30783000000000000000000000000000000000000000000000000000000000008152509550955050505050915091565b60028054610d9290611d4f565b80601f0160208091040260200160405190810160405280929190818152602001828054610dbe90611d4f565b8015610e0b5780601f10610de057610100808354040283529160200191610e0b565b820191906000526020600020905b815481529060010190602001808311610dee57829003601f168201915b505050505081565b6000600860009054906101000a900460ff16905090565b600860009054906101000a900460ff1681565b60096020528060005260406000206000915090505481565b60065481565b8060029080519060200190610e71929190611373565b5050565b600060149054906101000a900460ff1681565b6001806002811115610e9d57610e9c611493565b5b600860009054906101000a900460ff166002811115610ebf57610ebe611493565b5b14610ef6576040517f0300809900000000000000000000000000000000000000000000000000000000815260040160405180910390fd5b60008054906101000a900473ffffffffffffffffffffffffffffffffffffffff1673ffffffffffffffffffffffffffffffffffffffff163373ffffffffffffffffffffffffffffffffffffffff161415610f8757336040517f91101895000000000000000000000000000000000000000000000000000000008152600401610f7e9190611df3565b60405180910390fd5b610fd934600960003373ffffffffffffffffffffffffffffffffffffffff1673ffffffffffffffffffffffffffffffffffffffff1681526020019081526020016000205461108c90919063ffffffff16565b600960003373ffffffffffffffffffffffffffffffffffffffff1673ffffffffffffffffffffffffffffffffffffffff168152602001908152602001600020819055506110313460065461108c90919063ffffffff16565b6006819055503373ffffffffffffffffffffffffffffffffffffffff167fe76ad748537a48e778fef43dda4a6bd1b50cd62385f9f21a9ca267492355120834600654604051611081929190611e54565b60405180910390a250565b6000818361109a9190611e7d565b905092915050565b60008060028111156110b7576110b6611493565b5b600860009054906101000a900460ff1660028111156110d9576110d8611493565b5b14611110576040517f0300809900000000000000000000000000000000000000000000000000000000815260040160405180910390fd5b60008054906101000a900473ffffffffffffffffffffffffffffffffffffffff1673ffffffffffffffffffffffffffffffffffffffff163373ffffffffffffffffffffffffffffffffffffffff16146111a057336040517fef54c8170000000000000000000000000000000000000000000000000000000081526004016111979190611df3565b60405180910390fd5b60006006549050600060068190555060008060009054906101000a900473ffffffffffffffffffffffffffffffffffffffff1673ffffffffffffffffffffffffffffffffffffffff16826040516111f690611e3f565b60006040518083038185875af1925050503d8060008114611233576040519150601f19603f3d011682016040523d82523d6000602084013e611238565b606091505b5050905080156112a0577fba5e837743d81ad0e6deb16089dbb65b549fdda8ad802fd8d4822884d70dc8b260008054906101000a900473ffffffffffffffffffffffffffffffffffffffff1630604051611293929190611f32565b60405180910390a16112d2565b6040517f11456ffb00000000000000000000000000000000000000000000000000000000815260040160405180910390fd5b505050565b600081836112e59190611db0565b905092915050565b604051806101200160405280600073ffffffffffffffffffffffffffffffffffffffff1681526020016000600181111561132a57611329611493565b5b81526020016060815260200160608152602001606081526020016000815260200160008152602001600081526020016000600281111561136d5761136c611493565b5b81525090565b82805461137f90611d4f565b90600052602060002090601f0160209004810192826113a157600085556113e8565b82601f106113ba57805160ff19168380011785556113e8565b828001600101855582156113e8579182015b828111156113e75782518255916020019190600101906113cc565b5b5090506113f591906113f9565b5090565b5b808211156114125760008160009055506001016113fa565b5090565b600073ffffffffffffffffffffffffffffffffffffffff82169050919050565b600061144182611416565b9050919050565b61145181611436565b82525050565b600060208201905061146c6000830184611448565b92915050565b600061147d82611416565b9050919050565b61148d81611472565b82525050565b7f4e487b7100000000000000000000000000000000000000000000000000000000600052602160045260246000fd5b600281106114d3576114d2611493565b5b50565b60008190506114e4826114c2565b919050565b60006114f4826114d6565b9050919050565b611504816114e9565b82525050565b600081519050919050565b600082825260208201905092915050565b60005b83811015611544578082015181840152602081019050611529565b83811115611553576000848401525b50505050565b6000601f19601f8301169050919050565b60006115758261150a565b61157f8185611515565b935061158f818560208601611526565b61159881611559565b840191505092915050565b600081519050919050565b600082825260208201905092915050565b6000819050602082019050919050565b60006115db838361156a565b905092915050565b6000602082019050919050565b60006115fb826115a3565b61160581856115ae565b935083602082028501611617856115bf565b8060005b85811015611653578484038952815161163485826115cf565b945061163f836115e3565b925060208a0199505060018101905061161b565b50829750879550505050505092915050565b6000819050919050565b61167881611665565b82525050565b6003811061168f5761168e611493565b5b50565b60008190506116a08261167e565b919050565b60006116b082611692565b9050919050565b6116c0816116a5565b82525050565b6000610120830160008301516116df6000860182611484565b5060208301516116f260208601826114fb565b506040830151848203604086015261170a828261156a565b91505060608301518482036060860152611724828261156a565b9150506080830151848203608086015261173e82826115f0565b91505060a083015161175360a086018261166f565b5060c083015161176660c086018261166f565b5060e083015161177960e086018261166f565b5061010083015161178e6101008601826116b7565b508091505092915050565b600060208201905081810360008301526117b381846116c6565b905092915050565b6117c481611665565b82525050565b60006020820190506117df60008301846117bb565b92915050565b6000604051905090565b600080fd5b600080fd5b61180281611472565b811461180d57600080fd5b50565b60008135905061181f816117f9565b92915050565b60006020828403121561183b5761183a6117ef565b5b600061184984828501611810565b91505092915050565b61185b81611665565b811461186657600080fd5b50565b60008135905061187881611852565b92915050565b600060208284031215611894576118936117ef565b5b60006118a284828501611869565b91505092915050565b600082825260208201905092915050565b60006118c78261150a565b6118d181856118ab565b93506118e1818560208601611526565b6118ea81611559565b840191505092915050565b6000602082019050818103600083015261190f81846118bc565b905092915050565b600080fd5b600080fd5b7f4e487b7100000000000000000000000000000000000000000000000000000000600052604160045260246000fd5b61195982611559565b810181811067ffffffffffffffff8211171561197857611977611921565b5b80604052505050565b600061198b6117e5565b90506119978282611950565b919050565b600067ffffffffffffffff8211156119b7576119b6611921565b5b6119c082611559565b9050602081019050919050565b82818337600083830152505050565b60006119ef6119ea8461199c565b611981565b905082815260208101848484011115611a0b57611a0a61191c565b5b611a168482856119cd565b509392505050565b600082601f830112611a3357611a32611917565b5b8135611a438482602086016119dc565b91505092915050565b600060208284031215611a6257611a616117ef565b5b600082013567ffffffffffffffff811115611a8057611a7f6117f4565b5b611a8c84828501611a1e565b91505092915050565b600080fd5b600080fd5b60008083601f840112611ab557611ab4611917565b5b8235905067ffffffffffffffff811115611ad257611ad1611a95565b5b602083019150836001820283011115611aee57611aed611a9a565b5b9250929050565b60008060208385031215611b0c57611b0b6117ef565b5b600083013567ffffffffffffffff811115611b2a57611b296117f4565b5b611b3685828601611a9f565b92509250509250929050565b600067ffffffffffffffff821115611b5d57611b5c611921565b5b611b6682611559565b9050602081019050919050565b6000611b86611b8184611b42565b611981565b905082815260208101848484011115611ba257611ba161191c565b5b611bad8482856119cd565b509392505050565b600082601f830112611bca57611bc9611917565b5b8135611bda848260208601611b73565b91505092915050565b600060208284031215611bf957611bf86117ef565b5b600082013567ffffffffffffffff811115611c1757611c166117f4565b5b611c2384828501611bb5565b91505092915050565b60008115159050919050565b611c4181611c2c565b82525050565b600081519050919050565b600082825260208201905092915050565b6000611c6e82611c47565b611c788185611c52565b9350611c88818560208601611526565b611c9181611559565b840191505092915050565b6000604082019050611cb16000830185611c38565b8181036020830152611cc38184611c63565b90509392505050565b611cd5816116a5565b82525050565b6000602082019050611cf06000830184611ccc565b92915050565b611cff816114e9565b82525050565b6000602082019050611d1a6000830184611cf6565b92915050565b7f4e487b7100000000000000000000000000000000000000000000000000000000600052602260045260246000fd5b60006002820490506001821680611d6757607f821691505b60208210811415611d7b57611d7a611d20565b5b50919050565b7f4e487b7100000000000000000000000000000000000000000000000000000000600052601160045260246000fd5b6000611dbb82611665565b9150611dc683611665565b925082821015611dd957611dd8611d81565b5b828203905092915050565b611ded81611472565b82525050565b6000602082019050611e086000830184611de4565b92915050565b600081905092915050565b50565b6000611e29600083611e0e565b9150611e3482611e19565b600082019050919050565b6000611e4a82611e1c565b9150819050919050565b6000604082019050611e6960008301856117bb565b611e7660208301846117bb565b9392505050565b6000611e8882611665565b9150611e9383611665565b9250827fffffffffffffffffffffffffffffffffffffffffffffffffffffffffffffffff03821115611ec857611ec7611d81565b5b828201905092915050565b6000819050919050565b6000611ef8611ef3611eee84611416565b611ed3565b611416565b9050919050565b6000611f0a82611edd565b9050919050565b6000611f1c82611eff565b9050919050565b611f2c81611f11565b82525050565b6000604082019050611f476000830185611f23565b611f546020830184611de4565b939250505056fea2646970667358221220c3468814704de066ee05dadf65b3730ac9259aa65be75cc04634df72100b06fa64736f6c63430008080033a2646970667358221220084d37b3b73ad67e5dd8af883bb4229f63381d58c85028e2d6a3a01b1f0d908c64736f6c63430008080033",
  "devdoc": {
    "kind": "dev",
    "methods": {},
    "version": 1
  },
  "userdoc": {
    "kind": "user",
    "methods": {},
    "version": 1
  },
  "storageLayout": {
    "storage": [
      {
        "astId": 933,
        "contract": "contracts/CrowdFunder.sol:CrowdFunder",
        "label": "campaigns",
        "offset": 0,
        "slot": "0",
        "type": "t_mapping(t_address,t_contract(Campaign)884)"
      },
      {
        "astId": 937,
        "contract": "contracts/CrowdFunder.sol:CrowdFunder",
        "label": "campaignAddresses",
        "offset": 0,
        "slot": "1",
        "type": "t_mapping(t_address,t_bool)"
      }
    ],
    "types": {
      "t_address": {
        "encoding": "inplace",
        "label": "address",
        "numberOfBytes": "20"
      },
      "t_bool": {
        "encoding": "inplace",
        "label": "bool",
        "numberOfBytes": "1"
      },
      "t_contract(Campaign)884": {
        "encoding": "inplace",
        "label": "contract Campaign",
        "numberOfBytes": "20"
      },
      "t_mapping(t_address,t_bool)": {
        "encoding": "mapping",
        "key": "t_address",
        "label": "mapping(address => bool)",
        "numberOfBytes": "32",
        "value": "t_bool"
      },
      "t_mapping(t_address,t_contract(Campaign)884)": {
        "encoding": "mapping",
        "key": "t_address",
        "label": "mapping(address => contract Campaign)",
        "numberOfBytes": "32",
        "value": "t_contract(Campaign)884"
      }
    }
  }
}