{
  "address": "0x5FbDB2315678afecb367f032d93F642f64180aa3",
  "abi": [
    {
      "inputs": [
        {
          "internalType": "address",
          "name": "_campaignAddress",
          "type": "address"
        }
      ],
      "name": "CrowdFunder__NoSuchCampaign",
      "type": "error"
    },
    {
      "anonymous": false,
      "inputs": [
        {
          "indexed": true,
          "internalType": "address",
          "name": "_campaignAddress",
          "type": "address"
        },
        {
          "indexed": true,
          "internalType": "address",
          "name": "_creator",
          "type": "address"
        },
        {
          "indexed": false,
          "internalType": "uint256",
          "name": "_creatorType",
          "type": "uint256"
        },
        {
          "indexed": false,
          "internalType": "string",
          "name": "_title",
          "type": "string"
        },
        {
          "indexed": false,
          "internalType": "string",
          "name": "_description",
          "type": "string"
        },
        {
          "indexed": false,
          "internalType": "string[]",
          "name": "_tags",
          "type": "string[]"
        },
        {
          "indexed": false,
          "internalType": "uint256",
          "name": "_goalAmount",
          "type": "uint256"
        },
        {
          "indexed": false,
          "internalType": "uint256",
          "name": "_duration",
          "type": "uint256"
        }
      ],
      "name": "CampaignAdded",
      "type": "event"
    },
    {
      "anonymous": false,
      "inputs": [
        {
          "indexed": true,
          "internalType": "address",
          "name": "_campaignAddress",
          "type": "address"
        }
      ],
      "name": "CampaignCanceled",
      "type": "event"
    },
    {
      "anonymous": false,
      "inputs": [
        {
          "indexed": true,
          "internalType": "address",
          "name": "_campaignAddress",
          "type": "address"
        },
        {
          "indexed": false,
          "internalType": "string",
          "name": "_title",
          "type": "string"
        },
        {
          "indexed": false,
          "internalType": "string",
          "name": "_description",
          "type": "string"
        },
        {
          "indexed": false,
          "internalType": "uint256",
          "name": "_duration",
          "type": "uint256"
        }
      ],
      "name": "CampaignUpdated",
      "type": "event"
    },
    {
      "inputs": [
        {
          "internalType": "uint64",
          "name": "_creatorType",
          "type": "uint64"
        },
        {
          "internalType": "string",
          "name": "_title",
          "type": "string"
        },
        {
          "internalType": "string",
          "name": "_description",
          "type": "string"
        },
        {
          "internalType": "string[]",
          "name": "_tags",
          "type": "string[]"
        },
        {
          "internalType": "uint256",
          "name": "_goalAmount",
          "type": "uint256"
        },
        {
          "internalType": "uint256",
          "name": "_duration",
          "type": "uint256"
        }
      ],
      "name": "addCampaign",
      "outputs": [],
      "stateMutability": "nonpayable",
      "type": "function"
    },
    {
      "inputs": [
        {
          "internalType": "address",
          "name": "_campaignAddress",
          "type": "address"
        }
      ],
      "name": "cancelCampaign",
      "outputs": [],
      "stateMutability": "nonpayable",
      "type": "function"
    },
    {
      "inputs": [
        {
          "internalType": "address",
          "name": "_campaignAddress",
          "type": "address"
        }
      ],
      "name": "getCampaign",
      "outputs": [
        {
          "components": [
            {
              "internalType": "address",
              "name": "creator",
              "type": "address"
            },
            {
              "internalType": "enum Campaign.CreatorType",
              "name": "creatorType",
              "type": "uint8"
            },
            {
              "internalType": "string",
              "name": "title",
              "type": "string"
            },
            {
              "internalType": "string",
              "name": "description",
              "type": "string"
            },
            {
              "internalType": "string[]",
              "name": "tags",
              "type": "string[]"
            },
            {
              "internalType": "uint256",
              "name": "goalAmount",
              "type": "uint256"
            },
            {
              "internalType": "uint256",
              "name": "duration",
              "type": "uint256"
            },
            {
              "internalType": "uint256",
              "name": "currentBalance",
              "type": "uint256"
            },
            {
              "internalType": "enum Campaign.State",
              "name": "currentState",
              "type": "uint8"
            }
          ],
          "internalType": "struct Campaign.CampaignObject",
          "name": "",
          "type": "tuple"
        }
      ],
      "stateMutability": "view",
      "type": "function"
    },
    {
      "inputs": [
        {
          "internalType": "address",
          "name": "_campaignAddress",
          "type": "address"
        },
        {
          "internalType": "string",
          "name": "_newTitle",
          "type": "string"
        },
        {
          "internalType": "string",
          "name": "_newDescription",
          "type": "string"
        },
        {
          "internalType": "uint256",
          "name": "_addedTime",
          "type": "uint256"
        }
      ],
      "name": "updateCampaign",
      "outputs": [],
      "stateMutability": "nonpayable",
      "type": "function"
    }
  ],
  "transactionHash": "0x05296cd879bdbf47e154ce6ac4d5da0bc5f3c648b073a062739b387d52b22d38",
  "args": [],
  "numDeployments": 1,
  "solcInputHash": "57222ca45c68614fbff405e1e1c4099d",
  "bytecode": "0x608060405234801561001057600080fd5b506140a7806100206000396000f3fe60806040523480156200001157600080fd5b5060043610620000525760003560e01c80630d6454a41462000057578063159780681462000077578063731301cf146200009757806393cca5fc14620000cd575b600080fd5b6200007560048036038101906200006f919062000980565b620000ed565b005b6200009560048036038101906200008f919062000b4f565b62000194565b005b620000b56004803603810190620000af919062000980565b620005e0565b604051620000c4919062000f3a565b60405180910390f35b620000eb6004803603810190620000e591906200109f565b620006d6565b005b6000808273ffffffffffffffffffffffffffffffffffffffff1673ffffffffffffffffffffffffffffffffffffffff16815260200190815260200160002060006101000a81549073ffffffffffffffffffffffffffffffffffffffff02191690558073ffffffffffffffffffffffffffffffffffffffff167f3be3cf8b79824600b33b84642199163dc824bc8afdc691d0bcd8a849e39f92fc60405160405180910390a250565b600160008573ffffffffffffffffffffffffffffffffffffffff1673ffffffffffffffffffffffffffffffffffffffff16815260200190815260200160002060009054906101000a900460ff166200022557836040517f7a33dd0a0000000000000000000000000000000000000000000000000000000081526004016200021c9190620011a9565b60405180910390fd5b60008060008673ffffffffffffffffffffffffffffffffffffffff1673ffffffffffffffffffffffffffffffffffffffff16815260200190815260200160002060009054906101000a900473ffffffffffffffffffffffffffffffffffffffff16905060008451111562000303578073ffffffffffffffffffffffffffffffffffffffff166337fb13b0856040518263ffffffff1660e01b8152600401620002ce919062001218565b600060405180830381600087803b158015620002e957600080fd5b505af1158015620002fe573d6000803e3d6000fd5b505050505b6000835111156200037e578073ffffffffffffffffffffffffffffffffffffffff1663e735b48a846040518263ffffffff1660e01b815260040162000349919062001218565b600060405180830381600087803b1580156200036457600080fd5b505af115801562000379573d6000803e3d6000fd5b505050505b6000821115620003f8578073ffffffffffffffffffffffffffffffffffffffff16631b50ad09836040518263ffffffff1660e01b8152600401620003c391906200124d565b600060405180830381600087803b158015620003de57600080fd5b505af1158015620003f3573d6000803e3d6000fd5b505050505b8473ffffffffffffffffffffffffffffffffffffffff167f2012fc73109fb8eff48aefe86c75c0cfa51cae5f3de0ef40179efc32a2caf8068273ffffffffffffffffffffffffffffffffffffffff16634a79d50c6040518163ffffffff1660e01b815260040160006040518083038186803b1580156200047757600080fd5b505afa1580156200048c573d6000803e3d6000fd5b505050506040513d6000823e3d601f19601f82011682018060405250810190620004b79190620012e8565b8373ffffffffffffffffffffffffffffffffffffffff16637284e4166040518163ffffffff1660e01b815260040160006040518083038186803b158015620004fe57600080fd5b505afa15801562000513573d6000803e3d6000fd5b505050506040513d6000823e3d601f19601f820116820180604052508101906200053e9190620012e8565b8473ffffffffffffffffffffffffffffffffffffffff16630fb5a6b46040518163ffffffff1660e01b815260040160206040518083038186803b1580156200058557600080fd5b505afa1580156200059a573d6000803e3d6000fd5b505050506040513d601f19601f82011682018060405250810190620005c0919062001350565b604051620005d19392919062001382565b60405180910390a25050505050565b620005ea6200086d565b6000808373ffffffffffffffffffffffffffffffffffffffff1673ffffffffffffffffffffffffffffffffffffffff16815260200190815260200160002060009054906101000a900473ffffffffffffffffffffffffffffffffffffffff1673ffffffffffffffffffffffffffffffffffffffff16630c611f246040518163ffffffff1660e01b815260040160006040518083038186803b1580156200068f57600080fd5b505afa158015620006a4573d6000803e3d6000fd5b505050506040513d6000823e3d601f19601f82011682018060405250810190620006cf91906200165a565b9050919050565b600033878787878787604051620006ed90620008f9565b620006ff979695949392919062001773565b604051809103906000f0801580156200071c573d6000803e3d6000fd5b509050806000808373ffffffffffffffffffffffffffffffffffffffff1673ffffffffffffffffffffffffffffffffffffffff16815260200190815260200160002060006101000a81548173ffffffffffffffffffffffffffffffffffffffff021916908373ffffffffffffffffffffffffffffffffffffffff16021790555060018060008373ffffffffffffffffffffffffffffffffffffffff1673ffffffffffffffffffffffffffffffffffffffff16815260200190815260200160002060006101000a81548160ff0219169083151502179055503373ffffffffffffffffffffffffffffffffffffffff168173ffffffffffffffffffffffffffffffffffffffff167f7563b19d7232b4160b809bfee7667784726fc126f7df5faa80c9320e56f9937d8989898989896040516200085c9695949392919062001848565b60405180910390a350505050505050565b604051806101200160405280600073ffffffffffffffffffffffffffffffffffffffff16815260200160006001811115620008ad57620008ac62000c10565b5b815260200160608152602001606081526020016060815260200160008152602001600081526020016000815260200160006002811115620008f357620008f262000c10565b5b81525090565b6127a780620018cb83390190565b6000604051905090565b600080fd5b600080fd5b600073ffffffffffffffffffffffffffffffffffffffff82169050919050565b600062000948826200091b565b9050919050565b6200095a816200093b565b81146200096657600080fd5b50565b6000813590506200097a816200094f565b92915050565b60006020828403121562000999576200099862000911565b5b6000620009a98482850162000969565b91505092915050565b600080fd5b600080fd5b6000601f19601f8301169050919050565b7f4e487b7100000000000000000000000000000000000000000000000000000000600052604160045260246000fd5b62000a0782620009bc565b810181811067ffffffffffffffff8211171562000a295762000a28620009cd565b5b80604052505050565b600062000a3e62000907565b905062000a4c8282620009fc565b919050565b600067ffffffffffffffff82111562000a6f5762000a6e620009cd565b5b62000a7a82620009bc565b9050602081019050919050565b82818337600083830152505050565b600062000aad62000aa78462000a51565b62000a32565b90508281526020810184848401111562000acc5762000acb620009b7565b5b62000ad984828562000a87565b509392505050565b600082601f83011262000af95762000af8620009b2565b5b813562000b0b84826020860162000a96565b91505092915050565b6000819050919050565b62000b298162000b14565b811462000b3557600080fd5b50565b60008135905062000b498162000b1e565b92915050565b6000806000806080858703121562000b6c5762000b6b62000911565b5b600062000b7c8782880162000969565b945050602085013567ffffffffffffffff81111562000ba05762000b9f62000916565b5b62000bae8782880162000ae1565b935050604085013567ffffffffffffffff81111562000bd25762000bd162000916565b5b62000be08782880162000ae1565b925050606062000bf38782880162000b38565b91505092959194509250565b62000c0a816200093b565b82525050565b7f4e487b7100000000000000000000000000000000000000000000000000000000600052602160045260246000fd5b6002811062000c535762000c5262000c10565b5b50565b600081905062000c668262000c3f565b919050565b600062000c788262000c56565b9050919050565b62000c8a8162000c6b565b82525050565b600081519050919050565b600082825260208201905092915050565b60005b8381101562000ccc57808201518184015260208101905062000caf565b8381111562000cdc576000848401525b50505050565b600062000cef8262000c90565b62000cfb818562000c9b565b935062000d0d81856020860162000cac565b62000d1881620009bc565b840191505092915050565b600081519050919050565b600082825260208201905092915050565b6000819050602082019050919050565b600062000d5d838362000ce2565b905092915050565b6000602082019050919050565b600062000d7f8262000d23565b62000d8b818562000d2e565b93508360208202850162000d9f8562000d3f565b8060005b8581101562000de1578484038952815162000dbf858262000d4f565b945062000dcc8362000d65565b925060208a0199505060018101905062000da3565b50829750879550505050505092915050565b62000dfe8162000b14565b82525050565b6003811062000e185762000e1762000c10565b5b50565b600081905062000e2b8262000e04565b919050565b600062000e3d8262000e1b565b9050919050565b62000e4f8162000e30565b82525050565b60006101208301600083015162000e70600086018262000bff565b50602083015162000e85602086018262000c7f565b506040830151848203604086015262000e9f828262000ce2565b9150506060830151848203606086015262000ebb828262000ce2565b9150506080830151848203608086015262000ed7828262000d72565b91505060a083015162000eee60a086018262000df3565b5060c083015162000f0360c086018262000df3565b5060e083015162000f1860e086018262000df3565b5061010083015162000f2f61010086018262000e44565b508091505092915050565b6000602082019050818103600083015262000f56818462000e55565b905092915050565b600067ffffffffffffffff82169050919050565b62000f7d8162000f5e565b811462000f8957600080fd5b50565b60008135905062000f9d8162000f72565b92915050565b600067ffffffffffffffff82111562000fc15762000fc0620009cd565b5b602082029050602081019050919050565b600080fd5b600062000fee62000fe88462000fa3565b62000a32565b9050808382526020820190506020840283018581111562001014576200101362000fd2565b5b835b818110156200106257803567ffffffffffffffff8111156200103d576200103c620009b2565b5b8086016200104c898262000ae1565b8552602085019450505060208101905062001016565b5050509392505050565b600082601f830112620010845762001083620009b2565b5b81356200109684826020860162000fd7565b91505092915050565b60008060008060008060c08789031215620010bf57620010be62000911565b5b6000620010cf89828a0162000f8c565b965050602087013567ffffffffffffffff811115620010f357620010f262000916565b5b6200110189828a0162000ae1565b955050604087013567ffffffffffffffff81111562001125576200112462000916565b5b6200113389828a0162000ae1565b945050606087013567ffffffffffffffff81111562001157576200115662000916565b5b6200116589828a016200106c565b93505060806200117889828a0162000b38565b92505060a06200118b89828a0162000b38565b9150509295509295509295565b620011a3816200093b565b82525050565b6000602082019050620011c0600083018462001198565b92915050565b600082825260208201905092915050565b6000620011e48262000c90565b620011f08185620011c6565b93506200120281856020860162000cac565b6200120d81620009bc565b840191505092915050565b60006020820190508181036000830152620012348184620011d7565b905092915050565b620012478162000b14565b82525050565b60006020820190506200126460008301846200123c565b92915050565b6000620012816200127b8462000a51565b62000a32565b905082815260208101848484011115620012a0576200129f620009b7565b5b620012ad84828562000cac565b509392505050565b600082601f830112620012cd57620012cc620009b2565b5b8151620012df8482602086016200126a565b91505092915050565b60006020828403121562001301576200130062000911565b5b600082015167ffffffffffffffff81111562001322576200132162000916565b5b6200133084828501620012b5565b91505092915050565b6000815190506200134a8162000b1e565b92915050565b60006020828403121562001369576200136862000911565b5b6000620013798482850162001339565b91505092915050565b600060608201905081810360008301526200139e8186620011d7565b90508181036020830152620013b48185620011d7565b9050620013c560408301846200123c565b949350505050565b600080fd5b600080fd5b600081519050620013e8816200094f565b92915050565b60028110620013fc57600080fd5b50565b6000815190506200141081620013ee565b92915050565b60006200142d620014278462000fa3565b62000a32565b9050808382526020820190506020840283018581111562001453576200145262000fd2565b5b835b81811015620014a157805167ffffffffffffffff8111156200147c576200147b620009b2565b5b8086016200148b8982620012b5565b8552602085019450505060208101905062001455565b5050509392505050565b600082601f830112620014c357620014c2620009b2565b5b8151620014d584826020860162001416565b91505092915050565b60038110620014ec57600080fd5b50565b6000815190506200150081620014de565b92915050565b6000610120828403121562001520576200151f620013cd565b5b6200152d61012062000a32565b905060006200153f84828501620013d7565b60008301525060206200155584828501620013ff565b602083015250604082015167ffffffffffffffff8111156200157c576200157b620013d2565b5b6200158a84828501620012b5565b604083015250606082015167ffffffffffffffff811115620015b157620015b0620013d2565b5b620015bf84828501620012b5565b606083015250608082015167ffffffffffffffff811115620015e657620015e5620013d2565b5b620015f484828501620014ab565b60808301525060a06200160a8482850162001339565b60a08301525060c0620016208482850162001339565b60c08301525060e0620016368482850162001339565b60e0830152506101006200164d84828501620014ef565b6101008301525092915050565b60006020828403121562001673576200167262000911565b5b600082015167ffffffffffffffff81111562001694576200169362000916565b5b620016a28482850162001506565b91505092915050565b6000620016b8826200091b565b9050919050565b620016ca81620016ab565b82525050565b620016db8162000f5e565b82525050565b600082825260208201905092915050565b6000620016ff8262000d23565b6200170b8185620016e1565b9350836020820285016200171f8562000d3f565b8060005b858110156200176157848403895281516200173f858262000d4f565b94506200174c8362000d65565b925060208a0199505060018101905062001723565b50829750879550505050505092915050565b600060e0820190506200178a600083018a620016bf565b620017996020830189620016d0565b8181036040830152620017ad8188620011d7565b90508181036060830152620017c38187620011d7565b90508181036080830152620017d98186620016f2565b9050620017ea60a08301856200123c565b620017f960c08301846200123c565b98975050505050505050565b6000819050919050565b6000620018306200182a620018248462000f5e565b62001805565b62000b14565b9050919050565b62001842816200180f565b82525050565b600060c0820190506200185f600083018962001837565b8181036020830152620018738188620011d7565b90508181036040830152620018898187620011d7565b905081810360608301526200189f8186620016f2565b9050620018b060808301856200123c565b620018bf60a08301846200123c565b97965050505050505056fe60806040526001600860006101000a81548160ff021916908360028111156200002d576200002c620002eb565b5b02179055503480156200003f57600080fd5b50604051620027a7380380620027a7833981810160405281019062000065919062000698565b866000806101000a81548173ffffffffffffffffffffffffffffffffffffffff021916908373ffffffffffffffffffffffffffffffffffffffff1602179055508567ffffffffffffffff166001811115620000c557620000c4620002eb565b5b600060146101000a81548160ff02191690836001811115620000ec57620000eb620002eb565b5b021790555084600190805190602001906200010992919062000166565b5083600290805190602001906200012292919062000166565b5082600390805190602001906200013b929190620001f7565b508160048190555080600581905550426007819055506000600681905550505050505050506200080d565b8280546200017490620007d7565b90600052602060002090601f016020900481019282620001985760008555620001e4565b82601f10620001b357805160ff1916838001178555620001e4565b82800160010185558215620001e4579182015b82811115620001e3578251825591602001919060010190620001c6565b5b509050620001f391906200025e565b5090565b8280548282559060005260206000209081019282156200024b579160200282015b828111156200024a5782518290805190602001906200023992919062000166565b509160200191906001019062000218565b5b5090506200025a91906200027d565b5090565b5b80821115620002795760008160009055506001016200025f565b5090565b5b80821115620002a15760008181620002979190620002a5565b506001016200027e565b5090565b508054620002b390620007d7565b6000825580601f10620002c75750620002e8565b601f016020900490600052602060002090810190620002e791906200025e565b5b50565b7f4e487b7100000000000000000000000000000000000000000000000000000000600052602160045260246000fd5b6000604051905090565b600080fd5b600080fd5b600073ffffffffffffffffffffffffffffffffffffffff82169050919050565b60006200035b826200032e565b9050919050565b6200036d816200034e565b81146200037957600080fd5b50565b6000815190506200038d8162000362565b92915050565b600067ffffffffffffffff82169050919050565b620003b28162000393565b8114620003be57600080fd5b50565b600081519050620003d281620003a7565b92915050565b600080fd5b600080fd5b6000601f19601f8301169050919050565b7f4e487b7100000000000000000000000000000000000000000000000000000000600052604160045260246000fd5b6200042d82620003e2565b810181811067ffffffffffffffff821117156200044f576200044e620003f3565b5b80604052505050565b6000620004646200031a565b905062000472828262000422565b919050565b600067ffffffffffffffff821115620004955762000494620003f3565b5b620004a082620003e2565b9050602081019050919050565b60005b83811015620004cd578082015181840152602081019050620004b0565b83811115620004dd576000848401525b50505050565b6000620004fa620004f48462000477565b62000458565b905082815260208101848484011115620005195762000518620003dd565b5b62000526848285620004ad565b509392505050565b600082601f830112620005465762000545620003d8565b5b815162000558848260208601620004e3565b91505092915050565b600067ffffffffffffffff8211156200057f576200057e620003f3565b5b602082029050602081019050919050565b600080fd5b6000620005ac620005a68462000561565b62000458565b90508083825260208201905060208402830185811115620005d257620005d162000590565b5b835b818110156200062057805167ffffffffffffffff811115620005fb57620005fa620003d8565b5b8086016200060a89826200052e565b85526020850194505050602081019050620005d4565b5050509392505050565b600082601f830112620006425762000641620003d8565b5b81516200065484826020860162000595565b91505092915050565b6000819050919050565b62000672816200065d565b81146200067e57600080fd5b50565b600081519050620006928162000667565b92915050565b600080600080600080600060e0888a031215620006ba57620006b962000324565b5b6000620006ca8a828b016200037c565b9750506020620006dd8a828b01620003c1565b965050604088015167ffffffffffffffff81111562000701576200070062000329565b5b6200070f8a828b016200052e565b955050606088015167ffffffffffffffff81111562000733576200073262000329565b5b620007418a828b016200052e565b945050608088015167ffffffffffffffff81111562000765576200076462000329565b5b620007738a828b016200062a565b93505060a0620007868a828b0162000681565b92505060c0620007998a828b0162000681565b91505092959891949750929550565b7f4e487b7100000000000000000000000000000000000000000000000000000000600052602260045260246000fd5b60006002820490506001821680620007f057607f821691505b60208210811415620008075762000806620007a8565b5b50919050565b611f8a806200081d6000396000f3fe60806040526004361061012a5760003560e01c80634a79d50c116100ab578063c19d93fb1161006f578063c19d93fb146103d1578063cc6cb19a146103fc578063ce845d1d14610439578063e735b48a14610464578063ed44c6ab1461048d578063ed88c68e146104b85761012a565b80634a79d50c146102fb578063590e1ae3146103265780636e04ff0d1461033d5780637284e4161461037b5780637fb3761e146103a65761012a565b80631b50ad09116100f25780631b50ad091461021857806320822abc146102415780632636b9451461027e57806337fb13b0146102a95780634585e33b146102d25761012a565b806302d05d3f1461012f5780630c611f241461015a5780630fb5a6b41461018557806312065fe0146101b05780631910bdc2146101db575b600080fd5b34801561013b57600080fd5b506101446104c2565b6040516101519190611450565b60405180910390f35b34801561016657600080fd5b5061016f6104e6565b60405161017c9190611792565b60405180910390f35b34801561019157600080fd5b5061019a610796565b6040516101a791906117c3565b60405180910390f35b3480156101bc57600080fd5b506101c561079c565b6040516101d291906117c3565b60405180910390f35b3480156101e757600080fd5b5061020260048036038101906101fd919061181e565b6107a6565b60405161020f91906117c3565b60405180910390f35b34801561022457600080fd5b5061023f600480360381019061023a9190611877565b6107ef565b005b34801561024d57600080fd5b5061026860048036038101906102639190611877565b610806565b60405161027591906118ee565b60405180910390f35b34801561028a57600080fd5b506102936108b2565b6040516102a091906117c3565b60405180910390f35b3480156102b557600080fd5b506102d060048036038101906102cb9190611a45565b6108b8565b005b3480156102de57600080fd5b506102f960048036038101906102f49190611aee565b6108d2565b005b34801561030757600080fd5b506103106109e9565b60405161031d91906118ee565b60405180910390f35b34801561033257600080fd5b5061033b610a77565b005b34801561034957600080fd5b50610364600480360381019061035f9190611bdc565b610cb5565b604051610372929190611c95565b60405180910390f35b34801561038757600080fd5b50610390610d7e565b60405161039d91906118ee565b60405180910390f35b3480156103b257600080fd5b506103bb610e0c565b6040516103c89190611cd4565b60405180910390f35b3480156103dd57600080fd5b506103e6610e23565b6040516103f39190611cd4565b60405180910390f35b34801561040857600080fd5b50610423600480360381019061041e919061181e565b610e36565b60405161043091906117c3565b60405180910390f35b34801561044557600080fd5b5061044e610e4e565b60405161045b91906117c3565b60405180910390f35b34801561047057600080fd5b5061048b60048036038101906104869190611a45565b610e54565b005b34801561049957600080fd5b506104a2610e6e565b6040516104af9190611cfe565b60405180910390f35b6104c0610e81565b005b60008054906101000a900473ffffffffffffffffffffffffffffffffffffffff1681565b6104ee6112e6565b60405180610120016040528060008054906101000a900473ffffffffffffffffffffffffffffffffffffffff1673ffffffffffffffffffffffffffffffffffffffff168152602001600060149054906101000a900460ff1660018111156105585761055761148c565b5b81526020016001805461056a90611d48565b80601f016020809104026020016040519081016040528092919081815260200182805461059690611d48565b80156105e35780601f106105b8576101008083540402835291602001916105e3565b820191906000526020600020905b8154815290600101906020018083116105c657829003601f168201915b50505050508152602001600280546105fa90611d48565b80601f016020809104026020016040519081016040528092919081815260200182805461062690611d48565b80156106735780601f1061064857610100808354040283529160200191610673565b820191906000526020600020905b81548152906001019060200180831161065657829003601f168201915b505050505081526020016003805480602002602001604051908101604052809291908181526020016000905b8282101561074b5783829060005260206000200180546106be90611d48565b80601f01602080910402602001604051908101604052809291908181526020018280546106ea90611d48565b80156107375780601f1061070c57610100808354040283529160200191610737565b820191906000526020600020905b81548152906001019060200180831161071a57829003601f168201915b50505050508152602001906001019061069f565b505050508152602001600454815260200160055481526020016006548152602001600860009054906101000a900460ff16600281111561078e5761078d61148c565b5b815250905090565b60055481565b6000600654905090565b6000600960008373ffffffffffffffffffffffffffffffffffffffff1673ffffffffffffffffffffffffffffffffffffffff168152602001908152602001600020549050919050565b806005546107fd9190611da9565b60058190555050565b6003818154811061081657600080fd5b90600052602060002001600091509050805461083190611d48565b80601f016020809104026020016040519081016040528092919081815260200182805461085d90611d48565b80156108aa5780601f1061087f576101008083540402835291602001916108aa565b820191906000526020600020905b81548152906001019060200180831161088d57829003601f168201915b505050505081565b60045481565b80600190805190602001906108ce92919061136c565b5050565b60006108ec60405180602001604052806000815250610cb5565b50905080610926576040517f311f87a100000000000000000000000000000000000000000000000000000000815260040160405180910390fd5b600554600754426109379190611dff565b111561096d576002600860006101000a81548160ff021916908360028111156109635761096261148c565b5b02179055506109e4565b600454600654106109e3576000600860006101000a81548160ff0219169083600281111561099e5761099d61148c565b5b02179055506109ab611085565b7f5369558c667e962b633128a01c31764d053da51f61d17370d327ed17f77deccc306040516109da9190611e42565b60405180910390a15b5b505050565b600180546109f690611d48565b80601f0160208091040260200160405190810160405280929190818152602001828054610a2290611d48565b8015610a6f5780601f10610a4457610100808354040283529160200191610a6f565b820191906000526020600020905b815481529060010190602001808311610a5257829003601f168201915b505050505081565b6002806002811115610a8c57610a8b61148c565b5b600860009054906101000a900460ff166002811115610aae57610aad61148c565b5b14610ae5576040517f0300809900000000000000000000000000000000000000000000000000000000815260040160405180910390fd5b6000600960003373ffffffffffffffffffffffffffffffffffffffff1673ffffffffffffffffffffffffffffffffffffffff1681526020019081526020016000205411610b6957336040517fc4385859000000000000000000000000000000000000000000000000000000008152600401610b609190611e42565b60405180910390fd5b6000600960003373ffffffffffffffffffffffffffffffffffffffff1673ffffffffffffffffffffffffffffffffffffffff1681526020019081526020016000205490506000600960003373ffffffffffffffffffffffffffffffffffffffff1673ffffffffffffffffffffffffffffffffffffffff16815260200190815260200160002081905550610c07816006546112ba90919063ffffffff16565b60068190555060003373ffffffffffffffffffffffffffffffffffffffff1682604051610c3390611e8e565b60006040518083038185875af1925050503d8060008114610c70576040519150601f19603f3d011682016040523d82523d6000602084013e610c75565b606091505b5050905080610cb0576040517f92e9f8f100000000000000000000000000000000000000000000000000000000815260040160405180910390fd5b505050565b60006060600060045460065410159050600060016002811115610cdb57610cda61148c565b5b600860009054906101000a900460ff166002811115610cfd57610cfc61148c565b5b149050600060055460075442610d139190611dff565b119050600080471190508380610d385750818015610d2e5750825b8015610d375750805b5b9550856040518060400160405280600381526020017f30783000000000000000000000000000000000000000000000000000000000008152509550955050505050915091565b60028054610d8b90611d48565b80601f0160208091040260200160405190810160405280929190818152602001828054610db790611d48565b8015610e045780601f10610dd957610100808354040283529160200191610e04565b820191906000526020600020905b815481529060010190602001808311610de757829003601f168201915b505050505081565b6000600860009054906101000a900460ff16905090565b600860009054906101000a900460ff1681565b60096020528060005260406000206000915090505481565b60065481565b8060019080519060200190610e6a92919061136c565b5050565b600060149054906101000a900460ff1681565b6001806002811115610e9657610e9561148c565b5b600860009054906101000a900460ff166002811115610eb857610eb761148c565b5b14610eef576040517f0300809900000000000000000000000000000000000000000000000000000000815260040160405180910390fd5b60008054906101000a900473ffffffffffffffffffffffffffffffffffffffff1673ffffffffffffffffffffffffffffffffffffffff163373ffffffffffffffffffffffffffffffffffffffff161415610f8057336040517f91101895000000000000000000000000000000000000000000000000000000008152600401610f779190611e42565b60405180910390fd5b610fd234600960003373ffffffffffffffffffffffffffffffffffffffff1673ffffffffffffffffffffffffffffffffffffffff168152602001908152602001600020546112d090919063ffffffff16565b600960003373ffffffffffffffffffffffffffffffffffffffff1673ffffffffffffffffffffffffffffffffffffffff1681526020019081526020016000208190555061102a346006546112d090919063ffffffff16565b6006819055503373ffffffffffffffffffffffffffffffffffffffff167fe76ad748537a48e778fef43dda4a6bd1b50cd62385f9f21a9ca26749235512083460065460405161107a929190611ea3565b60405180910390a250565b600080600281111561109a5761109961148c565b5b600860009054906101000a900460ff1660028111156110bc576110bb61148c565b5b146110f3576040517f0300809900000000000000000000000000000000000000000000000000000000815260040160405180910390fd5b60008054906101000a900473ffffffffffffffffffffffffffffffffffffffff1673ffffffffffffffffffffffffffffffffffffffff163373ffffffffffffffffffffffffffffffffffffffff161461118357336040517fef54c81700000000000000000000000000000000000000000000000000000000815260040161117a9190611e42565b60405180910390fd5b60006006549050600060068190555060008060009054906101000a900473ffffffffffffffffffffffffffffffffffffffff1673ffffffffffffffffffffffffffffffffffffffff16826040516111d990611e8e565b60006040518083038185875af1925050503d8060008114611216576040519150601f19603f3d011682016040523d82523d6000602084013e61121b565b606091505b505090508015611283577fba5e837743d81ad0e6deb16089dbb65b549fdda8ad802fd8d4822884d70dc8b260008054906101000a900473ffffffffffffffffffffffffffffffffffffffff1630604051611276929190611f2b565b60405180910390a16112b5565b6040517f11456ffb00000000000000000000000000000000000000000000000000000000815260040160405180910390fd5b505050565b600081836112c89190611dff565b905092915050565b600081836112de9190611da9565b905092915050565b604051806101200160405280600073ffffffffffffffffffffffffffffffffffffffff168152602001600060018111156113235761132261148c565b5b8152602001606081526020016060815260200160608152602001600081526020016000815260200160008152602001600060028111156113665761136561148c565b5b81525090565b82805461137890611d48565b90600052602060002090601f01602090048101928261139a57600085556113e1565b82601f106113b357805160ff19168380011785556113e1565b828001600101855582156113e1579182015b828111156113e05782518255916020019190600101906113c5565b5b5090506113ee91906113f2565b5090565b5b8082111561140b5760008160009055506001016113f3565b5090565b600073ffffffffffffffffffffffffffffffffffffffff82169050919050565b600061143a8261140f565b9050919050565b61144a8161142f565b82525050565b60006020820190506114656000830184611441565b92915050565b60006114768261140f565b9050919050565b6114868161146b565b82525050565b7f4e487b7100000000000000000000000000000000000000000000000000000000600052602160045260246000fd5b600281106114cc576114cb61148c565b5b50565b60008190506114dd826114bb565b919050565b60006114ed826114cf565b9050919050565b6114fd816114e2565b82525050565b600081519050919050565b600082825260208201905092915050565b60005b8381101561153d578082015181840152602081019050611522565b8381111561154c576000848401525b50505050565b6000601f19601f8301169050919050565b600061156e82611503565b611578818561150e565b935061158881856020860161151f565b61159181611552565b840191505092915050565b600081519050919050565b600082825260208201905092915050565b6000819050602082019050919050565b60006115d48383611563565b905092915050565b6000602082019050919050565b60006115f48261159c565b6115fe81856115a7565b935083602082028501611610856115b8565b8060005b8581101561164c578484038952815161162d85826115c8565b9450611638836115dc565b925060208a01995050600181019050611614565b50829750879550505050505092915050565b6000819050919050565b6116718161165e565b82525050565b600381106116885761168761148c565b5b50565b600081905061169982611677565b919050565b60006116a98261168b565b9050919050565b6116b98161169e565b82525050565b6000610120830160008301516116d8600086018261147d565b5060208301516116eb60208601826114f4565b50604083015184820360408601526117038282611563565b9150506060830151848203606086015261171d8282611563565b9150506080830151848203608086015261173782826115e9565b91505060a083015161174c60a0860182611668565b5060c083015161175f60c0860182611668565b5060e083015161177260e0860182611668565b506101008301516117876101008601826116b0565b508091505092915050565b600060208201905081810360008301526117ac81846116bf565b905092915050565b6117bd8161165e565b82525050565b60006020820190506117d860008301846117b4565b92915050565b6000604051905090565b600080fd5b600080fd5b6117fb8161146b565b811461180657600080fd5b50565b600081359050611818816117f2565b92915050565b600060208284031215611834576118336117e8565b5b600061184284828501611809565b91505092915050565b6118548161165e565b811461185f57600080fd5b50565b6000813590506118718161184b565b92915050565b60006020828403121561188d5761188c6117e8565b5b600061189b84828501611862565b91505092915050565b600082825260208201905092915050565b60006118c082611503565b6118ca81856118a4565b93506118da81856020860161151f565b6118e381611552565b840191505092915050565b6000602082019050818103600083015261190881846118b5565b905092915050565b600080fd5b600080fd5b7f4e487b7100000000000000000000000000000000000000000000000000000000600052604160045260246000fd5b61195282611552565b810181811067ffffffffffffffff821117156119715761197061191a565b5b80604052505050565b60006119846117de565b90506119908282611949565b919050565b600067ffffffffffffffff8211156119b0576119af61191a565b5b6119b982611552565b9050602081019050919050565b82818337600083830152505050565b60006119e86119e384611995565b61197a565b905082815260208101848484011115611a0457611a03611915565b5b611a0f8482856119c6565b509392505050565b600082601f830112611a2c57611a2b611910565b5b8135611a3c8482602086016119d5565b91505092915050565b600060208284031215611a5b57611a5a6117e8565b5b600082013567ffffffffffffffff811115611a7957611a786117ed565b5b611a8584828501611a17565b91505092915050565b600080fd5b600080fd5b60008083601f840112611aae57611aad611910565b5b8235905067ffffffffffffffff811115611acb57611aca611a8e565b5b602083019150836001820283011115611ae757611ae6611a93565b5b9250929050565b60008060208385031215611b0557611b046117e8565b5b600083013567ffffffffffffffff811115611b2357611b226117ed565b5b611b2f85828601611a98565b92509250509250929050565b600067ffffffffffffffff821115611b5657611b5561191a565b5b611b5f82611552565b9050602081019050919050565b6000611b7f611b7a84611b3b565b61197a565b905082815260208101848484011115611b9b57611b9a611915565b5b611ba68482856119c6565b509392505050565b600082601f830112611bc357611bc2611910565b5b8135611bd3848260208601611b6c565b91505092915050565b600060208284031215611bf257611bf16117e8565b5b600082013567ffffffffffffffff811115611c1057611c0f6117ed565b5b611c1c84828501611bae565b91505092915050565b60008115159050919050565b611c3a81611c25565b82525050565b600081519050919050565b600082825260208201905092915050565b6000611c6782611c40565b611c718185611c4b565b9350611c8181856020860161151f565b611c8a81611552565b840191505092915050565b6000604082019050611caa6000830185611c31565b8181036020830152611cbc8184611c5c565b90509392505050565b611cce8161169e565b82525050565b6000602082019050611ce96000830184611cc5565b92915050565b611cf8816114e2565b82525050565b6000602082019050611d136000830184611cef565b92915050565b7f4e487b7100000000000000000000000000000000000000000000000000000000600052602260045260246000fd5b60006002820490506001821680611d6057607f821691505b60208210811415611d7457611d73611d19565b5b50919050565b7f4e487b7100000000000000000000000000000000000000000000000000000000600052601160045260246000fd5b6000611db48261165e565b9150611dbf8361165e565b9250827fffffffffffffffffffffffffffffffffffffffffffffffffffffffffffffffff03821115611df457611df3611d7a565b5b828201905092915050565b6000611e0a8261165e565b9150611e158361165e565b925082821015611e2857611e27611d7a565b5b828203905092915050565b611e3c8161146b565b82525050565b6000602082019050611e576000830184611e33565b92915050565b600081905092915050565b50565b6000611e78600083611e5d565b9150611e8382611e68565b600082019050919050565b6000611e9982611e6b565b9150819050919050565b6000604082019050611eb860008301856117b4565b611ec560208301846117b4565b9392505050565b6000819050919050565b6000611ef1611eec611ee78461140f565b611ecc565b61140f565b9050919050565b6000611f0382611ed6565b9050919050565b6000611f1582611ef8565b9050919050565b611f2581611f0a565b82525050565b6000604082019050611f406000830185611f1c565b611f4d6020830184611e33565b939250505056fea2646970667358221220d158b7e5fb48a9b18ee80cade3a56a747705ff2919b06e99efcfd9d2c5eafdce64736f6c63430008080033a26469706673582212201fb09df87d4eaeabeb3a513f8a34f893d17940a26a94c2a4824e533bfbb800b664736f6c63430008080033",
  "devdoc": {
    "kind": "dev",
    "methods": {},
    "version": 1
  },
  "userdoc": {
    "kind": "user",
    "methods": {},
    "version": 1
  },
  "storageLayout": {
    "storage": [
      {
        "astId": 929,
        "contract": "contracts/CrowdFunder.sol:CrowdFunder",
        "label": "campaigns",
        "offset": 0,
        "slot": "0",
        "type": "t_mapping(t_address,t_contract(Campaign)880)"
      },
      {
        "astId": 933,
        "contract": "contracts/CrowdFunder.sol:CrowdFunder",
        "label": "campaignAddresses",
        "offset": 0,
        "slot": "1",
        "type": "t_mapping(t_address,t_bool)"
      }
    ],
    "types": {
      "t_address": {
        "encoding": "inplace",
        "label": "address",
        "numberOfBytes": "20"
      },
      "t_bool": {
        "encoding": "inplace",
        "label": "bool",
        "numberOfBytes": "1"
      },
      "t_contract(Campaign)880": {
        "encoding": "inplace",
        "label": "contract Campaign",
        "numberOfBytes": "20"
      },
      "t_mapping(t_address,t_bool)": {
        "encoding": "mapping",
        "key": "t_address",
        "label": "mapping(address => bool)",
        "numberOfBytes": "32",
        "value": "t_bool"
      },
      "t_mapping(t_address,t_contract(Campaign)880)": {
        "encoding": "mapping",
        "key": "t_address",
        "label": "mapping(address => contract Campaign)",
        "numberOfBytes": "32",
        "value": "t_contract(Campaign)880"
      }
    }
  }
}