{
  "address": "0x36fd111a948Ef7CA0e21154f998b16732BAAbE7F",
  "abi": [
    {
      "inputs": [
        {
          "internalType": "address",
          "name": "_crf",
          "type": "address"
        },
        {
          "internalType": "address",
          "name": "_creator",
          "type": "address"
        },
        {
          "internalType": "address",
          "name": "_rwdFactory",
          "type": "address"
        },
        {
          "components": [
            {
              "internalType": "string",
              "name": "_title",
              "type": "string"
            },
            {
              "internalType": "string",
              "name": "_description",
              "type": "string"
            },
            {
              "internalType": "string",
              "name": "_category",
              "type": "string"
            },
            {
              "internalType": "string",
              "name": "_tags",
              "type": "string"
            },
            {
              "internalType": "uint256",
              "name": "_goalAmount",
              "type": "uint256"
            },
            {
              "internalType": "uint256",
              "name": "_duration",
              "type": "uint256"
            },
            {
              "internalType": "string",
              "name": "_imageURI",
              "type": "string"
            }
          ],
          "internalType": "struct CampaignFactory.cmpInput",
          "name": "_cmp",
          "type": "tuple"
        }
      ],
      "name": "createCampaign",
      "outputs": [
        {
          "internalType": "address",
          "name": "",
          "type": "address"
        }
      ],
      "stateMutability": "nonpayable",
      "type": "function"
    }
  ],
  "transactionHash": "0x686b4a6504cbfe709d1ad3212f36d1296977b913ed2a6f593c4feab7b65a70a2",
  "args": [],
  "numDeployments": 1,
  "solcInputHash": "283fbd9030c8531353280964af4682ea",
  "bytecode": "0x608060405234801561001057600080fd5b506131c5806100206000396000f3fe60806040523480156200001157600080fd5b50600436106200002e5760003560e01c8063884f30ec1462000033575b600080fd5b6200004a620000443660046200039a565b62000062565b60405162000059919062000436565b60405180910390f35b600080858585856000015186602001518760400151886060015189608001518a60a001518b60c001516040516200009990620000d6565b620000ae9a99989796959493929190620004ec565b604051809103906000f080158015620000cb573d6000803e3d6000fd5b509695505050505050565b612bd880620005b883390190565b60006001600160a01b0382165b92915050565b6200010281620000e4565b81146200010e57600080fd5b50565b8035620000f181620000f7565b634e487b7160e01b600052604160045260246000fd5b601f19601f830116810181811067ffffffffffffffff821117156200015d576200015d6200011e565b6040525050565b60006200017060405190565b90506200017e828262000134565b919050565b600067ffffffffffffffff821115620001a057620001a06200011e565b601f19601f83011660200192915050565b82818337506000910152565b6000620001d4620001ce8462000183565b62000164565b905082815260208101848484011115620001f157620001f1600080fd5b620001fe848285620001b1565b509392505050565b600082601f8301126200021c576200021c600080fd5b81356200022e848260208601620001bd565b949350505050565b8062000102565b8035620000f18162000236565b600060e08284031215620002615762000261600080fd5b6200026d60e062000164565b9050813567ffffffffffffffff8111156200028b576200028b600080fd5b620002998482850162000206565b825250602082013567ffffffffffffffff811115620002bb57620002bb600080fd5b620002c98482850162000206565b602083015250604082013567ffffffffffffffff811115620002ee57620002ee600080fd5b620002fc8482850162000206565b604083015250606082013567ffffffffffffffff811115620003215762000321600080fd5b6200032f8482850162000206565b606083015250608062000345848285016200023d565b60808301525060a06200035b848285016200023d565b60a08301525060c082013567ffffffffffffffff811115620003805762000380600080fd5b6200038e8482850162000206565b60c08301525092915050565b60008060008060808587031215620003b557620003b5600080fd5b6000620003c3878762000111565b9450506020620003d68782880162000111565b9350506040620003e98782880162000111565b925050606085013567ffffffffffffffff8111156200040b576200040b600080fd5b62000419878288016200024a565b91505092959194509250565b6200043081620000e4565b82525050565b60208101620000f1828462000425565b60006001600160a01b038216620000f1565b6000620000f18262000446565b6000620000f18262000458565b620004308162000465565b60005b838110156200049a57818101518382015260200162000480565b83811115620004aa576000848401525b50505050565b6000620004bb825190565b808452602084019350620004d48185602086016200047d565b601f01601f19169290920192915050565b8062000430565b6101408101620004fd828d62000425565b6200050c602083018c62000472565b6200051b604083018b62000425565b81810360608301526200052f818a620004b0565b90508181036080830152620005458189620004b0565b905081810360a08301526200055b8188620004b0565b905081810360c0830152620005718187620004b0565b90506200058260e0830186620004e5565b62000592610100830185620004e5565b818103610120830152620005a78184620004b0565b9c9b50505050505050505050505056fe610100604052600c805460ff191690553480156200001c57600080fd5b5060405162002bd838038062002bd88339810160408190526200003f9162000349565b600160008190556001600160a01b03808a1660c0528b81166080528a1660a052875162000072919060208a019062000118565b5085516200008890600290602089019062000118565b5084516200009e90600390602088019062000118565b508351620000b490600690602087019062000118565b5060078390554260e052624f1a008211620000d05781620000d5565b624f1a005b600881905560e051620000e99190620004dd565b600a5580516200010190600490602084019062000118565b50506000600955506200053f975050505050505050565b82805462000126906200050e565b90600052602060002090601f0160209004810192826200014a576000855562000195565b82601f106200016557805160ff191683800117855562000195565b8280016001018555821562000195579182015b828111156200019557825182559160200191906001019062000178565b50620001a3929150620001a7565b5090565b5b80821115620001a35760008155600101620001a8565b60006001600160a01b0382165b92915050565b620001dc81620001be565b8114620001e857600080fd5b50565b8051620001cb81620001d1565b634e487b7160e01b600052604160045260246000fd5b601f19601f83011681018181106001600160401b0382111715620002365762000236620001f8565b6040525050565b60006200024960405190565b90506200025782826200020e565b919050565b60006001600160401b03821115620002785762000278620001f8565b601f19601f83011660200192915050565b60005b83811015620002a65781810151838201526020016200028c565b83811115620002b6576000848401525b50505050565b6000620002d3620002cd846200025c565b6200023d565b905082815260208101848484011115620002f057620002f0600080fd5b620002fd84828562000289565b509392505050565b600082601f8301126200031b576200031b600080fd5b81516200032d848260208601620002bc565b949350505050565b80620001dc565b8051620001cb8162000335565b6000806000806000806000806000806101408b8d0312156200036e576200036e600080fd5b60006200037c8d8d620001eb565b9a505060206200038f8d828e01620001eb565b9950506040620003a28d828e01620001eb565b98505060608b01516001600160401b03811115620003c357620003c3600080fd5b620003d18d828e0162000305565b97505060808b01516001600160401b03811115620003f257620003f2600080fd5b620004008d828e0162000305565b96505060a08b01516001600160401b03811115620004215762000421600080fd5b6200042f8d828e0162000305565b95505060c08b01516001600160401b03811115620004505762000450600080fd5b6200045e8d828e0162000305565b94505060e0620004718d828e016200033c565b935050610100620004858d828e016200033c565b9250506101208b01516001600160401b03811115620004a757620004a7600080fd5b620004b58d828e0162000305565b9150509295989b9194979a5092959850565b634e487b7160e01b600052601160045260246000fd5b60008219821115620004f357620004f3620004c7565b500190565b634e487b7160e01b600052602260045260246000fd5b6002810460018216806200052357607f821691505b60208210811415620005395762000539620004f8565b50919050565b60805160a05160c05160e0516125fd620005db60003960008181610da9015261135c0152600081816104d0015261122001526000818161042d015281816105d201528181610bca01528181610c4401528181610ca401528181610d4801528181610e1101528181610f22015281816111840152818161124f01526112f801526000818161059a01528181610ed3015261143c01526125fd6000f3fe6080604052600436106101cd5760003560e01c80636e04ff0d116100f7578063ce2a057211610095578063f764f87911610064578063f764f87914610528578063fa6ded3914610548578063fa89401a14610568578063fd6b30fa1461058857600080fd5b8063ce2a057214610493578063ce845d1d146104a8578063ea0ec1c6146104be578063f301af42146104f257600080fd5b806399a8502d116100d157806399a8502d14610406578063b145603e1461041b578063bf66e2c81461045c578063c5cd50781461047e57600080fd5b80636e04ff0d146103b057806371aac7f9146103de5780637be4bae1146103f357600080fd5b806329dcb0cf1161016f5780634ef897191161013e5780634ef897191461033f57806360fa9a72146103545780636235887a1461037b57806363bd1d4a1461039b57600080fd5b806329dcb0cf146102d25780634278ac8b146102e85780634585e33b146102fd5780634d695bdb1461031f57600080fd5b806315a46ee6116101ab57806315a46ee61461024d5780631774d9601461026f5780631c4b774b1461028f5780632636b945146102bc57600080fd5b806309917c50146101d25780630c611f24146102155780630fb5a6b414610237575b600080fd5b3480156101de57600080fd5b506101ff6101ed3660046115f3565b600f6020526000908152604090205481565b60405161020c9190611624565b60405180910390f35b34801561022157600080fd5b5061022a6105bc565b60405161020c9190611806565b34801561024357600080fd5b506101ff60085481565b34801561025957600080fd5b506102626109a2565b60405161020c9190611817565b34801561027b57600080fd5b506101ff61028a366004611839565b610a30565b34801561029b57600080fd5b506102af6102aa366004611876565b610a61565b60405161020c9190611a7f565b3480156102c857600080fd5b506101ff60075481565b3480156102de57600080fd5b506101ff600a5481565b3480156102f457600080fd5b50610262610b41565b34801561030957600080fd5b5061031d610318366004611ae1565b610b4e565b005b34801561032b57600080fd5b5061031d61033a366004611c14565b610bbf565b34801561034b57600080fd5b50610262610c0b565b34801561036057600080fd5b50600c5461036e9060ff1681565b60405161020c9190611c4e565b34801561038757600080fd5b506101ff610396366004611876565b610c18565b3480156103a757600080fd5b5061031d610c39565b3480156103bc57600080fd5b506103d06103cb366004611c14565b610d82565b60405161020c929190611c5c565b3480156103ea57600080fd5b5061031d610e06565b61031d610401366004611c8f565b610e97565b34801561041257600080fd5b506102626110fa565b34801561042757600080fd5b5061044f7f000000000000000000000000000000000000000000000000000000000000000081565b60405161020c9190611cc2565b34801561046857600080fd5b50610471611107565b60405161020c9190611d1a565b34801561048a57600080fd5b5061026261115f565b34801561049f57600080fd5b5061026261116c565b3480156104b457600080fd5b506101ff60095481565b3480156104ca57600080fd5b5061044f7f000000000000000000000000000000000000000000000000000000000000000081565b3480156104fe57600080fd5b5061044f61050d366004611876565b600d602052600090815260409020546001600160a01b031681565b34801561053457600080fd5b5061031d610543366004611f45565b611179565b34801561055457600080fd5b5061031d610563366004611876565b6112ed565b34801561057457600080fd5b5061031d6105833660046115f3565b611386565b34801561059457600080fd5b5061044f7f000000000000000000000000000000000000000000000000000000000000000081565b6105c46114aa565b6040518061018001604052807f00000000000000000000000000000000000000000000000000000000000000006001600160a01b031681526020016001805461060c90611f95565b80601f016020809104026020016040519081016040528092919081815260200182805461063890611f95565b80156106855780601f1061065a57610100808354040283529160200191610685565b820191906000526020600020905b81548152906001019060200180831161066857829003601f168201915b505050505081526020016002805461069c90611f95565b80601f01602080910402602001604051908101604052809291908181526020018280546106c890611f95565b80156107155780601f106106ea57610100808354040283529160200191610715565b820191906000526020600020905b8154815290600101906020018083116106f857829003601f168201915b505050505081526020016003805461072c90611f95565b80601f016020809104026020016040519081016040528092919081815260200182805461075890611f95565b80156107a55780601f1061077a576101008083540402835291602001916107a5565b820191906000526020600020905b81548152906001019060200180831161078857829003601f168201915b50505050508152602001600680546107bc90611f95565b80601f01602080910402602001604051908101604052809291908181526020018280546107e890611f95565b80156108355780601f1061080a57610100808354040283529160200191610835565b820191906000526020600020905b81548152906001019060200180831161081857829003601f168201915b5050509183525050600754602082015260085460408201526009546060820152600c5460809091019060ff1660028111156108725761087261169d565b81526020016004805461088490611f95565b80601f01602080910402602001604051908101604052809291908181526020018280546108b090611f95565b80156108fd5780601f106108d2576101008083540402835291602001916108fd565b820191906000526020600020905b8154815290600101906020018083116108e057829003601f168201915b505050505081526020016005805461091490611f95565b80601f016020809104026020016040519081016040528092919081815260200182805461094090611f95565b801561098d5780601f106109625761010080835404028352916020019161098d565b820191906000526020600020905b81548152906001019060200180831161097057829003601f168201915b50505050508152602001600a54815250905090565b600580546109af90611f95565b80601f01602080910402602001604051908101604052809291908181526020018280546109db90611f95565b8015610a285780601f106109fd57610100808354040283529160200191610a28565b820191906000526020600020905b815481529060010190602001808311610a0b57829003601f168201915b505050505081565b600e6020528160005260406000208181548110610a4c57600080fd5b90600052602060002001600091509150505481565b610ac0604051806101600160405280600081526020016060815260200160608152602001606081526020016060815260200160008152602001600081526020016000151581526020016060815260200160608152602001606081525090565b6000828152600d6020526040808220548151636862013b60e11b815291516001600160a01b0390911692839263d0c4027692600480830193928290030181865afa158015610b12573d6000803e3d6000fd5b505050506040513d6000823e601f3d908101601f19168201604052610b3a91908101906122fd565b9392505050565b600380546109af90611f95565b6000610b6860405180602001604052806000815250610d82565b50905080610b7557600080fd5b600c805460ff191660011790556040517f5cf8cd2bd40f758a95257bed666285eb82801f1bf9223b8ec1481e510ba2e82d90610bb2903090611cc2565b60405180910390a1505050565b336001600160a01b037f00000000000000000000000000000000000000000000000000000000000000001614610bf457600080fd5b8051610c07906005906020840190611525565b5050565b600280546109af90611f95565b60108181548110610c2857600080fd5b600091825260209091200154905081565b336001600160a01b037f00000000000000000000000000000000000000000000000000000000000000001614610c6e57600080fd5b6001600c5460ff166002811115610c8757610c8761169d565b14610c9157600080fd5b60006009549050600060098190555060007f00000000000000000000000000000000000000000000000000000000000000006001600160a01b031682604051610cd990612337565b60006040518083038185875af1925050503d8060008114610d16576040519150601f19603f3d011682016040523d82523d6000602084013e610d1b565b606091505b5050905080156101cd577fba5e837743d81ad0e6deb16089dbb65b549fdda8ad802fd8d4822884d70dc8b27f000000000000000000000000000000000000000000000000000000000000000030604051610d7692919061236f565b60405180910390a15050565b600060608180600c5460ff166002811115610d9f57610d9f61169d565b14905060006008547f000000000000000000000000000000000000000000000000000000000000000042610dd391906123a0565b119050808015610de05750815b60408051808201909152600381526203078360ec1b602082015290969095509350505050565b336001600160a01b037f00000000000000000000000000000000000000000000000000000000000000001614610e3b57600080fd5b6001600c5460ff166002811115610e5457610e5461169d565b1415610e5f57600080fd5b600c805460ff191660021790556040517fb83ebe09f40e9293bdea1d6567fae3175119d3d0ff13c4b4df15994837dd7f5190600090a1565b60026000541415610ec35760405162461bcd60e51b8152600401610eba906123b7565b60405180910390fd5b6002600055336001600160a01b037f00000000000000000000000000000000000000000000000000000000000000001614610efd57600080fd5b6000600c5460ff166002811115610f1657610f1661169d565b14610f2057600080fd5b7f00000000000000000000000000000000000000000000000000000000000000006001600160a01b0316826001600160a01b03161415610f5f57600080fd5b34600954610f6d91906123f2565b600955801561107357346000908152600d60205260409020546001600160a01b0316156101cd57346000908152600d60205260408082205490516001600160a01b0390911690610fc1908590602401611cc2565b60408051601f198184030181529181526020820180516001600160e01b0316632814bc0960e21b17905251610ff6919061242c565b6000604051808303816000865af19150503d8060008114611033576040519150601f19603f3d011682016040523d82523d6000602084013e611038565b606091505b505090508061104657600080fd5b506001600160a01b0382166000908152600e60209081526040822080546001810182559083529120349101555b6001600160a01b0382166000908152600f60205260409020546110979034906123f2565b6001600160a01b0383166000818152600f60205260409081902092909255600954915190917fe76ad748537a48e778fef43dda4a6bd1b50cd62385f9f21a9ca2674923551208916110e9913491612438565b60405180910390a250506001600055565b600180546109af90611f95565b6060601080548060200260200160405190810160405280929190818152602001828054801561115557602002820191906000526020600020905b815481526020019060010190808311611141575b5050505050905090565b600680546109af90611f95565b600480546109af90611f95565b336001600160a01b037f000000000000000000000000000000000000000000000000000000000000000016146111ae57600080fd5b80516000908152600d60205260409020546001600160a01b0316156111d257600080fd5b80516010805460018101825560009182527f1b6847dc741a1b0cd08d278845f9d819d87b734759afb55fe2de5cb82a9ae672019190915560405163d52116e960e01b81526001600160a01b037f0000000000000000000000000000000000000000000000000000000000000000169063d52116e9906112799030907f0000000000000000000000000000000000000000000000000000000000000000908790600401612523565b6020604051808303816000875af1158015611298573d6000803e3d6000fd5b505050506040513d601f19601f820116820180604052508101906112bc9190612550565b91516000908152600d6020526040902080546001600160a01b0319166001600160a01b039093169290921790915550565b336001600160a01b037f0000000000000000000000000000000000000000000000000000000000000000161461132257600080fd5b624f1a008160085461133491906123f2565b1161134c578060085461134791906123f2565b611351565b624f1a005b6008819055611380907f00000000000000000000000000000000000000000000000000000000000000006123f2565b600a5550565b600260005414156113a95760405162461bcd60e51b8152600401610eba906123b7565b60026000819055604080518082019091526009548152600c549091602083019160ff16908111156113dc576113dc61169d565b90528051601190815560208201516012805460ff191660018360028111156114065761140661169d565b021790555050604051631cc535e760e21b8152730E54C27E60cd49932A4FB8E7699ba566806ac4869150637314d79c90611472907f000000000000000000000000000000000000000000000000000000000000000090601190600d90600f90600e908990600401612571565b60006040518083038186803b15801561148a57600080fd5b505af415801561149e573d6000803e3d6000fd5b50506001600055505050565b60405180610180016040528060006001600160a01b03168152602001606081526020016060815260200160608152602001606081526020016000815260200160008152602001600081526020016000600281111561150a5761150a61169d565b81526020016060815260200160608152602001600081525090565b82805461153190611f95565b90600052602060002090601f0160209004810192826115535760008555611599565b82601f1061156c57805160ff1916838001178555611599565b82800160010185558215611599579182015b8281111561159957825182559160200191906001019061157e565b506115a59291506115a9565b5090565b5b808211156115a557600081556001016115aa565b60006001600160a01b0382165b92915050565b6115da816115be565b81146115e557600080fd5b50565b80356115cb816115d1565b60006020828403121561160857611608600080fd5b600061161484846115e8565b949350505050565b805b82525050565b602081016115cb828461161c565b61161e816115be565b60005b8381101561165657818101518382015260200161163e565b83811115611665576000848401525b50505050565b6000611675825190565b80845260208401935061168c81856020860161163b565b601f01601f19169290920192915050565b634e487b7160e01b600052602160045260246000fd5b600381106115e5576115e561169d565b806116cd816116b3565b919050565b60006115cb826116c3565b61161e816116d2565b80516000906101808401906116fb8582611632565b5060208301518482036020860152611713828261166b565b9150506040830151848203604086015261172d828261166b565b91505060608301518482036060860152611747828261166b565b91505060808301518482036080860152611761828261166b565b91505060a083015161177660a086018261161c565b5060c083015161178960c086018261161c565b5060e083015161179c60e086018261161c565b506101008301516117b16101008601826116dd565b506101208301518482036101208601526117cb828261166b565b9150506101408301518482036101408601526117e7828261166b565b9150506101608301516117fe61016086018261161c565b509392505050565b60208082528101610b3a81846116e6565b60208082528101610b3a818461166b565b806115da565b80356115cb81611828565b6000806040838503121561184f5761184f600080fd5b600061185b85856115e8565b925050602061186c8582860161182e565b9150509250929050565b60006020828403121561188b5761188b600080fd5b6000611614848461182e565b6000610b3a838361166b565b60006118ad825190565b808452602084019350836020820285016118c78560200190565b8060005b858110156118fc57848403895281516118e48582611897565b94506020830160209a909a01999250506001016118cb565b5091979650505050505050565b80151561161e565b600061191d8383611632565b505060200190565b600061192f825190565b80845260209384019383018060005b838110156119635781516119528882611911565b97506020830192505060010161193e565b509495945050505050565b8051600090610160840190611983858261161c565b506020830151848203602086015261199b828261166b565b915050604083015184820360408601526119b5828261166b565b915050606083015184820360608601526119cf828261166b565b915050608083015184820360808601526119e982826118a3565b91505060a08301516119fe60a086018261161c565b5060c0830151611a1160c086018261161c565b5060e0830151611a2460e0860182611909565b50610100830151848203610100860152611a3e82826118a3565b915050610120830151848203610120860152611a5a8282611925565b915050610140830151848203610140860152611a76828261166b565b95945050505050565b60208082528101610b3a818461196e565b60008083601f840112611aa557611aa5600080fd5b5081356001600160401b03811115611abf57611abf600080fd5b602083019150836001820283011115611ada57611ada600080fd5b9250929050565b60008060208385031215611af757611af7600080fd5b82356001600160401b03811115611b1057611b10600080fd5b611b1c85828601611a90565b92509250509250929050565b634e487b7160e01b600052604160045260246000fd5b601f19601f83011681018181106001600160401b0382111715611b6357611b63611b28565b6040525050565b6000611b7560405190565b90506116cd8282611b3e565b60006001600160401b03821115611b9a57611b9a611b28565b601f19601f83011660200192915050565b82818337506000910152565b6000611bca611bc584611b81565b611b6a565b905082815260208101848484011115611be557611be5600080fd5b6117fe848285611bab565b600082601f830112611c0457611c04600080fd5b8135611614848260208601611bb7565b600060208284031215611c2957611c29600080fd5b81356001600160401b03811115611c4257611c42600080fd5b61161484828501611bf0565b602081016115cb82846116dd565b60408101611c6a8285611909565b8181036020830152611614818461166b565b8015156115da565b80356115cb81611c7c565b60008060408385031215611ca557611ca5600080fd5b6000611cb185856115e8565b925050602061186c85828601611c84565b602081016115cb8284611632565b600061191d838361161c565b6000611ce6825190565b80845260209384019383018060005b83811015611963578151611d098882611cd0565b975060208301925050600101611cf5565b60208082528101610b3a8184611cdc565b60006001600160401b03821115611d4457611d44611b28565b5060209081020190565b6000611d5c611bc584611d2b565b83815290506020808201908402830185811115611d7b57611d7b600080fd5b835b81811015611dbb5780356001600160401b03811115611d9e57611d9e600080fd5b808601611dab8982611bf0565b8552505060209283019201611d7d565b5050509392505050565b600082601f830112611dd957611dd9600080fd5b8135611614848260208601611d4e565b60006101208284031215611dff57611dff600080fd5b611e0a610120611b6a565b90506000611e18848461182e565b82525060208201356001600160401b03811115611e3757611e37600080fd5b611e4384828501611bf0565b60208301525060408201356001600160401b03811115611e6557611e65600080fd5b611e7184828501611bf0565b60408301525060608201356001600160401b03811115611e9357611e93600080fd5b611e9f84828501611bf0565b60608301525060808201356001600160401b03811115611ec157611ec1600080fd5b611ecd84828501611dc5565b60808301525060a0611ee18482850161182e565b60a08301525060c0611ef58482850161182e565b60c08301525060e0611f0984828501611c84565b60e0830152506101008201356001600160401b03811115611f2c57611f2c600080fd5b611f3884828501611dc5565b6101008301525092915050565b600060208284031215611f5a57611f5a600080fd5b81356001600160401b03811115611f7357611f73600080fd5b61161484828501611de9565b634e487b7160e01b600052602260045260246000fd5b600281046001821680611fa957607f821691505b60208210811415611fbc57611fbc611f7f565b50919050565b80516115cb81611828565b6000611fdb611bc584611b81565b905082815260208101848484011115611ff657611ff6600080fd5b6117fe84828561163b565b600082601f83011261201557612015600080fd5b8151611614848260208601611fcd565b6000612033611bc584611d2b565b8381529050602080820190840283018581111561205257612052600080fd5b835b81811015611dbb5780516001600160401b0381111561207557612075600080fd5b8086016120828982612001565b8552505060209283019201612054565b600082601f8301126120a6576120a6600080fd5b8151611614848260208601612025565b80516115cb81611c7c565b80516115cb816115d1565b60006120da611bc584611d2b565b838152905060208082019084028301858111156120f9576120f9600080fd5b835b81811015611dbb578061210e88826120c1565b845250602092830192016120fb565b600082601f83011261213157612131600080fd5b81516116148482602086016120cc565b6000610160828403121561215757612157600080fd5b612162610160611b6a565b905060006121708484611fc2565b82525060208201516001600160401b0381111561218f5761218f600080fd5b61219b84828501612001565b60208301525060408201516001600160401b038111156121bd576121bd600080fd5b6121c984828501612001565b60408301525060608201516001600160401b038111156121eb576121eb600080fd5b6121f784828501612001565b60608301525060808201516001600160401b0381111561221957612219600080fd5b61222584828501612092565b60808301525060a061223984828501611fc2565b60a08301525060c061224d84828501611fc2565b60c08301525060e0612261848285016120b6565b60e0830152506101008201516001600160401b0381111561228457612284600080fd5b61229084828501612092565b610100830152506101208201516001600160401b038111156122b4576122b4600080fd5b6122c08482850161211d565b610120830152506101408201516001600160401b038111156122e4576122e4600080fd5b6122f084828501612001565b6101408301525092915050565b60006020828403121561231257612312600080fd5b81516001600160401b0381111561232b5761232b600080fd5b61161484828501612141565b6000816115cb565b60006001600160a01b0382166115cb565b60006115cb8261233f565b60006115cb82612350565b61161e8161235b565b6040810161237d8285612366565b610b3a6020830184611632565b634e487b7160e01b600052601160045260246000fd5b6000828210156123b2576123b261238a565b500390565b602080825281016115cb81601f81527f5265656e7472616e637947756172643a207265656e7472616e742063616c6c00602082015260400190565b600082198211156124055761240561238a565b500190565b6000612414825190565b61242281856020860161163b565b9290920192915050565b6000610b3a828461240a565b60408101612446828561161c565b610b3a602083018461161c565b8051600090610120840190612468858261161c565b5060208301518482036020860152612480828261166b565b9150506040830151848203604086015261249a828261166b565b915050606083015184820360608601526124b4828261166b565b915050608083015184820360808601526124ce82826118a3565b91505060a08301516124e360a086018261161c565b5060c08301516124f660c086018261161c565b5060e083015161250960e0860182611909565b50610100830151848203610100860152611a7682826118a3565b606081016125318286611632565b61253e6020830185612366565b8181036040830152611a768184612453565b60006020828403121561256557612565600080fd5b600061161484846120c1565b60c0810161257f8289611632565b61258b60208301889052565b61259760408301879052565b6125a360608301869052565b6125af60808301859052565b6125bc60a0830184611632565b97965050505050505056fea264697066735822122025f472d3c2cb979b114d2c88ae9a967e2ba6fa9b048703b7397c6eedc0c43b0d64736f6c634300080b0033a26469706673582212200223d3c10eb36d67ff2a3239215022bd3921ee5e8e194948c649ef6cd7204d7d64736f6c634300080b0033",
  "deployedBytecode": "0x60806040523480156200001157600080fd5b50600436106200002e5760003560e01c8063884f30ec1462000033575b600080fd5b6200004a620000443660046200039a565b62000062565b60405162000059919062000436565b60405180910390f35b600080858585856000015186602001518760400151886060015189608001518a60a001518b60c001516040516200009990620000d6565b620000ae9a99989796959493929190620004ec565b604051809103906000f080158015620000cb573d6000803e3d6000fd5b509695505050505050565b612bd880620005b883390190565b60006001600160a01b0382165b92915050565b6200010281620000e4565b81146200010e57600080fd5b50565b8035620000f181620000f7565b634e487b7160e01b600052604160045260246000fd5b601f19601f830116810181811067ffffffffffffffff821117156200015d576200015d6200011e565b6040525050565b60006200017060405190565b90506200017e828262000134565b919050565b600067ffffffffffffffff821115620001a057620001a06200011e565b601f19601f83011660200192915050565b82818337506000910152565b6000620001d4620001ce8462000183565b62000164565b905082815260208101848484011115620001f157620001f1600080fd5b620001fe848285620001b1565b509392505050565b600082601f8301126200021c576200021c600080fd5b81356200022e848260208601620001bd565b949350505050565b8062000102565b8035620000f18162000236565b600060e08284031215620002615762000261600080fd5b6200026d60e062000164565b9050813567ffffffffffffffff8111156200028b576200028b600080fd5b620002998482850162000206565b825250602082013567ffffffffffffffff811115620002bb57620002bb600080fd5b620002c98482850162000206565b602083015250604082013567ffffffffffffffff811115620002ee57620002ee600080fd5b620002fc8482850162000206565b604083015250606082013567ffffffffffffffff811115620003215762000321600080fd5b6200032f8482850162000206565b606083015250608062000345848285016200023d565b60808301525060a06200035b848285016200023d565b60a08301525060c082013567ffffffffffffffff811115620003805762000380600080fd5b6200038e8482850162000206565b60c08301525092915050565b60008060008060808587031215620003b557620003b5600080fd5b6000620003c3878762000111565b9450506020620003d68782880162000111565b9350506040620003e98782880162000111565b925050606085013567ffffffffffffffff8111156200040b576200040b600080fd5b62000419878288016200024a565b91505092959194509250565b6200043081620000e4565b82525050565b60208101620000f1828462000425565b60006001600160a01b038216620000f1565b6000620000f18262000446565b6000620000f18262000458565b620004308162000465565b60005b838110156200049a57818101518382015260200162000480565b83811115620004aa576000848401525b50505050565b6000620004bb825190565b808452602084019350620004d48185602086016200047d565b601f01601f19169290920192915050565b8062000430565b6101408101620004fd828d62000425565b6200050c602083018c62000472565b6200051b604083018b62000425565b81810360608301526200052f818a620004b0565b90508181036080830152620005458189620004b0565b905081810360a08301526200055b8188620004b0565b905081810360c0830152620005718187620004b0565b90506200058260e0830186620004e5565b62000592610100830185620004e5565b818103610120830152620005a78184620004b0565b9c9b50505050505050505050505056fe610100604052600c805460ff191690553480156200001c57600080fd5b5060405162002bd838038062002bd88339810160408190526200003f9162000349565b600160008190556001600160a01b03808a1660c0528b81166080528a1660a052875162000072919060208a019062000118565b5085516200008890600290602089019062000118565b5084516200009e90600390602088019062000118565b508351620000b490600690602087019062000118565b5060078390554260e052624f1a008211620000d05781620000d5565b624f1a005b600881905560e051620000e99190620004dd565b600a5580516200010190600490602084019062000118565b50506000600955506200053f975050505050505050565b82805462000126906200050e565b90600052602060002090601f0160209004810192826200014a576000855562000195565b82601f106200016557805160ff191683800117855562000195565b8280016001018555821562000195579182015b828111156200019557825182559160200191906001019062000178565b50620001a3929150620001a7565b5090565b5b80821115620001a35760008155600101620001a8565b60006001600160a01b0382165b92915050565b620001dc81620001be565b8114620001e857600080fd5b50565b8051620001cb81620001d1565b634e487b7160e01b600052604160045260246000fd5b601f19601f83011681018181106001600160401b0382111715620002365762000236620001f8565b6040525050565b60006200024960405190565b90506200025782826200020e565b919050565b60006001600160401b03821115620002785762000278620001f8565b601f19601f83011660200192915050565b60005b83811015620002a65781810151838201526020016200028c565b83811115620002b6576000848401525b50505050565b6000620002d3620002cd846200025c565b6200023d565b905082815260208101848484011115620002f057620002f0600080fd5b620002fd84828562000289565b509392505050565b600082601f8301126200031b576200031b600080fd5b81516200032d848260208601620002bc565b949350505050565b80620001dc565b8051620001cb8162000335565b6000806000806000806000806000806101408b8d0312156200036e576200036e600080fd5b60006200037c8d8d620001eb565b9a505060206200038f8d828e01620001eb565b9950506040620003a28d828e01620001eb565b98505060608b01516001600160401b03811115620003c357620003c3600080fd5b620003d18d828e0162000305565b97505060808b01516001600160401b03811115620003f257620003f2600080fd5b620004008d828e0162000305565b96505060a08b01516001600160401b03811115620004215762000421600080fd5b6200042f8d828e0162000305565b95505060c08b01516001600160401b03811115620004505762000450600080fd5b6200045e8d828e0162000305565b94505060e0620004718d828e016200033c565b935050610100620004858d828e016200033c565b9250506101208b01516001600160401b03811115620004a757620004a7600080fd5b620004b58d828e0162000305565b9150509295989b9194979a5092959850565b634e487b7160e01b600052601160045260246000fd5b60008219821115620004f357620004f3620004c7565b500190565b634e487b7160e01b600052602260045260246000fd5b6002810460018216806200052357607f821691505b60208210811415620005395762000539620004f8565b50919050565b60805160a05160c05160e0516125fd620005db60003960008181610da9015261135c0152600081816104d0015261122001526000818161042d015281816105d201528181610bca01528181610c4401528181610ca401528181610d4801528181610e1101528181610f22015281816111840152818161124f01526112f801526000818161059a01528181610ed3015261143c01526125fd6000f3fe6080604052600436106101cd5760003560e01c80636e04ff0d116100f7578063ce2a057211610095578063f764f87911610064578063f764f87914610528578063fa6ded3914610548578063fa89401a14610568578063fd6b30fa1461058857600080fd5b8063ce2a057214610493578063ce845d1d146104a8578063ea0ec1c6146104be578063f301af42146104f257600080fd5b806399a8502d116100d157806399a8502d14610406578063b145603e1461041b578063bf66e2c81461045c578063c5cd50781461047e57600080fd5b80636e04ff0d146103b057806371aac7f9146103de5780637be4bae1146103f357600080fd5b806329dcb0cf1161016f5780634ef897191161013e5780634ef897191461033f57806360fa9a72146103545780636235887a1461037b57806363bd1d4a1461039b57600080fd5b806329dcb0cf146102d25780634278ac8b146102e85780634585e33b146102fd5780634d695bdb1461031f57600080fd5b806315a46ee6116101ab57806315a46ee61461024d5780631774d9601461026f5780631c4b774b1461028f5780632636b945146102bc57600080fd5b806309917c50146101d25780630c611f24146102155780630fb5a6b414610237575b600080fd5b3480156101de57600080fd5b506101ff6101ed3660046115f3565b600f6020526000908152604090205481565b60405161020c9190611624565b60405180910390f35b34801561022157600080fd5b5061022a6105bc565b60405161020c9190611806565b34801561024357600080fd5b506101ff60085481565b34801561025957600080fd5b506102626109a2565b60405161020c9190611817565b34801561027b57600080fd5b506101ff61028a366004611839565b610a30565b34801561029b57600080fd5b506102af6102aa366004611876565b610a61565b60405161020c9190611a7f565b3480156102c857600080fd5b506101ff60075481565b3480156102de57600080fd5b506101ff600a5481565b3480156102f457600080fd5b50610262610b41565b34801561030957600080fd5b5061031d610318366004611ae1565b610b4e565b005b34801561032b57600080fd5b5061031d61033a366004611c14565b610bbf565b34801561034b57600080fd5b50610262610c0b565b34801561036057600080fd5b50600c5461036e9060ff1681565b60405161020c9190611c4e565b34801561038757600080fd5b506101ff610396366004611876565b610c18565b3480156103a757600080fd5b5061031d610c39565b3480156103bc57600080fd5b506103d06103cb366004611c14565b610d82565b60405161020c929190611c5c565b3480156103ea57600080fd5b5061031d610e06565b61031d610401366004611c8f565b610e97565b34801561041257600080fd5b506102626110fa565b34801561042757600080fd5b5061044f7f000000000000000000000000000000000000000000000000000000000000000081565b60405161020c9190611cc2565b34801561046857600080fd5b50610471611107565b60405161020c9190611d1a565b34801561048a57600080fd5b5061026261115f565b34801561049f57600080fd5b5061026261116c565b3480156104b457600080fd5b506101ff60095481565b3480156104ca57600080fd5b5061044f7f000000000000000000000000000000000000000000000000000000000000000081565b3480156104fe57600080fd5b5061044f61050d366004611876565b600d602052600090815260409020546001600160a01b031681565b34801561053457600080fd5b5061031d610543366004611f45565b611179565b34801561055457600080fd5b5061031d610563366004611876565b6112ed565b34801561057457600080fd5b5061031d6105833660046115f3565b611386565b34801561059457600080fd5b5061044f7f000000000000000000000000000000000000000000000000000000000000000081565b6105c46114aa565b6040518061018001604052807f00000000000000000000000000000000000000000000000000000000000000006001600160a01b031681526020016001805461060c90611f95565b80601f016020809104026020016040519081016040528092919081815260200182805461063890611f95565b80156106855780601f1061065a57610100808354040283529160200191610685565b820191906000526020600020905b81548152906001019060200180831161066857829003601f168201915b505050505081526020016002805461069c90611f95565b80601f01602080910402602001604051908101604052809291908181526020018280546106c890611f95565b80156107155780601f106106ea57610100808354040283529160200191610715565b820191906000526020600020905b8154815290600101906020018083116106f857829003601f168201915b505050505081526020016003805461072c90611f95565b80601f016020809104026020016040519081016040528092919081815260200182805461075890611f95565b80156107a55780601f1061077a576101008083540402835291602001916107a5565b820191906000526020600020905b81548152906001019060200180831161078857829003601f168201915b50505050508152602001600680546107bc90611f95565b80601f01602080910402602001604051908101604052809291908181526020018280546107e890611f95565b80156108355780601f1061080a57610100808354040283529160200191610835565b820191906000526020600020905b81548152906001019060200180831161081857829003601f168201915b5050509183525050600754602082015260085460408201526009546060820152600c5460809091019060ff1660028111156108725761087261169d565b81526020016004805461088490611f95565b80601f01602080910402602001604051908101604052809291908181526020018280546108b090611f95565b80156108fd5780601f106108d2576101008083540402835291602001916108fd565b820191906000526020600020905b8154815290600101906020018083116108e057829003601f168201915b505050505081526020016005805461091490611f95565b80601f016020809104026020016040519081016040528092919081815260200182805461094090611f95565b801561098d5780601f106109625761010080835404028352916020019161098d565b820191906000526020600020905b81548152906001019060200180831161097057829003601f168201915b50505050508152602001600a54815250905090565b600580546109af90611f95565b80601f01602080910402602001604051908101604052809291908181526020018280546109db90611f95565b8015610a285780601f106109fd57610100808354040283529160200191610a28565b820191906000526020600020905b815481529060010190602001808311610a0b57829003601f168201915b505050505081565b600e6020528160005260406000208181548110610a4c57600080fd5b90600052602060002001600091509150505481565b610ac0604051806101600160405280600081526020016060815260200160608152602001606081526020016060815260200160008152602001600081526020016000151581526020016060815260200160608152602001606081525090565b6000828152600d6020526040808220548151636862013b60e11b815291516001600160a01b0390911692839263d0c4027692600480830193928290030181865afa158015610b12573d6000803e3d6000fd5b505050506040513d6000823e601f3d908101601f19168201604052610b3a91908101906122fd565b9392505050565b600380546109af90611f95565b6000610b6860405180602001604052806000815250610d82565b50905080610b7557600080fd5b600c805460ff191660011790556040517f5cf8cd2bd40f758a95257bed666285eb82801f1bf9223b8ec1481e510ba2e82d90610bb2903090611cc2565b60405180910390a1505050565b336001600160a01b037f00000000000000000000000000000000000000000000000000000000000000001614610bf457600080fd5b8051610c07906005906020840190611525565b5050565b600280546109af90611f95565b60108181548110610c2857600080fd5b600091825260209091200154905081565b336001600160a01b037f00000000000000000000000000000000000000000000000000000000000000001614610c6e57600080fd5b6001600c5460ff166002811115610c8757610c8761169d565b14610c9157600080fd5b60006009549050600060098190555060007f00000000000000000000000000000000000000000000000000000000000000006001600160a01b031682604051610cd990612337565b60006040518083038185875af1925050503d8060008114610d16576040519150601f19603f3d011682016040523d82523d6000602084013e610d1b565b606091505b5050905080156101cd577fba5e837743d81ad0e6deb16089dbb65b549fdda8ad802fd8d4822884d70dc8b27f000000000000000000000000000000000000000000000000000000000000000030604051610d7692919061236f565b60405180910390a15050565b600060608180600c5460ff166002811115610d9f57610d9f61169d565b14905060006008547f000000000000000000000000000000000000000000000000000000000000000042610dd391906123a0565b119050808015610de05750815b60408051808201909152600381526203078360ec1b602082015290969095509350505050565b336001600160a01b037f00000000000000000000000000000000000000000000000000000000000000001614610e3b57600080fd5b6001600c5460ff166002811115610e5457610e5461169d565b1415610e5f57600080fd5b600c805460ff191660021790556040517fb83ebe09f40e9293bdea1d6567fae3175119d3d0ff13c4b4df15994837dd7f5190600090a1565b60026000541415610ec35760405162461bcd60e51b8152600401610eba906123b7565b60405180910390fd5b6002600055336001600160a01b037f00000000000000000000000000000000000000000000000000000000000000001614610efd57600080fd5b6000600c5460ff166002811115610f1657610f1661169d565b14610f2057600080fd5b7f00000000000000000000000000000000000000000000000000000000000000006001600160a01b0316826001600160a01b03161415610f5f57600080fd5b34600954610f6d91906123f2565b600955801561107357346000908152600d60205260409020546001600160a01b0316156101cd57346000908152600d60205260408082205490516001600160a01b0390911690610fc1908590602401611cc2565b60408051601f198184030181529181526020820180516001600160e01b0316632814bc0960e21b17905251610ff6919061242c565b6000604051808303816000865af19150503d8060008114611033576040519150601f19603f3d011682016040523d82523d6000602084013e611038565b606091505b505090508061104657600080fd5b506001600160a01b0382166000908152600e60209081526040822080546001810182559083529120349101555b6001600160a01b0382166000908152600f60205260409020546110979034906123f2565b6001600160a01b0383166000818152600f60205260409081902092909255600954915190917fe76ad748537a48e778fef43dda4a6bd1b50cd62385f9f21a9ca2674923551208916110e9913491612438565b60405180910390a250506001600055565b600180546109af90611f95565b6060601080548060200260200160405190810160405280929190818152602001828054801561115557602002820191906000526020600020905b815481526020019060010190808311611141575b5050505050905090565b600680546109af90611f95565b600480546109af90611f95565b336001600160a01b037f000000000000000000000000000000000000000000000000000000000000000016146111ae57600080fd5b80516000908152600d60205260409020546001600160a01b0316156111d257600080fd5b80516010805460018101825560009182527f1b6847dc741a1b0cd08d278845f9d819d87b734759afb55fe2de5cb82a9ae672019190915560405163d52116e960e01b81526001600160a01b037f0000000000000000000000000000000000000000000000000000000000000000169063d52116e9906112799030907f0000000000000000000000000000000000000000000000000000000000000000908790600401612523565b6020604051808303816000875af1158015611298573d6000803e3d6000fd5b505050506040513d601f19601f820116820180604052508101906112bc9190612550565b91516000908152600d6020526040902080546001600160a01b0319166001600160a01b039093169290921790915550565b336001600160a01b037f0000000000000000000000000000000000000000000000000000000000000000161461132257600080fd5b624f1a008160085461133491906123f2565b1161134c578060085461134791906123f2565b611351565b624f1a005b6008819055611380907f00000000000000000000000000000000000000000000000000000000000000006123f2565b600a5550565b600260005414156113a95760405162461bcd60e51b8152600401610eba906123b7565b60026000819055604080518082019091526009548152600c549091602083019160ff16908111156113dc576113dc61169d565b90528051601190815560208201516012805460ff191660018360028111156114065761140661169d565b021790555050604051631cc535e760e21b815273__$9f85faa081bdc7133e3fbd199bfea18136$__9150637314d79c90611472907f000000000000000000000000000000000000000000000000000000000000000090601190600d90600f90600e908990600401612571565b60006040518083038186803b15801561148a57600080fd5b505af415801561149e573d6000803e3d6000fd5b50506001600055505050565b60405180610180016040528060006001600160a01b03168152602001606081526020016060815260200160608152602001606081526020016000815260200160008152602001600081526020016000600281111561150a5761150a61169d565b81526020016060815260200160608152602001600081525090565b82805461153190611f95565b90600052602060002090601f0160209004810192826115535760008555611599565b82601f1061156c57805160ff1916838001178555611599565b82800160010185558215611599579182015b8281111561159957825182559160200191906001019061157e565b506115a59291506115a9565b5090565b5b808211156115a557600081556001016115aa565b60006001600160a01b0382165b92915050565b6115da816115be565b81146115e557600080fd5b50565b80356115cb816115d1565b60006020828403121561160857611608600080fd5b600061161484846115e8565b949350505050565b805b82525050565b602081016115cb828461161c565b61161e816115be565b60005b8381101561165657818101518382015260200161163e565b83811115611665576000848401525b50505050565b6000611675825190565b80845260208401935061168c81856020860161163b565b601f01601f19169290920192915050565b634e487b7160e01b600052602160045260246000fd5b600381106115e5576115e561169d565b806116cd816116b3565b919050565b60006115cb826116c3565b61161e816116d2565b80516000906101808401906116fb8582611632565b5060208301518482036020860152611713828261166b565b9150506040830151848203604086015261172d828261166b565b91505060608301518482036060860152611747828261166b565b91505060808301518482036080860152611761828261166b565b91505060a083015161177660a086018261161c565b5060c083015161178960c086018261161c565b5060e083015161179c60e086018261161c565b506101008301516117b16101008601826116dd565b506101208301518482036101208601526117cb828261166b565b9150506101408301518482036101408601526117e7828261166b565b9150506101608301516117fe61016086018261161c565b509392505050565b60208082528101610b3a81846116e6565b60208082528101610b3a818461166b565b806115da565b80356115cb81611828565b6000806040838503121561184f5761184f600080fd5b600061185b85856115e8565b925050602061186c8582860161182e565b9150509250929050565b60006020828403121561188b5761188b600080fd5b6000611614848461182e565b6000610b3a838361166b565b60006118ad825190565b808452602084019350836020820285016118c78560200190565b8060005b858110156118fc57848403895281516118e48582611897565b94506020830160209a909a01999250506001016118cb565b5091979650505050505050565b80151561161e565b600061191d8383611632565b505060200190565b600061192f825190565b80845260209384019383018060005b838110156119635781516119528882611911565b97506020830192505060010161193e565b509495945050505050565b8051600090610160840190611983858261161c565b506020830151848203602086015261199b828261166b565b915050604083015184820360408601526119b5828261166b565b915050606083015184820360608601526119cf828261166b565b915050608083015184820360808601526119e982826118a3565b91505060a08301516119fe60a086018261161c565b5060c0830151611a1160c086018261161c565b5060e0830151611a2460e0860182611909565b50610100830151848203610100860152611a3e82826118a3565b915050610120830151848203610120860152611a5a8282611925565b915050610140830151848203610140860152611a76828261166b565b95945050505050565b60208082528101610b3a818461196e565b60008083601f840112611aa557611aa5600080fd5b5081356001600160401b03811115611abf57611abf600080fd5b602083019150836001820283011115611ada57611ada600080fd5b9250929050565b60008060208385031215611af757611af7600080fd5b82356001600160401b03811115611b1057611b10600080fd5b611b1c85828601611a90565b92509250509250929050565b634e487b7160e01b600052604160045260246000fd5b601f19601f83011681018181106001600160401b0382111715611b6357611b63611b28565b6040525050565b6000611b7560405190565b90506116cd8282611b3e565b60006001600160401b03821115611b9a57611b9a611b28565b601f19601f83011660200192915050565b82818337506000910152565b6000611bca611bc584611b81565b611b6a565b905082815260208101848484011115611be557611be5600080fd5b6117fe848285611bab565b600082601f830112611c0457611c04600080fd5b8135611614848260208601611bb7565b600060208284031215611c2957611c29600080fd5b81356001600160401b03811115611c4257611c42600080fd5b61161484828501611bf0565b602081016115cb82846116dd565b60408101611c6a8285611909565b8181036020830152611614818461166b565b8015156115da565b80356115cb81611c7c565b60008060408385031215611ca557611ca5600080fd5b6000611cb185856115e8565b925050602061186c85828601611c84565b602081016115cb8284611632565b600061191d838361161c565b6000611ce6825190565b80845260209384019383018060005b83811015611963578151611d098882611cd0565b975060208301925050600101611cf5565b60208082528101610b3a8184611cdc565b60006001600160401b03821115611d4457611d44611b28565b5060209081020190565b6000611d5c611bc584611d2b565b83815290506020808201908402830185811115611d7b57611d7b600080fd5b835b81811015611dbb5780356001600160401b03811115611d9e57611d9e600080fd5b808601611dab8982611bf0565b8552505060209283019201611d7d565b5050509392505050565b600082601f830112611dd957611dd9600080fd5b8135611614848260208601611d4e565b60006101208284031215611dff57611dff600080fd5b611e0a610120611b6a565b90506000611e18848461182e565b82525060208201356001600160401b03811115611e3757611e37600080fd5b611e4384828501611bf0565b60208301525060408201356001600160401b03811115611e6557611e65600080fd5b611e7184828501611bf0565b60408301525060608201356001600160401b03811115611e9357611e93600080fd5b611e9f84828501611bf0565b60608301525060808201356001600160401b03811115611ec157611ec1600080fd5b611ecd84828501611dc5565b60808301525060a0611ee18482850161182e565b60a08301525060c0611ef58482850161182e565b60c08301525060e0611f0984828501611c84565b60e0830152506101008201356001600160401b03811115611f2c57611f2c600080fd5b611f3884828501611dc5565b6101008301525092915050565b600060208284031215611f5a57611f5a600080fd5b81356001600160401b03811115611f7357611f73600080fd5b61161484828501611de9565b634e487b7160e01b600052602260045260246000fd5b600281046001821680611fa957607f821691505b60208210811415611fbc57611fbc611f7f565b50919050565b80516115cb81611828565b6000611fdb611bc584611b81565b905082815260208101848484011115611ff657611ff6600080fd5b6117fe84828561163b565b600082601f83011261201557612015600080fd5b8151611614848260208601611fcd565b6000612033611bc584611d2b565b8381529050602080820190840283018581111561205257612052600080fd5b835b81811015611dbb5780516001600160401b0381111561207557612075600080fd5b8086016120828982612001565b8552505060209283019201612054565b600082601f8301126120a6576120a6600080fd5b8151611614848260208601612025565b80516115cb81611c7c565b80516115cb816115d1565b60006120da611bc584611d2b565b838152905060208082019084028301858111156120f9576120f9600080fd5b835b81811015611dbb578061210e88826120c1565b845250602092830192016120fb565b600082601f83011261213157612131600080fd5b81516116148482602086016120cc565b6000610160828403121561215757612157600080fd5b612162610160611b6a565b905060006121708484611fc2565b82525060208201516001600160401b0381111561218f5761218f600080fd5b61219b84828501612001565b60208301525060408201516001600160401b038111156121bd576121bd600080fd5b6121c984828501612001565b60408301525060608201516001600160401b038111156121eb576121eb600080fd5b6121f784828501612001565b60608301525060808201516001600160401b0381111561221957612219600080fd5b61222584828501612092565b60808301525060a061223984828501611fc2565b60a08301525060c061224d84828501611fc2565b60c08301525060e0612261848285016120b6565b60e0830152506101008201516001600160401b0381111561228457612284600080fd5b61229084828501612092565b610100830152506101208201516001600160401b038111156122b4576122b4600080fd5b6122c08482850161211d565b610120830152506101408201516001600160401b038111156122e4576122e4600080fd5b6122f084828501612001565b6101408301525092915050565b60006020828403121561231257612312600080fd5b81516001600160401b0381111561232b5761232b600080fd5b61161484828501612141565b6000816115cb565b60006001600160a01b0382166115cb565b60006115cb8261233f565b60006115cb82612350565b61161e8161235b565b6040810161237d8285612366565b610b3a6020830184611632565b634e487b7160e01b600052601160045260246000fd5b6000828210156123b2576123b261238a565b500390565b602080825281016115cb81601f81527f5265656e7472616e637947756172643a207265656e7472616e742063616c6c00602082015260400190565b600082198211156124055761240561238a565b500190565b6000612414825190565b61242281856020860161163b565b9290920192915050565b6000610b3a828461240a565b60408101612446828561161c565b610b3a602083018461161c565b8051600090610120840190612468858261161c565b5060208301518482036020860152612480828261166b565b9150506040830151848203604086015261249a828261166b565b915050606083015184820360608601526124b4828261166b565b915050608083015184820360808601526124ce82826118a3565b91505060a08301516124e360a086018261161c565b5060c08301516124f660c086018261161c565b5060e083015161250960e0860182611909565b50610100830151848203610100860152611a7682826118a3565b606081016125318286611632565b61253e6020830185612366565b8181036040830152611a768184612453565b60006020828403121561256557612565600080fd5b600061161484846120c1565b60c0810161257f8289611632565b61258b60208301889052565b61259760408301879052565b6125a360608301869052565b6125af60808301859052565b6125bc60a0830184611632565b97965050505050505056fea264697066735822122025f472d3c2cb979b114d2c88ae9a967e2ba6fa9b048703b7397c6eedc0c43b0d64736f6c634300080b0033a26469706673582212200223d3c10eb36d67ff2a3239215022bd3921ee5e8e194948c649ef6cd7204d7d64736f6c634300080b0033",
  "libraries": {
    "RefunderLib": "0x0E54C27E60cd49932A4FB8E7699ba566806ac486"
  },
  "devdoc": {
    "kind": "dev",
    "methods": {},
    "version": 1
  },
  "userdoc": {
    "kind": "user",
    "methods": {},
    "version": 1
  },
  "storageLayout": {
    "storage": [],
    "types": null
  }
}