{
  "address": "0xB786D61182E09E64535098281DADf52811900C7e",
  "abi": [
    {
      "anonymous": false,
      "inputs": [
        {
          "indexed": true,
          "internalType": "address",
          "name": "_campaignAddress",
          "type": "address"
        },
        {
          "indexed": true,
          "internalType": "address",
          "name": "_creator",
          "type": "address"
        },
        {
          "indexed": false,
          "internalType": "string",
          "name": "_title",
          "type": "string"
        },
        {
          "indexed": false,
          "internalType": "string",
          "name": "_description",
          "type": "string"
        },
        {
          "indexed": false,
          "internalType": "string",
          "name": "_category",
          "type": "string"
        },
        {
          "indexed": false,
          "internalType": "string",
          "name": "_tags",
          "type": "string"
        },
        {
          "indexed": false,
          "internalType": "string",
          "name": "_imageURI",
          "type": "string"
        }
      ],
      "name": "CampaignAdded",
      "type": "event"
    },
    {
      "anonymous": false,
      "inputs": [
        {
          "indexed": true,
          "internalType": "address",
          "name": "_funder",
          "type": "address"
        },
        {
          "indexed": true,
          "internalType": "address",
          "name": "_campaignAddress",
          "type": "address"
        },
        {
          "indexed": false,
          "internalType": "uint256",
          "name": "_val",
          "type": "uint256"
        },
        {
          "indexed": true,
          "internalType": "address",
          "name": "_c_creator",
          "type": "address"
        }
      ],
      "name": "CampaignFunded",
      "type": "event"
    },
    {
      "anonymous": false,
      "inputs": [
        {
          "indexed": false,
          "internalType": "address",
          "name": "_campaignAddress",
          "type": "address"
        },
        {
          "indexed": false,
          "internalType": "address",
          "name": "_creator",
          "type": "address"
        }
      ],
      "name": "CampaignPublished",
      "type": "event"
    },
    {
      "anonymous": false,
      "inputs": [
        {
          "indexed": true,
          "internalType": "address",
          "name": "_campaignAddress",
          "type": "address"
        }
      ],
      "name": "CampaignRemoved",
      "type": "event"
    },
    {
      "anonymous": false,
      "inputs": [
        {
          "indexed": true,
          "internalType": "address",
          "name": "_withdrawer",
          "type": "address"
        },
        {
          "indexed": true,
          "internalType": "address",
          "name": "_campaignAddress",
          "type": "address"
        },
        {
          "indexed": false,
          "internalType": "uint256",
          "name": "_val",
          "type": "uint256"
        },
        {
          "indexed": true,
          "internalType": "address",
          "name": "_c_creator",
          "type": "address"
        }
      ],
      "name": "CampaignShrunk",
      "type": "event"
    },
    {
      "anonymous": false,
      "inputs": [
        {
          "indexed": true,
          "internalType": "address",
          "name": "_address",
          "type": "address"
        },
        {
          "indexed": false,
          "internalType": "string",
          "name": "_username",
          "type": "string"
        },
        {
          "indexed": false,
          "internalType": "string",
          "name": "_email",
          "type": "string"
        },
        {
          "indexed": false,
          "internalType": "string",
          "name": "_shipAddress",
          "type": "string"
        },
        {
          "indexed": false,
          "internalType": "string",
          "name": "_pfp",
          "type": "string"
        }
      ],
      "name": "UserAdded",
      "type": "event"
    },
    {
      "inputs": [
        {
          "internalType": "string",
          "name": "_title",
          "type": "string"
        },
        {
          "internalType": "string",
          "name": "_description",
          "type": "string"
        },
        {
          "internalType": "string",
          "name": "_category",
          "type": "string"
        },
        {
          "internalType": "string",
          "name": "_tags",
          "type": "string"
        },
        {
          "internalType": "uint256",
          "name": "_goalAmount",
          "type": "uint256"
        },
        {
          "internalType": "uint256",
          "name": "_duration",
          "type": "uint256"
        },
        {
          "internalType": "string",
          "name": "_imageURI",
          "type": "string"
        }
      ],
      "name": "addCampaign",
      "outputs": [],
      "stateMutability": "nonpayable",
      "type": "function"
    },
    {
      "inputs": [
        {
          "internalType": "address",
          "name": "_address",
          "type": "address"
        },
        {
          "internalType": "string",
          "name": "_username",
          "type": "string"
        },
        {
          "internalType": "string",
          "name": "_email",
          "type": "string"
        },
        {
          "internalType": "string",
          "name": "_shipAddress",
          "type": "string"
        },
        {
          "internalType": "string",
          "name": "_pfp",
          "type": "string"
        }
      ],
      "name": "addUser",
      "outputs": [],
      "stateMutability": "nonpayable",
      "type": "function"
    },
    {
      "inputs": [],
      "name": "campaignCounter",
      "outputs": [
        {
          "internalType": "uint256",
          "name": "",
          "type": "uint256"
        }
      ],
      "stateMutability": "view",
      "type": "function"
    },
    {
      "inputs": [
        {
          "internalType": "address",
          "name": "_campaignAddress",
          "type": "address"
        }
      ],
      "name": "donateToCampaign",
      "outputs": [],
      "stateMutability": "payable",
      "type": "function"
    },
    {
      "inputs": [
        {
          "internalType": "address",
          "name": "_campaignAddress",
          "type": "address"
        },
        {
          "internalType": "address",
          "name": "_upkeepCreator",
          "type": "address"
        },
        {
          "internalType": "address",
          "name": "_linkToken",
          "type": "address"
        }
      ],
      "name": "publishCampaign",
      "outputs": [],
      "stateMutability": "nonpayable",
      "type": "function"
    },
    {
      "inputs": [
        {
          "internalType": "address",
          "name": "_campaignAddress",
          "type": "address"
        }
      ],
      "name": "refundFromCampaign",
      "outputs": [],
      "stateMutability": "nonpayable",
      "type": "function"
    },
    {
      "inputs": [
        {
          "internalType": "address",
          "name": "_campaignAddress",
          "type": "address"
        }
      ],
      "name": "removeCampaign",
      "outputs": [],
      "stateMutability": "nonpayable",
      "type": "function"
    }
  ],
  "transactionHash": "0xb24cc3ef10ab7dfd95e88adb917f5eee801dea960871bb12a1fe62181656ddcb",
  "args": [],
  "numDeployments": 12,
  "solcInputHash": "bac35378d91f2255e88274ff16fcaef2",
  "bytecode": "0x608060405234801561001057600080fd5b50615cd2806100206000396000f3fe6080604052600436106200007a5760003560e01c8063cd274a401162000055578063cd274a4014620000fb578063e4663a5b1462000129578063fab62a1d1462000157578063fca604d71462000185576200007a565b80637c6abc82146200007f578063ac3d15fb146200009f578063bbfade3e14620000cd575b600080fd5b6200009d600480360381019062000097919062000e22565b620001b5565b005b348015620000ac57600080fd5b50620000cb6004803603810190620000c5919062000e22565b6200042f565b005b348015620000da57600080fd5b50620000f96004803603810190620000f391906200105a565b620007aa565b005b3480156200010857600080fd5b50620001276004803603810190620001219190620011b5565b620008fd565b005b3480156200013657600080fd5b506200015560048036038101906200014f919062000e22565b6200095a565b005b3480156200016457600080fd5b506200018360048036038101906200017d9190620012b9565b62000c0a565b005b3480156200019257600080fd5b506200019d62000d7d565b604051620001ac919062001326565b60405180910390f35b6000600160008373ffffffffffffffffffffffffffffffffffffffff1673ffffffffffffffffffffffffffffffffffffffff16815260200190815260200160002060009054906101000a900473ffffffffffffffffffffffffffffffffffffffff1673ffffffffffffffffffffffffffffffffffffffff1663b145603e6040518163ffffffff1660e01b815260040160206040518083038186803b1580156200025d57600080fd5b505afa15801562000272573d6000803e3d6000fd5b505050506040513d601f19601f8201168201806040525081019062000298919062001388565b905060008273ffffffffffffffffffffffffffffffffffffffff163433604051602401620002c79190620013cb565b6040516020818303038152906040527e362a95000000000000000000000000000000000000000000000000000000007bffffffffffffffffffffffffffffffffffffffffffffffffffffffff19166020820180517bffffffffffffffffffffffffffffffffffffffffffffffffffffffff83818316178352505050506040516200035291906200146b565b60006040518083038185875af1925050503d806000811462000391576040519150601f19603f3d011682016040523d82523d6000602084013e62000396565b606091505b50509050801562000425578173ffffffffffffffffffffffffffffffffffffffff168373ffffffffffffffffffffffffffffffffffffffff163373ffffffffffffffffffffffffffffffffffffffff167f5f0f580a49a433afc0cd61faf31f545ff739f7874dd091ba39ecfd0383c8462c3460405162000417919062001326565b60405180910390a46200042a565b600080fd5b505050565b6000600160008373ffffffffffffffffffffffffffffffffffffffff1673ffffffffffffffffffffffffffffffffffffffff16815260200190815260200160002060009054906101000a900473ffffffffffffffffffffffffffffffffffffffff1673ffffffffffffffffffffffffffffffffffffffff1663b145603e6040518163ffffffff1660e01b815260040160206040518083038186803b158015620004d757600080fd5b505afa158015620004ec573d6000803e3d6000fd5b505050506040513d601f19601f8201168201806040525081019062000512919062001388565b90506000600160008473ffffffffffffffffffffffffffffffffffffffff1673ffffffffffffffffffffffffffffffffffffffff16815260200190815260200160002060009054906101000a900473ffffffffffffffffffffffffffffffffffffffff1673ffffffffffffffffffffffffffffffffffffffff166309917c50336040518263ffffffff1660e01b8152600401620005b09190620013cb565b60206040518083038186803b158015620005c957600080fd5b505afa158015620005de573d6000803e3d6000fd5b505050506040513d601f19601f820116820180604052508101906200060491906200149b565b9050600081116200061457600080fd5b60008373ffffffffffffffffffffffffffffffffffffffff1633604051602401620006409190620013cb565b6040516020818303038152906040527ffa89401a000000000000000000000000000000000000000000000000000000007bffffffffffffffffffffffffffffffffffffffffffffffffffffffff19166020820180517bffffffffffffffffffffffffffffffffffffffffffffffffffffffff8381831617835250505050604051620006cc91906200146b565b6000604051808303816000865af19150503d80600081146200070b576040519150601f19603f3d011682016040523d82523d6000602084013e62000710565b606091505b5050905080156200079f578273ffffffffffffffffffffffffffffffffffffffff168473ffffffffffffffffffffffffffffffffffffffff163373ffffffffffffffffffffffffffffffffffffffff167fe627e40c5979c5da4cf94d4b3ce15ce68a4103b1480ec047eec9736d39a0123d8560405162000791919062001326565b60405180910390a4620007a4565b600080fd5b50505050565b600030338c8c8c8c8c8c8c8c8c8c604051620007c69062000d9b565b620007dd9c9b9a99989796959493929190620015c8565b604051809103906000f080158015620007fa573d6000803e3d6000fd5b50905080600160008373ffffffffffffffffffffffffffffffffffffffff1673ffffffffffffffffffffffffffffffffffffffff16815260200190815260200160002060006101000a81548173ffffffffffffffffffffffffffffffffffffffff021916908373ffffffffffffffffffffffffffffffffffffffff1602179055503373ffffffffffffffffffffffffffffffffffffffff168173ffffffffffffffffffffffffffffffffffffffff167fce55db2394471943657aaa63a10999909b55d5948702c94255bb9ba41ad07e288d8d8d8d8d8d8b8b604051620008e898979695949392919062001690565b60405180910390a35050505050505050505050565b8473ffffffffffffffffffffffffffffffffffffffff167f10bb073e1ce0977d8bf7b641de8a59b02dd9c9d1c4badc9b30e5a48ac9fc8cb9858585856040516200094b949392919062001716565b60405180910390a25050505050565b3373ffffffffffffffffffffffffffffffffffffffff16600160008373ffffffffffffffffffffffffffffffffffffffff1673ffffffffffffffffffffffffffffffffffffffff16815260200190815260200160002060009054906101000a900473ffffffffffffffffffffffffffffffffffffffff1673ffffffffffffffffffffffffffffffffffffffff1663b145603e6040518163ffffffff1660e01b815260040160206040518083038186803b15801562000a1757600080fd5b505afa15801562000a2c573d6000803e3d6000fd5b505050506040513d601f19601f8201168201806040525081019062000a52919062001388565b73ffffffffffffffffffffffffffffffffffffffff161462000a7357600080fd5b6000600160008373ffffffffffffffffffffffffffffffffffffffff1673ffffffffffffffffffffffffffffffffffffffff16815260200190815260200160002060009054906101000a900473ffffffffffffffffffffffffffffffffffffffff1673ffffffffffffffffffffffffffffffffffffffff1663ce845d1d6040518163ffffffff1660e01b815260040160206040518083038186803b15801562000b1b57600080fd5b505afa15801562000b30573d6000803e3d6000fd5b505050506040513d601f19601f8201168201806040525081019062000b5691906200149b565b111562000b6257600080fd5b600160008273ffffffffffffffffffffffffffffffffffffffff1673ffffffffffffffffffffffffffffffffffffffff16815260200190815260200160002060006101000a81549073ffffffffffffffffffffffffffffffffffffffff02191690558073ffffffffffffffffffffffffffffffffffffffff167fd41d62ed7a46b1f2f4c0a4c0fa40c95bbe14a7d55034ff9817b743d6cb79353660405160405180910390a250565b60008373ffffffffffffffffffffffffffffffffffffffff1683838660405160240162000c3a939291906200177f565b6040516020818303038152906040527f5f700266000000000000000000000000000000000000000000000000000000007bffffffffffffffffffffffffffffffffffffffffffffffffffffffff19166020820180517bffffffffffffffffffffffffffffffffffffffffffffffffffffffff838183161783525050505060405162000cc691906200146b565b600060405180830381855af49150503d806000811462000d03576040519150601f19603f3d011682016040523d82523d6000602084013e62000d08565b606091505b50509050801562000d725762000d2b600160005462000d8390919063ffffffff16565b6000819055507f4ee76a1c89ccbef26f098ac48c95b7da87fe34749fea8758a71a3dc4ccc28bcd843360405162000d64929190620017bc565b60405180910390a162000d77565b600080fd5b50505050565b60005481565b6000818362000d93919062001818565b905092915050565b614427806200187683390190565b6000604051905090565b600080fd5b600080fd5b600073ffffffffffffffffffffffffffffffffffffffff82169050919050565b600062000dea8262000dbd565b9050919050565b62000dfc8162000ddd565b811462000e0857600080fd5b50565b60008135905062000e1c8162000df1565b92915050565b60006020828403121562000e3b5762000e3a62000db3565b5b600062000e4b8482850162000e0b565b91505092915050565b600080fd5b600080fd5b600080fd5b60008083601f84011262000e7c5762000e7b62000e54565b5b8235905067ffffffffffffffff81111562000e9c5762000e9b62000e59565b5b60208301915083600182028301111562000ebb5762000eba62000e5e565b5b9250929050565b600080fd5b6000601f19601f8301169050919050565b7f4e487b7100000000000000000000000000000000000000000000000000000000600052604160045260246000fd5b62000f128262000ec7565b810181811067ffffffffffffffff8211171562000f345762000f3362000ed8565b5b80604052505050565b600062000f4962000da9565b905062000f57828262000f07565b919050565b600067ffffffffffffffff82111562000f7a5762000f7962000ed8565b5b62000f858262000ec7565b9050602081019050919050565b82818337600083830152505050565b600062000fb862000fb28462000f5c565b62000f3d565b90508281526020810184848401111562000fd75762000fd662000ec2565b5b62000fe484828562000f92565b509392505050565b600082601f83011262001004576200100362000e54565b5b81356200101684826020860162000fa1565b91505092915050565b6000819050919050565b62001034816200101f565b81146200104057600080fd5b50565b600081359050620010548162001029565b92915050565b60008060008060008060008060008060e08b8d03121562001080576200107f62000db3565b5b60008b013567ffffffffffffffff811115620010a157620010a062000db8565b5b620010af8d828e0162000e63565b9a509a505060208b013567ffffffffffffffff811115620010d557620010d462000db8565b5b620010e38d828e0162000e63565b985098505060408b013567ffffffffffffffff81111562001109576200110862000db8565b5b620011178d828e0162000fec565b96505060608b013567ffffffffffffffff8111156200113b576200113a62000db8565b5b620011498d828e0162000fec565b95505060806200115c8d828e0162001043565b94505060a06200116f8d828e0162001043565b93505060c08b013567ffffffffffffffff81111562001193576200119262000db8565b5b620011a18d828e0162000e63565b92509250509295989b9194979a5092959850565b600080600080600060a08688031215620011d457620011d362000db3565b5b6000620011e48882890162000e0b565b955050602086013567ffffffffffffffff81111562001208576200120762000db8565b5b620012168882890162000fec565b945050604086013567ffffffffffffffff8111156200123a576200123962000db8565b5b620012488882890162000fec565b935050606086013567ffffffffffffffff8111156200126c576200126b62000db8565b5b6200127a8882890162000fec565b925050608086013567ffffffffffffffff8111156200129e576200129d62000db8565b5b620012ac8882890162000fec565b9150509295509295909350565b600080600060608486031215620012d557620012d462000db3565b5b6000620012e58682870162000e0b565b9350506020620012f88682870162000e0b565b92505060406200130b8682870162000e0b565b9150509250925092565b62001320816200101f565b82525050565b60006020820190506200133d600083018462001315565b92915050565b6000620013508262000dbd565b9050919050565b620013628162001343565b81146200136e57600080fd5b50565b600081519050620013828162001357565b92915050565b600060208284031215620013a157620013a062000db3565b5b6000620013b18482850162001371565b91505092915050565b620013c58162000ddd565b82525050565b6000602082019050620013e26000830184620013ba565b92915050565b600081519050919050565b600081905092915050565b60005b838110156200141e57808201518184015260208101905062001401565b838111156200142e576000848401525b50505050565b60006200144182620013e8565b6200144d8185620013f3565b93506200145f818560208601620013fe565b80840191505092915050565b600062001479828462001434565b915081905092915050565b600081519050620014958162001029565b92915050565b600060208284031215620014b457620014b362000db3565b5b6000620014c48482850162001484565b91505092915050565b6000819050919050565b6000620014f8620014f2620014ec8462000dbd565b620014cd565b62000dbd565b9050919050565b60006200150c82620014d7565b9050919050565b60006200152082620014ff565b9050919050565b620015328162001513565b82525050565b600082825260208201905092915050565b600062001557838562001538565b93506200156683858462000f92565b620015718362000ec7565b840190509392505050565b600081519050919050565b600062001594826200157c565b620015a0818562001538565b9350620015b2818560208601620013fe565b620015bd8162000ec7565b840191505092915050565b600061012082019050620015e0600083018f620013ba565b620015ef602083018e62001527565b818103604083015262001604818c8e62001549565b905081810360608301526200161b818a8c62001549565b9050818103608083015262001631818962001587565b905081810360a083015262001647818862001587565b90506200165860c083018762001315565b6200166760e083018662001315565b8181036101008301526200167d81848662001549565b90509d9c50505050505050505050505050565b600060a0820190508181036000830152620016ad818a8c62001549565b90508181036020830152620016c481888a62001549565b90508181036040830152620016da818762001587565b90508181036060830152620016f0818662001587565b905081810360808301526200170781848662001549565b90509998505050505050505050565b6000608082019050818103600083015262001732818762001587565b9050818103602083015262001748818662001587565b905081810360408301526200175e818562001587565b9050818103606083015262001774818462001587565b905095945050505050565b6000606082019050620017966000830186620013ba565b620017a56020830185620013ba565b620017b46040830184620013ba565b949350505050565b6000604082019050620017d36000830185620013ba565b620017e26020830184620013ba565b9392505050565b7f4e487b7100000000000000000000000000000000000000000000000000000000600052601160045260246000fd5b600062001825826200101f565b915062001832836200101f565b9250827fffffffffffffffffffffffffffffffffffffffffffffffffffffffffffffffff038211156200186a5762001869620017e9565b5b82820190509291505056fe60e06040526000600b60006101000a81548160ff021916908360028111156200002d576200002c62000287565b5b02179055503480156200003f57600080fd5b5060405162004427380380620044278339818101604052810190620000659190620004f3565b60016000819055508873ffffffffffffffffffffffffffffffffffffffff1660808173ffffffffffffffffffffffffffffffffffffffff1660601b815250508773ffffffffffffffffffffffffffffffffffffffff1660a08173ffffffffffffffffffffffffffffffffffffffff1660601b815250508660019080519060200190620000f3929190620001d7565b5085600290805190602001906200010c929190620001d7565b50846003908051906020019062000125929190620001d7565b5083600690805190602001906200013e929190620001d7565b50826007819055504260c08181525050624f1a00821162000160578162000165565b624f1a005b6008819055506200018960085460c051620001bf60201b620024cb1790919060201c565b600a819055508060049080519060200190620001a7929190620001d7565b5060006009819055505050505050505050506200075e565b60008183620001cf91906200069c565b905092915050565b828054620001e59062000728565b90600052602060002090601f01602090048101928262000209576000855562000255565b82601f106200022457805160ff191683800117855562000255565b8280016001018555821562000255579182015b828111156200025457825182559160200191906001019062000237565b5b50905062000264919062000268565b5090565b5b808211156200028357600081600090555060010162000269565b5090565b7f4e487b7100000000000000000000000000000000000000000000000000000000600052602160045260246000fd5b6000604051905090565b600080fd5b600080fd5b600073ffffffffffffffffffffffffffffffffffffffff82169050919050565b6000620002f782620002ca565b9050919050565b6200030981620002ea565b81146200031557600080fd5b50565b6000815190506200032981620002fe565b92915050565b600080fd5b600080fd5b6000601f19601f8301169050919050565b7f4e487b7100000000000000000000000000000000000000000000000000000000600052604160045260246000fd5b620003848262000339565b810181811067ffffffffffffffff82111715620003a657620003a56200034a565b5b80604052505050565b6000620003bb620002b6565b9050620003c9828262000379565b919050565b600067ffffffffffffffff821115620003ec57620003eb6200034a565b5b620003f78262000339565b9050602081019050919050565b60005b838110156200042457808201518184015260208101905062000407565b8381111562000434576000848401525b50505050565b6000620004516200044b84620003ce565b620003af565b90508281526020810184848401111562000470576200046f62000334565b5b6200047d84828562000404565b509392505050565b600082601f8301126200049d576200049c6200032f565b5b8151620004af8482602086016200043a565b91505092915050565b6000819050919050565b620004cd81620004b8565b8114620004d957600080fd5b50565b600081519050620004ed81620004c2565b92915050565b60008060008060008060008060006101208a8c031215620005195762000518620002c0565b5b6000620005298c828d0162000318565b99505060206200053c8c828d0162000318565b98505060408a015167ffffffffffffffff81111562000560576200055f620002c5565b5b6200056e8c828d0162000485565b97505060608a015167ffffffffffffffff811115620005925762000591620002c5565b5b620005a08c828d0162000485565b96505060808a015167ffffffffffffffff811115620005c457620005c3620002c5565b5b620005d28c828d0162000485565b95505060a08a015167ffffffffffffffff811115620005f657620005f5620002c5565b5b620006048c828d0162000485565b94505060c0620006178c828d01620004dc565b93505060e06200062a8c828d01620004dc565b9250506101008a015167ffffffffffffffff8111156200064f576200064e620002c5565b5b6200065d8c828d0162000485565b9150509295985092959850929598565b7f4e487b7100000000000000000000000000000000000000000000000000000000600052601160045260246000fd5b6000620006a982620004b8565b9150620006b683620004b8565b9250827fffffffffffffffffffffffffffffffffffffffffffffffffffffffffffffffff03821115620006ee57620006ed6200066d565b5b828201905092915050565b7f4e487b7100000000000000000000000000000000000000000000000000000000600052602260045260246000fd5b600060028204905060018216806200074157607f821691505b60208210811415620007585762000757620006f9565b5b50919050565b60805160601c60a05160601c60c051613c38620007ef60003960008181611a08015261222d01526000818161077501528181610af2015281816114f1015281816115f10152818161174201528181611822015281816118cb0152818161197c01528181611a8901528181611c8701528181611e07015261218c0152600081816106dd01526122b30152613c386000f3fe6080604052600436106101b65760003560e01c80636235887a116100ec578063bf66e2c81161008a578063ce845d1d11610064578063ce845d1d146105cd578063f301af42146105f8578063fa6ded391461063b578063fa89401a14610664576101b6565b8063bf66e2c81461054c578063c5cd507814610577578063ce2a0572146105a2576101b6565b80636e60eef7116100c65780636e60eef7146104b657806371aac7f9146104df57806399a8502d146104f6578063b145603e14610521576101b6565b80636235887a1461042457806363bd1d4a146104615780636e04ff0d14610478576101b6565b806329dcb0cf116101595780634d695bdb116101335780634d695bdb1461037c5780634ef89719146103a55780635f700266146103d057806360fa9a72146103f9576101b6565b806329dcb0cf146102fd5780634278ac8b146103285780634585e33b14610353576101b6565b80630fb5a6b4116101955780630fb5a6b41461023f57806315a46ee61461026a5780631c4b774b146102955780632636b945146102d2576101b6565b8062362a95146101bb57806309917c50146101d75780630c611f2414610214575b600080fd5b6101d560048036038101906101d09190612838565b61068d565b005b3480156101e357600080fd5b506101fe60048036038101906101f99190612838565b610ac4565b60405161020b919061287e565b60405180910390f35b34801561022057600080fd5b50610229610adc565b6040516102369190612aee565b60405180910390f35b34801561024b57600080fd5b50610254610ed6565b604051610261919061287e565b60405180910390f35b34801561027657600080fd5b5061027f610edc565b60405161028c9190612b5a565b60405180910390f35b3480156102a157600080fd5b506102bc60048036038101906102b79190612ba8565b610f6a565b6040516102c99190612e5e565b60405180910390f35b3480156102de57600080fd5b506102e76113c7565b6040516102f4919061287e565b60405180910390f35b34801561030957600080fd5b506103126113cd565b60405161031f919061287e565b60405180910390f35b34801561033457600080fd5b5061033d6113d3565b60405161034a9190612b5a565b60405180910390f35b34801561035f57600080fd5b5061037a60048036038101906103759190612ee5565b611461565b005b34801561038857600080fd5b506103a3600480360381019061039e9190613062565b6114ef565b005b3480156103b157600080fd5b506103ba611561565b6040516103c79190612b5a565b60405180910390f35b3480156103dc57600080fd5b506103f760048036038101906103f291906130ab565b6115ef565b005b34801561040557600080fd5b5061040e6117e9565b60405161041b919061310d565b60405180910390f35b34801561043057600080fd5b5061044b60048036038101906104469190612ba8565b6117fc565b604051610458919061287e565b60405180910390f35b34801561046d57600080fd5b50610476611820565b005b34801561048457600080fd5b5061049f600480360381019061049a91906131c9565b6119c0565b6040516104ad929190613276565b60405180910390f35b3480156104c257600080fd5b506104dd60048036038101906104d891906133b3565b611a87565b005b3480156104eb57600080fd5b506104f4611c85565b005b34801561050257600080fd5b5061050b611d77565b6040516105189190612b5a565b60405180910390f35b34801561052d57600080fd5b50610536611e05565b604051610543919061352a565b60405180910390f35b34801561055857600080fd5b50610561611e29565b60405161056e91906135f4565b60405180910390f35b34801561058357600080fd5b5061058c611e81565b6040516105999190612b5a565b60405180910390f35b3480156105ae57600080fd5b506105b7611f0f565b6040516105c49190612b5a565b60405180910390f35b3480156105d957600080fd5b506105e2611f9d565b6040516105ef919061287e565b60405180910390f35b34801561060457600080fd5b5061061f600480360381019061061a9190612ba8565b611fa3565b6040516106329796959493929190613616565b60405180910390f35b34801561064757600080fd5b50610662600480360381019061065d9190612ba8565b61218a565b005b34801561067057600080fd5b5061068b60048036038101906106869190612838565b612263565b005b600260005414156106d3576040517f08c379a00000000000000000000000000000000000000000000000000000000081526004016106ca906136e6565b60405180910390fd5b60026000819055507f000000000000000000000000000000000000000000000000000000000000000073ffffffffffffffffffffffffffffffffffffffff163373ffffffffffffffffffffffffffffffffffffffff161461073357600080fd5b6000600281111561074757610746612950565b5b600b60009054906101000a900460ff16600281111561076957610768612950565b5b1461077357600080fd5b7f000000000000000000000000000000000000000000000000000000000000000073ffffffffffffffffffffffffffffffffffffffff168173ffffffffffffffffffffffffffffffffffffffff1614156107cc57600080fd5b6107e1346009546124cb90919063ffffffff16565b6009819055506000600d60003481526020019081526020016000206000015411801561082e5750600d600034815260200190815260200160002060070160009054906101000a900460ff16155b1561090f576000600d600034815260200190815260200160002060060154111561090e5761087c6001600d6000348152602001908152602001600020600601546124e190919063ffffffff16565b600d600034815260200190815260200160002060060181905550600d6000348152602001908152602001600020600901819080600181540180825580915050600190039060005260206000200160009091909190916101000a81548173ffffffffffffffffffffffffffffffffffffffff021916908373ffffffffffffffffffffffffffffffffffffffff1602179055505b5b6000600d6000348152602001908152602001600020600001541180156109555750600d600034815260200190815260200160002060070160009054906101000a900460ff165b156109d257600d6000348152602001908152602001600020600901819080600181540180825580915050600190039060005260206000200160009091909190916101000a81548173ffffffffffffffffffffffffffffffffffffffff021916908373ffffffffffffffffffffffffffffffffffffffff1602179055505b610a2434600e60008473ffffffffffffffffffffffffffffffffffffffff1673ffffffffffffffffffffffffffffffffffffffff168152602001908152602001600020546124cb90919063ffffffff16565b600e60008373ffffffffffffffffffffffffffffffffffffffff1673ffffffffffffffffffffffffffffffffffffffff168152602001908152602001600020819055508073ffffffffffffffffffffffffffffffffffffffff167fe76ad748537a48e778fef43dda4a6bd1b50cd62385f9f21a9ca267492355120834600954604051610ab1929190613706565b60405180910390a2600160008190555050565b600e6020528060005260406000206000915090505481565b610ae46124f7565b6040518061018001604052807f000000000000000000000000000000000000000000000000000000000000000073ffffffffffffffffffffffffffffffffffffffff16815260200160018054610b399061375e565b80601f0160208091040260200160405190810160405280929190818152602001828054610b659061375e565b8015610bb25780601f10610b8757610100808354040283529160200191610bb2565b820191906000526020600020905b815481529060010190602001808311610b9557829003601f168201915b5050505050815260200160028054610bc99061375e565b80601f0160208091040260200160405190810160405280929190818152602001828054610bf59061375e565b8015610c425780601f10610c1757610100808354040283529160200191610c42565b820191906000526020600020905b815481529060010190602001808311610c2557829003601f168201915b5050505050815260200160038054610c599061375e565b80601f0160208091040260200160405190810160405280929190818152602001828054610c859061375e565b8015610cd25780601f10610ca757610100808354040283529160200191610cd2565b820191906000526020600020905b815481529060010190602001808311610cb557829003601f168201915b5050505050815260200160068054610ce99061375e565b80601f0160208091040260200160405190810160405280929190818152602001828054610d159061375e565b8015610d625780601f10610d3757610100808354040283529160200191610d62565b820191906000526020600020905b815481529060010190602001808311610d4557829003601f168201915b50505050508152602001600754815260200160085481526020016009548152602001600b60009054906101000a900460ff166002811115610da657610da5612950565b5b815260200160048054610db89061375e565b80601f0160208091040260200160405190810160405280929190818152602001828054610de49061375e565b8015610e315780601f10610e0657610100808354040283529160200191610e31565b820191906000526020600020905b815481529060010190602001808311610e1457829003601f168201915b5050505050815260200160058054610e489061375e565b80601f0160208091040260200160405190810160405280929190818152602001828054610e749061375e565b8015610ec15780601f10610e9657610100808354040283529160200191610ec1565b820191906000526020600020905b815481529060010190602001808311610ea457829003601f168201915b50505050508152602001600a54815250905090565b60085481565b60058054610ee99061375e565b80601f0160208091040260200160405190810160405280929190818152602001828054610f159061375e565b8015610f625780601f10610f3757610100808354040283529160200191610f62565b820191906000526020600020905b815481529060010190602001808311610f4557829003601f168201915b505050505081565b610f72612580565b600d60008381526020019081526020016000206040518061014001604052908160008201548152602001600182018054610fab9061375e565b80601f0160208091040260200160405190810160405280929190818152602001828054610fd79061375e565b80156110245780601f10610ff957610100808354040283529160200191611024565b820191906000526020600020905b81548152906001019060200180831161100757829003601f168201915b5050505050815260200160028201805461103d9061375e565b80601f01602080910402602001604051908101604052809291908181526020018280546110699061375e565b80156110b65780601f1061108b576101008083540402835291602001916110b6565b820191906000526020600020905b81548152906001019060200180831161109957829003601f168201915b505050505081526020016003820180546110cf9061375e565b80601f01602080910402602001604051908101604052809291908181526020018280546110fb9061375e565b80156111485780601f1061111d57610100808354040283529160200191611148565b820191906000526020600020905b81548152906001019060200180831161112b57829003601f168201915b5050505050815260200160048201805480602002602001604051908101604052809291908181526020016000905b828210156112225783829060005260206000200180546111959061375e565b80601f01602080910402602001604051908101604052809291908181526020018280546111c19061375e565b801561120e5780601f106111e35761010080835404028352916020019161120e565b820191906000526020600020905b8154815290600101906020018083116111f157829003601f168201915b505050505081526020019060010190611176565b50505050815260200160058201548152602001600682015481526020016007820160009054906101000a900460ff1615151515815260200160088201805480602002602001604051908101604052809291908181526020016000905b8282101561132a57838290600052602060002001805461129d9061375e565b80601f01602080910402602001604051908101604052809291908181526020018280546112c99061375e565b80156113165780601f106112eb57610100808354040283529160200191611316565b820191906000526020600020905b8154815290600101906020018083116112f957829003601f168201915b50505050508152602001906001019061127e565b505050508152602001600982018054806020026020016040519081016040528092919081815260200182805480156113b757602002820191906000526020600020905b8160009054906101000a900473ffffffffffffffffffffffffffffffffffffffff1673ffffffffffffffffffffffffffffffffffffffff168152602001906001019080831161136d575b5050505050815250509050919050565b60075481565b600a5481565b600380546113e09061375e565b80601f016020809104026020016040519081016040528092919081815260200182805461140c9061375e565b80156114595780601f1061142e57610100808354040283529160200191611459565b820191906000526020600020905b81548152906001019060200180831161143c57829003601f168201915b505050505081565b600061147b604051806020016040528060008152506119c0565b5090508061148857600080fd5b6001600b60006101000a81548160ff021916908360028111156114ae576114ad612950565b5b02179055507f5cf8cd2bd40f758a95257bed666285eb82801f1bf9223b8ec1481e510ba2e82d306040516114e2919061379f565b60405180910390a1505050565b7f000000000000000000000000000000000000000000000000000000000000000073ffffffffffffffffffffffffffffffffffffffff163373ffffffffffffffffffffffffffffffffffffffff161461154757600080fd5b806005908051906020019061155d9291906125d5565b5050565b6002805461156e9061375e565b80601f016020809104026020016040519081016040528092919081815260200182805461159a9061375e565b80156115e75780601f106115bc576101008083540402835291602001916115e7565b820191906000526020600020905b8154815290600101906020018083116115ca57829003601f168201915b505050505081565b7f000000000000000000000000000000000000000000000000000000000000000073ffffffffffffffffffffffffffffffffffffffff163373ffffffffffffffffffffffffffffffffffffffff161461164757600080fd5b6000839050600083905060008173ffffffffffffffffffffffffffffffffffffffff166370a08231876040518263ffffffff1660e01b815260040161168c919061379f565b60206040518083038186803b1580156116a457600080fd5b505afa1580156116b8573d6000803e3d6000fd5b505050506040513d601f19601f820116820180604052508101906116dc91906137cf565b141561171d576040517f08c379a000000000000000000000000000000000000000000000000000000000815260040161171490613848565b60405180910390fd5b8173ffffffffffffffffffffffffffffffffffffffff16634c7e9be36001856207a1207f0000000000000000000000000000000000000000000000000000000000000000671bc16d674ec800006040518663ffffffff1660e01b815260040161178a959493929190613a46565b602060405180830381600087803b1580156117a457600080fd5b505af11580156117b8573d6000803e3d6000fd5b505050506040513d601f19601f820116820180604052508101906117dc91906137cf565b600c819055505050505050565b600b60009054906101000a900460ff1681565b600f818154811061180c57600080fd5b906000526020600020016000915090505481565b7f000000000000000000000000000000000000000000000000000000000000000073ffffffffffffffffffffffffffffffffffffffff163373ffffffffffffffffffffffffffffffffffffffff161461187857600080fd5b6001600281111561188c5761188b612950565b5b600b60009054906101000a900460ff1660028111156118ae576118ad612950565b5b146118b857600080fd5b60006009549050600060098190555060007f000000000000000000000000000000000000000000000000000000000000000073ffffffffffffffffffffffffffffffffffffffff168260405161190d90613b0b565b60006040518083038185875af1925050503d806000811461194a576040519150601f19603f3d011682016040523d82523d6000602084013e61194f565b606091505b5050905080156119b7577fba5e837743d81ad0e6deb16089dbb65b549fdda8ad802fd8d4822884d70dc8b27f0000000000000000000000000000000000000000000000000000000000000000306040516119aa929190613b20565b60405180910390a16119bc565b600080fd5b5050565b6000606060008060028111156119d9576119d8612950565b5b600b60009054906101000a900460ff1660028111156119fb576119fa612950565b5b1490506000600854611a367f0000000000000000000000000000000000000000000000000000000000000000426124e190919063ffffffff16565b119050808015611a435750815b9350836040518060400160405280600381526020017f3078300000000000000000000000000000000000000000000000000000000000815250935093505050915091565b7f000000000000000000000000000000000000000000000000000000000000000073ffffffffffffffffffffffffffffffffffffffff163373ffffffffffffffffffffffffffffffffffffffff1614611adf57600080fd5b6000600d60008b81526020019081526020016000206000015414611b0257600080fd5b600f89908060018154018082558091505060019003906000526020600020016000909190919091505560606040518061014001604052808b81526020018a8152602001898152602001888152602001878152602001868152602001858152602001841515815260200183815260200182815250600d60008c8152602001908152602001600020600082015181600001556020820151816001019080519060200190611bae9291906125d5565b506040820151816002019080519060200190611bcb9291906125d5565b506060820151816003019080519060200190611be89291906125d5565b506080820151816004019080519060200190611c0592919061265b565b5060a0820151816005015560c0820151816006015560e08201518160070160006101000a81548160ff021916908315150217905550610100820151816008019080519060200190611c5792919061265b565b50610120820151816009019080519060200190611c759291906126bb565b5090505050505050505050505050565b7f000000000000000000000000000000000000000000000000000000000000000073ffffffffffffffffffffffffffffffffffffffff163373ffffffffffffffffffffffffffffffffffffffff1614611cdd57600080fd5b60016002811115611cf157611cf0612950565b5b600b60009054906101000a900460ff166002811115611d1357611d12612950565b5b1415611d1e57600080fd5b6002600b60006101000a81548160ff02191690836002811115611d4457611d43612950565b5b02179055507fb83ebe09f40e9293bdea1d6567fae3175119d3d0ff13c4b4df15994837dd7f5160405160405180910390a1565b60018054611d849061375e565b80601f0160208091040260200160405190810160405280929190818152602001828054611db09061375e565b8015611dfd5780601f10611dd257610100808354040283529160200191611dfd565b820191906000526020600020905b815481529060010190602001808311611de057829003601f168201915b505050505081565b7f000000000000000000000000000000000000000000000000000000000000000081565b6060600f805480602002602001604051908101604052809291908181526020018280548015611e7757602002820191906000526020600020905b815481526020019060010190808311611e63575b5050505050905090565b60068054611e8e9061375e565b80601f0160208091040260200160405190810160405280929190818152602001828054611eba9061375e565b8015611f075780601f10611edc57610100808354040283529160200191611f07565b820191906000526020600020905b815481529060010190602001808311611eea57829003601f168201915b505050505081565b60048054611f1c9061375e565b80601f0160208091040260200160405190810160405280929190818152602001828054611f489061375e565b8015611f955780601f10611f6a57610100808354040283529160200191611f95565b820191906000526020600020905b815481529060010190602001808311611f7857829003601f168201915b505050505081565b60095481565b600d602052806000526040600020600091509050806000015490806001018054611fcc9061375e565b80601f0160208091040260200160405190810160405280929190818152602001828054611ff89061375e565b80156120455780601f1061201a57610100808354040283529160200191612045565b820191906000526020600020905b81548152906001019060200180831161202857829003601f168201915b50505050509080600201805461205a9061375e565b80601f01602080910402602001604051908101604052809291908181526020018280546120869061375e565b80156120d35780601f106120a8576101008083540402835291602001916120d3565b820191906000526020600020905b8154815290600101906020018083116120b657829003601f168201915b5050505050908060030180546120e89061375e565b80601f01602080910402602001604051908101604052809291908181526020018280546121149061375e565b80156121615780601f1061213657610100808354040283529160200191612161565b820191906000526020600020905b81548152906001019060200180831161214457829003601f168201915b5050505050908060050154908060060154908060070160009054906101000a900460ff16905087565b7f000000000000000000000000000000000000000000000000000000000000000073ffffffffffffffffffffffffffffffffffffffff163373ffffffffffffffffffffffffffffffffffffffff16146121e257600080fd5b624f1a006121fb826008546124cb90919063ffffffff16565b1161221a57612215816008546124cb90919063ffffffff16565b61221f565b624f1a005b60088190555061225a6008547f00000000000000000000000000000000000000000000000000000000000000006124cb90919063ffffffff16565b600a8190555050565b600260005414156122a9576040517f08c379a00000000000000000000000000000000000000000000000000000000081526004016122a0906136e6565b60405180910390fd5b60026000819055507f000000000000000000000000000000000000000000000000000000000000000073ffffffffffffffffffffffffffffffffffffffff163373ffffffffffffffffffffffffffffffffffffffff161461230957600080fd5b6001600281111561231d5761231c612950565b5b600b60009054906101000a900460ff16600281111561233f5761233e612950565b5b141561234a57600080fd5b6000600e60008373ffffffffffffffffffffffffffffffffffffffff1673ffffffffffffffffffffffffffffffffffffffff16815260200190815260200160002054141561239757600080fd5b6000600e60008373ffffffffffffffffffffffffffffffffffffffff1673ffffffffffffffffffffffffffffffffffffffff1681526020019081526020016000205490508060095410156123ea57600080fd5b6123ff816009546124e190919063ffffffff16565b60098190555060008273ffffffffffffffffffffffffffffffffffffffff168260405161242b90613b0b565b60006040518083038185875af1925050503d8060008114612468576040519150601f19603f3d011682016040523d82523d6000602084013e61246d565b606091505b505090508061247b57600080fd5b600e60008473ffffffffffffffffffffffffffffffffffffffff1673ffffffffffffffffffffffffffffffffffffffff168152602001908152602001600020600090555050600160008190555050565b600081836124d99190613b78565b905092915050565b600081836124ef9190613bce565b905092915050565b604051806101800160405280600073ffffffffffffffffffffffffffffffffffffffff168152602001606081526020016060815260200160608152602001606081526020016000815260200160008152602001600081526020016000600281111561256557612564612950565b5b81526020016060815260200160608152602001600081525090565b6040518061014001604052806000815260200160608152602001606081526020016060815260200160608152602001600081526020016000815260200160001515815260200160608152602001606081525090565b8280546125e19061375e565b90600052602060002090601f016020900481019282612603576000855561264a565b82601f1061261c57805160ff191683800117855561264a565b8280016001018555821561264a579182015b8281111561264957825182559160200191906001019061262e565b5b5090506126579190612745565b5090565b8280548282559060005260206000209081019282156126aa579160200282015b828111156126a95782518290805190602001906126999291906125d5565b509160200191906001019061267b565b5b5090506126b79190612762565b5090565b828054828255906000526020600020908101928215612734579160200282015b828111156127335782518260006101000a81548173ffffffffffffffffffffffffffffffffffffffff021916908373ffffffffffffffffffffffffffffffffffffffff160217905550916020019190600101906126db565b5b5090506127419190612745565b5090565b5b8082111561275e576000816000905550600101612746565b5090565b5b8082111561278257600081816127799190612786565b50600101612763565b5090565b5080546127929061375e565b6000825580601f106127a457506127c3565b601f0160209004906000526020600020908101906127c29190612745565b5b50565b6000604051905090565b600080fd5b600080fd5b600073ffffffffffffffffffffffffffffffffffffffff82169050919050565b6000612805826127da565b9050919050565b612815816127fa565b811461282057600080fd5b50565b6000813590506128328161280c565b92915050565b60006020828403121561284e5761284d6127d0565b5b600061285c84828501612823565b91505092915050565b6000819050919050565b61287881612865565b82525050565b6000602082019050612893600083018461286f565b92915050565b6128a2816127fa565b82525050565b600081519050919050565b600082825260208201905092915050565b60005b838110156128e25780820151818401526020810190506128c7565b838111156128f1576000848401525b50505050565b6000601f19601f8301169050919050565b6000612913826128a8565b61291d81856128b3565b935061292d8185602086016128c4565b612936816128f7565b840191505092915050565b61294a81612865565b82525050565b7f4e487b7100000000000000000000000000000000000000000000000000000000600052602160045260246000fd5b600381106129905761298f612950565b5b50565b60008190506129a18261297f565b919050565b60006129b182612993565b9050919050565b6129c1816129a6565b82525050565b6000610180830160008301516129e06000860182612899565b50602083015184820360208601526129f88282612908565b91505060408301518482036040860152612a128282612908565b91505060608301518482036060860152612a2c8282612908565b91505060808301518482036080860152612a468282612908565b91505060a0830151612a5b60a0860182612941565b5060c0830151612a6e60c0860182612941565b5060e0830151612a8160e0860182612941565b50610100830151612a966101008601826129b8565b50610120830151848203610120860152612ab08282612908565b915050610140830151848203610140860152612acc8282612908565b915050610160830151612ae3610160860182612941565b508091505092915050565b60006020820190508181036000830152612b0881846129c7565b905092915050565b600082825260208201905092915050565b6000612b2c826128a8565b612b368185612b10565b9350612b468185602086016128c4565b612b4f816128f7565b840191505092915050565b60006020820190508181036000830152612b748184612b21565b905092915050565b612b8581612865565b8114612b9057600080fd5b50565b600081359050612ba281612b7c565b92915050565b600060208284031215612bbe57612bbd6127d0565b5b6000612bcc84828501612b93565b91505092915050565b600081519050919050565b600082825260208201905092915050565b6000819050602082019050919050565b6000612c0d8383612908565b905092915050565b6000602082019050919050565b6000612c2d82612bd5565b612c378185612be0565b935083602082028501612c4985612bf1565b8060005b85811015612c855784840389528151612c668582612c01565b9450612c7183612c15565b925060208a01995050600181019050612c4d565b50829750879550505050505092915050565b60008115159050919050565b612cac81612c97565b82525050565b600081519050919050565b600082825260208201905092915050565b6000819050602082019050919050565b6000612cea8383612899565b60208301905092915050565b6000602082019050919050565b6000612d0e82612cb2565b612d188185612cbd565b9350612d2383612cce565b8060005b83811015612d54578151612d3b8882612cde565b9750612d4683612cf6565b925050600181019050612d27565b5085935050505092915050565b600061014083016000830151612d7a6000860182612941565b5060208301518482036020860152612d928282612908565b91505060408301518482036040860152612dac8282612908565b91505060608301518482036060860152612dc68282612908565b91505060808301518482036080860152612de08282612c22565b91505060a0830151612df560a0860182612941565b5060c0830151612e0860c0860182612941565b5060e0830151612e1b60e0860182612ca3565b50610100830151848203610100860152612e358282612c22565b915050610120830151848203610120860152612e518282612d03565b9150508091505092915050565b60006020820190508181036000830152612e788184612d61565b905092915050565b600080fd5b600080fd5b600080fd5b60008083601f840112612ea557612ea4612e80565b5b8235905067ffffffffffffffff811115612ec257612ec1612e85565b5b602083019150836001820283011115612ede57612edd612e8a565b5b9250929050565b60008060208385031215612efc57612efb6127d0565b5b600083013567ffffffffffffffff811115612f1a57612f196127d5565b5b612f2685828601612e8f565b92509250509250929050565b600080fd5b7f4e487b7100000000000000000000000000000000000000000000000000000000600052604160045260246000fd5b612f6f826128f7565b810181811067ffffffffffffffff82111715612f8e57612f8d612f37565b5b80604052505050565b6000612fa16127c6565b9050612fad8282612f66565b919050565b600067ffffffffffffffff821115612fcd57612fcc612f37565b5b612fd6826128f7565b9050602081019050919050565b82818337600083830152505050565b600061300561300084612fb2565b612f97565b90508281526020810184848401111561302157613020612f32565b5b61302c848285612fe3565b509392505050565b600082601f83011261304957613048612e80565b5b8135613059848260208601612ff2565b91505092915050565b600060208284031215613078576130776127d0565b5b600082013567ffffffffffffffff811115613096576130956127d5565b5b6130a284828501613034565b91505092915050565b6000806000606084860312156130c4576130c36127d0565b5b60006130d286828701612823565b93505060206130e386828701612823565b92505060406130f486828701612823565b9150509250925092565b613107816129a6565b82525050565b600060208201905061312260008301846130fe565b92915050565b600067ffffffffffffffff82111561314357613142612f37565b5b61314c826128f7565b9050602081019050919050565b600061316c61316784613128565b612f97565b90508281526020810184848401111561318857613187612f32565b5b613193848285612fe3565b509392505050565b600082601f8301126131b0576131af612e80565b5b81356131c0848260208601613159565b91505092915050565b6000602082840312156131df576131de6127d0565b5b600082013567ffffffffffffffff8111156131fd576131fc6127d5565b5b6132098482850161319b565b91505092915050565b61321b81612c97565b82525050565b600081519050919050565b600082825260208201905092915050565b600061324882613221565b613252818561322c565b93506132628185602086016128c4565b61326b816128f7565b840191505092915050565b600060408201905061328b6000830185613212565b818103602083015261329d818461323d565b90509392505050565b600067ffffffffffffffff8211156132c1576132c0612f37565b5b602082029050602081019050919050565b60006132e56132e0846132a6565b612f97565b9050808382526020820190506020840283018581111561330857613307612e8a565b5b835b8181101561334f57803567ffffffffffffffff81111561332d5761332c612e80565b5b80860161333a8982613034565b8552602085019450505060208101905061330a565b5050509392505050565b600082601f83011261336e5761336d612e80565b5b813561337e8482602086016132d2565b91505092915050565b61339081612c97565b811461339b57600080fd5b50565b6000813590506133ad81613387565b92915050565b60008060008060008060008060006101208a8c0312156133d6576133d56127d0565b5b60006133e48c828d01612b93565b99505060208a013567ffffffffffffffff811115613405576134046127d5565b5b6134118c828d01613034565b98505060408a013567ffffffffffffffff811115613432576134316127d5565b5b61343e8c828d01613034565b97505060608a013567ffffffffffffffff81111561345f5761345e6127d5565b5b61346b8c828d01613034565b96505060808a013567ffffffffffffffff81111561348c5761348b6127d5565b5b6134988c828d01613359565b95505060a06134a98c828d01612b93565b94505060c06134ba8c828d01612b93565b93505060e06134cb8c828d0161339e565b9250506101008a013567ffffffffffffffff8111156134ed576134ec6127d5565b5b6134f98c828d01613359565b9150509295985092959850929598565b6000613514826127da565b9050919050565b61352481613509565b82525050565b600060208201905061353f600083018461351b565b92915050565b600081519050919050565b600082825260208201905092915050565b6000819050602082019050919050565b600061357d8383612941565b60208301905092915050565b6000602082019050919050565b60006135a182613545565b6135ab8185613550565b93506135b683613561565b8060005b838110156135e75781516135ce8882613571565b97506135d983613589565b9250506001810190506135ba565b5085935050505092915050565b6000602082019050818103600083015261360e8184613596565b905092915050565b600060e08201905061362b600083018a61286f565b818103602083015261363d8189612b21565b905081810360408301526136518188612b21565b905081810360608301526136658187612b21565b9050613674608083018661286f565b61368160a083018561286f565b61368e60c0830184613212565b98975050505050505050565b7f5265656e7472616e637947756172643a207265656e7472616e742063616c6c00600082015250565b60006136d0601f83612b10565b91506136db8261369a565b602082019050919050565b600060208201905081810360008301526136ff816136c3565b9050919050565b600060408201905061371b600083018561286f565b613728602083018461286f565b9392505050565b7f4e487b7100000000000000000000000000000000000000000000000000000000600052602260045260246000fd5b6000600282049050600182168061377657607f821691505b6020821081141561378a5761378961372f565b5b50919050565b613799816127fa565b82525050565b60006020820190506137b46000830184613790565b92915050565b6000815190506137c981612b7c565b92915050565b6000602082840312156137e5576137e46127d0565b5b60006137f3848285016137ba565b91505092915050565b7f6e6f2066756e6473000000000000000000000000000000000000000000000000600082015250565b6000613832600883612b10565b915061383d826137fc565b602082019050919050565b6000602082019050818103600083015261386181613825565b9050919050565b60008190508160005260206000209050919050565b6000815461388a8161375e565b6138948186612b10565b945060018216600081146138af57600181146138c1576138f4565b60ff19831686526020860193506138f4565b6138ca85613868565b60005b838110156138ec578154818901526001820191506020810190506138cd565b808801955050505b50505092915050565b7f3078000000000000000000000000000000000000000000000000000000000000600082015250565b600061393360028361322c565b915061393e826138fd565b602082019050919050565b6000819050919050565b600063ffffffff82169050919050565b6000819050919050565b600061398861398361397e84613949565b613963565b613953565b9050919050565b6139988161396d565b82525050565b60006139b96139b46139af846127da565b613963565b6127da565b9050919050565b60006139cb8261399e565b9050919050565b60006139dd826139c0565b9050919050565b6139ed816139d2565b82525050565b6000819050919050565b60006bffffffffffffffffffffffff82169050919050565b6000613a30613a2b613a26846139f3565b613963565b6139fd565b9050919050565b613a4081613a15565b82525050565b6000610100820190508181036000830152613a61818861387d565b90508181036020830152613a7481613926565b9050613a836040830187613790565b613a90606083018661398f565b613a9d60808301856139e4565b81810360a0830152613aae81613926565b905081810360c0830152613ac181613926565b9050613ad060e0830184613a37565b9695505050505050565b600081905092915050565b50565b6000613af5600083613ada565b9150613b0082613ae5565b600082019050919050565b6000613b1682613ae8565b9150819050919050565b6000604082019050613b3560008301856139e4565b613b426020830184613790565b9392505050565b7f4e487b7100000000000000000000000000000000000000000000000000000000600052601160045260246000fd5b6000613b8382612865565b9150613b8e83612865565b9250827fffffffffffffffffffffffffffffffffffffffffffffffffffffffffffffffff03821115613bc357613bc2613b49565b5b828201905092915050565b6000613bd982612865565b9150613be483612865565b925082821015613bf757613bf6613b49565b5b82820390509291505056fea26469706673582212202ab0422d07842e88ee294901fcdf3e9cf28ae499ed36ad4a8460983e4c470f9a64736f6c63430008080033a26469706673582212208de52140cd30adeced11146ca4fe7838058b35fee3b55454b3c65c896e3ce18564736f6c63430008080033",
  "devdoc": {
    "kind": "dev",
    "methods": {},
    "version": 1
  },
  "userdoc": {
    "kind": "user",
    "methods": {},
    "version": 1
  },
  "storageLayout": {
    "storage": [
      {
        "astId": 1583,
        "contract": "contracts/CrowdFunder.sol:CrowdFunder",
        "label": "campaignCounter",
        "offset": 0,
        "slot": "0",
        "type": "t_uint256"
      },
      {
        "astId": 1588,
        "contract": "contracts/CrowdFunder.sol:CrowdFunder",
        "label": "campaigns",
        "offset": 0,
        "slot": "1",
        "type": "t_mapping(t_address,t_contract(Campaign)1516)"
      }
    ],
    "types": {
      "t_address": {
        "encoding": "inplace",
        "label": "address",
        "numberOfBytes": "20"
      },
      "t_contract(Campaign)1516": {
        "encoding": "inplace",
        "label": "contract Campaign",
        "numberOfBytes": "20"
      },
      "t_mapping(t_address,t_contract(Campaign)1516)": {
        "encoding": "mapping",
        "key": "t_address",
        "label": "mapping(address => contract Campaign)",
        "numberOfBytes": "32",
        "value": "t_contract(Campaign)1516"
      },
      "t_uint256": {
        "encoding": "inplace",
        "label": "uint256",
        "numberOfBytes": "32"
      }
    }
  }
}