{
  "address": "0x990AfB3FC9238DD61Ee4fc6E1BAB33B0F57a6831",
  "abi": [
    {
      "inputs": [
        {
          "internalType": "address",
          "name": "_cmpFactory",
          "type": "address"
        },
        {
          "internalType": "address",
          "name": "_rwdFactory",
          "type": "address"
        }
      ],
      "stateMutability": "nonpayable",
      "type": "constructor"
    },
    {
      "anonymous": false,
      "inputs": [
        {
          "indexed": true,
          "internalType": "address",
          "name": "_campaignAddress",
          "type": "address"
        },
        {
          "indexed": true,
          "internalType": "address",
          "name": "_creator",
          "type": "address"
        },
        {
          "indexed": false,
          "internalType": "string",
          "name": "_title",
          "type": "string"
        },
        {
          "indexed": false,
          "internalType": "string",
          "name": "_description",
          "type": "string"
        },
        {
          "indexed": false,
          "internalType": "string",
          "name": "_category",
          "type": "string"
        },
        {
          "indexed": false,
          "internalType": "string",
          "name": "_tags",
          "type": "string"
        },
        {
          "indexed": false,
          "internalType": "string",
          "name": "_imageURI",
          "type": "string"
        }
      ],
      "name": "CampaignAdded",
      "type": "event"
    },
    {
      "anonymous": false,
      "inputs": [
        {
          "indexed": true,
          "internalType": "address",
          "name": "_funder",
          "type": "address"
        },
        {
          "indexed": true,
          "internalType": "address",
          "name": "_campaignAddress",
          "type": "address"
        },
        {
          "indexed": false,
          "internalType": "uint256",
          "name": "_val",
          "type": "uint256"
        },
        {
          "indexed": true,
          "internalType": "address",
          "name": "_c_creator",
          "type": "address"
        }
      ],
      "name": "CampaignFunded",
      "type": "event"
    },
    {
      "anonymous": false,
      "inputs": [
        {
          "indexed": false,
          "internalType": "address",
          "name": "_campaignAddress",
          "type": "address"
        },
        {
          "indexed": false,
          "internalType": "address",
          "name": "_creator",
          "type": "address"
        }
      ],
      "name": "CampaignPublished",
      "type": "event"
    },
    {
      "anonymous": false,
      "inputs": [
        {
          "indexed": true,
          "internalType": "address",
          "name": "_campaignAddress",
          "type": "address"
        }
      ],
      "name": "CampaignRemoved",
      "type": "event"
    },
    {
      "anonymous": false,
      "inputs": [
        {
          "indexed": true,
          "internalType": "address",
          "name": "_withdrawer",
          "type": "address"
        },
        {
          "indexed": true,
          "internalType": "address",
          "name": "_campaignAddress",
          "type": "address"
        },
        {
          "indexed": false,
          "internalType": "uint256",
          "name": "_val",
          "type": "uint256"
        },
        {
          "indexed": true,
          "internalType": "address",
          "name": "_c_creator",
          "type": "address"
        }
      ],
      "name": "CampaignShrunk",
      "type": "event"
    },
    {
      "anonymous": false,
      "inputs": [
        {
          "indexed": true,
          "internalType": "address",
          "name": "_address",
          "type": "address"
        },
        {
          "indexed": false,
          "internalType": "string",
          "name": "_username",
          "type": "string"
        },
        {
          "indexed": false,
          "internalType": "string",
          "name": "_email",
          "type": "string"
        },
        {
          "indexed": false,
          "internalType": "string",
          "name": "_shipAddress",
          "type": "string"
        },
        {
          "indexed": false,
          "internalType": "string",
          "name": "_pfp",
          "type": "string"
        }
      ],
      "name": "UserAdded",
      "type": "event"
    },
    {
      "inputs": [
        {
          "components": [
            {
              "internalType": "string",
              "name": "_title",
              "type": "string"
            },
            {
              "internalType": "string",
              "name": "_description",
              "type": "string"
            },
            {
              "internalType": "string",
              "name": "_category",
              "type": "string"
            },
            {
              "internalType": "string",
              "name": "_tags",
              "type": "string"
            },
            {
              "internalType": "uint256",
              "name": "_goalAmount",
              "type": "uint256"
            },
            {
              "internalType": "uint256",
              "name": "_duration",
              "type": "uint256"
            },
            {
              "internalType": "string",
              "name": "_imageURI",
              "type": "string"
            }
          ],
          "internalType": "struct CampaignFactory.cmpInput",
          "name": "_cmp",
          "type": "tuple"
        }
      ],
      "name": "addCampaign",
      "outputs": [],
      "stateMutability": "nonpayable",
      "type": "function"
    },
    {
      "inputs": [
        {
          "internalType": "address",
          "name": "_address",
          "type": "address"
        },
        {
          "internalType": "string",
          "name": "_username",
          "type": "string"
        },
        {
          "internalType": "string",
          "name": "_email",
          "type": "string"
        },
        {
          "internalType": "string",
          "name": "_shipAddress",
          "type": "string"
        },
        {
          "internalType": "string",
          "name": "_pfp",
          "type": "string"
        }
      ],
      "name": "addUser",
      "outputs": [],
      "stateMutability": "nonpayable",
      "type": "function"
    },
    {
      "inputs": [],
      "name": "campaignCounter",
      "outputs": [
        {
          "internalType": "uint256",
          "name": "",
          "type": "uint256"
        }
      ],
      "stateMutability": "view",
      "type": "function"
    },
    {
      "inputs": [
        {
          "internalType": "address",
          "name": "_campaignAddress",
          "type": "address"
        },
        {
          "internalType": "bool",
          "name": "_rewardable",
          "type": "bool"
        }
      ],
      "name": "donateToCampaign",
      "outputs": [],
      "stateMutability": "payable",
      "type": "function"
    },
    {
      "inputs": [],
      "name": "i_cmpFactory",
      "outputs": [
        {
          "internalType": "address",
          "name": "",
          "type": "address"
        }
      ],
      "stateMutability": "view",
      "type": "function"
    },
    {
      "inputs": [],
      "name": "i_rewardFactory",
      "outputs": [
        {
          "internalType": "address",
          "name": "",
          "type": "address"
        }
      ],
      "stateMutability": "view",
      "type": "function"
    },
    {
      "inputs": [
        {
          "internalType": "address",
          "name": "_campaignAddress",
          "type": "address"
        },
        {
          "internalType": "address",
          "name": "_upkeepCreator",
          "type": "address"
        },
        {
          "internalType": "address",
          "name": "_linkToken",
          "type": "address"
        }
      ],
      "name": "publishCampaign",
      "outputs": [],
      "stateMutability": "nonpayable",
      "type": "function"
    },
    {
      "inputs": [
        {
          "internalType": "address",
          "name": "_campaignAddress",
          "type": "address"
        }
      ],
      "name": "refundFromCampaign",
      "outputs": [],
      "stateMutability": "nonpayable",
      "type": "function"
    },
    {
      "inputs": [
        {
          "internalType": "address",
          "name": "_campaignAddress",
          "type": "address"
        }
      ],
      "name": "removeCampaign",
      "outputs": [],
      "stateMutability": "nonpayable",
      "type": "function"
    }
  ],
  "transactionHash": "0x8060f7f4a205670a8aa1bf3119092fdec2b2345213d7d1d549bd6a35fa1d8273",
  "args": [
    "0x5EDD1F7Bd905D5b2cca5571cc85d00B3679b73B2",
    "0xbE5EC9210ef38A922b929377112436Ec0871f7db"
  ],
  "numDeployments": 15,
  "solcInputHash": "d728c752d0773b76f850663011342c47",
  "bytecode": "0x60c06040523480156200001157600080fd5b506040516200156938038062001569833981016040819052620000349162000086565b6001600160a01b0390811660a05216608052620000c9565b60006001600160a01b0382165b92915050565b6200006a816200004c565b81146200007657600080fd5b50565b805162000059816200005f565b600080604083850312156200009e576200009e600080fd5b6000620000ac858562000079565b9250506020620000bf8582860162000079565b9150509250929050565b60805160a05161146e620000fb60003960008181609d01526105d201526000818160e701526105a1015261146e6000f3fe6080604052600436106100865760003560e01c8063ccf5f27f11610059578063ccf5f27f1461013e578063cd274a401461015e578063e4663a5b1461017e578063fab62a1d1461019e578063fca604d7146101be57600080fd5b806357168c791461008b5780636feb02a1146100d55780639083ef5814610109578063ac3d15fb1461011e575b600080fd5b34801561009757600080fd5b506100bf7f000000000000000000000000000000000000000000000000000000000000000081565b6040516100cc9190610abf565b60405180910390f35b3480156100e157600080fd5b506100bf7f000000000000000000000000000000000000000000000000000000000000000081565b61011c610117366004610b02565b6101e1565b005b34801561012a57600080fd5b5061011c610139366004610b3f565b61035b565b34801561014a57600080fd5b5061011c610159366004610da1565b610587565b34801561016a57600080fd5b5061011c610179366004610ddb565b6106c1565b34801561018a57600080fd5b5061011c610199366004610b3f565b61070f565b3480156101aa57600080fd5b5061011c6101b9366004610ebb565b610875565b3480156101ca57600080fd5b506101d460005481565b6040516100cc9190610f11565b6001600160a01b0380831660009081526001602090815260408083205481516358a2b01f60e11b815291519394169263b145603e926004808401939192918290030181865afa158015610238573d6000803e3d6000fd5b505050506040513d601f19601f8201168201806040525081019061025c9190610f2a565b90506000836001600160a01b031634338560405160240161027e929190610f53565b60408051601f198184030181529181526020820180516001600160e01b0316637be4bae160e01b179052516102b39190610fc3565b60006040518083038185875af1925050503d80600081146102f0576040519150601f19603f3d011682016040523d82523d6000602084013e6102f5565b606091505b50509050801561008657816001600160a01b0316846001600160a01b0316336001600160a01b03167f5f0f580a49a433afc0cd61faf31f545ff739f7874dd091ba39ecfd0383c8462c3460405161034c9190610f11565b60405180910390a45b50505050565b6001600160a01b0380821660009081526001602090815260408083205481516358a2b01f60e11b815291519394169263b145603e926004808401939192918290030181865afa1580156103b2573d6000803e3d6000fd5b505050506040513d601f19601f820116820180604052508101906103d69190610f2a565b6001600160a01b03808416600090815260016020526040808220549051629917c560e41b815293945090929116906309917c5090610418903390600401610abf565b602060405180830381865afa158015610435573d6000803e3d6000fd5b505050506040513d601f19601f820116820180604052508101906104599190610fda565b9050600081116104845760405162461bcd60e51b815260040161047b90611017565b60405180910390fd5b6000836001600160a01b0316336040516024016104a19190610abf565b60408051601f198184030181529181526020820180516001600160e01b0316637d44a00d60e11b179052516104d69190610fc3565b6000604051808303816000865af19150503d8060008114610513576040519150601f19603f3d011682016040523d82523d6000602084013e610518565b606091505b50509050801561056f57826001600160a01b0316846001600160a01b0316336001600160a01b03167fe627e40c5979c5da4cf94d4b3ce15ce68a4103b1480ec047eec9736d39a0123d8560405161034c9190610f11565b60405162461bcd60e51b815260040161047b90611040565b604051632213cc3b60e21b81526000906001600160a01b037f0000000000000000000000000000000000000000000000000000000000000000169063884f30ec906105fc90309033907f0000000000000000000000000000000000000000000000000000000000000000908890600401611131565b6020604051808303816000875af115801561061b573d6000803e3d6000fd5b505050506040513d601f19601f8201168201806040525081019061063f9190610f2a565b6001600160a01b03811660008181526001602090815260409182902080546001600160a01b0319168417905585519086015186830151606088015160c0890151945196975033967fce55db2394471943657aaa63a10999909b55d5948702c94255bb9ba41ad07e28956106b59594939291611175565b60405180910390a35050565b846001600160a01b03167f10bb073e1ce0977d8bf7b641de8a59b02dd9c9d1c4badc9b30e5a48ac9fc8cb98585858560405161070094939291906111e1565b60405180910390a25050505050565b6001600160a01b038181166000908152600160209081526040918290205482516358a2b01f60e11b815292513394919091169263b145603e9260048083019391928290030181865afa158015610769573d6000803e3d6000fd5b505050506040513d601f19601f8201168201806040525081019061078d9190610f2a565b6001600160a01b0316146107a057600080fd5b6001600160a01b03808216600090815260016020908152604080832054815163ce845d1d60e01b815291519394169263ce845d1d926004808401939192918290030181865afa1580156107f7573d6000803e3d6000fd5b505050506040513d601f19601f8201168201806040525081019061081b9190610fda565b111561082657600080fd5b6001600160a01b03811660008181526001602052604080822080546001600160a01b0319169055517fd41d62ed7a46b1f2f4c0a4c0fa40c95bbe14a7d55034ff9817b743d6cb7935369190a250565b6040516370a0823160e01b8152829082906001600160a01b038216906370a08231906108a5908590600401610abf565b602060405180830381865afa1580156108c2573d6000803e3d6000fd5b505050506040513d601f19601f820116820180604052508101906108e69190610fda565b6109025760405162461bcd60e51b815260040161047b9061124d565b816001600160a01b0316634c7e9be3866001600160a01b03166399a8502d6040518163ffffffff1660e01b8152600401600060405180830381865afa15801561094f573d6000803e3d6000fd5b505050506040513d6000823e601f3d908101601f1916820160405261097791908101906112b5565b876207a120896001600160a01b031663b145603e6040518163ffffffff1660e01b8152600401602060405180830381865afa1580156109ba573d6000803e3d6000fd5b505050506040513d601f19601f820116820180604052508101906109de9190610f2a565b671bc16d674ec800006040518663ffffffff1660e01b8152600401610a0795949392919061136e565b6020604051808303816000875af1158015610a26573d6000803e3d6000fd5b505050506040513d601f19601f82011682018060405250810190610a4a9190610fda565b50600054610a59906001611405565b6000556040517f4ee76a1c89ccbef26f098ac48c95b7da87fe34749fea8758a71a3dc4ccc28bcd90610a8e908790339061141d565b60405180910390a15050505050565b60006001600160a01b0382165b92915050565b610ab981610a9d565b82525050565b60208101610aaa8284610ab0565b610ad681610a9d565b8114610ae157600080fd5b50565b8035610aaa81610acd565b801515610ad6565b8035610aaa81610aef565b60008060408385031215610b1857610b18600080fd5b6000610b248585610ae4565b9250506020610b3585828601610af7565b9150509250929050565b600060208284031215610b5457610b54600080fd5b6000610b608484610ae4565b949350505050565b634e487b7160e01b600052604160045260246000fd5b601f19601f83011681018181106001600160401b0382111715610ba357610ba3610b68565b6040525050565b6000610bb560405190565b9050610bc18282610b7e565b919050565b60006001600160401b03821115610bdf57610bdf610b68565b601f19601f83011660200192915050565b82818337506000910152565b6000610c0f610c0a84610bc6565b610baa565b905082815260208101848484011115610c2a57610c2a600080fd5b610c35848285610bf0565b509392505050565b600082601f830112610c5157610c51600080fd5b8135610b60848260208601610bfc565b80610ad6565b8035610aaa81610c61565b600060e08284031215610c8757610c87600080fd5b610c9160e0610baa565b905081356001600160401b03811115610cac57610cac600080fd5b610cb884828501610c3d565b82525060208201356001600160401b03811115610cd757610cd7600080fd5b610ce384828501610c3d565b60208301525060408201356001600160401b03811115610d0557610d05600080fd5b610d1184828501610c3d565b60408301525060608201356001600160401b03811115610d3357610d33600080fd5b610d3f84828501610c3d565b6060830152506080610d5384828501610c67565b60808301525060a0610d6784828501610c67565b60a08301525060c08201356001600160401b03811115610d8957610d89600080fd5b610d9584828501610c3d565b60c08301525092915050565b600060208284031215610db657610db6600080fd5b81356001600160401b03811115610dcf57610dcf600080fd5b610b6084828501610c72565b600080600080600060a08688031215610df657610df6600080fd5b6000610e028888610ae4565b95505060208601356001600160401b03811115610e2157610e21600080fd5b610e2d88828901610c3d565b94505060408601356001600160401b03811115610e4c57610e4c600080fd5b610e5888828901610c3d565b93505060608601356001600160401b03811115610e7757610e77600080fd5b610e8388828901610c3d565b92505060808601356001600160401b03811115610ea257610ea2600080fd5b610eae88828901610c3d565b9150509295509295909350565b600080600060608486031215610ed357610ed3600080fd5b6000610edf8686610ae4565b9350506020610ef086828701610ae4565b9250506040610f0186828701610ae4565b9150509250925092565b80610ab9565b60208101610aaa8284610f0b565b8051610aaa81610acd565b600060208284031215610f3f57610f3f600080fd5b6000610b608484610f1f565b801515610ab9565b60408101610f618285610ab0565b610f6e6020830184610f4b565b9392505050565b60005b83811015610f90578181015183820152602001610f78565b838111156103555750506000910152565b6000610fab825190565b610fb9818560208601610f75565b9290920192915050565b6000610f6e8284610fa1565b8051610aaa81610c61565b600060208284031215610fef57610fef600080fd5b6000610b608484610fcf565b6002815260006020820161596f60f01b815291505b5060200190565b60208082528101610aaa81610ffb565b60028152600060208201610b2d60f31b81529150611010565b60208082528101610aaa81611027565b600061105a825190565b808452602084019350611071818560208601610f75565b601f01601f19169290920192915050565b805160e08084526000919084019061109a8282611050565b915050602083015184820360208601526110b48282611050565b915050604083015184820360408601526110ce8282611050565b915050606083015184820360608601526110e88282611050565b91505060808301516110fd6080860182610f0b565b5060a083015161111060a0860182610f0b565b5060c083015184820360c08601526111288282611050565b95945050505050565b6080810161113f8287610ab0565b61114c6020830186610ab0565b6111596040830185610ab0565b818103606083015261116b8184611082565b9695505050505050565b60a080825281016111868188611050565b9050818103602083015261119a8187611050565b905081810360408301526111ae8186611050565b905081810360608301526111c28185611050565b905081810360808301526111d68184611050565b979650505050505050565b608080825281016111f28187611050565b905081810360208301526112068186611050565b9050818103604083015261121a8185611050565b9050818103606083015261116b8184611050565b60088152600060208201676e6f2066756e647360c01b81529150611010565b60208082528101610aaa8161122e565b600061126b610c0a84610bc6565b90508281526020810184848401111561128657611286600080fd5b610c35848285610f75565b600082601f8301126112a5576112a5600080fd5b8151610b6084826020860161125d565b6000602082840312156112ca576112ca600080fd5b81516001600160401b038111156112e3576112e3600080fd5b610b6084828501611291565b6002815260006020820161060f60f31b81529150611010565b600063ffffffff8216610aaa565b610ab981611308565b60006001600160a01b038216610aaa565b6000610aaa8261131f565b6000610aaa82611330565b610ab98161133b565b60006bffffffffffffffffffffffff8216610aaa565b610ab98161134f565b61010080825281016113808188611050565b90508181036020830152611393816112ef565b90506113a26040830187610ab0565b6113af6060830186611316565b6113bc6080830185611346565b81810360a08301526113cd816112ef565b905081810360c08301526113e0816112ef565b905061116b60e0830184611365565b634e487b7160e01b600052601160045260246000fd5b60008219821115611418576114186113ef565b500190565b6040810161142b8285610ab0565b610f6e6020830184610ab056fea2646970667358221220c65167695d8baeab1d9dfc671560e38d89810f6f242202dcf842984cac3660f764736f6c634300080b0033",
  "libraries": {
    "RefunderLib": "0xC9bDfa0822e14bcc54e68229C1EDb13539c43E46"
  },
  "devdoc": {
    "kind": "dev",
    "methods": {},
    "version": 1
  },
  "userdoc": {
    "kind": "user",
    "methods": {},
    "version": 1
  },
  "storageLayout": {
    "storage": [
      {
        "astId": 1126,
        "contract": "contracts/CrowdFunder.sol:CrowdFunder",
        "label": "campaignCounter",
        "offset": 0,
        "slot": "0",
        "type": "t_uint256"
      },
      {
        "astId": 1130,
        "contract": "contracts/CrowdFunder.sol:CrowdFunder",
        "label": "campaigns",
        "offset": 0,
        "slot": "1",
        "type": "t_mapping(t_address,t_address)"
      }
    ],
    "types": {
      "t_address": {
        "encoding": "inplace",
        "label": "address",
        "numberOfBytes": "20"
      },
      "t_mapping(t_address,t_address)": {
        "encoding": "mapping",
        "key": "t_address",
        "label": "mapping(address => address)",
        "numberOfBytes": "32",
        "value": "t_address"
      },
      "t_uint256": {
        "encoding": "inplace",
        "label": "uint256",
        "numberOfBytes": "32"
      }
    }
  }
}