{
  "address": "0xbE5EC9210ef38A922b929377112436Ec0871f7db",
  "abi": [
    {
      "inputs": [
        {
          "internalType": "address",
          "name": "_cmpAddress",
          "type": "address"
        },
        {
          "internalType": "address",
          "name": "_creator",
          "type": "address"
        },
        {
          "components": [
            {
              "internalType": "uint256",
              "name": "_price",
              "type": "uint256"
            },
            {
              "internalType": "string",
              "name": "_title",
              "type": "string"
            },
            {
              "internalType": "string",
              "name": "_description",
              "type": "string"
            },
            {
              "internalType": "string",
              "name": "_rpic",
              "type": "string"
            },
            {
              "internalType": "string[]",
              "name": "_perks",
              "type": "string[]"
            },
            {
              "internalType": "uint256",
              "name": "_deadline",
              "type": "uint256"
            },
            {
              "internalType": "uint256",
              "name": "_quantity",
              "type": "uint256"
            },
            {
              "internalType": "bool",
              "name": "_infinite",
              "type": "bool"
            },
            {
              "internalType": "string[]",
              "name": "_shipsTo",
              "type": "string[]"
            }
          ],
          "internalType": "struct RewardFactory.rwdInput",
          "name": "_rwd",
          "type": "tuple"
        }
      ],
      "name": "createReward",
      "outputs": [
        {
          "internalType": "address",
          "name": "",
          "type": "address"
        }
      ],
      "stateMutability": "nonpayable",
      "type": "function"
    }
  ],
  "transactionHash": "0xc149570571c1cd5782b6aa72997db55502f3a79d1b9368d494b849e0dd011756",
  "args": [],
  "numDeployments": 3,
  "solcInputHash": "d728c752d0773b76f850663011342c47",
  "bytecode": "0x608060405234801561001057600080fd5b50612075806100206000396000f3fe60806040523480156200001157600080fd5b50600436106200002e5760003560e01c8063d52116e91462000033575b600080fd5b6200004a62000044366004620004bd565b62000062565b60405162000059919062000543565b60405180910390f35b6000808484846000015185602001518660400151876060015188608001518960a001518a60c001518b60e001518c6101000151604051620000a390620000e0565b620000b99b9a999897969594939291906200064c565b604051809103906000f080158015620000d6573d6000803e3d6000fd5b5095945050505050565b611917806200072983390190565b60006001600160a01b0382165b92915050565b6200010c81620000ee565b81146200011857600080fd5b50565b8035620000fb8162000101565b634e487b7160e01b600052604160045260246000fd5b601f19601f830116810181811067ffffffffffffffff8211171562000167576200016762000128565b6040525050565b60006200017a60405190565b90506200018882826200013e565b919050565b806200010c565b8035620000fb816200018d565b600067ffffffffffffffff821115620001be57620001be62000128565b601f19601f83011660200192915050565b82818337506000910152565b6000620001f2620001ec84620001a1565b6200016e565b9050828152602081018484840111156200020f576200020f600080fd5b6200021c848285620001cf565b509392505050565b600082601f8301126200023a576200023a600080fd5b81356200024c848260208601620001db565b949350505050565b600067ffffffffffffffff82111562000271576200027162000128565b5060209081020190565b60006200028c620001ec8462000254565b83815290506020808201908402830185811115620002ad57620002ad600080fd5b835b81811015620002f457803567ffffffffffffffff811115620002d457620002d4600080fd5b808601620002e3898262000224565b8552505060209283019201620002af565b5050509392505050565b600082601f830112620003145762000314600080fd5b81356200024c8482602086016200027b565b8015156200010c565b8035620000fb8162000326565b60006101208284031215620003545762000354600080fd5b620003616101206200016e565b9050600062000371848462000194565b825250602082013567ffffffffffffffff811115620003935762000393600080fd5b620003a18482850162000224565b602083015250604082013567ffffffffffffffff811115620003c657620003c6600080fd5b620003d48482850162000224565b604083015250606082013567ffffffffffffffff811115620003f957620003f9600080fd5b620004078482850162000224565b606083015250608082013567ffffffffffffffff8111156200042c576200042c600080fd5b6200043a84828501620002fe565b60808301525060a0620004508482850162000194565b60a08301525060c0620004668482850162000194565b60c08301525060e06200047c848285016200032f565b60e08301525061010082013567ffffffffffffffff811115620004a257620004a2600080fd5b620004b084828501620002fe565b6101008301525092915050565b600080600060608486031215620004d757620004d7600080fd5b6000620004e586866200011b565b9350506020620004f8868287016200011b565b925050604084013567ffffffffffffffff8111156200051a576200051a600080fd5b62000528868287016200033c565b9150509250925092565b6200053d81620000ee565b82525050565b60208101620000fb828462000532565b806200053d565b60005b83811015620005775781810151838201526020016200055d565b8381111562000587576000848401525b50505050565b600062000598825190565b808452602084019350620005b18185602086016200055a565b601f01601f19169290920192915050565b6000620005d083836200058d565b9392505050565b6000620005e2825190565b80845260208401935083602082028501620005fd8560200190565b8060005b858110156200063657848403895281516200061d8582620005c2565b94506020830160209a909a019992505060010162000601565b5091979650505050505050565b8015156200053d565b61016081016200065d828e62000532565b6200066c602083018d62000532565b6200067b604083018c62000553565b81810360608301526200068f818b6200058d565b90508181036080830152620006a5818a6200058d565b905081810360a0830152620006bb81896200058d565b905081810360c0830152620006d18188620005d7565b9050620006e260e083018762000553565b620006f261010083018662000553565b6200070261012083018562000643565b818103610140830152620007178184620005d7565b9d9c5050505050505050505050505056fe60e06040526006805460ff191660011790553480156200001e57600080fd5b5060405162001917380380620019178339810160408190526200004191620004c7565b60c08990526001600160a01b03808c166080528a1660a05287516200006e9060009060208b0190620000f0565b508651620000849060019060208a0190620000f0565b5085516200009a906002906020890190620000f0565b508451620000b09060039060208801906200017f565b50600484905560058390556006805460ff19168315151790558051620000de9060079060208401906200017f565b505050505050505050505050620006a3565b828054620000fe9062000672565b90600052602060002090601f0160209004810192826200012257600085556200016d565b82601f106200013d57805160ff19168380011785556200016d565b828001600101855582156200016d579182015b828111156200016d57825182559160200191906001019062000150565b506200017b929150620001df565b5090565b828054828255906000526020600020908101928215620001d1579160200282015b82811115620001d15782518051620001c0918491602090910190620000f0565b5091602001919060010190620001a0565b506200017b929150620001f6565b5b808211156200017b5760008155600101620001e0565b808211156200017b5760006200020d828262000217565b50600101620001f6565b508054620002259062000672565b6000825580601f1062000236575050565b601f016020900490600052602060002090810190620002569190620001df565b50565b60006001600160a01b0382165b92915050565b620002778162000259565b81146200025657600080fd5b805162000266816200026c565b8062000277565b8051620002668162000290565b634e487b7160e01b600052604160045260246000fd5b601f19601f83011681018181106001600160401b0382111715620002e257620002e2620002a4565b6040525050565b6000620002f560405190565b9050620003038282620002ba565b919050565b60006001600160401b03821115620003245762000324620002a4565b601f19601f83011660200192915050565b60005b838110156200035257818101518382015260200162000338565b8381111562000362576000848401525b50505050565b60006200037f620003798462000308565b620002e9565b9050828152602081018484840111156200039c576200039c600080fd5b620003a984828562000335565b509392505050565b600082601f830112620003c757620003c7600080fd5b8151620003d984826020860162000368565b949350505050565b60006001600160401b03821115620003fd57620003fd620002a4565b5060209081020190565b6000620004186200037984620003e1565b83815290506020808201908402830185811115620004395762000439600080fd5b835b818110156200047f5780516001600160401b038111156200045f576200045f600080fd5b8086016200046e8982620003b1565b85525050602092830192016200043b565b5050509392505050565b600082601f8301126200049f576200049f600080fd5b8151620003d984826020860162000407565b80151562000277565b80516200026681620004b1565b60008060008060008060008060008060006101608c8e031215620004ee57620004ee600080fd5b6000620004fc8e8e62000283565b9b505060206200050f8e828f0162000283565b9a50506040620005228e828f0162000297565b99505060608c01516001600160401b03811115620005435762000543600080fd5b620005518e828f01620003b1565b98505060808c01516001600160401b03811115620005725762000572600080fd5b620005808e828f01620003b1565b97505060a08c01516001600160401b03811115620005a157620005a1600080fd5b620005af8e828f01620003b1565b96505060c08c01516001600160401b03811115620005d057620005d0600080fd5b620005de8e828f0162000489565b95505060e0620005f18e828f0162000297565b945050610100620006058e828f0162000297565b935050610120620006198e828f01620004ba565b9250506101408c01516001600160401b038111156200063b576200063b600080fd5b620006498e828f0162000489565b9150509295989b509295989b9093969950565b634e487b7160e01b600052602260045260246000fd5b6002810460018216806200068757607f821691505b602082108114156200069d576200069d6200065c565b50919050565b60805160a05160c051611228620006ef600039600081816101c4015261074e01526000818161029701526106a40152600081816102700152818161044501526105dd01526112286000f3fe608060405234801561001057600080fd5b50600436106101375760003560e01c80637284e416116100b8578063b145603e1161007c578063b145603e14610292578063bf1482fa146102b9578063c91e986d146102ce578063cb21efde146102e1578063d0c40276146102f4578063e959e2601461030957600080fd5b80637284e4161461021d578063a052f02414610225578063ac62f56614610238578063accff55214610258578063ae33dd171461026b57600080fd5b80632e968e3e116100ff5780632e968e3e1461019f57806334d19469146101bf5780633dda094d146101e65780634a79d50c146101fb5780635bec9e671461020357600080fd5b8063147c2c5a1461013c57806314b410a51461015b57806317fc45e21461017b578063299f8e4614610184578063299fa1501461018c575b600080fd5b61014560045481565b6040516101529190610c98565b60405180910390f35b61016e610169366004610cdc565b610311565b6040516101529190610d67565b61014560055481565b61016e6103ab565b61016e61019a366004610d90565b6103b8565b6101456101ad366004610cdc565b600a6020526000908152604090205481565b6101457f000000000000000000000000000000000000000000000000000000000000000081565b6101f96101f4366004610eac565b6103e3565b005b61016e610420565b6006546102109060ff1681565b6040516101529190610eef565b61016e61042d565b6101f9610233366004610cdc565b61043a565b61024b610246366004610d90565b610536565b6040516101529190610f06565b61016e610266366004610d90565b610560565b61024b7f000000000000000000000000000000000000000000000000000000000000000081565b61024b7f000000000000000000000000000000000000000000000000000000000000000081565b6102c1610570565b6040516101529190610f71565b6101f96102dc366004610cdc565b6105d2565b6101f96102ef366004610eac565b610699565b6102fc6106e1565b6040516101529190611143565b61016e610bea565b600b602052600090815260409020805461032a9061116a565b80601f01602080910402602001604051908101604052809291908181526020018280546103569061116a565b80156103a35780601f10610378576101008083540402835291602001916103a3565b820191906000526020600020905b81548152906001019060200180831161038657829003601f168201915b505050505081565b6009805461032a9061116a565b600781815481106103c857600080fd5b90600052602060002001600091509050805461032a9061116a565b336000908152600a60205260409020546103fc57600080fd5b336000908152600b60209081526040909120825161041c92840190610bf7565b5050565b6000805461032a9061116a565b6001805461032a9061116a565b336001600160a01b037f0000000000000000000000000000000000000000000000000000000000000000161461046f57600080fd5b6001600160a01b0381166000908152600a60205260409020541561049257600080fd5b60065460ff1661052557600554156101375760016005546104b391906111ad565b6005556008546104c48160016111c4565b6001600160a01b0383166000818152600a60205260408120929092556008805460018101825592527ff3f7a9fe364faab93b216da50a3214154f22a0a2b415b23a84c8169e8b636ee390910180546001600160a01b03191690911790555050565b6008546104c48160016111c4565b50565b6008818154811061054657600080fd5b6000918252602090912001546001600160a01b0316905081565b600381815481106103c857600080fd5b606060088054806020026020016040519081016040528092919081815260200182805480156105c857602002820191906000526020600020905b81546001600160a01b031681526001909101906020018083116105aa575b5050505050905090565b336001600160a01b037f0000000000000000000000000000000000000000000000000000000000000000161461060757600080fd5b6001600160a01b0381166000908152600a602052604090205461062957600080fd5b6001600160a01b0381166000908152600a602052604081205461064e906001906111ad565b905060088181548110610663576106636111dc565b6000918252602080832090910180546001600160a01b03191690556001600160a01b03939093168152600a909252506040812055565b336001600160a01b037f000000000000000000000000000000000000000000000000000000000000000016146106ce57600080fd5b805161041c906009906020840190610bf7565b610740604051806101600160405280600081526020016060815260200160608152602001606081526020016060815260200160008152602001600081526020016000151581526020016060815260200160608152602001606081525090565b6040518061016001604052807f000000000000000000000000000000000000000000000000000000000000000081526020016000805461077f9061116a565b80601f01602080910402602001604051908101604052809291908181526020018280546107ab9061116a565b80156107f85780601f106107cd576101008083540402835291602001916107f8565b820191906000526020600020905b8154815290600101906020018083116107db57829003601f168201915b505050505081526020016001805461080f9061116a565b80601f016020809104026020016040519081016040528092919081815260200182805461083b9061116a565b80156108885780601f1061085d57610100808354040283529160200191610888565b820191906000526020600020905b81548152906001019060200180831161086b57829003601f168201915b505050505081526020016002805461089f9061116a565b80601f01602080910402602001604051908101604052809291908181526020018280546108cb9061116a565b80156109185780601f106108ed57610100808354040283529160200191610918565b820191906000526020600020905b8154815290600101906020018083116108fb57829003601f168201915b505050505081526020016003805480602002602001604051908101604052809291908181526020016000905b828210156109f05783829060005260206000200180546109639061116a565b80601f016020809104026020016040519081016040528092919081815260200182805461098f9061116a565b80156109dc5780601f106109b1576101008083540402835291602001916109dc565b820191906000526020600020905b8154815290600101906020018083116109bf57829003601f168201915b505050505081526020019060010190610944565b50505050815260200160045481526020016005548152602001600660009054906101000a900460ff16151581526020016007805480602002602001604051908101604052809291908181526020016000905b82821015610aee578382906000526020600020018054610a619061116a565b80601f0160208091040260200160405190810160405280929190818152602001828054610a8d9061116a565b8015610ada5780601f10610aaf57610100808354040283529160200191610ada565b820191906000526020600020905b815481529060010190602001808311610abd57829003601f168201915b505050505081526020019060010190610a42565b5050505081526020016008805480602002602001604051908101604052809291908181526020018280548015610b4d57602002820191906000526020600020905b81546001600160a01b03168152600190910190602001808311610b2f575b5050505050815260200160098054610b649061116a565b80601f0160208091040260200160405190810160405280929190818152602001828054610b909061116a565b8015610bdd5780601f10610bb257610100808354040283529160200191610bdd565b820191906000526020600020905b815481529060010190602001808311610bc057829003601f168201915b5050505050815250905090565b6002805461032a9061116a565b828054610c039061116a565b90600052602060002090601f016020900481019282610c255760008555610c6b565b82601f10610c3e57805160ff1916838001178555610c6b565b82800160010185558215610c6b579182015b82811115610c6b578251825591602001919060010190610c50565b50610c77929150610c7b565b5090565b5b80821115610c775760008155600101610c7c565b805b82525050565b60208101610ca68284610c90565b92915050565b60006001600160a01b038216610ca6565b610cc681610cac565b811461053357600080fd5b8035610ca681610cbd565b600060208284031215610cf157610cf1600080fd5b6000610cfd8484610cd1565b949350505050565b60005b83811015610d20578181015183820152602001610d08565b83811115610d2f576000848401525b50505050565b6000610d3f825190565b808452602084019350610d56818560208601610d05565b601f01601f19169290920192915050565b60208082528101610d788184610d35565b9392505050565b80610cc6565b8035610ca681610d7f565b600060208284031215610da557610da5600080fd5b6000610cfd8484610d85565b634e487b7160e01b600052604160045260246000fd5b601f19601f830116810181811067ffffffffffffffff82111715610ded57610ded610db1565b6040525050565b6000610dff60405190565b9050610e0b8282610dc7565b919050565b600067ffffffffffffffff821115610e2a57610e2a610db1565b601f19601f83011660200192915050565b82818337506000910152565b6000610e5a610e5584610e10565b610df4565b905082815260208101848484011115610e7557610e75600080fd5b610e80848285610e3b565b509392505050565b600082601f830112610e9c57610e9c600080fd5b8135610cfd848260208601610e47565b600060208284031215610ec157610ec1600080fd5b813567ffffffffffffffff811115610edb57610edb600080fd5b610cfd84828501610e88565b801515610c92565b60208101610ca68284610ee7565b610c9281610cac565b60208101610ca68284610efd565b6000610f208383610efd565b505060200190565b6000610f32825190565b80845260209384019383018060005b83811015610f66578151610f558882610f14565b975060208301925050600101610f41565b509495945050505050565b60208082528101610d788184610f28565b6000610d788383610d35565b6000610f98825190565b80845260208401935083602082028501610fb28560200190565b8060005b85811015610fe75784840389528151610fcf8582610f82565b94506020830160209a909a0199925050600101610fb6565b5091979650505050505050565b6000610ffe825190565b80845260209384019383018060005b83811015610f665781516110218882610f14565b97506020830192505060010161100d565b80516000906101608401906110478582610c90565b506020830151848203602086015261105f8282610d35565b915050604083015184820360408601526110798282610d35565b915050606083015184820360608601526110938282610d35565b915050608083015184820360808601526110ad8282610f8e565b91505060a08301516110c260a0860182610c90565b5060c08301516110d560c0860182610c90565b5060e08301516110e860e0860182610ee7565b506101008301518482036101008601526111028282610f8e565b91505061012083015184820361012086015261111e8282610ff4565b91505061014083015184820361014086015261113a8282610d35565b95945050505050565b60208082528101610d788184611032565b634e487b7160e01b600052602260045260246000fd5b60028104600182168061117e57607f821691505b6020821081141561119157611191611154565b50919050565b634e487b7160e01b600052601160045260246000fd5b6000828210156111bf576111bf611197565b500390565b600082198211156111d7576111d7611197565b500190565b634e487b7160e01b600052603260045260246000fdfea2646970667358221220ef8de027b7bac6227202079a59ad0e034a6382f86504bef4e8dfce3eb28fcbac64736f6c634300080b0033a2646970667358221220b3e6c93b6f228727584cce856a4cb638bb907f232fe9a0c7565a0a9dbca16ed064736f6c634300080b0033",
  "libraries": {
    "RefunderLib": "0xC9bDfa0822e14bcc54e68229C1EDb13539c43E46"
  },
  "devdoc": {
    "kind": "dev",
    "methods": {},
    "version": 1
  },
  "userdoc": {
    "kind": "user",
    "methods": {},
    "version": 1
  },
  "storageLayout": {
    "storage": [],
    "types": null
  }
}