{
  "address": "0xB4f8E04c1B01c2F50c1a0Fd919A3De76B7e8E61B",
  "abi": [
    {
      "inputs": [
        {
          "internalType": "address",
          "name": "_campaignAddress",
          "type": "address"
        }
      ],
      "name": "CrowdFunder__CampaignStillActive",
      "type": "error"
    },
    {
      "inputs": [
        {
          "internalType": "address",
          "name": "_campaignAddress",
          "type": "address"
        }
      ],
      "name": "CrowdFunder__DonationFailed",
      "type": "error"
    },
    {
      "inputs": [
        {
          "internalType": "address",
          "name": "_caller",
          "type": "address"
        },
        {
          "internalType": "address",
          "name": "_campaignAddress",
          "type": "address"
        }
      ],
      "name": "CrowdFunder__NotCreator",
      "type": "error"
    },
    {
      "inputs": [
        {
          "internalType": "address",
          "name": "_campaignAddress",
          "type": "address"
        }
      ],
      "name": "CrowdFunder__RefundFailed",
      "type": "error"
    },
    {
      "anonymous": false,
      "inputs": [
        {
          "indexed": true,
          "internalType": "address",
          "name": "_campaignAddress",
          "type": "address"
        },
        {
          "indexed": true,
          "internalType": "address",
          "name": "_creator",
          "type": "address"
        },
        {
          "indexed": false,
          "internalType": "string",
          "name": "_category",
          "type": "string"
        },
        {
          "indexed": false,
          "internalType": "string[]",
          "name": "_tags",
          "type": "string[]"
        }
      ],
      "name": "CampaignAdded",
      "type": "event"
    },
    {
      "anonymous": false,
      "inputs": [
        {
          "indexed": true,
          "internalType": "address",
          "name": "_funder",
          "type": "address"
        },
        {
          "indexed": true,
          "internalType": "address",
          "name": "_campaignAddress",
          "type": "address"
        }
      ],
      "name": "CampaignFunded",
      "type": "event"
    },
    {
      "anonymous": false,
      "inputs": [
        {
          "indexed": false,
          "internalType": "address",
          "name": "_campaignAddress",
          "type": "address"
        }
      ],
      "name": "CampaignPublished",
      "type": "event"
    },
    {
      "anonymous": false,
      "inputs": [
        {
          "indexed": true,
          "internalType": "address",
          "name": "_campaignAddress",
          "type": "address"
        }
      ],
      "name": "CampaignRemoved",
      "type": "event"
    },
    {
      "anonymous": false,
      "inputs": [
        {
          "indexed": true,
          "internalType": "address",
          "name": "_withdrawer",
          "type": "address"
        },
        {
          "indexed": true,
          "internalType": "address",
          "name": "_campaignAddress",
          "type": "address"
        }
      ],
      "name": "CampaignShrunk",
      "type": "event"
    },
    {
      "anonymous": false,
      "inputs": [
        {
          "indexed": true,
          "internalType": "address",
          "name": "_address",
          "type": "address"
        },
        {
          "indexed": false,
          "internalType": "string",
          "name": "_username",
          "type": "string"
        },
        {
          "indexed": false,
          "internalType": "string",
          "name": "_twitter",
          "type": "string"
        },
        {
          "indexed": false,
          "internalType": "string",
          "name": "_email",
          "type": "string"
        },
        {
          "indexed": false,
          "internalType": "string",
          "name": "_homeAddress",
          "type": "string"
        },
        {
          "indexed": false,
          "internalType": "string",
          "name": "_sig",
          "type": "string"
        }
      ],
      "name": "UserAdded",
      "type": "event"
    },
    {
      "inputs": [
        {
          "internalType": "string",
          "name": "_title",
          "type": "string"
        },
        {
          "internalType": "string",
          "name": "_description",
          "type": "string"
        },
        {
          "internalType": "string",
          "name": "_category",
          "type": "string"
        },
        {
          "internalType": "string[]",
          "name": "_tags",
          "type": "string[]"
        },
        {
          "internalType": "uint256",
          "name": "_goalAmount",
          "type": "uint256"
        },
        {
          "internalType": "uint256",
          "name": "_duration",
          "type": "uint256"
        },
        {
          "internalType": "string",
          "name": "_imageURI",
          "type": "string"
        }
      ],
      "name": "addCampaign",
      "outputs": [],
      "stateMutability": "nonpayable",
      "type": "function"
    },
    {
      "inputs": [
        {
          "internalType": "address",
          "name": "_address",
          "type": "address"
        },
        {
          "internalType": "string",
          "name": "_username",
          "type": "string"
        },
        {
          "internalType": "string",
          "name": "_twitter",
          "type": "string"
        },
        {
          "internalType": "string",
          "name": "_email",
          "type": "string"
        },
        {
          "internalType": "string",
          "name": "_homeAddress",
          "type": "string"
        },
        {
          "internalType": "string",
          "name": "_sig",
          "type": "string"
        }
      ],
      "name": "addUser",
      "outputs": [],
      "stateMutability": "nonpayable",
      "type": "function"
    },
    {
      "inputs": [],
      "name": "campaignCounter",
      "outputs": [
        {
          "internalType": "uint256",
          "name": "",
          "type": "uint256"
        }
      ],
      "stateMutability": "view",
      "type": "function"
    },
    {
      "inputs": [
        {
          "internalType": "address",
          "name": "_campaignAddress",
          "type": "address"
        }
      ],
      "name": "donateToCampaign",
      "outputs": [],
      "stateMutability": "payable",
      "type": "function"
    },
    {
      "inputs": [
        {
          "internalType": "address",
          "name": "_campaignAddress",
          "type": "address"
        },
        {
          "internalType": "address",
          "name": "_upkeepCreator",
          "type": "address"
        },
        {
          "internalType": "address",
          "name": "_linkToken",
          "type": "address"
        }
      ],
      "name": "publishCampaign",
      "outputs": [],
      "stateMutability": "nonpayable",
      "type": "function"
    },
    {
      "inputs": [
        {
          "internalType": "address",
          "name": "_campaignAddress",
          "type": "address"
        },
        {
          "internalType": "address",
          "name": "_donator",
          "type": "address"
        }
      ],
      "name": "refundFromCampaign",
      "outputs": [],
      "stateMutability": "nonpayable",
      "type": "function"
    },
    {
      "inputs": [
        {
          "internalType": "address",
          "name": "_campaignAddress",
          "type": "address"
        }
      ],
      "name": "removeCampaign",
      "outputs": [],
      "stateMutability": "nonpayable",
      "type": "function"
    }
  ],
  "transactionHash": "0x73374befd41cb0a65d6a4def1eb358de85ccee33d781b97b7950aa4c40ad800a",
  "args": [],
  "numDeployments": 3,
  "solcInputHash": "94a6806c1c99ec03ab98545d2edf423e",
  "bytecode": "0x608060405234801561001057600080fd5b50615fb5806100206000396000f3fe6080604052600436106200007a5760003560e01c80637c6abc8211620000555780637c6abc821462000109578063e4663a5b1462000129578063fab62a1d1462000157578063fca604d71462000185576200007a565b80631a702aa0146200007f578063359c4f3214620000ad57806353a0d46914620000db575b600080fd5b3480156200008c57600080fd5b50620000ab6004803603810190620000a5919062000e9f565b620001b5565b005b348015620000ba57600080fd5b50620000d96004803603810190620000d3919062000fd6565b62000215565b005b348015620000e857600080fd5b5062000107600480360381019062000101919062001154565b620003be565b005b620001276004803603810190620001219190620012a2565b620004fa565b005b3480156200013657600080fd5b506200015560048036038101906200014f9190620012a2565b62000695565b005b3480156200016457600080fd5b506200018360048036038101906200017d9190620012d4565b620009ed565b005b3480156200019257600080fd5b506200019d62000cb0565b604051620001ac919062001341565b60405180910390f35b8573ffffffffffffffffffffffffffffffffffffffff167f8a71481c426e212d085148853642cbd73769f57ca8e2a96eca998197465ab416868686868660405162000205959493929190620013f1565b60405180910390a2505050505050565b60008273ffffffffffffffffffffffffffffffffffffffff168260405160240162000241919062001482565b6040516020818303038152906040527ffa89401a000000000000000000000000000000000000000000000000000000007bffffffffffffffffffffffffffffffffffffffffffffffffffffffff19166020820180517bffffffffffffffffffffffffffffffffffffffffffffffffffffffff8381831617835250505050604051620002cd9190620014ec565b600060405180830381855af49150503d80600081146200030a576040519150601f19603f3d011682016040523d82523d6000602084013e6200030f565b606091505b5050905080156200037a578273ffffffffffffffffffffffffffffffffffffffff163373ffffffffffffffffffffffffffffffffffffffff167f9054f43c2e3f0a33645e2d3215afde366ee1037949dd258158140d157d8614ce60405160405180910390a3620003b9565b826040517f5bdf89f6000000000000000000000000000000000000000000000000000000008152600401620003b0919062001482565b60405180910390fd5b505050565b60003388888888888888604051620003d69062000cb6565b620003e998979695949392919062001692565b604051809103906000f08015801562000406573d6000803e3d6000fd5b50905080600160008373ffffffffffffffffffffffffffffffffffffffff1673ffffffffffffffffffffffffffffffffffffffff16815260200190815260200160002060006101000a81548173ffffffffffffffffffffffffffffffffffffffff021916908373ffffffffffffffffffffffffffffffffffffffff1602179055503373ffffffffffffffffffffffffffffffffffffffff168173ffffffffffffffffffffffffffffffffffffffff167fd1ef576cbb9cedc698256ae3d2464b38a636f26263382a3c2206c86d7c8c1fcf8888604051620004e892919062001743565b60405180910390a35050505050505050565b60008173ffffffffffffffffffffffffffffffffffffffff166040516024016040516020818303038152906040527fed88c68e000000000000000000000000000000000000000000000000000000007bffffffffffffffffffffffffffffffffffffffffffffffffffffffff19166020820180517bffffffffffffffffffffffffffffffffffffffffffffffffffffffff8381831617835250505050604051620005a59190620014ec565b600060405180830381855af49150503d8060008114620005e2576040519150601f19603f3d011682016040523d82523d6000602084013e620005e7565b606091505b50509050801562000652578173ffffffffffffffffffffffffffffffffffffffff163373ffffffffffffffffffffffffffffffffffffffff167f406c70a06d8422cfeb8281878b74e291f0feca05e5fd54df2cfbdc386611673660405160405180910390a362000691565b816040517ffe5dd8d300000000000000000000000000000000000000000000000000000000815260040162000688919062001482565b60405180910390fd5b5050565b803373ffffffffffffffffffffffffffffffffffffffff16600160008373ffffffffffffffffffffffffffffffffffffffff1673ffffffffffffffffffffffffffffffffffffffff16815260200190815260200160002060009054906101000a900473ffffffffffffffffffffffffffffffffffffffff1673ffffffffffffffffffffffffffffffffffffffff1663b145603e6040518163ffffffff1660e01b815260040160206040518083038186803b1580156200075357600080fd5b505afa15801562000768573d6000803e3d6000fd5b505050506040513d601f19601f820116820180604052508101906200078e9190620017c3565b73ffffffffffffffffffffffffffffffffffffffff1614620007eb5733816040517fd9e20da8000000000000000000000000000000000000000000000000000000008152600401620007e2929190620017f5565b60405180910390fd5b6000600160008473ffffffffffffffffffffffffffffffffffffffff1673ffffffffffffffffffffffffffffffffffffffff16815260200190815260200160002060009054906101000a900473ffffffffffffffffffffffffffffffffffffffff1673ffffffffffffffffffffffffffffffffffffffff166360fa9a726040518163ffffffff1660e01b815260040160206040518083038186803b1580156200089357600080fd5b505afa158015620008a8573d6000803e3d6000fd5b505050506040513d601f19601f82011682018060405250810190620008ce91906200184a565b6002811115620008e357620008e26200187c565b5b14156200092957816040517fdfecfddd00000000000000000000000000000000000000000000000000000000815260040162000920919062001482565b60405180910390fd5b600160008373ffffffffffffffffffffffffffffffffffffffff1673ffffffffffffffffffffffffffffffffffffffff16815260200190815260200160002060006101000a81549073ffffffffffffffffffffffffffffffffffffffff021916905560016000808282546200099f9190620018da565b925050819055508173ffffffffffffffffffffffffffffffffffffffff167fd41d62ed7a46b1f2f4c0a4c0fa40c95bbe14a7d55034ff9817b743d6cb79353660405160405180910390a25050565b823373ffffffffffffffffffffffffffffffffffffffff16600160008373ffffffffffffffffffffffffffffffffffffffff1673ffffffffffffffffffffffffffffffffffffffff16815260200190815260200160002060009054906101000a900473ffffffffffffffffffffffffffffffffffffffff1673ffffffffffffffffffffffffffffffffffffffff1663b145603e6040518163ffffffff1660e01b815260040160206040518083038186803b15801562000aab57600080fd5b505afa15801562000ac0573d6000803e3d6000fd5b505050506040513d601f19601f8201168201806040525081019062000ae69190620017c3565b73ffffffffffffffffffffffffffffffffffffffff161462000b435733816040517fd9e20da800000000000000000000000000000000000000000000000000000000815260040162000b3a929190620017f5565b60405180910390fd5b60008473ffffffffffffffffffffffffffffffffffffffff16848460405160240162000b71929190620017f5565b6040516020818303038152906040527f0c7d96b5000000000000000000000000000000000000000000000000000000007bffffffffffffffffffffffffffffffffffffffffffffffffffffffff19166020820180517bffffffffffffffffffffffffffffffffffffffffffffffffffffffff838183161783525050505060405162000bfd9190620014ec565b600060405180830381855af49150503d806000811462000c3a576040519150601f19603f3d011682016040523d82523d6000602084013e62000c3f565b606091505b50509050801562000ca457600160008082825462000c5e919062001915565b925050819055507f73e8189383ff7624bab72264727986ddc2467ca0c07220dd78ffbc46122ce0d48560405162000c96919062001482565b60405180910390a162000ca9565b600080fd5b5050505050565b60005481565b61460d806200197383390190565b6000604051905090565b600080fd5b600080fd5b600073ffffffffffffffffffffffffffffffffffffffff82169050919050565b600062000d058262000cd8565b9050919050565b62000d178162000cf8565b811462000d2357600080fd5b50565b60008135905062000d378162000d0c565b92915050565b600080fd5b600080fd5b6000601f19601f8301169050919050565b7f4e487b7100000000000000000000000000000000000000000000000000000000600052604160045260246000fd5b62000d928262000d47565b810181811067ffffffffffffffff8211171562000db45762000db362000d58565b5b80604052505050565b600062000dc962000cc4565b905062000dd7828262000d87565b919050565b600067ffffffffffffffff82111562000dfa5762000df962000d58565b5b62000e058262000d47565b9050602081019050919050565b82818337600083830152505050565b600062000e3862000e328462000ddc565b62000dbd565b90508281526020810184848401111562000e575762000e5662000d42565b5b62000e6484828562000e12565b509392505050565b600082601f83011262000e845762000e8362000d3d565b5b813562000e9684826020860162000e21565b91505092915050565b60008060008060008060c0878903121562000ebf5762000ebe62000cce565b5b600062000ecf89828a0162000d26565b965050602087013567ffffffffffffffff81111562000ef35762000ef262000cd3565b5b62000f0189828a0162000e6c565b955050604087013567ffffffffffffffff81111562000f255762000f2462000cd3565b5b62000f3389828a0162000e6c565b945050606087013567ffffffffffffffff81111562000f575762000f5662000cd3565b5b62000f6589828a0162000e6c565b935050608087013567ffffffffffffffff81111562000f895762000f8862000cd3565b5b62000f9789828a0162000e6c565b92505060a087013567ffffffffffffffff81111562000fbb5762000fba62000cd3565b5b62000fc989828a0162000e6c565b9150509295509295509295565b6000806040838503121562000ff05762000fef62000cce565b5b6000620010008582860162000d26565b9250506020620010138582860162000d26565b9150509250929050565b600067ffffffffffffffff8211156200103b576200103a62000d58565b5b602082029050602081019050919050565b600080fd5b60006200106862001062846200101d565b62000dbd565b905080838252602082019050602084028301858111156200108e576200108d6200104c565b5b835b81811015620010dc57803567ffffffffffffffff811115620010b757620010b662000d3d565b5b808601620010c6898262000e6c565b8552602085019450505060208101905062001090565b5050509392505050565b600082601f830112620010fe57620010fd62000d3d565b5b81356200111084826020860162001051565b91505092915050565b6000819050919050565b6200112e8162001119565b81146200113a57600080fd5b50565b6000813590506200114e8162001123565b92915050565b600080600080600080600060e0888a03121562001176576200117562000cce565b5b600088013567ffffffffffffffff81111562001197576200119662000cd3565b5b620011a58a828b0162000e6c565b975050602088013567ffffffffffffffff811115620011c957620011c862000cd3565b5b620011d78a828b0162000e6c565b965050604088013567ffffffffffffffff811115620011fb57620011fa62000cd3565b5b620012098a828b0162000e6c565b955050606088013567ffffffffffffffff8111156200122d576200122c62000cd3565b5b6200123b8a828b01620010e6565b94505060806200124e8a828b016200113d565b93505060a0620012618a828b016200113d565b92505060c088013567ffffffffffffffff81111562001285576200128462000cd3565b5b620012938a828b0162000e6c565b91505092959891949750929550565b600060208284031215620012bb57620012ba62000cce565b5b6000620012cb8482850162000d26565b91505092915050565b600080600060608486031215620012f057620012ef62000cce565b5b6000620013008682870162000d26565b9350506020620013138682870162000d26565b9250506040620013268682870162000d26565b9150509250925092565b6200133b8162001119565b82525050565b600060208201905062001358600083018462001330565b92915050565b600081519050919050565b600082825260208201905092915050565b60005b838110156200139a5780820151818401526020810190506200137d565b83811115620013aa576000848401525b50505050565b6000620013bd826200135e565b620013c9818562001369565b9350620013db8185602086016200137a565b620013e68162000d47565b840191505092915050565b600060a08201905081810360008301526200140d8188620013b0565b90508181036020830152620014238187620013b0565b90508181036040830152620014398186620013b0565b905081810360608301526200144f8185620013b0565b90508181036080830152620014658184620013b0565b90509695505050505050565b6200147c8162000cf8565b82525050565b600060208201905062001499600083018462001471565b92915050565b600081519050919050565b600081905092915050565b6000620014c2826200149f565b620014ce8185620014aa565b9350620014e08185602086016200137a565b80840191505092915050565b6000620014fa8284620014b5565b915081905092915050565b6000819050919050565b6000620015306200152a620015248462000cd8565b62001505565b62000cd8565b9050919050565b600062001544826200150f565b9050919050565b6000620015588262001537565b9050919050565b6200156a816200154b565b82525050565b600081519050919050565b600082825260208201905092915050565b6000819050602082019050919050565b600082825260208201905092915050565b6000620015ba826200135e565b620015c681856200159c565b9350620015d88185602086016200137a565b620015e38162000d47565b840191505092915050565b6000620015fc8383620015ad565b905092915050565b6000602082019050919050565b60006200161e8262001570565b6200162a81856200157b565b9350836020820285016200163e856200158c565b8060005b858110156200168057848403895281516200165e8582620015ee565b94506200166b8362001604565b925060208a0199505060018101905062001642565b50829750879550505050505092915050565b600061010082019050620016aa600083018b6200155f565b8181036020830152620016be818a620013b0565b90508181036040830152620016d48189620013b0565b90508181036060830152620016ea8188620013b0565b9050818103608083015262001700818762001611565b90506200171160a083018662001330565b6200172060c083018562001330565b81810360e0830152620017348184620013b0565b90509998505050505050505050565b600060408201905081810360008301526200175f8185620013b0565b9050818103602083015262001775818462001611565b90509392505050565b60006200178b8262000cd8565b9050919050565b6200179d816200177e565b8114620017a957600080fd5b50565b600081519050620017bd8162001792565b92915050565b600060208284031215620017dc57620017db62000cce565b5b6000620017ec84828501620017ac565b91505092915050565b60006040820190506200180c600083018562001471565b6200181b602083018462001471565b9392505050565b600381106200183057600080fd5b50565b600081519050620018448162001822565b92915050565b60006020828403121562001863576200186262000cce565b5b6000620018738482850162001833565b91505092915050565b7f4e487b7100000000000000000000000000000000000000000000000000000000600052602160045260246000fd5b7f4e487b7100000000000000000000000000000000000000000000000000000000600052601160045260246000fd5b6000620018e78262001119565b9150620018f48362001119565b9250828210156200190a5762001909620018ab565b5b828203905092915050565b6000620019228262001119565b91506200192f8362001119565b9250827fffffffffffffffffffffffffffffffffffffffffffffffffffffffffffffffff03821115620019675762001966620018ab565b5b82820190509291505056fe60c06040526000600a60006101000a81548160ff021916908360018111156200002d576200002c62000310565b5b02179055506000600a60016101000a81548160ff021916908360028111156200005b576200005a62000310565b5b02179055503480156200006d57600080fd5b506040516200460d3803806200460d833981810160405281019062000093919062000678565b8773ffffffffffffffffffffffffffffffffffffffff1660808173ffffffffffffffffffffffffffffffffffffffff1660601b815250508660009080519060200190620000e29291906200018b565b508560019080519060200190620000fb9291906200018b565b508460029080519060200190620001149291906200018b565b5083600590805190602001906200012d9291906200021c565b50826006819055504260a081815250508160078190555060075460a0516200015691906200080b565b6009819055508060039080519060200190620001749291906200018b565b5060006008819055505050505050505050620008cd565b828054620001999062000897565b90600052602060002090601f016020900481019282620001bd576000855562000209565b82601f10620001d857805160ff191683800117855562000209565b8280016001018555821562000209579182015b8281111562000208578251825591602001919060010190620001eb565b5b50905062000218919062000283565b5090565b82805482825590600052602060002090810192821562000270579160200282015b828111156200026f5782518290805190602001906200025e9291906200018b565b50916020019190600101906200023d565b5b5090506200027f9190620002a2565b5090565b5b808211156200029e57600081600090555060010162000284565b5090565b5b80821115620002c65760008181620002bc9190620002ca565b50600101620002a3565b5090565b508054620002d89062000897565b6000825580601f10620002ec57506200030d565b601f0160209004906000526020600020908101906200030c919062000283565b5b50565b7f4e487b7100000000000000000000000000000000000000000000000000000000600052602160045260246000fd5b6000604051905090565b600080fd5b600080fd5b600073ffffffffffffffffffffffffffffffffffffffff82169050919050565b6000620003808262000353565b9050919050565b620003928162000373565b81146200039e57600080fd5b50565b600081519050620003b28162000387565b92915050565b600080fd5b600080fd5b6000601f19601f8301169050919050565b7f4e487b7100000000000000000000000000000000000000000000000000000000600052604160045260246000fd5b6200040d82620003c2565b810181811067ffffffffffffffff821117156200042f576200042e620003d3565b5b80604052505050565b6000620004446200033f565b905062000452828262000402565b919050565b600067ffffffffffffffff821115620004755762000474620003d3565b5b6200048082620003c2565b9050602081019050919050565b60005b83811015620004ad57808201518184015260208101905062000490565b83811115620004bd576000848401525b50505050565b6000620004da620004d48462000457565b62000438565b905082815260208101848484011115620004f957620004f8620003bd565b5b620005068482856200048d565b509392505050565b600082601f830112620005265762000525620003b8565b5b815162000538848260208601620004c3565b91505092915050565b600067ffffffffffffffff8211156200055f576200055e620003d3565b5b602082029050602081019050919050565b600080fd5b60006200058c620005868462000541565b62000438565b90508083825260208201905060208402830185811115620005b257620005b162000570565b5b835b818110156200060057805167ffffffffffffffff811115620005db57620005da620003b8565b5b808601620005ea89826200050e565b85526020850194505050602081019050620005b4565b5050509392505050565b600082601f830112620006225762000621620003b8565b5b81516200063484826020860162000575565b91505092915050565b6000819050919050565b62000652816200063d565b81146200065e57600080fd5b50565b600081519050620006728162000647565b92915050565b600080600080600080600080610100898b0312156200069c576200069b62000349565b5b6000620006ac8b828c01620003a1565b985050602089015167ffffffffffffffff811115620006d057620006cf6200034e565b5b620006de8b828c016200050e565b975050604089015167ffffffffffffffff8111156200070257620007016200034e565b5b620007108b828c016200050e565b965050606089015167ffffffffffffffff8111156200073457620007336200034e565b5b620007428b828c016200050e565b955050608089015167ffffffffffffffff8111156200076657620007656200034e565b5b620007748b828c016200060a565b94505060a0620007878b828c0162000661565b93505060c06200079a8b828c0162000661565b92505060e089015167ffffffffffffffff811115620007be57620007bd6200034e565b5b620007cc8b828c016200050e565b9150509295985092959890939650565b7f4e487b7100000000000000000000000000000000000000000000000000000000600052601160045260246000fd5b600062000818826200063d565b915062000825836200063d565b9250827fffffffffffffffffffffffffffffffffffffffffffffffffffffffffffffffff038211156200085d576200085c620007dc565b5b828201905092915050565b7f4e487b7100000000000000000000000000000000000000000000000000000000600052602260045260246000fd5b60006002820490506001821680620008b057607f821691505b60208210811415620008c757620008c662000868565b5b50919050565b60805160601c60a051613cca6200094360003960006117ee0152600081816107210152818161114e015281816112b2015281816113b50152818161146601528181611558015281816116d50152818161187c01528181611a6d01528181611c2901528181611d390152611f100152613cca6000f3fe6080604052600436106101cd5760003560e01c80636d869814116100f7578063b145603e11610095578063e7cf1ab711610064578063e7cf1ab71461066d578063ed88c68e14610696578063f301af42146106a0578063fa89401a146106e2576101cd565b8063b145603e146105c1578063bf66e2c8146105ec578063ce2a057214610617578063ce845d1d14610642576101cd565b8063743857cb116100d1578063743857cb1461050557806395086ed11461053057806399a8502d1461056d5780639a91379314610598576101cd565b80636d869814146104875780636e04ff0d146104b057806371aac7f9146104ee576101cd565b80634278ac8b1161016f57806360fa9a721161013e57806360fa9a72146103cb5780636235887a146103f657806363bd1d4a1461043357806369066ae91461044a576101cd565b80634278ac8b146103235780634585e33b1461034e5780634d695bdb146103775780634ef89719146103a0576101cd565b80631910bdc2116101ab5780631910bdc2146102535780631c4b774b146102905780632636b945146102cd57806329dcb0cf146102f8576101cd565b80630c611f24146101d25780630fb5a6b4146101fd57806315a46ee614610228575b600080fd5b3480156101de57600080fd5b506101e761070b565b6040516101f49190612bf8565b60405180910390f35b34801561020957600080fd5b50610212610b4c565b60405161021f9190612c29565b60405180910390f35b34801561023457600080fd5b5061023d610b52565b60405161024a9190612c8e565b60405180910390f35b34801561025f57600080fd5b5061027a60048036038101906102759190612cf0565b610be0565b6040516102879190612dcc565b60405180910390f35b34801561029c57600080fd5b506102b760048036038101906102b29190612e1a565b610c77565b6040516102c49190612f27565b60405180910390f35b3480156102d957600080fd5b506102e2610fb4565b6040516102ef9190612c29565b60405180910390f35b34801561030457600080fd5b5061030d610fba565b60405161031a9190612c29565b60405180910390f35b34801561032f57600080fd5b50610338610fc0565b6040516103459190612c8e565b60405180910390f35b34801561035a57600080fd5b5061037560048036038101906103709190612fae565b61104e565b005b34801561038357600080fd5b5061039e6004803603810190610399919061312b565b61114c565b005b3480156103ac57600080fd5b506103b56111eb565b6040516103c29190612c8e565b60405180910390f35b3480156103d757600080fd5b506103e0611279565b6040516103ed9190613183565b60405180910390f35b34801561040257600080fd5b5061041d60048036038101906104189190612e1a565b61128c565b60405161042a9190612c29565b60405180910390f35b34801561043f57600080fd5b506104486112b0565b005b34801561045657600080fd5b50610471600480360381019061046c9190612e1a565b6114aa565b60405161047e9190612c8e565b60405180910390f35b34801561049357600080fd5b506104ae60048036038101906104a9919061319e565b611556565b005b3480156104bc57600080fd5b506104d760048036038101906104d2919061327f565b6117a9565b6040516104e592919061332c565b60405180910390f35b3480156104fa57600080fd5b5061050361187a565b005b34801561051157600080fd5b5061051a611999565b60405161052791906133a4565b60405180910390f35b34801561053c57600080fd5b50610557600480360381019061055291906133bf565b6119ac565b6040516105649190612c29565b60405180910390f35b34801561057957600080fd5b506105826119dd565b60405161058f9190612c8e565b60405180910390f35b3480156105a457600080fd5b506105bf60048036038101906105ba919061350c565b611a6b565b005b3480156105cd57600080fd5b506105d6611c27565b6040516105e39190613653565b60405180910390f35b3480156105f857600080fd5b50610601611c4b565b60405161060e9190612dcc565b60405180910390f35b34801561062357600080fd5b5061062c611ca3565b6040516106399190612c8e565b60405180910390f35b34801561064e57600080fd5b50610657611d31565b6040516106649190612c29565b60405180910390f35b34801561067957600080fd5b50610694600480360381019061068f9190612e1a565b611d37565b005b61069e611ea1565b005b3480156106ac57600080fd5b506106c760048036038101906106c29190612e1a565b61217b565b6040516106d99695949392919061366e565b60405180910390f35b3480156106ee57600080fd5b5061070960048036038101906107049190612cf0565b6122d4565b005b61071361262c565b6040518061018001604052807f000000000000000000000000000000000000000000000000000000000000000073ffffffffffffffffffffffffffffffffffffffff168152602001600080546107689061370c565b80601f01602080910402602001604051908101604052809291908181526020018280546107949061370c565b80156107e15780601f106107b6576101008083540402835291602001916107e1565b820191906000526020600020905b8154815290600101906020018083116107c457829003601f168201915b50505050508152602001600180546107f89061370c565b80601f01602080910402602001604051908101604052809291908181526020018280546108249061370c565b80156108715780601f1061084657610100808354040283529160200191610871565b820191906000526020600020905b81548152906001019060200180831161085457829003601f168201915b50505050508152602001600280546108889061370c565b80601f01602080910402602001604051908101604052809291908181526020018280546108b49061370c565b80156109015780601f106108d657610100808354040283529160200191610901565b820191906000526020600020905b8154815290600101906020018083116108e457829003601f168201915b505050505081526020016005805480602002602001604051908101604052809291908181526020016000905b828210156109d957838290600052602060002001805461094c9061370c565b80601f01602080910402602001604051908101604052809291908181526020018280546109789061370c565b80156109c55780601f1061099a576101008083540402835291602001916109c5565b820191906000526020600020905b8154815290600101906020018083116109a857829003601f168201915b50505050508152602001906001019061092d565b505050508152602001600654815260200160075481526020016008548152602001600a60019054906101000a900460ff166002811115610a1c57610a1b612a5a565b5b815260200160038054610a2e9061370c565b80601f0160208091040260200160405190810160405280929190818152602001828054610a5a9061370c565b8015610aa75780601f10610a7c57610100808354040283529160200191610aa7565b820191906000526020600020905b815481529060010190602001808311610a8a57829003601f168201915b5050505050815260200160048054610abe9061370c565b80601f0160208091040260200160405190810160405280929190818152602001828054610aea9061370c565b8015610b375780601f10610b0c57610100808354040283529160200191610b37565b820191906000526020600020905b815481529060010190602001808311610b1a57829003601f168201915b50505050508152602001600954815250905090565b60075481565b60048054610b5f9061370c565b80601f0160208091040260200160405190810160405280929190818152602001828054610b8b9061370c565b8015610bd85780601f10610bad57610100808354040283529160200191610bd8565b820191906000526020600020905b815481529060010190602001808311610bbb57829003601f168201915b505050505081565b6060600d60008373ffffffffffffffffffffffffffffffffffffffff1673ffffffffffffffffffffffffffffffffffffffff168152602001908152602001600020805480602002602001604051908101604052809291908181526020018280548015610c6b57602002820191906000526020600020905b815481526020019060010190808311610c57575b50505050509050919050565b610c7f6126b5565b600c60008381526020019081526020016000206040518061010001604052908160008201548152602001600182018054610cb89061370c565b80601f0160208091040260200160405190810160405280929190818152602001828054610ce49061370c565b8015610d315780601f10610d0657610100808354040283529160200191610d31565b820191906000526020600020905b815481529060010190602001808311610d1457829003601f168201915b50505050508152602001600282018054610d4a9061370c565b80601f0160208091040260200160405190810160405280929190818152602001828054610d769061370c565b8015610dc35780601f10610d9857610100808354040283529160200191610dc3565b820191906000526020600020905b815481529060010190602001808311610da657829003601f168201915b5050505050815260200160038201805480602002602001604051908101604052809291908181526020016000905b82821015610e9d578382906000526020600020018054610e109061370c565b80601f0160208091040260200160405190810160405280929190818152602001828054610e3c9061370c565b8015610e895780601f10610e5e57610100808354040283529160200191610e89565b820191906000526020600020905b815481529060010190602001808311610e6c57829003601f168201915b505050505081526020019060010190610df1565b50505050815260200160048201548152602001600582015481526020016006820160009054906101000a900460ff1615151515815260200160078201805480602002602001604051908101604052809291908181526020016000905b82821015610fa5578382906000526020600020018054610f189061370c565b80601f0160208091040260200160405190810160405280929190818152602001828054610f449061370c565b8015610f915780601f10610f6657610100808354040283529160200191610f91565b820191906000526020600020905b815481529060010190602001808311610f7457829003601f168201915b505050505081526020019060010190610ef9565b50505050815250509050919050565b60065481565b60095481565b60028054610fcd9061370c565b80601f0160208091040260200160405190810160405280929190818152602001828054610ff99061370c565b80156110465780601f1061101b57610100808354040283529160200191611046565b820191906000526020600020905b81548152906001019060200180831161102957829003601f168201915b505050505081565b6000611068604051806020016040528060008152506117a9565b509050806110a2576040517f311f87a100000000000000000000000000000000000000000000000000000000815260040160405180910390fd5b6001600a60016101000a81548160ff021916908360028111156110c8576110c7612a5a565b5b02179055507f5cf8cd2bd40f758a95257bed666285eb82801f1bf9223b8ec1481e510ba2e82d306040516110fc919061374d565b60405180910390a160065460085410611147577f5369558c667e962b633128a01c31764d053da51f61d17370d327ed17f77deccc3060405161113e919061374d565b60405180910390a15b505050565b7f000000000000000000000000000000000000000000000000000000000000000073ffffffffffffffffffffffffffffffffffffffff163373ffffffffffffffffffffffffffffffffffffffff16146111d1576040517f778e4c5e00000000000000000000000000000000000000000000000000000000815260040160405180910390fd5b80600490805190602001906111e79291906126fc565b5050565b600180546111f89061370c565b80601f01602080910402602001604051908101604052809291908181526020018280546112249061370c565b80156112715780601f1061124657610100808354040283529160200191611271565b820191906000526020600020905b81548152906001019060200180831161125457829003601f168201915b505050505081565b600a60019054906101000a900460ff1681565b600e818154811061129c57600080fd5b906000526020600020016000915090505481565b7f000000000000000000000000000000000000000000000000000000000000000073ffffffffffffffffffffffffffffffffffffffff163373ffffffffffffffffffffffffffffffffffffffff1614611335576040517f778e4c5e00000000000000000000000000000000000000000000000000000000815260040160405180910390fd5b6001600281111561134957611348612a5a565b5b600a60019054906101000a900460ff16600281111561136b5761136a612a5a565b5b146113a2576040517ffa4021a300000000000000000000000000000000000000000000000000000000815260040160405180910390fd5b60006008549050600060088190555060007f000000000000000000000000000000000000000000000000000000000000000073ffffffffffffffffffffffffffffffffffffffff16826040516113f790613799565b60006040518083038185875af1925050503d8060008114611434576040519150601f19603f3d011682016040523d82523d6000602084013e611439565b606091505b5050905080156114a1577fba5e837743d81ad0e6deb16089dbb65b549fdda8ad802fd8d4822884d70dc8b27f00000000000000000000000000000000000000000000000000000000000000003060405161149492919061380d565b60405180910390a16114a6565b600080fd5b5050565b600581815481106114ba57600080fd5b9060005260206000200160009150905080546114d59061370c565b80601f01602080910402602001604051908101604052809291908181526020018280546115019061370c565b801561154e5780601f106115235761010080835404028352916020019161154e565b820191906000526020600020905b81548152906001019060200180831161153157829003601f168201915b505050505081565b7f000000000000000000000000000000000000000000000000000000000000000073ffffffffffffffffffffffffffffffffffffffff163373ffffffffffffffffffffffffffffffffffffffff16146115db576040517f778e4c5e00000000000000000000000000000000000000000000000000000000815260040160405180910390fd5b6000829050600082905060008173ffffffffffffffffffffffffffffffffffffffff166370a08231866040518263ffffffff1660e01b8152600401611620919061374d565b60206040518083038186803b15801561163857600080fd5b505afa15801561164c573d6000803e3d6000fd5b505050506040513d601f19601f82011682018060405250810190611670919061384b565b116116b0576040517f08c379a00000000000000000000000000000000000000000000000000000000081526004016116a7906138c4565b60405180910390fd5b8173ffffffffffffffffffffffffffffffffffffffff166318a9fb8a6000306207a1207f0000000000000000000000000000000000000000000000000000000000000000678ac7230489e8000060006040518763ffffffff1660e01b815260040161172096959493929190613aab565b602060405180830381600087803b15801561173a57600080fd5b505af115801561174e573d6000803e3d6000fd5b505050506040513d601f19601f82011682018060405250810190611772919061384b565b600b819055506001600a60006101000a81548160ff0219169083600181111561179e5761179d612a5a565b5b021790555050505050565b6000606060008060028111156117c2576117c1612a5a565b5b600a60019054906101000a900460ff1660028111156117e4576117e3612a5a565b5b14905060006007547f0000000000000000000000000000000000000000000000000000000000000000426118189190613b69565b1190506000804711905081801561182c5750825b80156118355750805b9450846040518060400160405280600381526020017f307830000000000000000000000000000000000000000000000000000000000081525094509450505050915091565b7f000000000000000000000000000000000000000000000000000000000000000073ffffffffffffffffffffffffffffffffffffffff163373ffffffffffffffffffffffffffffffffffffffff16146118ff576040517f778e4c5e00000000000000000000000000000000000000000000000000000000815260040160405180910390fd5b6001600281111561191357611912612a5a565b5b600a60019054906101000a900460ff16600281111561193557611934612a5a565b5b141561194057600080fd5b6002600a60016101000a81548160ff0219169083600281111561196657611965612a5a565b5b02179055507fb83ebe09f40e9293bdea1d6567fae3175119d3d0ff13c4b4df15994837dd7f5160405160405180910390a1565b600a60009054906101000a900460ff1681565b600d60205281600052604060002081815481106119c857600080fd5b90600052602060002001600091509150505481565b600080546119ea9061370c565b80601f0160208091040260200160405190810160405280929190818152602001828054611a169061370c565b8015611a635780601f10611a3857610100808354040283529160200191611a63565b820191906000526020600020905b815481529060010190602001808311611a4657829003601f168201915b505050505081565b7f000000000000000000000000000000000000000000000000000000000000000073ffffffffffffffffffffffffffffffffffffffff163373ffffffffffffffffffffffffffffffffffffffff1614611af0576040517f778e4c5e00000000000000000000000000000000000000000000000000000000815260040160405180910390fd5b600e889080600181540180825580915050600190039060005260206000200160009091909190915055604051806101000160405280898152602001888152602001878152602001868152602001858152602001848152602001831515815260200182815250600c60008a8152602001908152602001600020600082015181600001556020820151816001019080519060200190611b8e9291906126fc565b506040820151816002019080519060200190611bab9291906126fc565b506060820151816003019080519060200190611bc8929190612782565b506080820151816004015560a0820151816005015560c08201518160060160006101000a81548160ff02191690831515021790555060e0820151816007019080519060200190611c19929190612782565b509050505050505050505050565b7f000000000000000000000000000000000000000000000000000000000000000081565b6060600e805480602002602001604051908101604052809291908181526020018280548015611c9957602002820191906000526020600020905b815481526020019060010190808311611c85575b5050505050905090565b60038054611cb09061370c565b80601f0160208091040260200160405190810160405280929190818152602001828054611cdc9061370c565b8015611d295780601f10611cfe57610100808354040283529160200191611d29565b820191906000526020600020905b815481529060010190602001808311611d0c57829003601f168201915b505050505081565b60085481565b7f000000000000000000000000000000000000000000000000000000000000000073ffffffffffffffffffffffffffffffffffffffff163373ffffffffffffffffffffffffffffffffffffffff1614611dbc576040517f778e4c5e00000000000000000000000000000000000000000000000000000000815260040160405180910390fd5b60006001811115611dd057611dcf612a5a565b5b600a60009054906101000a900460ff166001811115611df257611df1612a5a565b5b14611dfc57600080fd5b6000600c6000838152602001908152602001600020600001541115611e9e57600c6000828152602001908152602001600020600080820160009055600182016000611e4791906127e2565b600282016000611e5791906127e2565b600382016000611e679190612822565b600482016000905560058201600090556006820160006101000a81549060ff0219169055600782016000611e9b9190612822565b50505b50565b60006002811115611eb557611eb4612a5a565b5b600a60019054906101000a900460ff166002811115611ed757611ed6612a5a565b5b14611f0e576040517ffa4021a300000000000000000000000000000000000000000000000000000000815260040160405180910390fd5b7f000000000000000000000000000000000000000000000000000000000000000073ffffffffffffffffffffffffffffffffffffffff163373ffffffffffffffffffffffffffffffffffffffff161415611f94576040517f5b3890a000000000000000000000000000000000000000000000000000000000815260040160405180910390fd5b611fa9346008546125ae90919063ffffffff16565b6008819055506000600c600034815260200190815260200160002060000154118015611ff65750600c600034815260200190815260200160002060060160009054906101000a900460ff16155b156120c1576001600c60003481526020019081526020016000206005015461201e9190613b69565b506000600c600034815260200190815260200160002060050154116120c057600c600034815260200190815260200160002060008082016000905560018201600061206991906127e2565b60028201600061207991906127e2565b6003820160006120899190612822565b600482016000905560058201600090556006820160006101000a81549060ff02191690556007820160006120bd9190612822565b50505b5b600d60003373ffffffffffffffffffffffffffffffffffffffff1673ffffffffffffffffffffffffffffffffffffffff1681526020019081526020016000203490806001815401808255809150506001900390600052602060002001600090919091909150553373ffffffffffffffffffffffffffffffffffffffff167fe76ad748537a48e778fef43dda4a6bd1b50cd62385f9f21a9ca267492355120834600854604051612171929190613b9d565b60405180910390a2565b600c6020528060005260406000206000915090508060000154908060010180546121a49061370c565b80601f01602080910402602001604051908101604052809291908181526020018280546121d09061370c565b801561221d5780601f106121f25761010080835404028352916020019161221d565b820191906000526020600020905b81548152906001019060200180831161220057829003601f168201915b5050505050908060020180546122329061370c565b80601f016020809104026020016040519081016040528092919081815260200182805461225e9061370c565b80156122ab5780601f10612280576101008083540402835291602001916122ab565b820191906000526020600020905b81548152906001019060200180831161228e57829003601f168201915b5050505050908060040154908060050154908060060160009054906101000a900460ff16905086565b600160028111156122e8576122e7612a5a565b5b600a60019054906101000a900460ff16600281111561230a57612309612a5a565b5b1415612342576040517ffa4021a300000000000000000000000000000000000000000000000000000000815260040160405180910390fd5b6000600d60008373ffffffffffffffffffffffffffffffffffffffff1673ffffffffffffffffffffffffffffffffffffffff1681526020019081526020016000208054905014156123ca57806040517fc43858590000000000000000000000000000000000000000000000000000000081526004016123c1919061374d565b60405180910390fd5b6000612462600d60008473ffffffffffffffffffffffffffffffffffffffff1673ffffffffffffffffffffffffffffffffffffffff16815260200190815260200160002080548060200260200160405190810160405280929190818152602001828054801561245857602002820191906000526020600020905b815481526020019060010190808311612444575b50505050506125c4565b9050600d60008373ffffffffffffffffffffffffffffffffffffffff1673ffffffffffffffffffffffffffffffffffffffff16815260200190815260200160002060006124af9190612843565b8060085410156124eb576040517f52c3b68400000000000000000000000000000000000000000000000000000000815260040160405180910390fd5b6125008160085461261690919063ffffffff16565b60088190555060008273ffffffffffffffffffffffffffffffffffffffff168260405161252c90613799565b60006040518083038185875af1925050503d8060008114612569576040519150601f19603f3d011682016040523d82523d6000602084013e61256e565b606091505b50509050806125a9576040517f92e9f8f100000000000000000000000000000000000000000000000000000000815260040160405180910390fd5b505050565b600081836125bc9190613bc6565b905092915050565b600080600090505b8251811015612610578281815181106125e8576125e7613c1c565b5b6020026020010151826125fb9190613bc6565b9150808061260890613c4b565b9150506125cc565b50919050565b600081836126249190613b69565b905092915050565b604051806101800160405280600073ffffffffffffffffffffffffffffffffffffffff168152602001606081526020016060815260200160608152602001606081526020016000815260200160008152602001600081526020016000600281111561269a57612699612a5a565b5b81526020016060815260200160608152602001600081525090565b604051806101000160405280600081526020016060815260200160608152602001606081526020016000815260200160008152602001600015158152602001606081525090565b8280546127089061370c565b90600052602060002090601f01602090048101928261272a5760008555612771565b82601f1061274357805160ff1916838001178555612771565b82800160010185558215612771579182015b82811115612770578251825591602001919060010190612755565b5b50905061277e9190612864565b5090565b8280548282559060005260206000209081019282156127d1579160200282015b828111156127d05782518290805190602001906127c09291906126fc565b50916020019190600101906127a2565b5b5090506127de9190612881565b5090565b5080546127ee9061370c565b6000825580601f10612800575061281f565b601f01602090049060005260206000209081019061281e9190612864565b5b50565b50805460008255906000526020600020908101906128409190612881565b50565b50805460008255906000526020600020908101906128619190612864565b50565b5b8082111561287d576000816000905550600101612865565b5090565b5b808211156128a1576000818161289891906127e2565b50600101612882565b5090565b600073ffffffffffffffffffffffffffffffffffffffff82169050919050565b60006128d0826128a5565b9050919050565b6128e0816128c5565b82525050565b600081519050919050565b600082825260208201905092915050565b60005b83811015612920578082015181840152602081019050612905565b8381111561292f576000848401525b50505050565b6000601f19601f8301169050919050565b6000612951826128e6565b61295b81856128f1565b935061296b818560208601612902565b61297481612935565b840191505092915050565b600081519050919050565b600082825260208201905092915050565b6000819050602082019050919050565b60006129b78383612946565b905092915050565b6000602082019050919050565b60006129d78261297f565b6129e1818561298a565b9350836020820285016129f38561299b565b8060005b85811015612a2f5784840389528151612a1085826129ab565b9450612a1b836129bf565b925060208a019950506001810190506129f7565b50829750879550505050505092915050565b6000819050919050565b612a5481612a41565b82525050565b7f4e487b7100000000000000000000000000000000000000000000000000000000600052602160045260246000fd5b60038110612a9a57612a99612a5a565b5b50565b6000819050612aab82612a89565b919050565b6000612abb82612a9d565b9050919050565b612acb81612ab0565b82525050565b600061018083016000830151612aea60008601826128d7565b5060208301518482036020860152612b028282612946565b91505060408301518482036040860152612b1c8282612946565b91505060608301518482036060860152612b368282612946565b91505060808301518482036080860152612b5082826129cc565b91505060a0830151612b6560a0860182612a4b565b5060c0830151612b7860c0860182612a4b565b5060e0830151612b8b60e0860182612a4b565b50610100830151612ba0610100860182612ac2565b50610120830151848203610120860152612bba8282612946565b915050610140830151848203610140860152612bd68282612946565b915050610160830151612bed610160860182612a4b565b508091505092915050565b60006020820190508181036000830152612c128184612ad1565b905092915050565b612c2381612a41565b82525050565b6000602082019050612c3e6000830184612c1a565b92915050565b600082825260208201905092915050565b6000612c60826128e6565b612c6a8185612c44565b9350612c7a818560208601612902565b612c8381612935565b840191505092915050565b60006020820190508181036000830152612ca88184612c55565b905092915050565b6000604051905090565b600080fd5b600080fd5b612ccd816128c5565b8114612cd857600080fd5b50565b600081359050612cea81612cc4565b92915050565b600060208284031215612d0657612d05612cba565b5b6000612d1484828501612cdb565b91505092915050565b600081519050919050565b600082825260208201905092915050565b6000819050602082019050919050565b6000612d558383612a4b565b60208301905092915050565b6000602082019050919050565b6000612d7982612d1d565b612d838185612d28565b9350612d8e83612d39565b8060005b83811015612dbf578151612da68882612d49565b9750612db183612d61565b925050600181019050612d92565b5085935050505092915050565b60006020820190508181036000830152612de68184612d6e565b905092915050565b612df781612a41565b8114612e0257600080fd5b50565b600081359050612e1481612dee565b92915050565b600060208284031215612e3057612e2f612cba565b5b6000612e3e84828501612e05565b91505092915050565b60008115159050919050565b612e5c81612e47565b82525050565b600061010083016000830151612e7b6000860182612a4b565b5060208301518482036020860152612e938282612946565b91505060408301518482036040860152612ead8282612946565b91505060608301518482036060860152612ec782826129cc565b9150506080830151612edc6080860182612a4b565b5060a0830151612eef60a0860182612a4b565b5060c0830151612f0260c0860182612e53565b5060e083015184820360e0860152612f1a82826129cc565b9150508091505092915050565b60006020820190508181036000830152612f418184612e62565b905092915050565b600080fd5b600080fd5b600080fd5b60008083601f840112612f6e57612f6d612f49565b5b8235905067ffffffffffffffff811115612f8b57612f8a612f4e565b5b602083019150836001820283011115612fa757612fa6612f53565b5b9250929050565b60008060208385031215612fc557612fc4612cba565b5b600083013567ffffffffffffffff811115612fe357612fe2612cbf565b5b612fef85828601612f58565b92509250509250929050565b600080fd5b7f4e487b7100000000000000000000000000000000000000000000000000000000600052604160045260246000fd5b61303882612935565b810181811067ffffffffffffffff8211171561305757613056613000565b5b80604052505050565b600061306a612cb0565b9050613076828261302f565b919050565b600067ffffffffffffffff82111561309657613095613000565b5b61309f82612935565b9050602081019050919050565b82818337600083830152505050565b60006130ce6130c98461307b565b613060565b9050828152602081018484840111156130ea576130e9612ffb565b5b6130f58482856130ac565b509392505050565b600082601f83011261311257613111612f49565b5b81356131228482602086016130bb565b91505092915050565b60006020828403121561314157613140612cba565b5b600082013567ffffffffffffffff81111561315f5761315e612cbf565b5b61316b848285016130fd565b91505092915050565b61317d81612ab0565b82525050565b60006020820190506131986000830184613174565b92915050565b600080604083850312156131b5576131b4612cba565b5b60006131c385828601612cdb565b92505060206131d485828601612cdb565b9150509250929050565b600067ffffffffffffffff8211156131f9576131f8613000565b5b61320282612935565b9050602081019050919050565b600061322261321d846131de565b613060565b90508281526020810184848401111561323e5761323d612ffb565b5b6132498482856130ac565b509392505050565b600082601f83011261326657613265612f49565b5b813561327684826020860161320f565b91505092915050565b60006020828403121561329557613294612cba565b5b600082013567ffffffffffffffff8111156132b3576132b2612cbf565b5b6132bf84828501613251565b91505092915050565b6132d181612e47565b82525050565b600081519050919050565b600082825260208201905092915050565b60006132fe826132d7565b61330881856132e2565b9350613318818560208601612902565b61332181612935565b840191505092915050565b600060408201905061334160008301856132c8565b818103602083015261335381846132f3565b90509392505050565b6002811061336d5761336c612a5a565b5b50565b600081905061337e8261335c565b919050565b600061338e82613370565b9050919050565b61339e81613383565b82525050565b60006020820190506133b96000830184613395565b92915050565b600080604083850312156133d6576133d5612cba565b5b60006133e485828601612cdb565b92505060206133f585828601612e05565b9150509250929050565b600067ffffffffffffffff82111561341a57613419613000565b5b602082029050602081019050919050565b600061343e613439846133ff565b613060565b9050808382526020820190506020840283018581111561346157613460612f53565b5b835b818110156134a857803567ffffffffffffffff81111561348657613485612f49565b5b80860161349389826130fd565b85526020850194505050602081019050613463565b5050509392505050565b600082601f8301126134c7576134c6612f49565b5b81356134d784826020860161342b565b91505092915050565b6134e981612e47565b81146134f457600080fd5b50565b600081359050613506816134e0565b92915050565b600080600080600080600080610100898b03121561352d5761352c612cba565b5b600061353b8b828c01612e05565b985050602089013567ffffffffffffffff81111561355c5761355b612cbf565b5b6135688b828c016130fd565b975050604089013567ffffffffffffffff81111561358957613588612cbf565b5b6135958b828c016130fd565b965050606089013567ffffffffffffffff8111156135b6576135b5612cbf565b5b6135c28b828c016134b2565b95505060806135d38b828c01612e05565b94505060a06135e48b828c01612e05565b93505060c06135f58b828c016134f7565b92505060e089013567ffffffffffffffff81111561361657613615612cbf565b5b6136228b828c016134b2565b9150509295985092959890939650565b600061363d826128a5565b9050919050565b61364d81613632565b82525050565b60006020820190506136686000830184613644565b92915050565b600060c0820190506136836000830189612c1a565b81810360208301526136958188612c55565b905081810360408301526136a98187612c55565b90506136b86060830186612c1a565b6136c56080830185612c1a565b6136d260a08301846132c8565b979650505050505050565b7f4e487b7100000000000000000000000000000000000000000000000000000000600052602260045260246000fd5b6000600282049050600182168061372457607f821691505b60208210811415613738576137376136dd565b5b50919050565b613747816128c5565b82525050565b6000602082019050613762600083018461373e565b92915050565b600081905092915050565b50565b6000613783600083613768565b915061378e82613773565b600082019050919050565b60006137a482613776565b9150819050919050565b6000819050919050565b60006137d36137ce6137c9846128a5565b6137ae565b6128a5565b9050919050565b60006137e5826137b8565b9050919050565b60006137f7826137da565b9050919050565b613807816137ec565b82525050565b600060408201905061382260008301856137fe565b61382f602083018461373e565b9392505050565b60008151905061384581612dee565b92915050565b60006020828403121561386157613860612cba565b5b600061386f84828501613836565b91505092915050565b7f6e6f2066756e6473000000000000000000000000000000000000000000000000600082015250565b60006138ae600883612c44565b91506138b982613878565b602082019050919050565b600060208201905081810360008301526138dd816138a1565b9050919050565b60008190508160005260206000209050919050565b600081546139068161370c565b6139108186612c44565b9450600182166000811461392b576001811461393d57613970565b60ff1983168652602086019350613970565b613946856138e4565b60005b8381101561396857815481890152600182019150602081019050613949565b808801955050505b50505092915050565b7f3078000000000000000000000000000000000000000000000000000000000000600082015250565b60006139af6002836132e2565b91506139ba82613979565b602082019050919050565b6000819050919050565b600063ffffffff82169050919050565b60006139fa6139f56139f0846139c5565b6137ae565b6139cf565b9050919050565b613a0a816139df565b82525050565b6000819050919050565b60006bffffffffffffffffffffffff82169050919050565b6000613a4d613a48613a4384613a10565b6137ae565b613a1a565b9050919050565b613a5d81613a32565b82525050565b6000819050919050565b600060ff82169050919050565b6000613a95613a90613a8b84613a63565b6137ae565b613a6d565b9050919050565b613aa581613a7a565b82525050565b6000610100820190508181036000830152613ac681896138f9565b90508181036020830152613ad9816139a2565b9050613ae8604083018861373e565b613af56060830187613a01565b613b0260808301866137fe565b81810360a0830152613b13816139a2565b9050613b2260c0830185613a54565b613b2f60e0830184613a9c565b979650505050505050565b7f4e487b7100000000000000000000000000000000000000000000000000000000600052601160045260246000fd5b6000613b7482612a41565b9150613b7f83612a41565b925082821015613b9257613b91613b3a565b5b828203905092915050565b6000604082019050613bb26000830185612c1a565b613bbf6020830184612c1a565b9392505050565b6000613bd182612a41565b9150613bdc83612a41565b9250827fffffffffffffffffffffffffffffffffffffffffffffffffffffffffffffffff03821115613c1157613c10613b3a565b5b828201905092915050565b7f4e487b7100000000000000000000000000000000000000000000000000000000600052603260045260246000fd5b6000613c5682612a41565b91507fffffffffffffffffffffffffffffffffffffffffffffffffffffffffffffffff821415613c8957613c88613b3a565b5b60018201905091905056fea2646970667358221220cbf5c99b4f8ac8d4a5b51ea06f344a3a14cb98e9783d0725a21068455dae33fd64736f6c63430008080033a26469706673582212201038b8d5ae51e2d29bfbf6c785cdbbff3d2ccb2ebc6e89cee640b872db628a4264736f6c63430008080033",
  "devdoc": {
    "kind": "dev",
    "methods": {},
    "version": 1
  },
  "userdoc": {
    "kind": "user",
    "methods": {},
    "version": 1
  },
  "storageLayout": {
    "storage": [
      {
        "astId": 1480,
        "contract": "contracts/CrowdFunder.sol:CrowdFunder",
        "label": "campaignCounter",
        "offset": 0,
        "slot": "0",
        "type": "t_uint256"
      },
      {
        "astId": 1485,
        "contract": "contracts/CrowdFunder.sol:CrowdFunder",
        "label": "campaigns",
        "offset": 0,
        "slot": "1",
        "type": "t_mapping(t_address,t_contract(Campaign)1404)"
      }
    ],
    "types": {
      "t_address": {
        "encoding": "inplace",
        "label": "address",
        "numberOfBytes": "20"
      },
      "t_contract(Campaign)1404": {
        "encoding": "inplace",
        "label": "contract Campaign",
        "numberOfBytes": "20"
      },
      "t_mapping(t_address,t_contract(Campaign)1404)": {
        "encoding": "mapping",
        "key": "t_address",
        "label": "mapping(address => contract Campaign)",
        "numberOfBytes": "32",
        "value": "t_contract(Campaign)1404"
      },
      "t_uint256": {
        "encoding": "inplace",
        "label": "uint256",
        "numberOfBytes": "32"
      }
    }
  }
}