{
  "address": "0x7B8A9af23B2A00de3d861e43E9b393B855082Fe7",
  "abi": [
    {
      "inputs": [
        {
          "internalType": "address",
          "name": "_creator",
          "type": "address"
        },
        {
          "internalType": "string",
          "name": "_title",
          "type": "string"
        },
        {
          "internalType": "string",
          "name": "_description",
          "type": "string"
        },
        {
          "internalType": "string",
          "name": "_category",
          "type": "string"
        },
        {
          "internalType": "string[]",
          "name": "_tags",
          "type": "string[]"
        },
        {
          "internalType": "uint256",
          "name": "_goalAmount",
          "type": "uint256"
        },
        {
          "internalType": "uint256",
          "name": "_duration",
          "type": "uint256"
        },
        {
          "internalType": "string",
          "name": "_campaignURI",
          "type": "string"
        },
        {
          "internalType": "address",
          "name": "_registryAddress",
          "type": "address"
        },
        {
          "internalType": "address",
          "name": "_linkTokenAddress",
          "type": "address"
        }
      ],
      "stateMutability": "nonpayable",
      "type": "constructor"
    },
    {
      "inputs": [
        {
          "internalType": "address",
          "name": "_campaignAddress",
          "type": "address"
        }
      ],
      "name": "Campaign__AlreadyExpired",
      "type": "error"
    },
    {
      "inputs": [
        {
          "internalType": "address",
          "name": "_campaignAddress",
          "type": "address"
        }
      ],
      "name": "Campaign__CampaignBankrupt",
      "type": "error"
    },
    {
      "inputs": [
        {
          "internalType": "address",
          "name": "_address",
          "type": "address"
        }
      ],
      "name": "Campaign__DonatorIsCreator",
      "type": "error"
    },
    {
      "inputs": [
        {
          "internalType": "address",
          "name": "_donatorAddress",
          "type": "address"
        }
      ],
      "name": "Campaign__NoDonationsHere",
      "type": "error"
    },
    {
      "inputs": [
        {
          "internalType": "address",
          "name": "_address",
          "type": "address"
        }
      ],
      "name": "Campaign__NotCreator",
      "type": "error"
    },
    {
      "inputs": [
        {
          "internalType": "address",
          "name": "_campaignAddress",
          "type": "address"
        }
      ],
      "name": "Campaign__NotWithrawable",
      "type": "error"
    },
    {
      "inputs": [],
      "name": "Campaign__PayoutFailed",
      "type": "error"
    },
    {
      "inputs": [],
      "name": "Campaign__RefundFailed",
      "type": "error"
    },
    {
      "inputs": [],
      "name": "Campaign__UpkeepNotNeeded",
      "type": "error"
    },
    {
      "anonymous": false,
      "inputs": [
        {
          "indexed": false,
          "internalType": "address",
          "name": "campaignAddress",
          "type": "address"
        }
      ],
      "name": "CampaignExpired",
      "type": "event"
    },
    {
      "anonymous": false,
      "inputs": [
        {
          "indexed": false,
          "internalType": "address",
          "name": "campaignAddress",
          "type": "address"
        }
      ],
      "name": "CampaignSuccessful",
      "type": "event"
    },
    {
      "anonymous": false,
      "inputs": [
        {
          "indexed": false,
          "internalType": "address",
          "name": "creator",
          "type": "address"
        },
        {
          "indexed": false,
          "internalType": "address",
          "name": "campaignAddress",
          "type": "address"
        }
      ],
      "name": "CreatorPaid",
      "type": "event"
    },
    {
      "anonymous": false,
      "inputs": [
        {
          "indexed": true,
          "internalType": "address",
          "name": "contributor",
          "type": "address"
        },
        {
          "indexed": false,
          "internalType": "uint256",
          "name": "amount",
          "type": "uint256"
        },
        {
          "indexed": false,
          "internalType": "uint256",
          "name": "currentBalance",
          "type": "uint256"
        }
      ],
      "name": "FundingRecieved",
      "type": "event"
    },
    {
      "inputs": [],
      "name": "campaignURI",
      "outputs": [
        {
          "internalType": "string",
          "name": "",
          "type": "string"
        }
      ],
      "stateMutability": "view",
      "type": "function"
    },
    {
      "inputs": [],
      "name": "category",
      "outputs": [
        {
          "internalType": "string",
          "name": "",
          "type": "string"
        }
      ],
      "stateMutability": "view",
      "type": "function"
    },
    {
      "inputs": [
        {
          "internalType": "bytes",
          "name": "",
          "type": "bytes"
        }
      ],
      "name": "checkUpkeep",
      "outputs": [
        {
          "internalType": "bool",
          "name": "upkeepNeeded",
          "type": "bool"
        },
        {
          "internalType": "bytes",
          "name": "",
          "type": "bytes"
        }
      ],
      "stateMutability": "view",
      "type": "function"
    },
    {
      "inputs": [],
      "name": "creator",
      "outputs": [
        {
          "internalType": "address payable",
          "name": "",
          "type": "address"
        }
      ],
      "stateMutability": "view",
      "type": "function"
    },
    {
      "inputs": [],
      "name": "currentBalance",
      "outputs": [
        {
          "internalType": "uint256",
          "name": "",
          "type": "uint256"
        }
      ],
      "stateMutability": "view",
      "type": "function"
    },
    {
      "inputs": [],
      "name": "description",
      "outputs": [
        {
          "internalType": "string",
          "name": "",
          "type": "string"
        }
      ],
      "stateMutability": "view",
      "type": "function"
    },
    {
      "inputs": [],
      "name": "donate",
      "outputs": [],
      "stateMutability": "payable",
      "type": "function"
    },
    {
      "inputs": [
        {
          "internalType": "address",
          "name": "",
          "type": "address"
        }
      ],
      "name": "donations",
      "outputs": [
        {
          "internalType": "uint256",
          "name": "",
          "type": "uint256"
        }
      ],
      "stateMutability": "view",
      "type": "function"
    },
    {
      "inputs": [],
      "name": "duration",
      "outputs": [
        {
          "internalType": "uint256",
          "name": "",
          "type": "uint256"
        }
      ],
      "stateMutability": "view",
      "type": "function"
    },
    {
      "inputs": [],
      "name": "endCampaign",
      "outputs": [],
      "stateMutability": "nonpayable",
      "type": "function"
    },
    {
      "inputs": [],
      "name": "getBalance",
      "outputs": [
        {
          "internalType": "uint256",
          "name": "",
          "type": "uint256"
        }
      ],
      "stateMutability": "view",
      "type": "function"
    },
    {
      "inputs": [],
      "name": "getCampaignDetails",
      "outputs": [
        {
          "components": [
            {
              "internalType": "address",
              "name": "creator",
              "type": "address"
            },
            {
              "internalType": "string",
              "name": "title",
              "type": "string"
            },
            {
              "internalType": "string",
              "name": "description",
              "type": "string"
            },
            {
              "internalType": "string",
              "name": "category",
              "type": "string"
            },
            {
              "internalType": "string[]",
              "name": "tags",
              "type": "string[]"
            },
            {
              "internalType": "uint256",
              "name": "goalAmount",
              "type": "uint256"
            },
            {
              "internalType": "uint256",
              "name": "duration",
              "type": "uint256"
            },
            {
              "internalType": "uint256",
              "name": "currentBalance",
              "type": "uint256"
            },
            {
              "internalType": "enum Campaign.State",
              "name": "currentState",
              "type": "uint8"
            },
            {
              "internalType": "bool",
              "name": "nowRefundable",
              "type": "bool"
            }
          ],
          "internalType": "struct Campaign.CampaignObject",
          "name": "",
          "type": "tuple"
        }
      ],
      "stateMutability": "view",
      "type": "function"
    },
    {
      "inputs": [],
      "name": "getCampaignState",
      "outputs": [
        {
          "internalType": "enum Campaign.State",
          "name": "",
          "type": "uint8"
        }
      ],
      "stateMutability": "view",
      "type": "function"
    },
    {
      "inputs": [],
      "name": "getCreator",
      "outputs": [
        {
          "internalType": "address",
          "name": "",
          "type": "address"
        }
      ],
      "stateMutability": "view",
      "type": "function"
    },
    {
      "inputs": [
        {
          "internalType": "address",
          "name": "_donator",
          "type": "address"
        }
      ],
      "name": "getDonations",
      "outputs": [
        {
          "internalType": "uint256",
          "name": "",
          "type": "uint256"
        }
      ],
      "stateMutability": "view",
      "type": "function"
    },
    {
      "inputs": [],
      "name": "getNowRefundable",
      "outputs": [
        {
          "internalType": "bool",
          "name": "",
          "type": "bool"
        }
      ],
      "stateMutability": "view",
      "type": "function"
    },
    {
      "inputs": [],
      "name": "goalAmount",
      "outputs": [
        {
          "internalType": "uint256",
          "name": "",
          "type": "uint256"
        }
      ],
      "stateMutability": "view",
      "type": "function"
    },
    {
      "inputs": [],
      "name": "minFund",
      "outputs": [
        {
          "internalType": "uint256",
          "name": "",
          "type": "uint256"
        }
      ],
      "stateMutability": "view",
      "type": "function"
    },
    {
      "inputs": [],
      "name": "nowPayable",
      "outputs": [
        {
          "internalType": "bool",
          "name": "",
          "type": "bool"
        }
      ],
      "stateMutability": "view",
      "type": "function"
    },
    {
      "inputs": [],
      "name": "nowRefundable",
      "outputs": [
        {
          "internalType": "bool",
          "name": "",
          "type": "bool"
        }
      ],
      "stateMutability": "view",
      "type": "function"
    },
    {
      "inputs": [],
      "name": "payout",
      "outputs": [],
      "stateMutability": "nonpayable",
      "type": "function"
    },
    {
      "inputs": [
        {
          "internalType": "bytes",
          "name": "",
          "type": "bytes"
        }
      ],
      "name": "performUpkeep",
      "outputs": [],
      "stateMutability": "nonpayable",
      "type": "function"
    },
    {
      "inputs": [
        {
          "internalType": "address",
          "name": "_donator",
          "type": "address"
        }
      ],
      "name": "refund",
      "outputs": [],
      "stateMutability": "nonpayable",
      "type": "function"
    },
    {
      "inputs": [],
      "name": "state",
      "outputs": [
        {
          "internalType": "enum Campaign.State",
          "name": "",
          "type": "uint8"
        }
      ],
      "stateMutability": "view",
      "type": "function"
    },
    {
      "inputs": [
        {
          "internalType": "uint256",
          "name": "",
          "type": "uint256"
        }
      ],
      "name": "tags",
      "outputs": [
        {
          "internalType": "string",
          "name": "",
          "type": "string"
        }
      ],
      "stateMutability": "view",
      "type": "function"
    },
    {
      "inputs": [],
      "name": "timeBox",
      "outputs": [],
      "stateMutability": "nonpayable",
      "type": "function"
    },
    {
      "inputs": [],
      "name": "title",
      "outputs": [
        {
          "internalType": "string",
          "name": "",
          "type": "string"
        }
      ],
      "stateMutability": "view",
      "type": "function"
    },
    {
      "inputs": [
        {
          "internalType": "string",
          "name": "_campaignURI",
          "type": "string"
        }
      ],
      "name": "updateCampaignURI",
      "outputs": [],
      "stateMutability": "nonpayable",
      "type": "function"
    }
  ],
  "transactionHash": "0x1e9fde25298f42a129cb185767baf75cba08d3e9dfb1edb91f97c73029436730",
  "args": [
    "0x4B5a2B7b5438A79797698570AC9D45155D3Bb0e3",
    "Furry Mittens",
    "Making mittens furry.",
    "Cooking",
    [
      "cooking",
      "household",
      "culinary"
    ],
    2,
    "1296000",
    "ipfs://campaignuri",
    "0x02777053d6764996e594c3E88AF1D58D5363a2e6",
    "0x326C977E6efc84E512bB9C30f76E30c160eD06FB"
  ],
  "numDeployments": 2,
  "solcInputHash": "1d6cf74110425da71645fa2824687c48",
  "bytecode": "0x60806040526000600b60006101000a81548160ff021916908360018111156200002d576200002c6200040e565b5b02179055503480156200003f57600080fd5b506040516200430b3803806200430b833981810160405281019062000065919062000776565b896000806101000a81548173ffffffffffffffffffffffffffffffffffffffff021916908373ffffffffffffffffffffffffffffffffffffffff1602179055508860019080519060200190620000bd92919062000289565b508760029080519060200190620000d692919062000289565b508660039080519060200190620000ef92919062000289565b508560049080519060200190620001089291906200031a565b50846005819055504260098190555062278d006009546200012a919062000936565b600a819055506200014e600954600a546200027160201b62001d6b1790919060201c565b841115620001805762000174600954600a546200027160201b62001d6b1790919060201c565b60068190555062000188565b836006819055505b8260079080519060200190620001a092919062000289565b5060006008819055506000600d60006101000a81548160ff0219169083151502179055506001600d60016101000a81548160ff02191690831515021790555081600f60006101000a81548173ffffffffffffffffffffffffffffffffffffffff021916908373ffffffffffffffffffffffffffffffffffffffff16021790555080601060006101000a81548173ffffffffffffffffffffffffffffffffffffffff021916908373ffffffffffffffffffffffffffffffffffffffff1602179055505050505050505050505062000a33565b6000818362000281919062000993565b905092915050565b8280546200029790620009fd565b90600052602060002090601f016020900481019282620002bb576000855562000307565b82601f10620002d657805160ff191683800117855562000307565b8280016001018555821562000307579182015b8281111562000306578251825591602001919060010190620002e9565b5b50905062000316919062000381565b5090565b8280548282559060005260206000209081019282156200036e579160200282015b828111156200036d5782518290805190602001906200035c92919062000289565b50916020019190600101906200033b565b5b5090506200037d9190620003a0565b5090565b5b808211156200039c57600081600090555060010162000382565b5090565b5b80821115620003c45760008181620003ba9190620003c8565b50600101620003a1565b5090565b508054620003d690620009fd565b6000825580601f10620003ea57506200040b565b601f0160209004906000526020600020908101906200040a919062000381565b5b50565b7f4e487b7100000000000000000000000000000000000000000000000000000000600052602160045260246000fd5b6000604051905090565b600080fd5b600080fd5b600073ffffffffffffffffffffffffffffffffffffffff82169050919050565b60006200047e8262000451565b9050919050565b620004908162000471565b81146200049c57600080fd5b50565b600081519050620004b08162000485565b92915050565b600080fd5b600080fd5b6000601f19601f8301169050919050565b7f4e487b7100000000000000000000000000000000000000000000000000000000600052604160045260246000fd5b6200050b82620004c0565b810181811067ffffffffffffffff821117156200052d576200052c620004d1565b5b80604052505050565b6000620005426200043d565b905062000550828262000500565b919050565b600067ffffffffffffffff821115620005735762000572620004d1565b5b6200057e82620004c0565b9050602081019050919050565b60005b83811015620005ab5780820151818401526020810190506200058e565b83811115620005bb576000848401525b50505050565b6000620005d8620005d28462000555565b62000536565b905082815260208101848484011115620005f757620005f6620004bb565b5b620006048482856200058b565b509392505050565b600082601f830112620006245762000623620004b6565b5b815162000636848260208601620005c1565b91505092915050565b600067ffffffffffffffff8211156200065d576200065c620004d1565b5b602082029050602081019050919050565b600080fd5b60006200068a62000684846200063f565b62000536565b90508083825260208201905060208402830185811115620006b057620006af6200066e565b5b835b81811015620006fe57805167ffffffffffffffff811115620006d957620006d8620004b6565b5b808601620006e889826200060c565b85526020850194505050602081019050620006b2565b5050509392505050565b600082601f83011262000720576200071f620004b6565b5b81516200073284826020860162000673565b91505092915050565b6000819050919050565b62000750816200073b565b81146200075c57600080fd5b50565b600081519050620007708162000745565b92915050565b6000806000806000806000806000806101408b8d0312156200079d576200079c62000447565b5b6000620007ad8d828e016200049f565b9a505060208b015167ffffffffffffffff811115620007d157620007d06200044c565b5b620007df8d828e016200060c565b99505060408b015167ffffffffffffffff8111156200080357620008026200044c565b5b620008118d828e016200060c565b98505060608b015167ffffffffffffffff8111156200083557620008346200044c565b5b620008438d828e016200060c565b97505060808b015167ffffffffffffffff8111156200086757620008666200044c565b5b620008758d828e0162000708565b96505060a0620008888d828e016200075f565b95505060c06200089b8d828e016200075f565b94505060e08b015167ffffffffffffffff811115620008bf57620008be6200044c565b5b620008cd8d828e016200060c565b935050610100620008e18d828e016200049f565b925050610120620008f58d828e016200049f565b9150509295989b9194979a5092959850565b7f4e487b7100000000000000000000000000000000000000000000000000000000600052601160045260246000fd5b600062000943826200073b565b915062000950836200073b565b9250827fffffffffffffffffffffffffffffffffffffffffffffffffffffffffffffffff0382111562000988576200098762000907565b5b828201905092915050565b6000620009a0826200073b565b9150620009ad836200073b565b925082821015620009c357620009c262000907565b5b828203905092915050565b7f4e487b7100000000000000000000000000000000000000000000000000000000600052602260045260246000fd5b6000600282049050600182168062000a1657607f821691505b6020821081141562000a2d5762000a2c620009ce565b5b50919050565b6138c88062000a436000396000f3fe608060405260043610620001e25760003560e01c80634d695bdb1162000103578063cc6cb19a1162000097578063eb8b60d7116200006d578063eb8b60d71462000672578063ed88c68e14620006a2578063ef430aa614620006ae578063fa89401a14620006de57620001e2565b8063cc6cb19a14620005ce578063ce845d1d1462000612578063db912e37146200064257620001e2565b806371aac7f911620000d957806371aac7f914620005245780637284e416146200053e5780637fb3761e146200056e578063c19d93fb146200059e57620001e2565b80634d695bdb146200049757806363bd1d4a14620004c55780636e04ff0d14620004df57620001e2565b80631eda3eb8116200017b5780634298b0cd11620001515780634298b0cd14620003ef578063431f9a23146200041f5780634585e33b14620004395780634a79d50c146200046757620001e2565b80631eda3eb8146200034b57806320822abc146200037b5780632636b94514620003bf57620001e2565b80630ee2cb1011620001bd5780630ee2cb1014620002775780630fb5a6b414620002a757806312065fe014620002d75780631910bdc2146200030757620001e2565b806302d05d3f14620001e75780630c611f2414620002175780630edd9cc21462000247575b600080fd5b348015620001f457600080fd5b50620001ff6200070c565b6040516200020e919062001f1e565b60405180910390f35b3480156200022457600080fd5b506200022f62000730565b6040516200023e91906200228f565b60405180910390f35b3480156200025457600080fd5b506200025f62000a87565b6040516200026e9190620022c4565b60405180910390f35b3480156200028457600080fd5b506200028f62000a9a565b6040516200029e9190620022f2565b60405180910390f35b348015620002b457600080fd5b50620002bf62000ac3565b604051620002ce919062002320565b60405180910390f35b348015620002e457600080fd5b50620002ef62000ac9565b604051620002fe919062002320565b60405180910390f35b3480156200031457600080fd5b506200033360048036038101906200032d919062002382565b62000ad3565b60405162000342919062002320565b60405180910390f35b3480156200035857600080fd5b506200036362000b1c565b60405162000372919062002320565b60405180910390f35b3480156200038857600080fd5b50620003a76004803603810190620003a19190620023e5565b62000b22565b604051620003b6919062002469565b60405180910390f35b348015620003cc57600080fd5b50620003d762000bd7565b604051620003e6919062002320565b60405180910390f35b348015620003fc57600080fd5b506200040762000bdd565b604051620004169190620022c4565b60405180910390f35b3480156200042c57600080fd5b506200043762000bf0565b005b3480156200044657600080fd5b506200046560048036038101906200045f9190620024fb565b62000f45565b005b3480156200047457600080fd5b506200047f62001084565b6040516200048e919062002469565b60405180910390f35b348015620004a457600080fd5b50620004c36004803603810190620004bd91906200269c565b6200111a565b005b348015620004d257600080fd5b50620004dd620011c9565b005b348015620004ec57600080fd5b506200050b6004803603810190620005059190620027a1565b62001409565b6040516200051b9291906200284f565b60405180910390f35b3480156200053157600080fd5b506200053c620014c6565b005b3480156200054b57600080fd5b506200055662001686565b60405162000565919062002469565b60405180910390f35b3480156200057b57600080fd5b50620005866200171c565b60405162000595919062002894565b60405180910390f35b348015620005ab57600080fd5b50620005b662001733565b604051620005c5919062002894565b60405180910390f35b348015620005db57600080fd5b50620005fa6004803603810190620005f4919062002382565b62001746565b60405162000609919062002320565b60405180910390f35b3480156200061f57600080fd5b506200062a6200175e565b60405162000639919062002320565b60405180910390f35b3480156200064f57600080fd5b506200065a62001764565b60405162000669919062002469565b60405180910390f35b3480156200067f57600080fd5b506200068a620017fa565b604051620006999190620022c4565b60405180910390f35b620006ac62001811565b005b348015620006bb57600080fd5b50620006c662001a30565b604051620006d5919062002469565b60405180910390f35b348015620006eb57600080fd5b506200070a600480360381019062000704919062002382565b62001ac6565b005b60008054906101000a900473ffffffffffffffffffffffffffffffffffffffff1681565b6200073a62001d9b565b60405180610140016040528060008054906101000a900473ffffffffffffffffffffffffffffffffffffffff1673ffffffffffffffffffffffffffffffffffffffff168152602001600180546200079190620028e0565b80601f0160208091040260200160405190810160405280929190818152602001828054620007bf90620028e0565b8015620008105780601f10620007e45761010080835404028352916020019162000810565b820191906000526020600020905b815481529060010190602001808311620007f257829003601f168201915b50505050508152602001600280546200082990620028e0565b80601f01602080910402602001604051908101604052809291908181526020018280546200085790620028e0565b8015620008a85780601f106200087c57610100808354040283529160200191620008a8565b820191906000526020600020905b8154815290600101906020018083116200088a57829003601f168201915b5050505050815260200160038054620008c190620028e0565b80601f0160208091040260200160405190810160405280929190818152602001828054620008ef90620028e0565b8015620009405780601f10620009145761010080835404028352916020019162000940565b820191906000526020600020905b8154815290600101906020018083116200092257829003601f168201915b505050505081526020016004805480602002602001604051908101604052809291908181526020016000905b8282101562000a225783829060005260206000200180546200098e90620028e0565b80601f0160208091040260200160405190810160405280929190818152602001828054620009bc90620028e0565b801562000a0d5780601f10620009e15761010080835404028352916020019162000a0d565b820191906000526020600020905b815481529060010190602001808311620009ef57829003601f168201915b5050505050815260200190600101906200096c565b505050508152602001600554815260200160065481526020016008548152602001600b60009054906101000a900460ff16600181111562000a685762000a67620020ef565b5b8152602001600d60019054906101000a900460ff161515815250905090565b600d60019054906101000a900460ff1681565b60008060009054906101000a900473ffffffffffffffffffffffffffffffffffffffff16905090565b60065481565b6000600854905090565b6000600c60008373ffffffffffffffffffffffffffffffffffffffff1673ffffffffffffffffffffffffffffffffffffffff168152602001908152602001600020549050919050565b600e5481565b6004818154811062000b3357600080fd5b90600052602060002001600091509050805462000b5090620028e0565b80601f016020809104026020016040519081016040528092919081815260200182805462000b7e90620028e0565b801562000bcf5780601f1062000ba35761010080835404028352916020019162000bcf565b820191906000526020600020905b81548152906001019060200180831162000bb157829003601f168201915b505050505081565b60055481565b600d60009054906101000a900460ff1681565b676f05b59d3b200000600e8190555060006207a120905060007fc34f5c91d157a8079a2ac2622c746582179c9cf32db939993bdc1b9113af09113060018460405160240162000c4293929190620029d8565b604051602081830303815290604052907bffffffffffffffffffffffffffffffffffffffffffffffffffffffff19166020820180517bffffffffffffffffffffffffffffffffffffffffffffffffffffffff838183161783525050505090506000600f60009054906101000a900473ffffffffffffffffffffffffffffffffffffffff16601060009054906101000a900473ffffffffffffffffffffffffffffffffffffffff1660405162000cf79062001e1b565b62000d0492919062002a1c565b604051809103906000f08015801562000d21573d6000803e3d6000fd5b5090506000601060009054906101000a900473ffffffffffffffffffffffffffffffffffffffff16905060008173ffffffffffffffffffffffffffffffffffffffff166370a0823160008054906101000a900473ffffffffffffffffffffffffffffffffffffffff166040518263ffffffff1660e01b815260040162000da8919062002ab4565b60206040518083038186803b15801562000dc157600080fd5b505afa15801562000dd6573d6000803e3d6000fd5b505050506040513d601f19601f8201168201806040525081019062000dfc919062002ae8565b1162000e34576040517f311f87a100000000000000000000000000000000000000000000000000000000815260040160405180910390fd5b8073ffffffffffffffffffffffffffffffffffffffff1663095ea7b330600e546040518363ffffffff1660e01b815260040162000e7392919062002b1a565b600060405180830381600087803b15801562000e8e57600080fd5b505af115801562000ea3573d6000803e3d6000fd5b505050508073ffffffffffffffffffffffffffffffffffffffff16634000aea083600e54866040518463ffffffff1660e01b815260040162000ee89392919062002b47565b602060405180830381600087803b15801562000f0357600080fd5b505af115801562000f18573d6000803e3d6000fd5b505050506040513d601f19601f8201168201806040525081019062000f3e919062002bbc565b5050505050565b600062000f616040518060200160405280600081525062001409565b5090508062000f9c576040517f311f87a100000000000000000000000000000000000000000000000000000000815260040160405180910390fd5b6001600d60006101000a81548160ff0219169083151502179055506000600d60016101000a81548160ff0219169083151502179055506001600b60006101000a81548160ff0219169083600181111562000ffb5762000ffa620020ef565b5b02179055507f5cf8cd2bd40f758a95257bed666285eb82801f1bf9223b8ec1481e510ba2e82d30604051620010319190620022f2565b60405180910390a1600554600854106200107f577f5369558c667e962b633128a01c31764d053da51f61d17370d327ed17f77deccc30604051620010769190620022f2565b60405180910390a15b505050565b600180546200109390620028e0565b80601f0160208091040260200160405190810160405280929190818152602001828054620010c190620028e0565b8015620011125780601f10620010e65761010080835404028352916020019162001112565b820191906000526020600020905b815481529060010190602001808311620010f457829003601f168201915b505050505081565b60008054906101000a900473ffffffffffffffffffffffffffffffffffffffff1673ffffffffffffffffffffffffffffffffffffffff163373ffffffffffffffffffffffffffffffffffffffff1614620011ad57336040517fef54c817000000000000000000000000000000000000000000000000000000008152600401620011a49190620022f2565b60405180910390fd5b8060079080519060200190620011c592919062001e29565b5050565b60008054906101000a900473ffffffffffffffffffffffffffffffffffffffff1673ffffffffffffffffffffffffffffffffffffffff163373ffffffffffffffffffffffffffffffffffffffff16146200125c57336040517fef54c817000000000000000000000000000000000000000000000000000000008152600401620012539190620022f2565b60405180910390fd5b600d60009054906101000a900460ff16620012b057306040517f8019f726000000000000000000000000000000000000000000000000000000008152600401620012a79190620022f2565b60405180910390fd5b60006008549050600060088190555060008060009054906101000a900473ffffffffffffffffffffffffffffffffffffffff1673ffffffffffffffffffffffffffffffffffffffff1682604051620013089062002c23565b60006040518083038185875af1925050503d806000811462001347576040519150601f19603f3d011682016040523d82523d6000602084013e6200134c565b606091505b505090508015620013d3576000600d60016101000a81548160ff0219169083151502179055507fba5e837743d81ad0e6deb16089dbb65b549fdda8ad802fd8d4822884d70dc8b260008054906101000a900473ffffffffffffffffffffffffffffffffffffffff1630604051620013c592919062002c3a565b60405180910390a162001405565b6040517f11456ffb00000000000000000000000000000000000000000000000000000000815260040160405180910390fd5b5050565b600060606000806001811115620014255762001424620020ef565b5b600b60009054906101000a900460ff1660018111156200144a5762001449620020ef565b5b14905060006006546009544262001462919062002c96565b11905060008047119050818015620014775750825b8015620014815750805b9450846040518060400160405280600381526020017f307830000000000000000000000000000000000000000000000000000000000081525094509450505050915091565b60008054906101000a900473ffffffffffffffffffffffffffffffffffffffff1673ffffffffffffffffffffffffffffffffffffffff163373ffffffffffffffffffffffffffffffffffffffff16146200155957336040517fef54c817000000000000000000000000000000000000000000000000000000008152600401620015509190620022f2565b60405180910390fd5b6001808111156200156f576200156e620020ef565b5b600b60009054906101000a900460ff166001811115620015945762001593620020ef565b5b1415620015da57306040517fd6d7e5c1000000000000000000000000000000000000000000000000000000008152600401620015d19190620022f2565b60405180910390fd5b6001600b60006101000a81548160ff02191690836001811115620016035762001602620020ef565b5b02179055506000600d60016101000a81548160ff021916908315150217905550600060085411156200164b576001600d60006101000a81548160ff0219169083151502179055505b7f5cf8cd2bd40f758a95257bed666285eb82801f1bf9223b8ec1481e510ba2e82d306040516200167c9190620022f2565b60405180910390a1565b600280546200169590620028e0565b80601f0160208091040260200160405190810160405280929190818152602001828054620016c390620028e0565b8015620017145780601f10620016e85761010080835404028352916020019162001714565b820191906000526020600020905b815481529060010190602001808311620016f657829003601f168201915b505050505081565b6000600b60009054906101000a900460ff16905090565b600b60009054906101000a900460ff1681565b600c6020528060005260406000206000915090505481565b60085481565b600780546200177390620028e0565b80601f0160208091040260200160405190810160405280929190818152602001828054620017a190620028e0565b8015620017f25780601f10620017c657610100808354040283529160200191620017f2565b820191906000526020600020905b815481529060010190602001808311620017d457829003601f168201915b505050505081565b6000600d60019054906101000a900460ff16905090565b60006001811115620018285762001827620020ef565b5b600b60009054906101000a900460ff1660018111156200184d576200184c620020ef565b5b146200189257306040517fd6d7e5c1000000000000000000000000000000000000000000000000000000008152600401620018899190620022f2565b60405180910390fd5b60008054906101000a900473ffffffffffffffffffffffffffffffffffffffff1673ffffffffffffffffffffffffffffffffffffffff163373ffffffffffffffffffffffffffffffffffffffff1614156200192657336040517f911018950000000000000000000000000000000000000000000000000000000081526004016200191d9190620022f2565b60405180910390fd5b6200197a34600c60003373ffffffffffffffffffffffffffffffffffffffff1673ffffffffffffffffffffffffffffffffffffffff1681526020019081526020016000205462001d8390919063ffffffff16565b600c60003373ffffffffffffffffffffffffffffffffffffffff1673ffffffffffffffffffffffffffffffffffffffff16815260200190815260200160002081905550620019d43460085462001d8390919063ffffffff16565b6008819055503373ffffffffffffffffffffffffffffffffffffffff167fe76ad748537a48e778fef43dda4a6bd1b50cd62385f9f21a9ca26749235512083460085460405162001a2692919062002cd1565b60405180910390a2565b6003805462001a3f90620028e0565b80601f016020809104026020016040519081016040528092919081815260200182805462001a6d90620028e0565b801562001abe5780601f1062001a925761010080835404028352916020019162001abe565b820191906000526020600020905b81548152906001019060200180831162001aa057829003601f168201915b505050505081565b60018081111562001adc5762001adb620020ef565b5b600b60009054906101000a900460ff16600181111562001b015762001b00620020ef565b5b141562001b4757306040517fd6d7e5c100000000000000000000000000000000000000000000000000000000815260040162001b3e9190620022f2565b60405180910390fd5b6000600c60008373ffffffffffffffffffffffffffffffffffffffff1673ffffffffffffffffffffffffffffffffffffffff168152602001908152602001600020541162001bce57806040517fc438585900000000000000000000000000000000000000000000000000000000815260040162001bc59190620022f2565b60405180910390fd5b6000600c60008373ffffffffffffffffffffffffffffffffffffffff1673ffffffffffffffffffffffffffffffffffffffff1681526020019081526020016000205490506000600c60008473ffffffffffffffffffffffffffffffffffffffff1673ffffffffffffffffffffffffffffffffffffffff1681526020019081526020016000208190555080600854101562001ca157306040517f6db510f500000000000000000000000000000000000000000000000000000000815260040162001c989190620022f2565b60405180910390fd5b62001cb88160085462001d6b90919063ffffffff16565b60088190555060008273ffffffffffffffffffffffffffffffffffffffff168260405162001ce69062002c23565b60006040518083038185875af1925050503d806000811462001d25576040519150601f19603f3d011682016040523d82523d6000602084013e62001d2a565b606091505b505090508062001d66576040517f92e9f8f100000000000000000000000000000000000000000000000000000000815260040160405180910390fd5b505050565b6000818362001d7b919062002c96565b905092915050565b6000818362001d93919062002cfe565b905092915050565b604051806101400160405280600073ffffffffffffffffffffffffffffffffffffffff168152602001606081526020016060815260200160608152602001606081526020016000815260200160008152602001600081526020016000600181111562001e0c5762001e0b620020ef565b5b81526020016000151581525090565b610b378062002d5c83390190565b82805462001e3790620028e0565b90600052602060002090601f01602090048101928262001e5b576000855562001ea7565b82601f1062001e7657805160ff191683800117855562001ea7565b8280016001018555821562001ea7579182015b8281111562001ea657825182559160200191906001019062001e89565b5b50905062001eb6919062001eba565b5090565b5b8082111562001ed557600081600090555060010162001ebb565b5090565b600073ffffffffffffffffffffffffffffffffffffffff82169050919050565b600062001f068262001ed9565b9050919050565b62001f188162001ef9565b82525050565b600060208201905062001f35600083018462001f0d565b92915050565b600062001f488262001ed9565b9050919050565b62001f5a8162001f3b565b82525050565b600081519050919050565b600082825260208201905092915050565b60005b8381101562001f9c57808201518184015260208101905062001f7f565b8381111562001fac576000848401525b50505050565b6000601f19601f8301169050919050565b600062001fd08262001f60565b62001fdc818562001f6b565b935062001fee81856020860162001f7c565b62001ff98162001fb2565b840191505092915050565b600081519050919050565b600082825260208201905092915050565b6000819050602082019050919050565b60006200203e838362001fc3565b905092915050565b6000602082019050919050565b6000620020608262002004565b6200206c81856200200f565b935083602082028501620020808562002020565b8060005b85811015620020c25784840389528151620020a0858262002030565b9450620020ad8362002046565b925060208a0199505060018101905062002084565b50829750879550505050505092915050565b6000819050919050565b620020e981620020d4565b82525050565b7f4e487b7100000000000000000000000000000000000000000000000000000000600052602160045260246000fd5b60028110620021325762002131620020ef565b5b50565b600081905062002145826200211e565b919050565b6000620021578262002135565b9050919050565b62002169816200214a565b82525050565b60008115159050919050565b62002186816200216f565b82525050565b600061014083016000830151620021a7600086018262001f4f565b5060208301518482036020860152620021c1828262001fc3565b91505060408301518482036040860152620021dd828262001fc3565b91505060608301518482036060860152620021f9828262001fc3565b9150506080830151848203608086015262002215828262002053565b91505060a08301516200222c60a0860182620020de565b5060c08301516200224160c0860182620020de565b5060e08301516200225660e0860182620020de565b506101008301516200226d6101008601826200215e565b50610120830151620022846101208601826200217b565b508091505092915050565b60006020820190508181036000830152620022ab81846200218c565b905092915050565b620022be816200216f565b82525050565b6000602082019050620022db6000830184620022b3565b92915050565b620022ec8162001f3b565b82525050565b6000602082019050620023096000830184620022e1565b92915050565b6200231a81620020d4565b82525050565b60006020820190506200233760008301846200230f565b92915050565b6000604051905090565b600080fd5b600080fd5b6200235c8162001f3b565b81146200236857600080fd5b50565b6000813590506200237c8162002351565b92915050565b6000602082840312156200239b576200239a62002347565b5b6000620023ab848285016200236b565b91505092915050565b620023bf81620020d4565b8114620023cb57600080fd5b50565b600081359050620023df81620023b4565b92915050565b600060208284031215620023fe57620023fd62002347565b5b60006200240e84828501620023ce565b91505092915050565b600082825260208201905092915050565b6000620024358262001f60565b62002441818562002417565b93506200245381856020860162001f7c565b6200245e8162001fb2565b840191505092915050565b6000602082019050818103600083015262002485818462002428565b905092915050565b600080fd5b600080fd5b600080fd5b60008083601f840112620024b557620024b46200248d565b5b8235905067ffffffffffffffff811115620024d557620024d462002492565b5b602083019150836001820283011115620024f457620024f362002497565b5b9250929050565b6000806020838503121562002515576200251462002347565b5b600083013567ffffffffffffffff8111156200253657620025356200234c565b5b62002544858286016200249c565b92509250509250929050565b600080fd5b7f4e487b7100000000000000000000000000000000000000000000000000000000600052604160045260246000fd5b6200258f8262001fb2565b810181811067ffffffffffffffff82111715620025b157620025b062002555565b5b80604052505050565b6000620025c66200233d565b9050620025d4828262002584565b919050565b600067ffffffffffffffff821115620025f757620025f662002555565b5b620026028262001fb2565b9050602081019050919050565b82818337600083830152505050565b6000620026356200262f84620025d9565b620025ba565b90508281526020810184848401111562002654576200265362002550565b5b620026618482856200260f565b509392505050565b600082601f8301126200268157620026806200248d565b5b8135620026938482602086016200261e565b91505092915050565b600060208284031215620026b557620026b462002347565b5b600082013567ffffffffffffffff811115620026d657620026d56200234c565b5b620026e48482850162002669565b91505092915050565b600067ffffffffffffffff8211156200270b576200270a62002555565b5b620027168262001fb2565b9050602081019050919050565b60006200273a6200273484620026ed565b620025ba565b90508281526020810184848401111562002759576200275862002550565b5b620027668482856200260f565b509392505050565b600082601f8301126200278657620027856200248d565b5b81356200279884826020860162002723565b91505092915050565b600060208284031215620027ba57620027b962002347565b5b600082013567ffffffffffffffff811115620027db57620027da6200234c565b5b620027e9848285016200276e565b91505092915050565b600081519050919050565b600082825260208201905092915050565b60006200281b82620027f2565b620028278185620027fd565b93506200283981856020860162001f7c565b620028448162001fb2565b840191505092915050565b6000604082019050620028666000830185620022b3565b81810360208301526200287a81846200280e565b90509392505050565b6200288e816200214a565b82525050565b6000602082019050620028ab600083018462002883565b92915050565b7f4e487b7100000000000000000000000000000000000000000000000000000000600052602260045260246000fd5b60006002820490506001821680620028f957607f821691505b6020821081141562002910576200290f620028b1565b5b50919050565b60008190508160005260206000209050919050565b600081546200293a81620028e0565b62002946818662002417565b945060018216600081146200296457600181146200297757620029ae565b60ff1983168652602086019350620029ae565b620029828562002916565b60005b83811015620029a65781548189015260018201915060208101905062002985565b808801955050505b50505092915050565b600063ffffffff82169050919050565b620029d281620029b7565b82525050565b6000606082019050620029ef6000830186620022e1565b818103602083015262002a0381856200292b565b905062002a146040830184620029c7565b949350505050565b600060408201905062002a336000830185620022e1565b62002a426020830184620022e1565b9392505050565b6000819050919050565b600062002a7462002a6e62002a688462001ed9565b62002a49565b62001ed9565b9050919050565b600062002a888262002a53565b9050919050565b600062002a9c8262002a7b565b9050919050565b62002aae8162002a8f565b82525050565b600060208201905062002acb600083018462002aa3565b92915050565b60008151905062002ae281620023b4565b92915050565b60006020828403121562002b015762002b0062002347565b5b600062002b118482850162002ad1565b91505092915050565b600060408201905062002b316000830185620022e1565b62002b4060208301846200230f565b9392505050565b600060608201905062002b5e6000830186620022e1565b62002b6d60208301856200230f565b818103604083015262002b8181846200280e565b9050949350505050565b62002b96816200216f565b811462002ba257600080fd5b50565b60008151905062002bb68162002b8b565b92915050565b60006020828403121562002bd55762002bd462002347565b5b600062002be58482850162002ba5565b91505092915050565b600081905092915050565b50565b600062002c0b60008362002bee565b915062002c188262002bf9565b600082019050919050565b600062002c308262002bfc565b9150819050919050565b600060408201905062002c51600083018562002aa3565b62002c606020830184620022e1565b9392505050565b7f4e487b7100000000000000000000000000000000000000000000000000000000600052601160045260246000fd5b600062002ca382620020d4565b915062002cb083620020d4565b92508282101562002cc65762002cc562002c67565b5b828203905092915050565b600060408201905062002ce860008301856200230f565b62002cf760208301846200230f565b9392505050565b600062002d0b82620020d4565b915062002d1883620020d4565b9250827fffffffffffffffffffffffffffffffffffffffffffffffffffffffffffffffff0382111562002d505762002d4f62002c67565b5b82820190509291505056fe6080604052674563918244f40000600255606e600360006101000a81548160ff021916908360ff160217905550600160009054906101000a900473ffffffffffffffffffffffffffffffffffffffff16600360016101000a81548173ffffffffffffffffffffffffffffffffffffffff021916908373ffffffffffffffffffffffffffffffffffffffff16021790555034801561009b57600080fd5b50604051610b37380380610b3783398181016040528101906100bd91906101a8565b816000806101000a81548173ffffffffffffffffffffffffffffffffffffffff021916908373ffffffffffffffffffffffffffffffffffffffff16021790555080600160006101000a81548173ffffffffffffffffffffffffffffffffffffffff021916908373ffffffffffffffffffffffffffffffffffffffff16021790555050506101e8565b600080fd5b600073ffffffffffffffffffffffffffffffffffffffff82169050919050565b60006101758261014a565b9050919050565b6101858161016a565b811461019057600080fd5b50565b6000815190506101a28161017c565b92915050565b600080604083850312156101bf576101be610145565b5b60006101cd85828601610193565b92505060206101de85828601610193565b9150509250929050565b610940806101f76000396000f3fe608060405234801561001057600080fd5b50600436106100575760003560e01c8063501ad9da1461005c578063bd3bf7f31461007a578063c34f5c9114610098578063c791316e146100b4578063f230b4c2146100d2575b600080fd5b6100646100f0565b60405161007191906103a6565b60405180910390f35b610082610116565b60405161008f91906103a6565b60405180910390f35b6100b260048036038101906100ad9190610583565b61013a565b005b6100bc61034c565b6040516100c9919061060b565b60405180910390f35b6100da610352565b6040516100e79190610642565b60405180910390f35b600160009054906101000a900473ffffffffffffffffffffffffffffffffffffffff1681565b60008054906101000a900473ffffffffffffffffffffffffffffffffffffffff1681565b60008060009054906101000a900473ffffffffffffffffffffffffffffffffffffffff1673ffffffffffffffffffffffffffffffffffffffff16634d3f73346040518163ffffffff1660e01b815260040160206040518083038186803b1580156101a357600080fd5b505afa1580156101b7573d6000803e3d6000fd5b505050506040513d601f19601f820116820180604052508101906101db9190610672565b90506000600254905060007fc4110e5c9c8ef4fe31f40cd68aa0b3102f9897ff333658e269002c9ad25bb9f48587863386600360009054906101000a900460ff1660405160240161023196959493929190610783565b604051602081830303815290604052907bffffffffffffffffffffffffffffffffffffffffffffffffffffffff19166020820180517bffffffffffffffffffffffffffffffffffffffffffffffffffffffff83818316178352505050509050600360019054906101000a900473ffffffffffffffffffffffffffffffffffffffff1673ffffffffffffffffffffffffffffffffffffffff16634000aea084600254846040518463ffffffff1660e01b81526004016102f193929190610867565b602060405180830381600087803b15801561030b57600080fd5b505af115801561031f573d6000803e3d6000fd5b505050506040513d601f19601f8201168201806040525081019061034391906108dd565b50505050505050565b60025481565b600360009054906101000a900460ff1681565b600073ffffffffffffffffffffffffffffffffffffffff82169050919050565b600061039082610365565b9050919050565b6103a081610385565b82525050565b60006020820190506103bb6000830184610397565b92915050565b6000604051905090565b600080fd5b600080fd5b6103de81610385565b81146103e957600080fd5b50565b6000813590506103fb816103d5565b92915050565b600080fd5b600080fd5b6000601f19601f8301169050919050565b7f4e487b7100000000000000000000000000000000000000000000000000000000600052604160045260246000fd5b6104548261040b565b810181811067ffffffffffffffff821117156104735761047261041c565b5b80604052505050565b60006104866103c1565b9050610492828261044b565b919050565b600067ffffffffffffffff8211156104b2576104b161041c565b5b6104bb8261040b565b9050602081019050919050565b82818337600083830152505050565b60006104ea6104e584610497565b61047c565b90508281526020810184848401111561050657610505610406565b5b6105118482856104c8565b509392505050565b600082601f83011261052e5761052d610401565b5b813561053e8482602086016104d7565b91505092915050565b600063ffffffff82169050919050565b61056081610547565b811461056b57600080fd5b50565b60008135905061057d81610557565b92915050565b60008060006060848603121561059c5761059b6103cb565b5b60006105aa868287016103ec565b935050602084013567ffffffffffffffff8111156105cb576105ca6103d0565b5b6105d786828701610519565b92505060406105e88682870161056e565b9150509250925092565b6000819050919050565b610605816105f2565b82525050565b600060208201905061062060008301846105fc565b92915050565b600060ff82169050919050565b61063c81610626565b82525050565b60006020820190506106576000830184610633565b92915050565b60008151905061066c816103d5565b92915050565b600060208284031215610688576106876103cb565b5b60006106968482850161065d565b91505092915050565b600081519050919050565b600082825260208201905092915050565b60005b838110156106d95780820151818401526020810190506106be565b838111156106e8576000848401525b50505050565b60006106f98261069f565b61070381856106aa565b93506107138185602086016106bb565b61071c8161040b565b840191505092915050565b50565b60006107376000836106aa565b915061074282610727565b600082019050919050565b61075681610547565b82525050565b60006bffffffffffffffffffffffff82169050919050565b61077d8161075c565b82525050565b600061010082019050818103600083015261079e81896106ee565b905081810360208301526107b18161072a565b90506107c06040830188610397565b6107cd606083018761074d565b6107da6080830186610397565b81810360a08301526107eb8161072a565b90506107fa60c0830185610774565b61080760e0830184610633565b979650505050505050565b600081519050919050565b600082825260208201905092915050565b600061083982610812565b610843818561081d565b93506108538185602086016106bb565b61085c8161040b565b840191505092915050565b600060608201905061087c6000830186610397565b61088960208301856105fc565b818103604083015261089b818461082e565b9050949350505050565b60008115159050919050565b6108ba816108a5565b81146108c557600080fd5b50565b6000815190506108d7816108b1565b92915050565b6000602082840312156108f3576108f26103cb565b5b6000610901848285016108c8565b9150509291505056fea264697066735822122077df321876ff2f4ea04629b08cc89c2d9a22d6e56f6de8c33e72e02416902ea564736f6c63430008080033a26469706673582212208f55e1b50ca0c361724231beec11d11ec8f7262cb2684b4af62789cea88338bb64736f6c63430008080033",
  "devdoc": {
    "kind": "dev",
    "methods": {
      "checkUpkeep(bytes)": {
        "details": "this is the function chainlink keepers calls chekupkeep returns true to trigger the action after the interval has passed"
      }
    },
    "version": 1
  },
  "userdoc": {
    "kind": "user",
    "methods": {},
    "version": 1
  },
  "storageLayout": {
    "storage": [
      {
        "astId": 385,
        "contract": "contracts/Campaign.sol:Campaign",
        "label": "creator",
        "offset": 0,
        "slot": "0",
        "type": "t_address_payable"
      },
      {
        "astId": 387,
        "contract": "contracts/Campaign.sol:Campaign",
        "label": "title",
        "offset": 0,
        "slot": "1",
        "type": "t_string_storage"
      },
      {
        "astId": 389,
        "contract": "contracts/Campaign.sol:Campaign",
        "label": "description",
        "offset": 0,
        "slot": "2",
        "type": "t_string_storage"
      },
      {
        "astId": 391,
        "contract": "contracts/Campaign.sol:Campaign",
        "label": "category",
        "offset": 0,
        "slot": "3",
        "type": "t_string_storage"
      },
      {
        "astId": 394,
        "contract": "contracts/Campaign.sol:Campaign",
        "label": "tags",
        "offset": 0,
        "slot": "4",
        "type": "t_array(t_string_storage)dyn_storage"
      },
      {
        "astId": 396,
        "contract": "contracts/Campaign.sol:Campaign",
        "label": "goalAmount",
        "offset": 0,
        "slot": "5",
        "type": "t_uint256"
      },
      {
        "astId": 398,
        "contract": "contracts/Campaign.sol:Campaign",
        "label": "duration",
        "offset": 0,
        "slot": "6",
        "type": "t_uint256"
      },
      {
        "astId": 400,
        "contract": "contracts/Campaign.sol:Campaign",
        "label": "campaignURI",
        "offset": 0,
        "slot": "7",
        "type": "t_string_storage"
      },
      {
        "astId": 402,
        "contract": "contracts/Campaign.sol:Campaign",
        "label": "currentBalance",
        "offset": 0,
        "slot": "8",
        "type": "t_uint256"
      },
      {
        "astId": 404,
        "contract": "contracts/Campaign.sol:Campaign",
        "label": "s_lastTimeStamp",
        "offset": 0,
        "slot": "9",
        "type": "t_uint256"
      },
      {
        "astId": 406,
        "contract": "contracts/Campaign.sol:Campaign",
        "label": "maxTimeStamp",
        "offset": 0,
        "slot": "10",
        "type": "t_uint256"
      },
      {
        "astId": 411,
        "contract": "contracts/Campaign.sol:Campaign",
        "label": "state",
        "offset": 0,
        "slot": "11",
        "type": "t_enum(State)383"
      },
      {
        "astId": 415,
        "contract": "contracts/Campaign.sol:Campaign",
        "label": "donations",
        "offset": 0,
        "slot": "12",
        "type": "t_mapping(t_address,t_uint256)"
      },
      {
        "astId": 417,
        "contract": "contracts/Campaign.sol:Campaign",
        "label": "nowPayable",
        "offset": 0,
        "slot": "13",
        "type": "t_bool"
      },
      {
        "astId": 419,
        "contract": "contracts/Campaign.sol:Campaign",
        "label": "nowRefundable",
        "offset": 1,
        "slot": "13",
        "type": "t_bool"
      },
      {
        "astId": 429,
        "contract": "contracts/Campaign.sol:Campaign",
        "label": "minFund",
        "offset": 0,
        "slot": "14",
        "type": "t_uint256"
      },
      {
        "astId": 431,
        "contract": "contracts/Campaign.sol:Campaign",
        "label": "registryAddress",
        "offset": 0,
        "slot": "15",
        "type": "t_address"
      },
      {
        "astId": 433,
        "contract": "contracts/Campaign.sol:Campaign",
        "label": "linkTokenAddress",
        "offset": 0,
        "slot": "16",
        "type": "t_address"
      }
    ],
    "types": {
      "t_address": {
        "encoding": "inplace",
        "label": "address",
        "numberOfBytes": "20"
      },
      "t_address_payable": {
        "encoding": "inplace",
        "label": "address payable",
        "numberOfBytes": "20"
      },
      "t_array(t_string_storage)dyn_storage": {
        "base": "t_string_storage",
        "encoding": "dynamic_array",
        "label": "string[]",
        "numberOfBytes": "32"
      },
      "t_bool": {
        "encoding": "inplace",
        "label": "bool",
        "numberOfBytes": "1"
      },
      "t_enum(State)383": {
        "encoding": "inplace",
        "label": "enum Campaign.State",
        "numberOfBytes": "1"
      },
      "t_mapping(t_address,t_uint256)": {
        "encoding": "mapping",
        "key": "t_address",
        "label": "mapping(address => uint256)",
        "numberOfBytes": "32",
        "value": "t_uint256"
      },
      "t_string_storage": {
        "encoding": "bytes",
        "label": "string",
        "numberOfBytes": "32"
      },
      "t_uint256": {
        "encoding": "inplace",
        "label": "uint256",
        "numberOfBytes": "32"
      }
    }
  }
}