{
  "address": "0xb319454e3B744bB91abb0Ad7A36989b53c02A79a",
  "abi": [
    {
      "inputs": [
        {
          "internalType": "address",
          "name": "_campaignAddress",
          "type": "address"
        }
      ],
      "name": "CrowdFunder__CampaignStillActive",
      "type": "error"
    },
    {
      "inputs": [
        {
          "internalType": "address",
          "name": "_campaignAddress",
          "type": "address"
        }
      ],
      "name": "CrowdFunder__DonationFailed",
      "type": "error"
    },
    {
      "inputs": [
        {
          "internalType": "address",
          "name": "_caller",
          "type": "address"
        },
        {
          "internalType": "address",
          "name": "_campaignAddress",
          "type": "address"
        }
      ],
      "name": "CrowdFunder__NotCreator",
      "type": "error"
    },
    {
      "inputs": [
        {
          "internalType": "address",
          "name": "_campaignAddress",
          "type": "address"
        }
      ],
      "name": "CrowdFunder__RefundFailed",
      "type": "error"
    },
    {
      "anonymous": false,
      "inputs": [
        {
          "indexed": true,
          "internalType": "address",
          "name": "_campaignAddress",
          "type": "address"
        },
        {
          "indexed": true,
          "internalType": "address",
          "name": "_creator",
          "type": "address"
        },
        {
          "indexed": false,
          "internalType": "string",
          "name": "_category",
          "type": "string"
        },
        {
          "indexed": false,
          "internalType": "string[]",
          "name": "_tags",
          "type": "string[]"
        }
      ],
      "name": "CampaignAdded",
      "type": "event"
    },
    {
      "anonymous": false,
      "inputs": [
        {
          "indexed": true,
          "internalType": "address",
          "name": "_funder",
          "type": "address"
        },
        {
          "indexed": true,
          "internalType": "address",
          "name": "_campaignAddress",
          "type": "address"
        }
      ],
      "name": "CampaignFunded",
      "type": "event"
    },
    {
      "anonymous": false,
      "inputs": [
        {
          "indexed": true,
          "internalType": "address",
          "name": "_campaignAddress",
          "type": "address"
        }
      ],
      "name": "CampaignRemoved",
      "type": "event"
    },
    {
      "anonymous": false,
      "inputs": [
        {
          "indexed": true,
          "internalType": "address",
          "name": "_withdrawer",
          "type": "address"
        },
        {
          "indexed": true,
          "internalType": "address",
          "name": "_campaignAddress",
          "type": "address"
        }
      ],
      "name": "CampaignShrunk",
      "type": "event"
    },
    {
      "anonymous": false,
      "inputs": [
        {
          "indexed": true,
          "internalType": "address",
          "name": "_address",
          "type": "address"
        },
        {
          "indexed": false,
          "internalType": "string",
          "name": "_username",
          "type": "string"
        },
        {
          "indexed": false,
          "internalType": "string",
          "name": "_twitter",
          "type": "string"
        },
        {
          "indexed": false,
          "internalType": "string",
          "name": "_email",
          "type": "string"
        },
        {
          "indexed": false,
          "internalType": "string",
          "name": "_location",
          "type": "string"
        },
        {
          "indexed": false,
          "internalType": "string",
          "name": "_bio",
          "type": "string"
        }
      ],
      "name": "UserAdded",
      "type": "event"
    },
    {
      "anonymous": false,
      "inputs": [
        {
          "indexed": false,
          "internalType": "address",
          "name": "_userAddress",
          "type": "address"
        },
        {
          "indexed": false,
          "internalType": "string",
          "name": "_homeAddr",
          "type": "string"
        }
      ],
      "name": "UserHomeAddrAdded",
      "type": "event"
    },
    {
      "inputs": [
        {
          "internalType": "string",
          "name": "_title",
          "type": "string"
        },
        {
          "internalType": "string",
          "name": "_description",
          "type": "string"
        },
        {
          "internalType": "string",
          "name": "_category",
          "type": "string"
        },
        {
          "internalType": "string[]",
          "name": "_tags",
          "type": "string[]"
        },
        {
          "internalType": "uint256",
          "name": "_goalAmount",
          "type": "uint256"
        },
        {
          "internalType": "uint256",
          "name": "_duration",
          "type": "uint256"
        },
        {
          "internalType": "string",
          "name": "_imageURI",
          "type": "string"
        },
        {
          "internalType": "string",
          "name": "_campaignURI",
          "type": "string"
        },
        {
          "internalType": "address",
          "name": "_linkTokenAddress",
          "type": "address"
        },
        {
          "internalType": "address",
          "name": "_upkeepCreatorAddress",
          "type": "address"
        }
      ],
      "name": "addCampaign",
      "outputs": [],
      "stateMutability": "nonpayable",
      "type": "function"
    },
    {
      "inputs": [
        {
          "internalType": "address",
          "name": "_address",
          "type": "address"
        },
        {
          "internalType": "string",
          "name": "_username",
          "type": "string"
        },
        {
          "internalType": "string",
          "name": "_twitter",
          "type": "string"
        },
        {
          "internalType": "string",
          "name": "_email",
          "type": "string"
        },
        {
          "internalType": "string",
          "name": "_location",
          "type": "string"
        },
        {
          "internalType": "string",
          "name": "_bio",
          "type": "string"
        }
      ],
      "name": "addUser",
      "outputs": [],
      "stateMutability": "nonpayable",
      "type": "function"
    },
    {
      "inputs": [
        {
          "internalType": "address",
          "name": "_userAddress",
          "type": "address"
        },
        {
          "internalType": "string",
          "name": "_homeAddr",
          "type": "string"
        }
      ],
      "name": "addUserHomeAddr",
      "outputs": [],
      "stateMutability": "nonpayable",
      "type": "function"
    },
    {
      "inputs": [],
      "name": "campaignCounter",
      "outputs": [
        {
          "internalType": "uint256",
          "name": "",
          "type": "uint256"
        }
      ],
      "stateMutability": "view",
      "type": "function"
    },
    {
      "inputs": [
        {
          "internalType": "address",
          "name": "_campaignAddress",
          "type": "address"
        }
      ],
      "name": "donateToCampaign",
      "outputs": [],
      "stateMutability": "payable",
      "type": "function"
    },
    {
      "inputs": [
        {
          "internalType": "address",
          "name": "_campaignAddress",
          "type": "address"
        },
        {
          "internalType": "address",
          "name": "_donator",
          "type": "address"
        }
      ],
      "name": "refundFromCampaign",
      "outputs": [],
      "stateMutability": "nonpayable",
      "type": "function"
    },
    {
      "inputs": [
        {
          "internalType": "address",
          "name": "_campaignAddress",
          "type": "address"
        }
      ],
      "name": "removeCampaign",
      "outputs": [],
      "stateMutability": "nonpayable",
      "type": "function"
    }
  ],
  "transactionHash": "0x39b07058cb287e47a0fdb27cc05ad0d17887acb27de9c4cab88f82ae9d550f8c",
  "args": [],
  "numDeployments": 16,
  "solcInputHash": "9e1edad4edf883fa8fcc0098eb6d7d17",
  "bytecode": "0x608060405234801561001057600080fd5b50615f76806100206000396000f3fe6080604052600436106200007a5760003560e01c80637dfaeaa311620000555780637dfaeaa314620000fb578063e13e47001462000129578063e4663a5b1462000157578063fca604d71462000185576200007a565b80631a702aa0146200007f578063359c4f3214620000ad5780637c6abc8214620000db575b600080fd5b3480156200008c57600080fd5b50620000ab6004803603810190620000a5919062000c3f565b620001b5565b005b348015620000ba57600080fd5b50620000d96004803603810190620000d3919062000d76565b62000215565b005b620000f96004803603810190620000f3919062000dbd565b620003be565b005b3480156200010857600080fd5b5062000127600480360381019062000121919062000def565b62000559565b005b3480156200013657600080fd5b506200015560048036038101906200014f919062000f8c565b62000598565b005b3480156200016457600080fd5b506200018360048036038101906200017d919062000dbd565b620006f8565b005b3480156200019257600080fd5b506200019d62000a50565b604051620001ac91906200114d565b60405180910390f35b8573ffffffffffffffffffffffffffffffffffffffff167f8a71481c426e212d085148853642cbd73769f57ca8e2a96eca998197465ab416868686868660405162000205959493929190620011fd565b60405180910390a2505050505050565b60008273ffffffffffffffffffffffffffffffffffffffff16826040516024016200024191906200128e565b6040516020818303038152906040527ffa89401a000000000000000000000000000000000000000000000000000000007bffffffffffffffffffffffffffffffffffffffffffffffffffffffff19166020820180517bffffffffffffffffffffffffffffffffffffffffffffffffffffffff8381831617835250505050604051620002cd9190620012f8565b600060405180830381855af49150503d80600081146200030a576040519150601f19603f3d011682016040523d82523d6000602084013e6200030f565b606091505b5050905080156200037a578273ffffffffffffffffffffffffffffffffffffffff163373ffffffffffffffffffffffffffffffffffffffff167f9054f43c2e3f0a33645e2d3215afde366ee1037949dd258158140d157d8614ce60405160405180910390a3620003b9565b826040517f5bdf89f6000000000000000000000000000000000000000000000000000000008152600401620003b091906200128e565b60405180910390fd5b505050565b60008173ffffffffffffffffffffffffffffffffffffffff166040516024016040516020818303038152906040527fed88c68e000000000000000000000000000000000000000000000000000000007bffffffffffffffffffffffffffffffffffffffffffffffffffffffff19166020820180517bffffffffffffffffffffffffffffffffffffffffffffffffffffffff8381831617835250505050604051620004699190620012f8565b600060405180830381855af49150503d8060008114620004a6576040519150601f19603f3d011682016040523d82523d6000602084013e620004ab565b606091505b50509050801562000516578173ffffffffffffffffffffffffffffffffffffffff163373ffffffffffffffffffffffffffffffffffffffff167f406c70a06d8422cfeb8281878b74e291f0feca05e5fd54df2cfbdc386611673660405160405180910390a362000555565b816040517ffe5dd8d30000000000000000000000000000000000000000000000000000000081526004016200054c91906200128e565b60405180910390fd5b5050565b7f440065d68f2dccb29aed41dfaf29b5137d728950be75f0f67945debd30068a6282826040516200058c92919062001311565b60405180910390a15050565b6000338b8b8b8b8b8b8b8b8b8b604051620005b39062000a56565b620005c99b9a99989796959493929190620014d2565b604051809103906000f080158015620005e6573d6000803e3d6000fd5b50905080600160008373ffffffffffffffffffffffffffffffffffffffff1673ffffffffffffffffffffffffffffffffffffffff16815260200190815260200160002060006101000a81548173ffffffffffffffffffffffffffffffffffffffff021916908373ffffffffffffffffffffffffffffffffffffffff16021790555060016000808282546200067b9190620015ec565b925050819055503373ffffffffffffffffffffffffffffffffffffffff168173ffffffffffffffffffffffffffffffffffffffff167fd1ef576cbb9cedc698256ae3d2464b38a636f26263382a3c2206c86d7c8c1fcf8b8b604051620006e392919062001649565b60405180910390a35050505050505050505050565b803373ffffffffffffffffffffffffffffffffffffffff16600160008373ffffffffffffffffffffffffffffffffffffffff1673ffffffffffffffffffffffffffffffffffffffff16815260200190815260200160002060009054906101000a900473ffffffffffffffffffffffffffffffffffffffff1673ffffffffffffffffffffffffffffffffffffffff1663b145603e6040518163ffffffff1660e01b815260040160206040518083038186803b158015620007b657600080fd5b505afa158015620007cb573d6000803e3d6000fd5b505050506040513d601f19601f82011682018060405250810190620007f19190620016c9565b73ffffffffffffffffffffffffffffffffffffffff16146200084e5733816040517fd9e20da800000000000000000000000000000000000000000000000000000000815260040162000845929190620016fb565b60405180910390fd5b6000600160008473ffffffffffffffffffffffffffffffffffffffff1673ffffffffffffffffffffffffffffffffffffffff16815260200190815260200160002060009054906101000a900473ffffffffffffffffffffffffffffffffffffffff1673ffffffffffffffffffffffffffffffffffffffff166360fa9a726040518163ffffffff1660e01b815260040160206040518083038186803b158015620008f657600080fd5b505afa1580156200090b573d6000803e3d6000fd5b505050506040513d601f19601f8201168201806040525081019062000931919062001750565b600281111562000946576200094562001782565b5b14156200098c57816040517fdfecfddd0000000000000000000000000000000000000000000000000000000081526004016200098391906200128e565b60405180910390fd5b600160008373ffffffffffffffffffffffffffffffffffffffff1673ffffffffffffffffffffffffffffffffffffffff16815260200190815260200160002060006101000a81549073ffffffffffffffffffffffffffffffffffffffff0219169055600160008082825462000a029190620017b1565b925050819055508173ffffffffffffffffffffffffffffffffffffffff167fd41d62ed7a46b1f2f4c0a4c0fa40c95bbe14a7d55034ff9817b743d6cb79353660405160405180910390a25050565b60005481565b61475480620017ed83390190565b6000604051905090565b600080fd5b600080fd5b600073ffffffffffffffffffffffffffffffffffffffff82169050919050565b600062000aa58262000a78565b9050919050565b62000ab78162000a98565b811462000ac357600080fd5b50565b60008135905062000ad78162000aac565b92915050565b600080fd5b600080fd5b6000601f19601f8301169050919050565b7f4e487b7100000000000000000000000000000000000000000000000000000000600052604160045260246000fd5b62000b328262000ae7565b810181811067ffffffffffffffff8211171562000b545762000b5362000af8565b5b80604052505050565b600062000b6962000a64565b905062000b77828262000b27565b919050565b600067ffffffffffffffff82111562000b9a5762000b9962000af8565b5b62000ba58262000ae7565b9050602081019050919050565b82818337600083830152505050565b600062000bd862000bd28462000b7c565b62000b5d565b90508281526020810184848401111562000bf75762000bf662000ae2565b5b62000c0484828562000bb2565b509392505050565b600082601f83011262000c245762000c2362000add565b5b813562000c3684826020860162000bc1565b91505092915050565b60008060008060008060c0878903121562000c5f5762000c5e62000a6e565b5b600062000c6f89828a0162000ac6565b965050602087013567ffffffffffffffff81111562000c935762000c9262000a73565b5b62000ca189828a0162000c0c565b955050604087013567ffffffffffffffff81111562000cc55762000cc462000a73565b5b62000cd389828a0162000c0c565b945050606087013567ffffffffffffffff81111562000cf75762000cf662000a73565b5b62000d0589828a0162000c0c565b935050608087013567ffffffffffffffff81111562000d295762000d2862000a73565b5b62000d3789828a0162000c0c565b92505060a087013567ffffffffffffffff81111562000d5b5762000d5a62000a73565b5b62000d6989828a0162000c0c565b9150509295509295509295565b6000806040838503121562000d905762000d8f62000a6e565b5b600062000da08582860162000ac6565b925050602062000db38582860162000ac6565b9150509250929050565b60006020828403121562000dd65762000dd562000a6e565b5b600062000de68482850162000ac6565b91505092915050565b6000806040838503121562000e095762000e0862000a6e565b5b600062000e198582860162000ac6565b925050602083013567ffffffffffffffff81111562000e3d5762000e3c62000a73565b5b62000e4b8582860162000c0c565b9150509250929050565b600067ffffffffffffffff82111562000e735762000e7262000af8565b5b602082029050602081019050919050565b600080fd5b600062000ea062000e9a8462000e55565b62000b5d565b9050808382526020820190506020840283018581111562000ec65762000ec562000e84565b5b835b8181101562000f1457803567ffffffffffffffff81111562000eef5762000eee62000add565b5b80860162000efe898262000c0c565b8552602085019450505060208101905062000ec8565b5050509392505050565b600082601f83011262000f365762000f3562000add565b5b813562000f4884826020860162000e89565b91505092915050565b6000819050919050565b62000f668162000f51565b811462000f7257600080fd5b50565b60008135905062000f868162000f5b565b92915050565b6000806000806000806000806000806101408b8d03121562000fb35762000fb262000a6e565b5b60008b013567ffffffffffffffff81111562000fd45762000fd362000a73565b5b62000fe28d828e0162000c0c565b9a505060208b013567ffffffffffffffff81111562001006576200100562000a73565b5b620010148d828e0162000c0c565b99505060408b013567ffffffffffffffff81111562001038576200103762000a73565b5b620010468d828e0162000c0c565b98505060608b013567ffffffffffffffff8111156200106a576200106962000a73565b5b620010788d828e0162000f1e565b97505060806200108b8d828e0162000f75565b96505060a06200109e8d828e0162000f75565b95505060c08b013567ffffffffffffffff811115620010c257620010c162000a73565b5b620010d08d828e0162000c0c565b94505060e08b013567ffffffffffffffff811115620010f457620010f362000a73565b5b620011028d828e0162000c0c565b935050610100620011168d828e0162000ac6565b9250506101206200112a8d828e0162000ac6565b9150509295989b9194979a5092959850565b620011478162000f51565b82525050565b60006020820190506200116460008301846200113c565b92915050565b600081519050919050565b600082825260208201905092915050565b60005b83811015620011a657808201518184015260208101905062001189565b83811115620011b6576000848401525b50505050565b6000620011c9826200116a565b620011d5818562001175565b9350620011e781856020860162001186565b620011f28162000ae7565b840191505092915050565b600060a0820190508181036000830152620012198188620011bc565b905081810360208301526200122f8187620011bc565b90508181036040830152620012458186620011bc565b905081810360608301526200125b8185620011bc565b90508181036080830152620012718184620011bc565b90509695505050505050565b620012888162000a98565b82525050565b6000602082019050620012a560008301846200127d565b92915050565b600081519050919050565b600081905092915050565b6000620012ce82620012ab565b620012da8185620012b6565b9350620012ec81856020860162001186565b80840191505092915050565b6000620013068284620012c1565b915081905092915050565b60006040820190506200132860008301856200127d565b81810360208301526200133c8184620011bc565b90509392505050565b6000819050919050565b6000620013706200136a620013648462000a78565b62001345565b62000a78565b9050919050565b600062001384826200134f565b9050919050565b6000620013988262001377565b9050919050565b620013aa816200138b565b82525050565b600081519050919050565b600082825260208201905092915050565b6000819050602082019050919050565b600082825260208201905092915050565b6000620013fa826200116a565b620014068185620013dc565b93506200141881856020860162001186565b620014238162000ae7565b840191505092915050565b60006200143c8383620013ed565b905092915050565b6000602082019050919050565b60006200145e82620013b0565b6200146a8185620013bb565b9350836020820285016200147e85620013cc565b8060005b85811015620014c057848403895281516200149e85826200142e565b9450620014ab8362001444565b925060208a0199505060018101905062001482565b50829750879550505050505092915050565b600061016082019050620014ea600083018e6200139f565b8181036020830152620014fe818d620011bc565b9050818103604083015262001514818c620011bc565b905081810360608301526200152a818b620011bc565b9050818103608083015262001540818a62001451565b90506200155160a08301896200113c565b6200156060c08301886200113c565b81810360e0830152620015748187620011bc565b90508181036101008301526200158b8186620011bc565b90506200159d6101208301856200127d565b620015ad6101408301846200127d565b9c9b505050505050505050505050565b7f4e487b7100000000000000000000000000000000000000000000000000000000600052601160045260246000fd5b6000620015f98262000f51565b9150620016068362000f51565b9250827fffffffffffffffffffffffffffffffffffffffffffffffffffffffffffffffff038211156200163e576200163d620015bd565b5b828201905092915050565b60006040820190508181036000830152620016658185620011bc565b905081810360208301526200167b818462001451565b90509392505050565b6000620016918262000a78565b9050919050565b620016a38162001684565b8114620016af57600080fd5b50565b600081519050620016c38162001698565b92915050565b600060208284031215620016e257620016e162000a6e565b5b6000620016f284828501620016b2565b91505092915050565b60006040820190506200171260008301856200127d565b6200172160208301846200127d565b9392505050565b600381106200173657600080fd5b50565b6000815190506200174a8162001728565b92915050565b60006020828403121562001769576200176862000a6e565b5b6000620017798482850162001739565b91505092915050565b7f4e487b7100000000000000000000000000000000000000000000000000000000600052602160045260246000fd5b6000620017be8262000f51565b9150620017cb8362000f51565b925082821015620017e157620017e0620015bd565b5b82820390509291505056fe6101006040526000600a60006101000a81548160ff021916908360028111156200002e576200002d6200036d565b5b02179055503480156200004057600080fd5b5060405162004754380380620047548339818101604052810190620000669190620006d5565b8a73ffffffffffffffffffffffffffffffffffffffff1660808173ffffffffffffffffffffffffffffffffffffffff1660601b815250508960009080519060200190620000b5929190620001e8565b508860019080519060200190620000ce929190620001e8565b508760029080519060200190620000e7929190620001e8565b5086600590805190602001906200010092919062000279565b50856006819055504260a081815250508460078190555060075460a051620001299190620008cb565b600981905550836003908051906020019062000147929190620001e8565b50826004908051906020019062000160929190620001e8565b5060006008819055508173ffffffffffffffffffffffffffffffffffffffff1660c08173ffffffffffffffffffffffffffffffffffffffff1660601b815250508073ffffffffffffffffffffffffffffffffffffffff1660e08173ffffffffffffffffffffffffffffffffffffffff1660601b8152505050505050505050505050506200098d565b828054620001f69062000957565b90600052602060002090601f0160209004810192826200021a576000855562000266565b82601f106200023557805160ff191683800117855562000266565b8280016001018555821562000266579182015b828111156200026557825182559160200191906001019062000248565b5b509050620002759190620002e0565b5090565b828054828255906000526020600020908101928215620002cd579160200282015b82811115620002cc578251829080519060200190620002bb929190620001e8565b50916020019190600101906200029a565b5b509050620002dc9190620002ff565b5090565b5b80821115620002fb576000816000905550600101620002e1565b5090565b5b8082111562000323576000818162000319919062000327565b5060010162000300565b5090565b508054620003359062000957565b6000825580601f106200034957506200036a565b601f016020900490600052602060002090810190620003699190620002e0565b5b50565b7f4e487b7100000000000000000000000000000000000000000000000000000000600052602160045260246000fd5b6000604051905090565b600080fd5b600080fd5b600073ffffffffffffffffffffffffffffffffffffffff82169050919050565b6000620003dd82620003b0565b9050919050565b620003ef81620003d0565b8114620003fb57600080fd5b50565b6000815190506200040f81620003e4565b92915050565b600080fd5b600080fd5b6000601f19601f8301169050919050565b7f4e487b7100000000000000000000000000000000000000000000000000000000600052604160045260246000fd5b6200046a826200041f565b810181811067ffffffffffffffff821117156200048c576200048b62000430565b5b80604052505050565b6000620004a16200039c565b9050620004af82826200045f565b919050565b600067ffffffffffffffff821115620004d257620004d162000430565b5b620004dd826200041f565b9050602081019050919050565b60005b838110156200050a578082015181840152602081019050620004ed565b838111156200051a576000848401525b50505050565b6000620005376200053184620004b4565b62000495565b9050828152602081018484840111156200055657620005556200041a565b5b62000563848285620004ea565b509392505050565b600082601f83011262000583576200058262000415565b5b81516200059584826020860162000520565b91505092915050565b600067ffffffffffffffff821115620005bc57620005bb62000430565b5b602082029050602081019050919050565b600080fd5b6000620005e9620005e3846200059e565b62000495565b905080838252602082019050602084028301858111156200060f576200060e620005cd565b5b835b818110156200065d57805167ffffffffffffffff81111562000638576200063762000415565b5b8086016200064789826200056b565b8552602085019450505060208101905062000611565b5050509392505050565b600082601f8301126200067f576200067e62000415565b5b815162000691848260208601620005d2565b91505092915050565b6000819050919050565b620006af816200069a565b8114620006bb57600080fd5b50565b600081519050620006cf81620006a4565b92915050565b60008060008060008060008060008060006101608c8e031215620006fe57620006fd620003a6565b5b60006200070e8e828f01620003fe565b9b505060208c015167ffffffffffffffff811115620007325762000731620003ab565b5b620007408e828f016200056b565b9a505060408c015167ffffffffffffffff811115620007645762000763620003ab565b5b620007728e828f016200056b565b99505060608c015167ffffffffffffffff811115620007965762000795620003ab565b5b620007a48e828f016200056b565b98505060808c015167ffffffffffffffff811115620007c857620007c7620003ab565b5b620007d68e828f0162000667565b97505060a0620007e98e828f01620006be565b96505060c0620007fc8e828f01620006be565b95505060e08c015167ffffffffffffffff81111562000820576200081f620003ab565b5b6200082e8e828f016200056b565b9450506101008c015167ffffffffffffffff811115620008535762000852620003ab565b5b620008618e828f016200056b565b935050610120620008758e828f01620003fe565b925050610140620008898e828f01620003fe565b9150509295989b509295989b9093969950565b7f4e487b7100000000000000000000000000000000000000000000000000000000600052601160045260246000fd5b6000620008d8826200069a565b9150620008e5836200069a565b9250827fffffffffffffffffffffffffffffffffffffffffffffffffffffffffffffffff038211156200091d576200091c6200089c565b5b828201905092915050565b7f4e487b7100000000000000000000000000000000000000000000000000000000600052602260045260246000fd5b600060028204905060018216806200097057607f821691505b6020821081141562000987576200098662000928565b5b50919050565b60805160601c60a05160c05160601c60e05160601c613d2262000a326000396000818161119801526111fe015260006111bd015260008181610d06015261190f01526000818161070d01528181610c6501528181611111015281816112ee01528181611495015281816115f9015281816116fc015281816117ad0152818161199d01528181611ba801528181611d6401528181611e74015261200b0152613d226000f3fe6080604052600436106101cd5760003560e01c806363bd1d4a116100f7578063b145603e11610095578063e7cf1ab711610064578063e7cf1ab714610659578063ed88c68e14610682578063f301af421461068c578063fa89401a146106ce576101cd565b8063b145603e146105ad578063bf66e2c8146105d8578063ce2a057214610603578063ce845d1d1461062e576101cd565b806371aac7f9116100d157806371aac7f91461050557806395086ed11461051c57806399a8502d146105595780639a91379314610584576101cd565b806363bd1d4a1461047357806369066ae91461048a5780636e04ff0d146104c7576101cd565b806329dcb0cf1161016f5780634d695bdb1161013e5780634d695bdb146103b75780634ef89719146103e057806360fa9a721461040b5780636235887a14610436576101cd565b806329dcb0cf146103215780634278ac8b1461034c578063431f9a23146103775780634585e33b1461038e576101cd565b80631910bdc2116101ab5780631910bdc2146102535780631b50ad09146102905780631c4b774b146102b95780632636b945146102f6576101cd565b80630c611f24146101d25780630fb5a6b4146101fd57806315a46ee614610228575b600080fd5b3480156101de57600080fd5b506101e76106f7565b6040516101f49190612cf3565b60405180910390f35b34801561020957600080fd5b50610212610b38565b60405161021f9190612d24565b60405180910390f35b34801561023457600080fd5b5061023d610b3e565b60405161024a9190612d89565b60405180910390f35b34801561025f57600080fd5b5061027a60048036038101906102759190612deb565b610bcc565b6040516102879190612ec7565b60405180910390f35b34801561029c57600080fd5b506102b760048036038101906102b29190612f15565b610c63565b005b3480156102c557600080fd5b506102e060048036038101906102db9190612f15565b610d38565b6040516102ed9190613022565b60405180910390f35b34801561030257600080fd5b5061030b611075565b6040516103189190612d24565b60405180910390f35b34801561032d57600080fd5b5061033661107b565b6040516103439190612d24565b60405180910390f35b34801561035857600080fd5b50610361611081565b60405161036e9190612d89565b60405180910390f35b34801561038357600080fd5b5061038c61110f565b005b34801561039a57600080fd5b506103b560048036038101906103b091906130a9565b611395565b005b3480156103c357600080fd5b506103de60048036038101906103d99190613226565b611493565b005b3480156103ec57600080fd5b506103f5611532565b6040516104029190612d89565b60405180910390f35b34801561041757600080fd5b506104206115c0565b60405161042d919061327e565b60405180910390f35b34801561044257600080fd5b5061045d60048036038101906104589190612f15565b6115d3565b60405161046a9190612d24565b60405180910390f35b34801561047f57600080fd5b506104886115f7565b005b34801561049657600080fd5b506104b160048036038101906104ac9190612f15565b61181e565b6040516104be9190612d89565b60405180910390f35b3480156104d357600080fd5b506104ee60048036038101906104e9919061333a565b6118ca565b6040516104fc9291906133e7565b60405180910390f35b34801561051157600080fd5b5061051a61199b565b005b34801561052857600080fd5b50610543600480360381019061053e9190613417565b611ae7565b6040516105509190612d24565b60405180910390f35b34801561056557600080fd5b5061056e611b18565b60405161057b9190612d89565b60405180910390f35b34801561059057600080fd5b506105ab60048036038101906105a69190613564565b611ba6565b005b3480156105b957600080fd5b506105c2611d62565b6040516105cf91906136ab565b60405180910390f35b3480156105e457600080fd5b506105ed611d86565b6040516105fa9190612ec7565b60405180910390f35b34801561060f57600080fd5b50610618611dde565b6040516106259190612d89565b60405180910390f35b34801561063a57600080fd5b50610643611e6c565b6040516106509190612d24565b60405180910390f35b34801561066557600080fd5b50610680600480360381019061067b9190612f15565b611e72565b005b61068a611f9c565b005b34801561069857600080fd5b506106b360048036038101906106ae9190612f15565b612276565b6040516106c5969594939291906136c6565b60405180910390f35b3480156106da57600080fd5b506106f560048036038101906106f09190612deb565b6123cf565b005b6106ff612727565b6040518061018001604052807f000000000000000000000000000000000000000000000000000000000000000073ffffffffffffffffffffffffffffffffffffffff1681526020016000805461075490613764565b80601f016020809104026020016040519081016040528092919081815260200182805461078090613764565b80156107cd5780601f106107a2576101008083540402835291602001916107cd565b820191906000526020600020905b8154815290600101906020018083116107b057829003601f168201915b50505050508152602001600180546107e490613764565b80601f016020809104026020016040519081016040528092919081815260200182805461081090613764565b801561085d5780601f106108325761010080835404028352916020019161085d565b820191906000526020600020905b81548152906001019060200180831161084057829003601f168201915b505050505081526020016002805461087490613764565b80601f01602080910402602001604051908101604052809291908181526020018280546108a090613764565b80156108ed5780601f106108c2576101008083540402835291602001916108ed565b820191906000526020600020905b8154815290600101906020018083116108d057829003601f168201915b505050505081526020016005805480602002602001604051908101604052809291908181526020016000905b828210156109c557838290600052602060002001805461093890613764565b80601f016020809104026020016040519081016040528092919081815260200182805461096490613764565b80156109b15780601f10610986576101008083540402835291602001916109b1565b820191906000526020600020905b81548152906001019060200180831161099457829003601f168201915b505050505081526020019060010190610919565b505050508152602001600654815260200160075481526020016008548152602001600a60009054906101000a900460ff166002811115610a0857610a07612b55565b5b815260200160038054610a1a90613764565b80601f0160208091040260200160405190810160405280929190818152602001828054610a4690613764565b8015610a935780601f10610a6857610100808354040283529160200191610a93565b820191906000526020600020905b815481529060010190602001808311610a7657829003601f168201915b5050505050815260200160048054610aaa90613764565b80601f0160208091040260200160405190810160405280929190818152602001828054610ad690613764565b8015610b235780601f10610af857610100808354040283529160200191610b23565b820191906000526020600020905b815481529060010190602001808311610b0657829003601f168201915b50505050508152602001600954815250905090565b60075481565b60048054610b4b90613764565b80601f0160208091040260200160405190810160405280929190818152602001828054610b7790613764565b8015610bc45780601f10610b9957610100808354040283529160200191610bc4565b820191906000526020600020905b815481529060010190602001808311610ba757829003601f168201915b505050505081565b6060600d60008373ffffffffffffffffffffffffffffffffffffffff1673ffffffffffffffffffffffffffffffffffffffff168152602001908152602001600020805480602002602001604051908101604052809291908181526020018280548015610c5757602002820191906000526020600020905b815481526020019060010190808311610c43575b50505050509050919050565b7f000000000000000000000000000000000000000000000000000000000000000073ffffffffffffffffffffffffffffffffffffffff163373ffffffffffffffffffffffffffffffffffffffff1614610ce8576040517f778e4c5e00000000000000000000000000000000000000000000000000000000815260040160405180910390fd5b8060076000828254610cfa91906137c5565b925050819055506007547f0000000000000000000000000000000000000000000000000000000000000000610d2f91906137c5565b60098190555050565b610d406127b0565b600c60008381526020019081526020016000206040518061010001604052908160008201548152602001600182018054610d7990613764565b80601f0160208091040260200160405190810160405280929190818152602001828054610da590613764565b8015610df25780601f10610dc757610100808354040283529160200191610df2565b820191906000526020600020905b815481529060010190602001808311610dd557829003601f168201915b50505050508152602001600282018054610e0b90613764565b80601f0160208091040260200160405190810160405280929190818152602001828054610e3790613764565b8015610e845780601f10610e5957610100808354040283529160200191610e84565b820191906000526020600020905b815481529060010190602001808311610e6757829003601f168201915b5050505050815260200160038201805480602002602001604051908101604052809291908181526020016000905b82821015610f5e578382906000526020600020018054610ed190613764565b80601f0160208091040260200160405190810160405280929190818152602001828054610efd90613764565b8015610f4a5780601f10610f1f57610100808354040283529160200191610f4a565b820191906000526020600020905b815481529060010190602001808311610f2d57829003601f168201915b505050505081526020019060010190610eb2565b50505050815260200160048201548152602001600582015481526020016006820160009054906101000a900460ff1615151515815260200160078201805480602002602001604051908101604052809291908181526020016000905b82821015611066578382906000526020600020018054610fd990613764565b80601f016020809104026020016040519081016040528092919081815260200182805461100590613764565b80156110525780601f1061102757610100808354040283529160200191611052565b820191906000526020600020905b81548152906001019060200180831161103557829003601f168201915b505050505081526020019060010190610fba565b50505050815250509050919050565b60065481565b60095481565b6002805461108e90613764565b80601f01602080910402602001604051908101604052809291908181526020018280546110ba90613764565b80156111075780601f106110dc57610100808354040283529160200191611107565b820191906000526020600020905b8154815290600101906020018083116110ea57829003601f168201915b505050505081565b7f000000000000000000000000000000000000000000000000000000000000000073ffffffffffffffffffffffffffffffffffffffff163373ffffffffffffffffffffffffffffffffffffffff1614611194576040517f778e4c5e00000000000000000000000000000000000000000000000000000000815260040160405180910390fd5b60007f0000000000000000000000000000000000000000000000000000000000000000905060007f0000000000000000000000000000000000000000000000000000000000000000905060008173ffffffffffffffffffffffffffffffffffffffff166370a082317f00000000000000000000000000000000000000000000000000000000000000006040518263ffffffff1660e01b8152600401611239919061382a565b60206040518083038186803b15801561125157600080fd5b505afa158015611265573d6000803e3d6000fd5b505050506040513d601f19601f82011682018060405250810190611289919061385a565b116112c9576040517f08c379a00000000000000000000000000000000000000000000000000000000081526004016112c0906138d3565b60405180910390fd5b8173ffffffffffffffffffffffffffffffffffffffff166318a9fb8a6000306207a1207f0000000000000000000000000000000000000000000000000000000000000000678ac7230489e8000060006040518763ffffffff1660e01b815260040161133996959493929190613b19565b602060405180830381600087803b15801561135357600080fd5b505af1158015611367573d6000803e3d6000fd5b505050506040513d601f19601f8201168201806040525081019061138b919061385a565b600b819055505050565b60006113af604051806020016040528060008152506118ca565b509050806113e9576040517f311f87a100000000000000000000000000000000000000000000000000000000815260040160405180910390fd5b6001600a60006101000a81548160ff0219169083600281111561140f5761140e612b55565b5b02179055507f5cf8cd2bd40f758a95257bed666285eb82801f1bf9223b8ec1481e510ba2e82d30604051611443919061382a565b60405180910390a16006546008541061148e577f5369558c667e962b633128a01c31764d053da51f61d17370d327ed17f77deccc30604051611485919061382a565b60405180910390a15b505050565b7f000000000000000000000000000000000000000000000000000000000000000073ffffffffffffffffffffffffffffffffffffffff163373ffffffffffffffffffffffffffffffffffffffff1614611518576040517f778e4c5e00000000000000000000000000000000000000000000000000000000815260040160405180910390fd5b806004908051906020019061152e9291906127f7565b5050565b6001805461153f90613764565b80601f016020809104026020016040519081016040528092919081815260200182805461156b90613764565b80156115b85780601f1061158d576101008083540402835291602001916115b8565b820191906000526020600020905b81548152906001019060200180831161159b57829003601f168201915b505050505081565b600a60009054906101000a900460ff1681565b600e81815481106115e357600080fd5b906000526020600020016000915090505481565b7f000000000000000000000000000000000000000000000000000000000000000073ffffffffffffffffffffffffffffffffffffffff163373ffffffffffffffffffffffffffffffffffffffff161461167c576040517f778e4c5e00000000000000000000000000000000000000000000000000000000815260040160405180910390fd5b600160028111156116905761168f612b55565b5b600a60009054906101000a900460ff1660028111156116b2576116b1612b55565b5b146116e9576040517ffa4021a300000000000000000000000000000000000000000000000000000000815260040160405180910390fd5b60006008549050600060088190555060007f000000000000000000000000000000000000000000000000000000000000000073ffffffffffffffffffffffffffffffffffffffff168260405161173e90613bd9565b60006040518083038185875af1925050503d806000811461177b576040519150601f19603f3d011682016040523d82523d6000602084013e611780565b606091505b5050905080156117e8577fba5e837743d81ad0e6deb16089dbb65b549fdda8ad802fd8d4822884d70dc8b27f0000000000000000000000000000000000000000000000000000000000000000306040516117db929190613bee565b60405180910390a161181a565b6040517f11456ffb00000000000000000000000000000000000000000000000000000000815260040160405180910390fd5b5050565b6005818154811061182e57600080fd5b90600052602060002001600091509050805461184990613764565b80601f016020809104026020016040519081016040528092919081815260200182805461187590613764565b80156118c25780601f10611897576101008083540402835291602001916118c2565b820191906000526020600020905b8154815290600101906020018083116118a557829003601f168201915b505050505081565b6000606060008060028111156118e3576118e2612b55565b5b600a60009054906101000a900460ff16600281111561190557611904612b55565b5b14905060006007547f0000000000000000000000000000000000000000000000000000000000000000426119399190613c17565b1190506000804711905081801561194d5750825b80156119565750805b9450846040518060400160405280600381526020017f307830000000000000000000000000000000000000000000000000000000000081525094509450505050915091565b7f000000000000000000000000000000000000000000000000000000000000000073ffffffffffffffffffffffffffffffffffffffff163373ffffffffffffffffffffffffffffffffffffffff1614611a20576040517f778e4c5e00000000000000000000000000000000000000000000000000000000815260040160405180910390fd5b60016002811115611a3457611a33612b55565b5b600a60009054906101000a900460ff166002811115611a5657611a55612b55565b5b1415611a8e576040517f651e73ae00000000000000000000000000000000000000000000000000000000815260040160405180910390fd5b6002600a60006101000a81548160ff02191690836002811115611ab457611ab3612b55565b5b02179055507fb83ebe09f40e9293bdea1d6567fae3175119d3d0ff13c4b4df15994837dd7f5160405160405180910390a1565b600d6020528160005260406000208181548110611b0357600080fd5b90600052602060002001600091509150505481565b60008054611b2590613764565b80601f0160208091040260200160405190810160405280929190818152602001828054611b5190613764565b8015611b9e5780601f10611b7357610100808354040283529160200191611b9e565b820191906000526020600020905b815481529060010190602001808311611b8157829003601f168201915b505050505081565b7f000000000000000000000000000000000000000000000000000000000000000073ffffffffffffffffffffffffffffffffffffffff163373ffffffffffffffffffffffffffffffffffffffff1614611c2b576040517f778e4c5e00000000000000000000000000000000000000000000000000000000815260040160405180910390fd5b600e889080600181540180825580915050600190039060005260206000200160009091909190915055604051806101000160405280898152602001888152602001878152602001868152602001858152602001848152602001831515815260200182815250600c60008a8152602001908152602001600020600082015181600001556020820151816001019080519060200190611cc99291906127f7565b506040820151816002019080519060200190611ce69291906127f7565b506060820151816003019080519060200190611d0392919061287d565b506080820151816004015560a0820151816005015560c08201518160060160006101000a81548160ff02191690831515021790555060e0820151816007019080519060200190611d5492919061287d565b509050505050505050505050565b7f000000000000000000000000000000000000000000000000000000000000000081565b6060600e805480602002602001604051908101604052809291908181526020018280548015611dd457602002820191906000526020600020905b815481526020019060010190808311611dc0575b5050505050905090565b60038054611deb90613764565b80601f0160208091040260200160405190810160405280929190818152602001828054611e1790613764565b8015611e645780601f10611e3957610100808354040283529160200191611e64565b820191906000526020600020905b815481529060010190602001808311611e4757829003601f168201915b505050505081565b60085481565b7f000000000000000000000000000000000000000000000000000000000000000073ffffffffffffffffffffffffffffffffffffffff163373ffffffffffffffffffffffffffffffffffffffff1614611ef7576040517f778e4c5e00000000000000000000000000000000000000000000000000000000815260040160405180910390fd5b6000600c6000838152602001908152602001600020600001541115611f9957600c6000828152602001908152602001600020600080820160009055600182016000611f4291906128dd565b600282016000611f5291906128dd565b600382016000611f62919061291d565b600482016000905560058201600090556006820160006101000a81549060ff0219169055600782016000611f96919061291d565b50505b50565b60006002811115611fb057611faf612b55565b5b600a60009054906101000a900460ff166002811115611fd257611fd1612b55565b5b14612009576040517ffa4021a300000000000000000000000000000000000000000000000000000000815260040160405180910390fd5b7f000000000000000000000000000000000000000000000000000000000000000073ffffffffffffffffffffffffffffffffffffffff163373ffffffffffffffffffffffffffffffffffffffff16141561208f576040517f5b3890a000000000000000000000000000000000000000000000000000000000815260040160405180910390fd5b6120a4346008546126a990919063ffffffff16565b6008819055506000600c6000348152602001908152602001600020600001541180156120f15750600c600034815260200190815260200160002060060160009054906101000a900460ff16155b156121bc576001600c6000348152602001908152602001600020600501546121199190613c17565b506000600c600034815260200190815260200160002060050154116121bb57600c600034815260200190815260200160002060008082016000905560018201600061216491906128dd565b60028201600061217491906128dd565b600382016000612184919061291d565b600482016000905560058201600090556006820160006101000a81549060ff02191690556007820160006121b8919061291d565b50505b5b600d60003373ffffffffffffffffffffffffffffffffffffffff1673ffffffffffffffffffffffffffffffffffffffff1681526020019081526020016000203490806001815401808255809150506001900390600052602060002001600090919091909150553373ffffffffffffffffffffffffffffffffffffffff167fe76ad748537a48e778fef43dda4a6bd1b50cd62385f9f21a9ca26749235512083460085460405161226c929190613c4b565b60405180910390a2565b600c60205280600052604060002060009150905080600001549080600101805461229f90613764565b80601f01602080910402602001604051908101604052809291908181526020018280546122cb90613764565b80156123185780601f106122ed57610100808354040283529160200191612318565b820191906000526020600020905b8154815290600101906020018083116122fb57829003601f168201915b50505050509080600201805461232d90613764565b80601f016020809104026020016040519081016040528092919081815260200182805461235990613764565b80156123a65780601f1061237b576101008083540402835291602001916123a6565b820191906000526020600020905b81548152906001019060200180831161238957829003601f168201915b5050505050908060040154908060050154908060060160009054906101000a900460ff16905086565b600160028111156123e3576123e2612b55565b5b600a60009054906101000a900460ff16600281111561240557612404612b55565b5b141561243d576040517f651e73ae00000000000000000000000000000000000000000000000000000000815260040160405180910390fd5b6000600d60008373ffffffffffffffffffffffffffffffffffffffff1673ffffffffffffffffffffffffffffffffffffffff1681526020019081526020016000208054905014156124c557806040517fc43858590000000000000000000000000000000000000000000000000000000081526004016124bc919061382a565b60405180910390fd5b600061255d600d60008473ffffffffffffffffffffffffffffffffffffffff1673ffffffffffffffffffffffffffffffffffffffff16815260200190815260200160002080548060200260200160405190810160405280929190818152602001828054801561255357602002820191906000526020600020905b81548152602001906001019080831161253f575b50505050506126bf565b9050600d60008373ffffffffffffffffffffffffffffffffffffffff1673ffffffffffffffffffffffffffffffffffffffff16815260200190815260200160002060006125aa919061293e565b8060085410156125e6576040517f52c3b68400000000000000000000000000000000000000000000000000000000815260040160405180910390fd5b6125fb8160085461271190919063ffffffff16565b60088190555060008273ffffffffffffffffffffffffffffffffffffffff168260405161262790613bd9565b60006040518083038185875af1925050503d8060008114612664576040519150601f19603f3d011682016040523d82523d6000602084013e612669565b606091505b50509050806126a4576040517f92e9f8f100000000000000000000000000000000000000000000000000000000815260040160405180910390fd5b505050565b600081836126b791906137c5565b905092915050565b600080600090505b825181101561270b578281815181106126e3576126e2613c74565b5b6020026020010151826126f691906137c5565b9150808061270390613ca3565b9150506126c7565b50919050565b6000818361271f9190613c17565b905092915050565b604051806101800160405280600073ffffffffffffffffffffffffffffffffffffffff168152602001606081526020016060815260200160608152602001606081526020016000815260200160008152602001600081526020016000600281111561279557612794612b55565b5b81526020016060815260200160608152602001600081525090565b604051806101000160405280600081526020016060815260200160608152602001606081526020016000815260200160008152602001600015158152602001606081525090565b82805461280390613764565b90600052602060002090601f016020900481019282612825576000855561286c565b82601f1061283e57805160ff191683800117855561286c565b8280016001018555821561286c579182015b8281111561286b578251825591602001919060010190612850565b5b509050612879919061295f565b5090565b8280548282559060005260206000209081019282156128cc579160200282015b828111156128cb5782518290805190602001906128bb9291906127f7565b509160200191906001019061289d565b5b5090506128d9919061297c565b5090565b5080546128e990613764565b6000825580601f106128fb575061291a565b601f016020900490600052602060002090810190612919919061295f565b5b50565b508054600082559060005260206000209081019061293b919061297c565b50565b508054600082559060005260206000209081019061295c919061295f565b50565b5b80821115612978576000816000905550600101612960565b5090565b5b8082111561299c576000818161299391906128dd565b5060010161297d565b5090565b600073ffffffffffffffffffffffffffffffffffffffff82169050919050565b60006129cb826129a0565b9050919050565b6129db816129c0565b82525050565b600081519050919050565b600082825260208201905092915050565b60005b83811015612a1b578082015181840152602081019050612a00565b83811115612a2a576000848401525b50505050565b6000601f19601f8301169050919050565b6000612a4c826129e1565b612a5681856129ec565b9350612a668185602086016129fd565b612a6f81612a30565b840191505092915050565b600081519050919050565b600082825260208201905092915050565b6000819050602082019050919050565b6000612ab28383612a41565b905092915050565b6000602082019050919050565b6000612ad282612a7a565b612adc8185612a85565b935083602082028501612aee85612a96565b8060005b85811015612b2a5784840389528151612b0b8582612aa6565b9450612b1683612aba565b925060208a01995050600181019050612af2565b50829750879550505050505092915050565b6000819050919050565b612b4f81612b3c565b82525050565b7f4e487b7100000000000000000000000000000000000000000000000000000000600052602160045260246000fd5b60038110612b9557612b94612b55565b5b50565b6000819050612ba682612b84565b919050565b6000612bb682612b98565b9050919050565b612bc681612bab565b82525050565b600061018083016000830151612be560008601826129d2565b5060208301518482036020860152612bfd8282612a41565b91505060408301518482036040860152612c178282612a41565b91505060608301518482036060860152612c318282612a41565b91505060808301518482036080860152612c4b8282612ac7565b91505060a0830151612c6060a0860182612b46565b5060c0830151612c7360c0860182612b46565b5060e0830151612c8660e0860182612b46565b50610100830151612c9b610100860182612bbd565b50610120830151848203610120860152612cb58282612a41565b915050610140830151848203610140860152612cd18282612a41565b915050610160830151612ce8610160860182612b46565b508091505092915050565b60006020820190508181036000830152612d0d8184612bcc565b905092915050565b612d1e81612b3c565b82525050565b6000602082019050612d396000830184612d15565b92915050565b600082825260208201905092915050565b6000612d5b826129e1565b612d658185612d3f565b9350612d758185602086016129fd565b612d7e81612a30565b840191505092915050565b60006020820190508181036000830152612da38184612d50565b905092915050565b6000604051905090565b600080fd5b600080fd5b612dc8816129c0565b8114612dd357600080fd5b50565b600081359050612de581612dbf565b92915050565b600060208284031215612e0157612e00612db5565b5b6000612e0f84828501612dd6565b91505092915050565b600081519050919050565b600082825260208201905092915050565b6000819050602082019050919050565b6000612e508383612b46565b60208301905092915050565b6000602082019050919050565b6000612e7482612e18565b612e7e8185612e23565b9350612e8983612e34565b8060005b83811015612eba578151612ea18882612e44565b9750612eac83612e5c565b925050600181019050612e8d565b5085935050505092915050565b60006020820190508181036000830152612ee18184612e69565b905092915050565b612ef281612b3c565b8114612efd57600080fd5b50565b600081359050612f0f81612ee9565b92915050565b600060208284031215612f2b57612f2a612db5565b5b6000612f3984828501612f00565b91505092915050565b60008115159050919050565b612f5781612f42565b82525050565b600061010083016000830151612f766000860182612b46565b5060208301518482036020860152612f8e8282612a41565b91505060408301518482036040860152612fa88282612a41565b91505060608301518482036060860152612fc28282612ac7565b9150506080830151612fd76080860182612b46565b5060a0830151612fea60a0860182612b46565b5060c0830151612ffd60c0860182612f4e565b5060e083015184820360e08601526130158282612ac7565b9150508091505092915050565b6000602082019050818103600083015261303c8184612f5d565b905092915050565b600080fd5b600080fd5b600080fd5b60008083601f84011261306957613068613044565b5b8235905067ffffffffffffffff81111561308657613085613049565b5b6020830191508360018202830111156130a2576130a161304e565b5b9250929050565b600080602083850312156130c0576130bf612db5565b5b600083013567ffffffffffffffff8111156130de576130dd612dba565b5b6130ea85828601613053565b92509250509250929050565b600080fd5b7f4e487b7100000000000000000000000000000000000000000000000000000000600052604160045260246000fd5b61313382612a30565b810181811067ffffffffffffffff82111715613152576131516130fb565b5b80604052505050565b6000613165612dab565b9050613171828261312a565b919050565b600067ffffffffffffffff821115613191576131906130fb565b5b61319a82612a30565b9050602081019050919050565b82818337600083830152505050565b60006131c96131c484613176565b61315b565b9050828152602081018484840111156131e5576131e46130f6565b5b6131f08482856131a7565b509392505050565b600082601f83011261320d5761320c613044565b5b813561321d8482602086016131b6565b91505092915050565b60006020828403121561323c5761323b612db5565b5b600082013567ffffffffffffffff81111561325a57613259612dba565b5b613266848285016131f8565b91505092915050565b61327881612bab565b82525050565b6000602082019050613293600083018461326f565b92915050565b600067ffffffffffffffff8211156132b4576132b36130fb565b5b6132bd82612a30565b9050602081019050919050565b60006132dd6132d884613299565b61315b565b9050828152602081018484840111156132f9576132f86130f6565b5b6133048482856131a7565b509392505050565b600082601f83011261332157613320613044565b5b81356133318482602086016132ca565b91505092915050565b6000602082840312156133505761334f612db5565b5b600082013567ffffffffffffffff81111561336e5761336d612dba565b5b61337a8482850161330c565b91505092915050565b61338c81612f42565b82525050565b600081519050919050565b600082825260208201905092915050565b60006133b982613392565b6133c3818561339d565b93506133d38185602086016129fd565b6133dc81612a30565b840191505092915050565b60006040820190506133fc6000830185613383565b818103602083015261340e81846133ae565b90509392505050565b6000806040838503121561342e5761342d612db5565b5b600061343c85828601612dd6565b925050602061344d85828601612f00565b9150509250929050565b600067ffffffffffffffff821115613472576134716130fb565b5b602082029050602081019050919050565b600061349661349184613457565b61315b565b905080838252602082019050602084028301858111156134b9576134b861304e565b5b835b8181101561350057803567ffffffffffffffff8111156134de576134dd613044565b5b8086016134eb89826131f8565b855260208501945050506020810190506134bb565b5050509392505050565b600082601f83011261351f5761351e613044565b5b813561352f848260208601613483565b91505092915050565b61354181612f42565b811461354c57600080fd5b50565b60008135905061355e81613538565b92915050565b600080600080600080600080610100898b03121561358557613584612db5565b5b60006135938b828c01612f00565b985050602089013567ffffffffffffffff8111156135b4576135b3612dba565b5b6135c08b828c016131f8565b975050604089013567ffffffffffffffff8111156135e1576135e0612dba565b5b6135ed8b828c016131f8565b965050606089013567ffffffffffffffff81111561360e5761360d612dba565b5b61361a8b828c0161350a565b955050608061362b8b828c01612f00565b94505060a061363c8b828c01612f00565b93505060c061364d8b828c0161354f565b92505060e089013567ffffffffffffffff81111561366e5761366d612dba565b5b61367a8b828c0161350a565b9150509295985092959890939650565b6000613695826129a0565b9050919050565b6136a58161368a565b82525050565b60006020820190506136c0600083018461369c565b92915050565b600060c0820190506136db6000830189612d15565b81810360208301526136ed8188612d50565b905081810360408301526137018187612d50565b90506137106060830186612d15565b61371d6080830185612d15565b61372a60a0830184613383565b979650505050505050565b7f4e487b7100000000000000000000000000000000000000000000000000000000600052602260045260246000fd5b6000600282049050600182168061377c57607f821691505b602082108114156137905761378f613735565b5b50919050565b7f4e487b7100000000000000000000000000000000000000000000000000000000600052601160045260246000fd5b60006137d082612b3c565b91506137db83612b3c565b9250827fffffffffffffffffffffffffffffffffffffffffffffffffffffffffffffffff038211156138105761380f613796565b5b828201905092915050565b613824816129c0565b82525050565b600060208201905061383f600083018461381b565b92915050565b60008151905061385481612ee9565b92915050565b6000602082840312156138705761386f612db5565b5b600061387e84828501613845565b91505092915050565b7f6e6f2066756e6473000000000000000000000000000000000000000000000000600082015250565b60006138bd600883612d3f565b91506138c882613887565b602082019050919050565b600060208201905081810360008301526138ec816138b0565b9050919050565b60008190508160005260206000209050919050565b6000815461391581613764565b61391f8186612d3f565b9450600182166000811461393a576001811461394c5761397f565b60ff198316865260208601935061397f565b613955856138f3565b60005b8381101561397757815481890152600182019150602081019050613958565b808801955050505b50505092915050565b7f3078000000000000000000000000000000000000000000000000000000000000600082015250565b60006139be60028361339d565b91506139c982613988565b602082019050919050565b6000819050919050565b600063ffffffff82169050919050565b6000819050919050565b6000613a13613a0e613a09846139d4565b6139ee565b6139de565b9050919050565b613a23816139f8565b82525050565b6000613a44613a3f613a3a846129a0565b6139ee565b6129a0565b9050919050565b6000613a5682613a29565b9050919050565b6000613a6882613a4b565b9050919050565b613a7881613a5d565b82525050565b6000819050919050565b60006bffffffffffffffffffffffff82169050919050565b6000613abb613ab6613ab184613a7e565b6139ee565b613a88565b9050919050565b613acb81613aa0565b82525050565b6000819050919050565b600060ff82169050919050565b6000613b03613afe613af984613ad1565b6139ee565b613adb565b9050919050565b613b1381613ae8565b82525050565b6000610100820190508181036000830152613b348189613908565b90508181036020830152613b47816139b1565b9050613b56604083018861381b565b613b636060830187613a1a565b613b706080830186613a6f565b81810360a0830152613b81816139b1565b9050613b9060c0830185613ac2565b613b9d60e0830184613b0a565b979650505050505050565b600081905092915050565b50565b6000613bc3600083613ba8565b9150613bce82613bb3565b600082019050919050565b6000613be482613bb6565b9150819050919050565b6000604082019050613c036000830185613a6f565b613c10602083018461381b565b9392505050565b6000613c2282612b3c565b9150613c2d83612b3c565b925082821015613c4057613c3f613796565b5b828203905092915050565b6000604082019050613c606000830185612d15565b613c6d6020830184612d15565b9392505050565b7f4e487b7100000000000000000000000000000000000000000000000000000000600052603260045260246000fd5b6000613cae82612b3c565b91507fffffffffffffffffffffffffffffffffffffffffffffffffffffffffffffffff821415613ce157613ce0613796565b5b60018201905091905056fea26469706673582212207ef6d75fea4bf5b7711413b460e31c44d93885bad158db4af9f370d9f3f67f7d64736f6c63430008080033a2646970667358221220108fa8171368d2d477e19351f04298136ed4e25dc3eb5a1b5d1f4d001f7c70c664736f6c63430008080033",
  "devdoc": {
    "kind": "dev",
    "methods": {},
    "version": 1
  },
  "userdoc": {
    "kind": "user",
    "methods": {},
    "version": 1
  },
  "storageLayout": {
    "storage": [
      {
        "astId": 1500,
        "contract": "contracts/CrowdFunder.sol:CrowdFunder",
        "label": "campaignCounter",
        "offset": 0,
        "slot": "0",
        "type": "t_uint256"
      },
      {
        "astId": 1505,
        "contract": "contracts/CrowdFunder.sol:CrowdFunder",
        "label": "campaigns",
        "offset": 0,
        "slot": "1",
        "type": "t_mapping(t_address,t_contract(Campaign)1422)"
      }
    ],
    "types": {
      "t_address": {
        "encoding": "inplace",
        "label": "address",
        "numberOfBytes": "20"
      },
      "t_contract(Campaign)1422": {
        "encoding": "inplace",
        "label": "contract Campaign",
        "numberOfBytes": "20"
      },
      "t_mapping(t_address,t_contract(Campaign)1422)": {
        "encoding": "mapping",
        "key": "t_address",
        "label": "mapping(address => contract Campaign)",
        "numberOfBytes": "32",
        "value": "t_contract(Campaign)1422"
      },
      "t_uint256": {
        "encoding": "inplace",
        "label": "uint256",
        "numberOfBytes": "32"
      }
    }
  }
}