{
  "address": "0xc1297C76841E43b15FDc7f3C69A6C9C3aFecB1C8",
  "abi": [
    {
      "inputs": [
        {
          "internalType": "address",
          "name": "_campaignAddress",
          "type": "address"
        }
      ],
      "name": "CrowdFunder__CampaignStillActive",
      "type": "error"
    },
    {
      "inputs": [
        {
          "internalType": "address",
          "name": "_campaignAddress",
          "type": "address"
        }
      ],
      "name": "CrowdFunder__NoSuchCampaign",
      "type": "error"
    },
    {
      "inputs": [
        {
          "internalType": "address",
          "name": "_caller",
          "type": "address"
        },
        {
          "internalType": "address",
          "name": "_campaignAddress",
          "type": "address"
        }
      ],
      "name": "CrowdFunder__NotCreator",
      "type": "error"
    },
    {
      "anonymous": false,
      "inputs": [
        {
          "indexed": true,
          "internalType": "address",
          "name": "_campaignAddress",
          "type": "address"
        },
        {
          "indexed": true,
          "internalType": "address",
          "name": "_creator",
          "type": "address"
        },
        {
          "indexed": false,
          "internalType": "uint256",
          "name": "_creatorType",
          "type": "uint256"
        },
        {
          "indexed": false,
          "internalType": "string",
          "name": "_creatorName",
          "type": "string"
        },
        {
          "indexed": false,
          "internalType": "string",
          "name": "_title",
          "type": "string"
        },
        {
          "indexed": false,
          "internalType": "string",
          "name": "_description",
          "type": "string"
        },
        {
          "indexed": false,
          "internalType": "string[]",
          "name": "_tags",
          "type": "string[]"
        },
        {
          "indexed": false,
          "internalType": "uint256",
          "name": "_goalAmount",
          "type": "uint256"
        },
        {
          "indexed": false,
          "internalType": "uint256",
          "name": "_duration",
          "type": "uint256"
        }
      ],
      "name": "CampaignAdded",
      "type": "event"
    },
    {
      "anonymous": false,
      "inputs": [
        {
          "indexed": true,
          "internalType": "address",
          "name": "_campaignAddress",
          "type": "address"
        }
      ],
      "name": "CampaignCanceled",
      "type": "event"
    },
    {
      "inputs": [
        {
          "internalType": "uint64",
          "name": "_creatorType",
          "type": "uint64"
        },
        {
          "internalType": "string",
          "name": "_creatorName",
          "type": "string"
        },
        {
          "internalType": "string",
          "name": "_title",
          "type": "string"
        },
        {
          "internalType": "string",
          "name": "_description",
          "type": "string"
        },
        {
          "internalType": "string[]",
          "name": "_tags",
          "type": "string[]"
        },
        {
          "internalType": "uint256",
          "name": "_goalAmount",
          "type": "uint256"
        },
        {
          "internalType": "uint256",
          "name": "_duration",
          "type": "uint256"
        }
      ],
      "name": "addCampaign",
      "outputs": [],
      "stateMutability": "nonpayable",
      "type": "function"
    },
    {
      "inputs": [
        {
          "internalType": "address",
          "name": "_campaignAddress",
          "type": "address"
        }
      ],
      "name": "cancelCampaign",
      "outputs": [],
      "stateMutability": "nonpayable",
      "type": "function"
    },
    {
      "inputs": [
        {
          "internalType": "address",
          "name": "_campaignAddress",
          "type": "address"
        }
      ],
      "name": "getCampaign",
      "outputs": [
        {
          "components": [
            {
              "internalType": "address",
              "name": "creator",
              "type": "address"
            },
            {
              "internalType": "enum Campaign.CreatorType",
              "name": "creatorType",
              "type": "uint8"
            },
            {
              "internalType": "string",
              "name": "creatorName",
              "type": "string"
            },
            {
              "internalType": "string",
              "name": "title",
              "type": "string"
            },
            {
              "internalType": "string",
              "name": "description",
              "type": "string"
            },
            {
              "internalType": "string[]",
              "name": "tags",
              "type": "string[]"
            },
            {
              "internalType": "uint256",
              "name": "goalAmount",
              "type": "uint256"
            },
            {
              "internalType": "uint256",
              "name": "duration",
              "type": "uint256"
            },
            {
              "internalType": "uint256",
              "name": "currentBalance",
              "type": "uint256"
            },
            {
              "internalType": "enum Campaign.State",
              "name": "currentState",
              "type": "uint8"
            }
          ],
          "internalType": "struct Campaign.CampaignObject",
          "name": "",
          "type": "tuple"
        }
      ],
      "stateMutability": "view",
      "type": "function"
    }
  ],
  "transactionHash": "0x9080852c7484e8e1be3ca49a226829e26aa8bc78d75839cef1cb639ed0e29c00",
  "args": [],
  "numDeployments": 1,
  "solcInputHash": "b26885df6a7017bc83aa64cd10dbeb42",
  "bytecode": "0x608060405234801561001057600080fd5b5061475e806100206000396000f3fe60806040523480156200001157600080fd5b5060043610620000465760003560e01c80630d6454a4146200004b578063731301cf146200006b578063bc04d86014620000a1575b600080fd5b62000069600480360381019062000063919062000886565b620000c1565b005b62000089600480360381019062000083919062000886565b620003ca565b60405162000098919062000c2c565b60405180910390f35b620000bf6004803603810190620000b9919062000f13565b62000551565b005b80600160008273ffffffffffffffffffffffffffffffffffffffff1673ffffffffffffffffffffffffffffffffffffffff16815260200190815260200160002060009054906101000a900473ffffffffffffffffffffffffffffffffffffffff1673ffffffffffffffffffffffffffffffffffffffff163373ffffffffffffffffffffffffffffffffffffffff1614620001965733816040517fd9e20da80000000000000000000000000000000000000000000000000000000081526004016200018d92919062001053565b60405180910390fd5b60016000808473ffffffffffffffffffffffffffffffffffffffff1673ffffffffffffffffffffffffffffffffffffffff16815260200190815260200160002060009054906101000a900473ffffffffffffffffffffffffffffffffffffffff1673ffffffffffffffffffffffffffffffffffffffff16637fb3761e6040518163ffffffff1660e01b815260040160206040518083038186803b1580156200023d57600080fd5b505afa15801562000252573d6000803e3d6000fd5b505050506040513d601f19601f82011682018060405250810190620002789190620010a8565b60028111156200028d576200028c620008c9565b5b1415620002d357816040517fdfecfddd000000000000000000000000000000000000000000000000000000008152600401620002ca9190620010da565b60405180910390fd5b6000808373ffffffffffffffffffffffffffffffffffffffff1673ffffffffffffffffffffffffffffffffffffffff16815260200190815260200160002060006101000a81549073ffffffffffffffffffffffffffffffffffffffff0219169055600260008373ffffffffffffffffffffffffffffffffffffffff1673ffffffffffffffffffffffffffffffffffffffff16815260200190815260200160002060006101000a81549060ff02191690558173ffffffffffffffffffffffffffffffffffffffff167f3be3cf8b79824600b33b84642199163dc824bc8afdc691d0bcd8a849e39f92fc60405160405180910390a25050565b620003d46200076c565b600260008373ffffffffffffffffffffffffffffffffffffffff1673ffffffffffffffffffffffffffffffffffffffff16815260200190815260200160002060009054906101000a900460ff166200046557816040517f7a33dd0a0000000000000000000000000000000000000000000000000000000081526004016200045c9190620010da565b60405180910390fd5b6000808373ffffffffffffffffffffffffffffffffffffffff1673ffffffffffffffffffffffffffffffffffffffff16815260200190815260200160002060009054906101000a900473ffffffffffffffffffffffffffffffffffffffff1673ffffffffffffffffffffffffffffffffffffffff16630c611f246040518163ffffffff1660e01b815260040160006040518083038186803b1580156200050a57600080fd5b505afa1580156200051f573d6000803e3d6000fd5b505050506040513d6000823e3d601f19601f820116820180604052508101906200054a919062001428565b9050919050565b600033888888888888886040516200056990620007ff565b6200057c989796959493929190620015ea565b604051809103906000f08015801562000599573d6000803e3d6000fd5b509050806000808373ffffffffffffffffffffffffffffffffffffffff1673ffffffffffffffffffffffffffffffffffffffff16815260200190815260200160002060006101000a81548173ffffffffffffffffffffffffffffffffffffffff021916908373ffffffffffffffffffffffffffffffffffffffff1602179055506001600260008373ffffffffffffffffffffffffffffffffffffffff1673ffffffffffffffffffffffffffffffffffffffff16815260200190815260200160002060006101000a81548160ff02191690831515021790555033600160008373ffffffffffffffffffffffffffffffffffffffff1673ffffffffffffffffffffffffffffffffffffffff16815260200190815260200160002060006101000a81548173ffffffffffffffffffffffffffffffffffffffff021916908373ffffffffffffffffffffffffffffffffffffffff1602179055503373ffffffffffffffffffffffffffffffffffffffff168173ffffffffffffffffffffffffffffffffffffffff167f09bbf24b4293854c1315d1a5921de6437bcf9cb86d9f8429875e48f5aa97b55f8a8a8a8a8a8a8a6040516200075a9796959493929190620016cd565b60405180910390a35050505050505050565b604051806101400160405280600073ffffffffffffffffffffffffffffffffffffffff16815260200160006001811115620007ac57620007ab620008c9565b5b81526020016060815260200160608152602001606081526020016060815260200160008152602001600081526020016000815260200160006002811115620007f957620007f8620008c9565b5b81525090565b612fc2806200176783390190565b6000604051905090565b600080fd5b600080fd5b600073ffffffffffffffffffffffffffffffffffffffff82169050919050565b60006200084e8262000821565b9050919050565b620008608162000841565b81146200086c57600080fd5b50565b600081359050620008808162000855565b92915050565b6000602082840312156200089f576200089e62000817565b5b6000620008af848285016200086f565b91505092915050565b620008c38162000841565b82525050565b7f4e487b7100000000000000000000000000000000000000000000000000000000600052602160045260246000fd5b600281106200090c576200090b620008c9565b5b50565b60008190506200091f82620008f8565b919050565b600062000931826200090f565b9050919050565b620009438162000924565b82525050565b600081519050919050565b600082825260208201905092915050565b60005b838110156200098557808201518184015260208101905062000968565b8381111562000995576000848401525b50505050565b6000601f19601f8301169050919050565b6000620009b98262000949565b620009c5818562000954565b9350620009d781856020860162000965565b620009e2816200099b565b840191505092915050565b600081519050919050565b600082825260208201905092915050565b6000819050602082019050919050565b600062000a278383620009ac565b905092915050565b6000602082019050919050565b600062000a4982620009ed565b62000a558185620009f8565b93508360208202850162000a698562000a09565b8060005b8581101562000aab578484038952815162000a89858262000a19565b945062000a968362000a2f565b925060208a0199505060018101905062000a6d565b50829750879550505050505092915050565b6000819050919050565b62000ad28162000abd565b82525050565b6003811062000aec5762000aeb620008c9565b5b50565b600081905062000aff8262000ad8565b919050565b600062000b118262000aef565b9050919050565b62000b238162000b04565b82525050565b60006101408301600083015162000b446000860182620008b8565b50602083015162000b59602086018262000938565b506040830151848203604086015262000b738282620009ac565b9150506060830151848203606086015262000b8f8282620009ac565b9150506080830151848203608086015262000bab8282620009ac565b91505060a083015184820360a086015262000bc7828262000a3c565b91505060c083015162000bde60c086018262000ac7565b5060e083015162000bf360e086018262000ac7565b5061010083015162000c0a61010086018262000ac7565b5061012083015162000c2161012086018262000b18565b508091505092915050565b6000602082019050818103600083015262000c48818462000b29565b905092915050565b600067ffffffffffffffff82169050919050565b62000c6f8162000c50565b811462000c7b57600080fd5b50565b60008135905062000c8f8162000c64565b92915050565b600080fd5b600080fd5b7f4e487b7100000000000000000000000000000000000000000000000000000000600052604160045260246000fd5b62000cd9826200099b565b810181811067ffffffffffffffff8211171562000cfb5762000cfa62000c9f565b5b80604052505050565b600062000d106200080d565b905062000d1e828262000cce565b919050565b600067ffffffffffffffff82111562000d415762000d4062000c9f565b5b62000d4c826200099b565b9050602081019050919050565b82818337600083830152505050565b600062000d7f62000d798462000d23565b62000d04565b90508281526020810184848401111562000d9e5762000d9d62000c9a565b5b62000dab84828562000d59565b509392505050565b600082601f83011262000dcb5762000dca62000c95565b5b813562000ddd84826020860162000d68565b91505092915050565b600067ffffffffffffffff82111562000e045762000e0362000c9f565b5b602082029050602081019050919050565b600080fd5b600062000e3162000e2b8462000de6565b62000d04565b9050808382526020820190506020840283018581111562000e575762000e5662000e15565b5b835b8181101562000ea557803567ffffffffffffffff81111562000e805762000e7f62000c95565b5b80860162000e8f898262000db3565b8552602085019450505060208101905062000e59565b5050509392505050565b600082601f83011262000ec75762000ec662000c95565b5b813562000ed984826020860162000e1a565b91505092915050565b62000eed8162000abd565b811462000ef957600080fd5b50565b60008135905062000f0d8162000ee2565b92915050565b600080600080600080600060e0888a03121562000f355762000f3462000817565b5b600062000f458a828b0162000c7e565b975050602088013567ffffffffffffffff81111562000f695762000f686200081c565b5b62000f778a828b0162000db3565b965050604088013567ffffffffffffffff81111562000f9b5762000f9a6200081c565b5b62000fa98a828b0162000db3565b955050606088013567ffffffffffffffff81111562000fcd5762000fcc6200081c565b5b62000fdb8a828b0162000db3565b945050608088013567ffffffffffffffff81111562000fff5762000ffe6200081c565b5b6200100d8a828b0162000eaf565b93505060a0620010208a828b0162000efc565b92505060c0620010338a828b0162000efc565b91505092959891949750929550565b6200104d8162000841565b82525050565b60006040820190506200106a600083018562001042565b62001079602083018462001042565b9392505050565b600381106200108e57600080fd5b50565b600081519050620010a28162001080565b92915050565b600060208284031215620010c157620010c062000817565b5b6000620010d18482850162001091565b91505092915050565b6000602082019050620010f1600083018462001042565b92915050565b600080fd5b600080fd5b600081519050620011128162000855565b92915050565b600281106200112657600080fd5b50565b6000815190506200113a8162001118565b92915050565b600062001157620011518462000d23565b62000d04565b90508281526020810184848401111562001176576200117562000c9a565b5b6200118384828562000965565b509392505050565b600082601f830112620011a357620011a262000c95565b5b8151620011b584826020860162001140565b91505092915050565b6000620011d5620011cf8462000de6565b62000d04565b90508083825260208201905060208402830185811115620011fb57620011fa62000e15565b5b835b818110156200124957805167ffffffffffffffff81111562001224576200122362000c95565b5b8086016200123389826200118b565b85526020850194505050602081019050620011fd565b5050509392505050565b600082601f8301126200126b576200126a62000c95565b5b81516200127d848260208601620011be565b91505092915050565b600081519050620012978162000ee2565b92915050565b60006101408284031215620012b757620012b6620010f7565b5b620012c461014062000d04565b90506000620012d68482850162001101565b6000830152506020620012ec8482850162001129565b602083015250604082015167ffffffffffffffff811115620013135762001312620010fc565b5b62001321848285016200118b565b604083015250606082015167ffffffffffffffff811115620013485762001347620010fc565b5b62001356848285016200118b565b606083015250608082015167ffffffffffffffff8111156200137d576200137c620010fc565b5b6200138b848285016200118b565b60808301525060a082015167ffffffffffffffff811115620013b257620013b1620010fc565b5b620013c08482850162001253565b60a08301525060c0620013d68482850162001286565b60c08301525060e0620013ec8482850162001286565b60e083015250610100620014038482850162001286565b610100830152506101206200141b8482850162001091565b6101208301525092915050565b60006020828403121562001441576200144062000817565b5b600082015167ffffffffffffffff8111156200146257620014616200081c565b5b62001470848285016200129d565b91505092915050565b6000819050919050565b6000620014a46200149e620014988462000821565b62001479565b62000821565b9050919050565b6000620014b88262001483565b9050919050565b6000620014cc82620014ab565b9050919050565b620014de81620014bf565b82525050565b620014ef8162000c50565b82525050565b600082825260208201905092915050565b6000620015138262000949565b6200151f8185620014f5565b93506200153181856020860162000965565b6200153c816200099b565b840191505092915050565b600082825260208201905092915050565b60006200156582620009ed565b62001571818562001547565b935083602082028501620015858562000a09565b8060005b85811015620015c75784840389528151620015a5858262000a19565b9450620015b28362000a2f565b925060208a0199505060018101905062001589565b50829750879550505050505092915050565b620015e48162000abd565b82525050565b60006101008201905062001602600083018b620014d3565b62001611602083018a620014e4565b818103604083015262001625818962001506565b905081810360608301526200163b818862001506565b9050818103608083015262001651818762001506565b905081810360a083015262001667818662001558565b90506200167860c0830185620015d9565b6200168760e0830184620015d9565b9998505050505050505050565b6000620016b5620016af620016a98462000c50565b62001479565b62000abd565b9050919050565b620016c78162001694565b82525050565b600060e082019050620016e4600083018a620016bc565b8181036020830152620016f8818962001506565b905081810360408301526200170e818862001506565b9050818103606083015262001724818762001506565b905081810360808301526200173a818662001558565b90506200174b60a0830185620015d9565b6200175a60c0830184620015d9565b9897505050505050505056fe60806040526001600960006101000a81548160ff021916908360028111156200002d576200002c6200033b565b5b02179055503480156200003f57600080fd5b5060405162002fc238038062002fc28339818101604052810190620000659190620006e8565b876000806101000a81548173ffffffffffffffffffffffffffffffffffffffff021916908373ffffffffffffffffffffffffffffffffffffffff1602179055508667ffffffffffffffff166001811115620000c557620000c46200033b565b5b600060146101000a81548160ff02191690836001811115620000ec57620000eb6200033b565b5b0217905550856001908051906020019062000109929190620001b6565b50846002908051906020019062000122929190620001b6565b5083600390805190602001906200013b929190620001b6565b5082600490805190602001906200015492919062000247565b5081600581905550806006819055504260088190555060006007819055506000600b60006101000a81548160ff0219169083151502179055506000600b60016101000a81548160ff021916908315150217905550505050505050505062000892565b828054620001c4906200085c565b90600052602060002090601f016020900481019282620001e8576000855562000234565b82601f106200020357805160ff191683800117855562000234565b8280016001018555821562000234579182015b828111156200023357825182559160200191906001019062000216565b5b509050620002439190620002ae565b5090565b8280548282559060005260206000209081019282156200029b579160200282015b828111156200029a57825182908051906020019062000289929190620001b6565b509160200191906001019062000268565b5b509050620002aa9190620002cd565b5090565b5b80821115620002c9576000816000905550600101620002af565b5090565b5b80821115620002f15760008181620002e79190620002f5565b50600101620002ce565b5090565b50805462000303906200085c565b6000825580601f1062000317575062000338565b601f016020900490600052602060002090810190620003379190620002ae565b5b50565b7f4e487b7100000000000000000000000000000000000000000000000000000000600052602160045260246000fd5b6000604051905090565b600080fd5b600080fd5b600073ffffffffffffffffffffffffffffffffffffffff82169050919050565b6000620003ab826200037e565b9050919050565b620003bd816200039e565b8114620003c957600080fd5b50565b600081519050620003dd81620003b2565b92915050565b600067ffffffffffffffff82169050919050565b6200040281620003e3565b81146200040e57600080fd5b50565b6000815190506200042281620003f7565b92915050565b600080fd5b600080fd5b6000601f19601f8301169050919050565b7f4e487b7100000000000000000000000000000000000000000000000000000000600052604160045260246000fd5b6200047d8262000432565b810181811067ffffffffffffffff821117156200049f576200049e62000443565b5b80604052505050565b6000620004b46200036a565b9050620004c2828262000472565b919050565b600067ffffffffffffffff821115620004e557620004e462000443565b5b620004f08262000432565b9050602081019050919050565b60005b838110156200051d57808201518184015260208101905062000500565b838111156200052d576000848401525b50505050565b60006200054a6200054484620004c7565b620004a8565b9050828152602081018484840111156200056957620005686200042d565b5b62000576848285620004fd565b509392505050565b600082601f83011262000596576200059562000428565b5b8151620005a884826020860162000533565b91505092915050565b600067ffffffffffffffff821115620005cf57620005ce62000443565b5b602082029050602081019050919050565b600080fd5b6000620005fc620005f684620005b1565b620004a8565b90508083825260208201905060208402830185811115620006225762000621620005e0565b5b835b818110156200067057805167ffffffffffffffff8111156200064b576200064a62000428565b5b8086016200065a89826200057e565b8552602085019450505060208101905062000624565b5050509392505050565b600082601f83011262000692576200069162000428565b5b8151620006a4848260208601620005e5565b91505092915050565b6000819050919050565b620006c281620006ad565b8114620006ce57600080fd5b50565b600081519050620006e281620006b7565b92915050565b600080600080600080600080610100898b0312156200070c576200070b62000374565b5b60006200071c8b828c01620003cc565b98505060206200072f8b828c0162000411565b975050604089015167ffffffffffffffff81111562000753576200075262000379565b5b620007618b828c016200057e565b965050606089015167ffffffffffffffff81111562000785576200078462000379565b5b620007938b828c016200057e565b955050608089015167ffffffffffffffff811115620007b757620007b662000379565b5b620007c58b828c016200057e565b94505060a089015167ffffffffffffffff811115620007e957620007e862000379565b5b620007f78b828c016200067a565b93505060c06200080a8b828c01620006d1565b92505060e06200081d8b828c01620006d1565b9150509295985092959890939650565b7f4e487b7100000000000000000000000000000000000000000000000000000000600052602260045260246000fd5b600060028204905060018216806200087557607f821691505b602082108114156200088c576200088b6200082d565b5b50919050565b61272080620008a26000396000f3fe60806040526004361061019c5760003560e01c806359c656df116100ec578063c19d93fb1161008a578063e735b48a11610064578063e735b48a14610585578063ed44c6ab146105ae578063ed88c68e146105d9578063fa89401a146105e35761019c565b8063c19d93fb146104f2578063cc6cb19a1461051d578063ce845d1d1461055a5761019c565b806371aac7f9116100c657806371aac7f91461045a5780637284e416146104715780637fb3761e1461049c578063baf9ec5e146104c75761019c565b806359c656df146103ee57806363bd1d4a146104055780636e04ff0d1461041c5761019c565b80631f6f90bd1161015957806337fb13b01161013357806337fb13b0146103465780634298b0cd1461036f5780634585e33b1461039a5780634a79d50c146103c35761019c565b80631f6f90bd146102b357806320822abc146102de5780632636b9451461031b5761019c565b806302d05d3f146101a15780630c611f24146101cc5780630fb5a6b4146101f757806312065fe0146102225780631910bdc21461024d5780631b50ad091461028a575b600080fd5b3480156101ad57600080fd5b506101b661060c565b6040516101c39190611baf565b60405180910390f35b3480156101d857600080fd5b506101e1610630565b6040516101ee9190611f0d565b60405180910390f35b34801561020357600080fd5b5061020c610970565b6040516102199190611f3e565b60405180910390f35b34801561022e57600080fd5b50610237610976565b6040516102449190611f3e565b60405180910390f35b34801561025957600080fd5b50610274600480360381019061026f9190611f99565b610980565b6040516102819190611f3e565b60405180910390f35b34801561029657600080fd5b506102b160048036038101906102ac9190611ff2565b6109c9565b005b3480156102bf57600080fd5b506102c8610a77565b6040516102d59190612069565b60405180910390f35b3480156102ea57600080fd5b5061030560048036038101906103009190611ff2565b610b05565b6040516103129190612069565b60405180910390f35b34801561032757600080fd5b50610330610bb1565b60405161033d9190611f3e565b60405180910390f35b34801561035257600080fd5b5061036d600480360381019061036891906121c0565b610bb7565b005b34801561037b57600080fd5b50610384610c61565b6040516103919190612224565b60405180910390f35b3480156103a657600080fd5b506103c160048036038101906103bc919061229f565b610c74565b005b3480156103cf57600080fd5b506103d8610df0565b6040516103e59190612069565b60405180910390f35b3480156103fa57600080fd5b50610403610e7e565b005b34801561041157600080fd5b5061041a610f72565b005b34801561042857600080fd5b50610443600480360381019061043e919061238d565b6111a4565b60405161045192919061242b565b60405180910390f35b34801561046657600080fd5b5061046f61126d565b005b34801561047d57600080fd5b50610486611400565b6040516104939190612069565b60405180910390f35b3480156104a857600080fd5b506104b161148e565b6040516104be919061246a565b60405180910390f35b3480156104d357600080fd5b506104dc6114a5565b6040516104e99190612224565b60405180910390f35b3480156104fe57600080fd5b506105076114b8565b604051610514919061246a565b60405180910390f35b34801561052957600080fd5b50610544600480360381019061053f9190611f99565b6114cb565b6040516105519190611f3e565b60405180910390f35b34801561056657600080fd5b5061056f6114e3565b60405161057c9190611f3e565b60405180910390f35b34801561059157600080fd5b506105ac60048036038101906105a791906121c0565b6114e9565b005b3480156105ba57600080fd5b506105c3611593565b6040516105d09190612494565b60405180910390f35b6105e16115a6565b005b3480156105ef57600080fd5b5061060a60048036038101906106059190611f99565b6117aa565b005b60008054906101000a900473ffffffffffffffffffffffffffffffffffffffff1681565b610638611a3e565b60405180610140016040528060008054906101000a900473ffffffffffffffffffffffffffffffffffffffff1673ffffffffffffffffffffffffffffffffffffffff168152602001600060149054906101000a900460ff1660018111156106a2576106a1611beb565b5b8152602001600180546106b4906124de565b80601f01602080910402602001604051908101604052809291908181526020018280546106e0906124de565b801561072d5780601f106107025761010080835404028352916020019161072d565b820191906000526020600020905b81548152906001019060200180831161071057829003601f168201915b5050505050815260200160028054610744906124de565b80601f0160208091040260200160405190810160405280929190818152602001828054610770906124de565b80156107bd5780601f10610792576101008083540402835291602001916107bd565b820191906000526020600020905b8154815290600101906020018083116107a057829003601f168201915b50505050508152602001600380546107d4906124de565b80601f0160208091040260200160405190810160405280929190818152602001828054610800906124de565b801561084d5780601f106108225761010080835404028352916020019161084d565b820191906000526020600020905b81548152906001019060200180831161083057829003601f168201915b505050505081526020016004805480602002602001604051908101604052809291908181526020016000905b82821015610925578382906000526020600020018054610898906124de565b80601f01602080910402602001604051908101604052809291908181526020018280546108c4906124de565b80156109115780601f106108e657610100808354040283529160200191610911565b820191906000526020600020905b8154815290600101906020018083116108f457829003601f168201915b505050505081526020019060010190610879565b505050508152602001600554815260200160065481526020016007548152602001600960009054906101000a900460ff16600281111561096857610967611beb565b5b815250905090565b60065481565b6000600754905090565b6000600a60008373ffffffffffffffffffffffffffffffffffffffff1673ffffffffffffffffffffffffffffffffffffffff168152602001908152602001600020549050919050565b60008054906101000a900473ffffffffffffffffffffffffffffffffffffffff1673ffffffffffffffffffffffffffffffffffffffff163373ffffffffffffffffffffffffffffffffffffffff1614610a5957336040517fef54c817000000000000000000000000000000000000000000000000000000008152600401610a50919061251f565b60405180910390fd5b610a6e81600654611a1290919063ffffffff16565b60068190555050565b60018054610a84906124de565b80601f0160208091040260200160405190810160405280929190818152602001828054610ab0906124de565b8015610afd5780601f10610ad257610100808354040283529160200191610afd565b820191906000526020600020905b815481529060010190602001808311610ae057829003601f168201915b505050505081565b60048181548110610b1557600080fd5b906000526020600020016000915090508054610b30906124de565b80601f0160208091040260200160405190810160405280929190818152602001828054610b5c906124de565b8015610ba95780601f10610b7e57610100808354040283529160200191610ba9565b820191906000526020600020905b815481529060010190602001808311610b8c57829003601f168201915b505050505081565b60055481565b60008054906101000a900473ffffffffffffffffffffffffffffffffffffffff1673ffffffffffffffffffffffffffffffffffffffff163373ffffffffffffffffffffffffffffffffffffffff1614610c4757336040517fef54c817000000000000000000000000000000000000000000000000000000008152600401610c3e919061251f565b60405180910390fd5b8060029080519060200190610c5d929190611acb565b5050565b600b60009054906101000a900460ff1681565b6000610c8e604051806020016040528060008152506111a4565b50905080610cc8576040517f311f87a100000000000000000000000000000000000000000000000000000000815260040160405180910390fd5b6001600b60006101000a81548160ff0219169083151502179055506001600b60016101000a81548160ff02191690831515021790555060065460085442610d0f9190612569565b1115610d7c576002600960006101000a81548160ff02191690836002811115610d3b57610d3a611beb565b5b02179055507f5cf8cd2bd40f758a95257bed666285eb82801f1bf9223b8ec1481e510ba2e82d30604051610d6f919061251f565b60405180910390a1610deb565b60055460075410610dea576000600960006101000a81548160ff02191690836002811115610dad57610dac611beb565b5b02179055507f5369558c667e962b633128a01c31764d053da51f61d17370d327ed17f77deccc30604051610de1919061251f565b60405180910390a15b5b505050565b60028054610dfd906124de565b80601f0160208091040260200160405190810160405280929190818152602001828054610e29906124de565b8015610e765780601f10610e4b57610100808354040283529160200191610e76565b820191906000526020600020905b815481529060010190602001808311610e5957829003601f168201915b505050505081565b60008054906101000a900473ffffffffffffffffffffffffffffffffffffffff1673ffffffffffffffffffffffffffffffffffffffff163373ffffffffffffffffffffffffffffffffffffffff1614610f0e57336040517fef54c817000000000000000000000000000000000000000000000000000000008152600401610f05919061251f565b60405180910390fd5b600060075411610f5557306040517f6db510f5000000000000000000000000000000000000000000000000000000008152600401610f4c919061251f565b60405180910390fd5b6001600b60016101000a81548160ff021916908315150217905550565b60008054906101000a900473ffffffffffffffffffffffffffffffffffffffff1673ffffffffffffffffffffffffffffffffffffffff163373ffffffffffffffffffffffffffffffffffffffff161461100257336040517fef54c817000000000000000000000000000000000000000000000000000000008152600401610ff9919061251f565b60405180910390fd5b600b60009054906101000a900460ff1661105357306040517f8019f72600000000000000000000000000000000000000000000000000000000815260040161104a919061251f565b60405180910390fd5b60006007549050600060078190555060008060009054906101000a900473ffffffffffffffffffffffffffffffffffffffff1673ffffffffffffffffffffffffffffffffffffffff16826040516110a9906125ce565b60006040518083038185875af1925050503d80600081146110e6576040519150601f19603f3d011682016040523d82523d6000602084013e6110eb565b606091505b50509050801561116e576000600b60016101000a81548160ff0219169083151502179055507fba5e837743d81ad0e6deb16089dbb65b549fdda8ad802fd8d4822884d70dc8b260008054906101000a900473ffffffffffffffffffffffffffffffffffffffff1630604051611161929190612642565b60405180910390a16111a0565b6040517f11456ffb00000000000000000000000000000000000000000000000000000000815260040160405180910390fd5b5050565b600060606000600554600754101590506000600160028111156111ca576111c9611beb565b5b600960009054906101000a900460ff1660028111156111ec576111eb611beb565b5b1490506000600654600854426112029190612569565b119050600080471190508380611227575081801561121d5750825b80156112265750805b5b9550856040518060400160405280600381526020017f30783000000000000000000000000000000000000000000000000000000000008152509550955050505050915091565b60008054906101000a900473ffffffffffffffffffffffffffffffffffffffff1673ffffffffffffffffffffffffffffffffffffffff163373ffffffffffffffffffffffffffffffffffffffff16146112fd57336040517fef54c8170000000000000000000000000000000000000000000000000000000081526004016112f4919061251f565b60405180910390fd5b6002808111156113105761130f611beb565b5b600960009054906101000a900460ff16600281111561133257611331611beb565b5b141561137557306040517fd6d7e5c100000000000000000000000000000000000000000000000000000000815260040161136c919061251f565b60405180910390fd5b6002600960006101000a81548160ff0219169083600281111561139b5761139a611beb565b5b0217905550600060075411156113c7576001600b60006101000a81548160ff0219169083151502179055505b7f5cf8cd2bd40f758a95257bed666285eb82801f1bf9223b8ec1481e510ba2e82d306040516113f6919061251f565b60405180910390a1565b6003805461140d906124de565b80601f0160208091040260200160405190810160405280929190818152602001828054611439906124de565b80156114865780601f1061145b57610100808354040283529160200191611486565b820191906000526020600020905b81548152906001019060200180831161146957829003601f168201915b505050505081565b6000600960009054906101000a900460ff16905090565b600b60019054906101000a900460ff1681565b600960009054906101000a900460ff1681565b600a6020528060005260406000206000915090505481565b60075481565b60008054906101000a900473ffffffffffffffffffffffffffffffffffffffff1673ffffffffffffffffffffffffffffffffffffffff163373ffffffffffffffffffffffffffffffffffffffff161461157957336040517fef54c817000000000000000000000000000000000000000000000000000000008152600401611570919061251f565b60405180910390fd5b806003908051906020019061158f929190611acb565b5050565b600060149054906101000a900460ff1681565b60018060028111156115bb576115ba611beb565b5b600960009054906101000a900460ff1660028111156115dd576115dc611beb565b5b14611614576040517f0300809900000000000000000000000000000000000000000000000000000000815260040160405180910390fd5b60008054906101000a900473ffffffffffffffffffffffffffffffffffffffff1673ffffffffffffffffffffffffffffffffffffffff163373ffffffffffffffffffffffffffffffffffffffff1614156116a557336040517f9110189500000000000000000000000000000000000000000000000000000000815260040161169c919061251f565b60405180910390fd5b6116f734600a60003373ffffffffffffffffffffffffffffffffffffffff1673ffffffffffffffffffffffffffffffffffffffff16815260200190815260200160002054611a1290919063ffffffff16565b600a60003373ffffffffffffffffffffffffffffffffffffffff1673ffffffffffffffffffffffffffffffffffffffff1681526020019081526020016000208190555061174f34600754611a1290919063ffffffff16565b6007819055503373ffffffffffffffffffffffffffffffffffffffff167fe76ad748537a48e778fef43dda4a6bd1b50cd62385f9f21a9ca26749235512083460075460405161179f92919061266b565b60405180910390a250565b600b60019054906101000a900460ff166117fb57306040517fb1881e160000000000000000000000000000000000000000000000000000000081526004016117f2919061251f565b60405180910390fd5b6000600a60008373ffffffffffffffffffffffffffffffffffffffff1673ffffffffffffffffffffffffffffffffffffffff168152602001908152602001600020541161187f57336040517fc4385859000000000000000000000000000000000000000000000000000000008152600401611876919061251f565b60405180910390fd5b6000600a60008373ffffffffffffffffffffffffffffffffffffffff1673ffffffffffffffffffffffffffffffffffffffff1681526020019081526020016000205490506000600a60008473ffffffffffffffffffffffffffffffffffffffff1673ffffffffffffffffffffffffffffffffffffffff1681526020019081526020016000208190555080600754101561194f57306040517f6db510f5000000000000000000000000000000000000000000000000000000008152600401611946919061251f565b60405180910390fd5b61196481600754611a2890919063ffffffff16565b60078190555060008273ffffffffffffffffffffffffffffffffffffffff1682604051611990906125ce565b60006040518083038185875af1925050503d80600081146119cd576040519150601f19603f3d011682016040523d82523d6000602084013e6119d2565b606091505b5050905080611a0d576040517f92e9f8f100000000000000000000000000000000000000000000000000000000815260040160405180910390fd5b505050565b60008183611a209190612694565b905092915050565b60008183611a369190612569565b905092915050565b604051806101400160405280600073ffffffffffffffffffffffffffffffffffffffff16815260200160006001811115611a7b57611a7a611beb565b5b81526020016060815260200160608152602001606081526020016060815260200160008152602001600081526020016000815260200160006002811115611ac557611ac4611beb565b5b81525090565b828054611ad7906124de565b90600052602060002090601f016020900481019282611af95760008555611b40565b82601f10611b1257805160ff1916838001178555611b40565b82800160010185558215611b40579182015b82811115611b3f578251825591602001919060010190611b24565b5b509050611b4d9190611b51565b5090565b5b80821115611b6a576000816000905550600101611b52565b5090565b600073ffffffffffffffffffffffffffffffffffffffff82169050919050565b6000611b9982611b6e565b9050919050565b611ba981611b8e565b82525050565b6000602082019050611bc46000830184611ba0565b92915050565b6000611bd582611b6e565b9050919050565b611be581611bca565b82525050565b7f4e487b7100000000000000000000000000000000000000000000000000000000600052602160045260246000fd5b60028110611c2b57611c2a611beb565b5b50565b6000819050611c3c82611c1a565b919050565b6000611c4c82611c2e565b9050919050565b611c5c81611c41565b82525050565b600081519050919050565b600082825260208201905092915050565b60005b83811015611c9c578082015181840152602081019050611c81565b83811115611cab576000848401525b50505050565b6000601f19601f8301169050919050565b6000611ccd82611c62565b611cd78185611c6d565b9350611ce7818560208601611c7e565b611cf081611cb1565b840191505092915050565b600081519050919050565b600082825260208201905092915050565b6000819050602082019050919050565b6000611d338383611cc2565b905092915050565b6000602082019050919050565b6000611d5382611cfb565b611d5d8185611d06565b935083602082028501611d6f85611d17565b8060005b85811015611dab5784840389528151611d8c8582611d27565b9450611d9783611d3b565b925060208a01995050600181019050611d73565b50829750879550505050505092915050565b6000819050919050565b611dd081611dbd565b82525050565b60038110611de757611de6611beb565b5b50565b6000819050611df882611dd6565b919050565b6000611e0882611dea565b9050919050565b611e1881611dfd565b82525050565b600061014083016000830151611e376000860182611bdc565b506020830151611e4a6020860182611c53565b5060408301518482036040860152611e628282611cc2565b91505060608301518482036060860152611e7c8282611cc2565b91505060808301518482036080860152611e968282611cc2565b91505060a083015184820360a0860152611eb08282611d48565b91505060c0830151611ec560c0860182611dc7565b5060e0830151611ed860e0860182611dc7565b50610100830151611eed610100860182611dc7565b50610120830151611f02610120860182611e0f565b508091505092915050565b60006020820190508181036000830152611f278184611e1e565b905092915050565b611f3881611dbd565b82525050565b6000602082019050611f536000830184611f2f565b92915050565b6000604051905090565b600080fd5b600080fd5b611f7681611bca565b8114611f8157600080fd5b50565b600081359050611f9381611f6d565b92915050565b600060208284031215611faf57611fae611f63565b5b6000611fbd84828501611f84565b91505092915050565b611fcf81611dbd565b8114611fda57600080fd5b50565b600081359050611fec81611fc6565b92915050565b60006020828403121561200857612007611f63565b5b600061201684828501611fdd565b91505092915050565b600082825260208201905092915050565b600061203b82611c62565b612045818561201f565b9350612055818560208601611c7e565b61205e81611cb1565b840191505092915050565b600060208201905081810360008301526120838184612030565b905092915050565b600080fd5b600080fd5b7f4e487b7100000000000000000000000000000000000000000000000000000000600052604160045260246000fd5b6120cd82611cb1565b810181811067ffffffffffffffff821117156120ec576120eb612095565b5b80604052505050565b60006120ff611f59565b905061210b82826120c4565b919050565b600067ffffffffffffffff82111561212b5761212a612095565b5b61213482611cb1565b9050602081019050919050565b82818337600083830152505050565b600061216361215e84612110565b6120f5565b90508281526020810184848401111561217f5761217e612090565b5b61218a848285612141565b509392505050565b600082601f8301126121a7576121a661208b565b5b81356121b7848260208601612150565b91505092915050565b6000602082840312156121d6576121d5611f63565b5b600082013567ffffffffffffffff8111156121f4576121f3611f68565b5b61220084828501612192565b91505092915050565b60008115159050919050565b61221e81612209565b82525050565b60006020820190506122396000830184612215565b92915050565b600080fd5b600080fd5b60008083601f84011261225f5761225e61208b565b5b8235905067ffffffffffffffff81111561227c5761227b61223f565b5b60208301915083600182028301111561229857612297612244565b5b9250929050565b600080602083850312156122b6576122b5611f63565b5b600083013567ffffffffffffffff8111156122d4576122d3611f68565b5b6122e085828601612249565b92509250509250929050565b600067ffffffffffffffff82111561230757612306612095565b5b61231082611cb1565b9050602081019050919050565b600061233061232b846122ec565b6120f5565b90508281526020810184848401111561234c5761234b612090565b5b612357848285612141565b509392505050565b600082601f8301126123745761237361208b565b5b813561238484826020860161231d565b91505092915050565b6000602082840312156123a3576123a2611f63565b5b600082013567ffffffffffffffff8111156123c1576123c0611f68565b5b6123cd8482850161235f565b91505092915050565b600081519050919050565b600082825260208201905092915050565b60006123fd826123d6565b61240781856123e1565b9350612417818560208601611c7e565b61242081611cb1565b840191505092915050565b60006040820190506124406000830185612215565b818103602083015261245281846123f2565b90509392505050565b61246481611dfd565b82525050565b600060208201905061247f600083018461245b565b92915050565b61248e81611c41565b82525050565b60006020820190506124a96000830184612485565b92915050565b7f4e487b7100000000000000000000000000000000000000000000000000000000600052602260045260246000fd5b600060028204905060018216806124f657607f821691505b6020821081141561250a576125096124af565b5b50919050565b61251981611bca565b82525050565b60006020820190506125346000830184612510565b92915050565b7f4e487b7100000000000000000000000000000000000000000000000000000000600052601160045260246000fd5b600061257482611dbd565b915061257f83611dbd565b9250828210156125925761259161253a565b5b828203905092915050565b600081905092915050565b50565b60006125b860008361259d565b91506125c3826125a8565b600082019050919050565b60006125d9826125ab565b9150819050919050565b6000819050919050565b60006126086126036125fe84611b6e565b6125e3565b611b6e565b9050919050565b600061261a826125ed565b9050919050565b600061262c8261260f565b9050919050565b61263c81612621565b82525050565b60006040820190506126576000830185612633565b6126646020830184612510565b9392505050565b60006040820190506126806000830185611f2f565b61268d6020830184611f2f565b9392505050565b600061269f82611dbd565b91506126aa83611dbd565b9250827fffffffffffffffffffffffffffffffffffffffffffffffffffffffffffffffff038211156126df576126de61253a565b5b82820190509291505056fea2646970667358221220157a3057cd07a00acee3b626409762c037eed79046320e496c35fa90d6984dbd64736f6c63430008080033a26469706673582212203864e13f0ff63bf964c3fd3085fb27ecf5c80677618dbb7fa06aa625d3481fbe64736f6c63430008080033",
  "devdoc": {
    "kind": "dev",
    "methods": {},
    "version": 1
  },
  "userdoc": {
    "kind": "user",
    "methods": {},
    "version": 1
  },
  "storageLayout": {
    "storage": [
      {
        "astId": 1083,
        "contract": "contracts/CrowdFunder.sol:CrowdFunder",
        "label": "campaigns",
        "offset": 0,
        "slot": "0",
        "type": "t_mapping(t_address,t_contract(Campaign)1032)"
      },
      {
        "astId": 1087,
        "contract": "contracts/CrowdFunder.sol:CrowdFunder",
        "label": "campaignCreators",
        "offset": 0,
        "slot": "1",
        "type": "t_mapping(t_address,t_address)"
      },
      {
        "astId": 1091,
        "contract": "contracts/CrowdFunder.sol:CrowdFunder",
        "label": "campaignAddresses",
        "offset": 0,
        "slot": "2",
        "type": "t_mapping(t_address,t_bool)"
      }
    ],
    "types": {
      "t_address": {
        "encoding": "inplace",
        "label": "address",
        "numberOfBytes": "20"
      },
      "t_bool": {
        "encoding": "inplace",
        "label": "bool",
        "numberOfBytes": "1"
      },
      "t_contract(Campaign)1032": {
        "encoding": "inplace",
        "label": "contract Campaign",
        "numberOfBytes": "20"
      },
      "t_mapping(t_address,t_address)": {
        "encoding": "mapping",
        "key": "t_address",
        "label": "mapping(address => address)",
        "numberOfBytes": "32",
        "value": "t_address"
      },
      "t_mapping(t_address,t_bool)": {
        "encoding": "mapping",
        "key": "t_address",
        "label": "mapping(address => bool)",
        "numberOfBytes": "32",
        "value": "t_bool"
      },
      "t_mapping(t_address,t_contract(Campaign)1032)": {
        "encoding": "mapping",
        "key": "t_address",
        "label": "mapping(address => contract Campaign)",
        "numberOfBytes": "32",
        "value": "t_contract(Campaign)1032"
      }
    }
  }
}