{
  "address": "0xB33F99f94DBE26f9642CF390b3D263C444c3a1f7",
  "abi": [
    {
      "inputs": [
        {
          "internalType": "address",
          "name": "_campaignAddress",
          "type": "address"
        }
      ],
      "name": "CrowdFunder__CampaignStillActive",
      "type": "error"
    },
    {
      "inputs": [
        {
          "internalType": "address",
          "name": "_campaignAddress",
          "type": "address"
        }
      ],
      "name": "CrowdFunder__DonationFailed",
      "type": "error"
    },
    {
      "inputs": [
        {
          "internalType": "address",
          "name": "_caller",
          "type": "address"
        },
        {
          "internalType": "address",
          "name": "_campaignAddress",
          "type": "address"
        }
      ],
      "name": "CrowdFunder__NotCreator",
      "type": "error"
    },
    {
      "inputs": [
        {
          "internalType": "address",
          "name": "_campaignAddress",
          "type": "address"
        }
      ],
      "name": "CrowdFunder__RefundFailed",
      "type": "error"
    },
    {
      "anonymous": false,
      "inputs": [
        {
          "indexed": true,
          "internalType": "address",
          "name": "_campaignAddress",
          "type": "address"
        },
        {
          "indexed": true,
          "internalType": "address",
          "name": "_creator",
          "type": "address"
        },
        {
          "indexed": false,
          "internalType": "string",
          "name": "_category",
          "type": "string"
        },
        {
          "indexed": false,
          "internalType": "string[]",
          "name": "_tags",
          "type": "string[]"
        }
      ],
      "name": "CampaignAdded",
      "type": "event"
    },
    {
      "anonymous": false,
      "inputs": [
        {
          "indexed": true,
          "internalType": "address",
          "name": "_funder",
          "type": "address"
        },
        {
          "indexed": true,
          "internalType": "address",
          "name": "_campaignAddress",
          "type": "address"
        }
      ],
      "name": "CampaignFunded",
      "type": "event"
    },
    {
      "anonymous": false,
      "inputs": [
        {
          "indexed": true,
          "internalType": "address",
          "name": "_campaignAddress",
          "type": "address"
        }
      ],
      "name": "CampaignRemoved",
      "type": "event"
    },
    {
      "anonymous": false,
      "inputs": [
        {
          "indexed": true,
          "internalType": "address",
          "name": "_withdrawer",
          "type": "address"
        },
        {
          "indexed": true,
          "internalType": "address",
          "name": "_campaignAddress",
          "type": "address"
        }
      ],
      "name": "CampaignShrunk",
      "type": "event"
    },
    {
      "anonymous": false,
      "inputs": [
        {
          "indexed": true,
          "internalType": "address",
          "name": "_address",
          "type": "address"
        },
        {
          "indexed": false,
          "internalType": "string",
          "name": "_username",
          "type": "string"
        },
        {
          "indexed": false,
          "internalType": "string",
          "name": "_twitter",
          "type": "string"
        },
        {
          "indexed": false,
          "internalType": "string",
          "name": "_email",
          "type": "string"
        },
        {
          "indexed": false,
          "internalType": "string",
          "name": "_location",
          "type": "string"
        },
        {
          "indexed": false,
          "internalType": "string",
          "name": "_bio",
          "type": "string"
        }
      ],
      "name": "UserAdded",
      "type": "event"
    },
    {
      "anonymous": false,
      "inputs": [
        {
          "indexed": false,
          "internalType": "address",
          "name": "_userAddress",
          "type": "address"
        },
        {
          "indexed": false,
          "internalType": "string",
          "name": "_homeAddr",
          "type": "string"
        }
      ],
      "name": "UserHomeAddrAdded",
      "type": "event"
    },
    {
      "inputs": [
        {
          "internalType": "string",
          "name": "_title",
          "type": "string"
        },
        {
          "internalType": "string",
          "name": "_description",
          "type": "string"
        },
        {
          "internalType": "string",
          "name": "_category",
          "type": "string"
        },
        {
          "internalType": "string[]",
          "name": "_tags",
          "type": "string[]"
        },
        {
          "internalType": "uint256",
          "name": "_goalAmount",
          "type": "uint256"
        },
        {
          "internalType": "uint256",
          "name": "_duration",
          "type": "uint256"
        },
        {
          "internalType": "string",
          "name": "_imageURI",
          "type": "string"
        },
        {
          "internalType": "string",
          "name": "_campaignURI",
          "type": "string"
        },
        {
          "internalType": "address",
          "name": "_linkTokenAddress",
          "type": "address"
        },
        {
          "internalType": "address",
          "name": "_upkeepCreatorAddress",
          "type": "address"
        }
      ],
      "name": "addCampaign",
      "outputs": [],
      "stateMutability": "nonpayable",
      "type": "function"
    },
    {
      "inputs": [
        {
          "internalType": "address",
          "name": "_address",
          "type": "address"
        },
        {
          "internalType": "string",
          "name": "_username",
          "type": "string"
        },
        {
          "internalType": "string",
          "name": "_twitter",
          "type": "string"
        },
        {
          "internalType": "string",
          "name": "_email",
          "type": "string"
        },
        {
          "internalType": "string",
          "name": "_location",
          "type": "string"
        },
        {
          "internalType": "string",
          "name": "_bio",
          "type": "string"
        }
      ],
      "name": "addUser",
      "outputs": [],
      "stateMutability": "nonpayable",
      "type": "function"
    },
    {
      "inputs": [
        {
          "internalType": "address",
          "name": "_userAddress",
          "type": "address"
        },
        {
          "internalType": "string",
          "name": "_homeAddr",
          "type": "string"
        }
      ],
      "name": "addUserHomeAddr",
      "outputs": [],
      "stateMutability": "nonpayable",
      "type": "function"
    },
    {
      "inputs": [],
      "name": "campaignCounter",
      "outputs": [
        {
          "internalType": "uint256",
          "name": "",
          "type": "uint256"
        }
      ],
      "stateMutability": "view",
      "type": "function"
    },
    {
      "inputs": [
        {
          "internalType": "address",
          "name": "_campaignAddress",
          "type": "address"
        }
      ],
      "name": "donateToCampaign",
      "outputs": [],
      "stateMutability": "payable",
      "type": "function"
    },
    {
      "inputs": [
        {
          "internalType": "address",
          "name": "_campaignAddress",
          "type": "address"
        },
        {
          "internalType": "address",
          "name": "_donator",
          "type": "address"
        }
      ],
      "name": "refundFromCampaign",
      "outputs": [],
      "stateMutability": "nonpayable",
      "type": "function"
    },
    {
      "inputs": [
        {
          "internalType": "address",
          "name": "_campaignAddress",
          "type": "address"
        }
      ],
      "name": "removeCampaign",
      "outputs": [],
      "stateMutability": "nonpayable",
      "type": "function"
    }
  ],
  "transactionHash": "0xc8001c0be52d987e52f83e222f60fb0d85b70711db8de23906264867788bfcff",
  "args": [],
  "numDeployments": 15,
  "solcInputHash": "51873fc2c214d29ea30c16c5d34fcad4",
  "bytecode": "0x608060405234801561001057600080fd5b50615ab4806100206000396000f3fe6080604052600436106200007a5760003560e01c80637dfaeaa311620000555780637dfaeaa314620000fb578063e13e47001462000129578063e4663a5b1462000157578063fca604d71462000185576200007a565b80631a702aa0146200007f578063359c4f3214620000ad5780637c6abc8214620000db575b600080fd5b3480156200008c57600080fd5b50620000ab6004803603810190620000a5919062000c3f565b620001b5565b005b348015620000ba57600080fd5b50620000d96004803603810190620000d3919062000d76565b62000215565b005b620000f96004803603810190620000f3919062000dbd565b620003be565b005b3480156200010857600080fd5b5062000127600480360381019062000121919062000def565b62000559565b005b3480156200013657600080fd5b506200015560048036038101906200014f919062000f8c565b62000598565b005b3480156200016457600080fd5b506200018360048036038101906200017d919062000dbd565b620006f8565b005b3480156200019257600080fd5b506200019d62000a50565b604051620001ac91906200114d565b60405180910390f35b8573ffffffffffffffffffffffffffffffffffffffff167f8a71481c426e212d085148853642cbd73769f57ca8e2a96eca998197465ab416868686868660405162000205959493929190620011fd565b60405180910390a2505050505050565b60008273ffffffffffffffffffffffffffffffffffffffff16826040516024016200024191906200128e565b6040516020818303038152906040527ffa89401a000000000000000000000000000000000000000000000000000000007bffffffffffffffffffffffffffffffffffffffffffffffffffffffff19166020820180517bffffffffffffffffffffffffffffffffffffffffffffffffffffffff8381831617835250505050604051620002cd9190620012f8565b600060405180830381855af49150503d80600081146200030a576040519150601f19603f3d011682016040523d82523d6000602084013e6200030f565b606091505b5050905080156200037a578273ffffffffffffffffffffffffffffffffffffffff163373ffffffffffffffffffffffffffffffffffffffff167f9054f43c2e3f0a33645e2d3215afde366ee1037949dd258158140d157d8614ce60405160405180910390a3620003b9565b826040517f5bdf89f6000000000000000000000000000000000000000000000000000000008152600401620003b091906200128e565b60405180910390fd5b505050565b60008173ffffffffffffffffffffffffffffffffffffffff166040516024016040516020818303038152906040527fed88c68e000000000000000000000000000000000000000000000000000000007bffffffffffffffffffffffffffffffffffffffffffffffffffffffff19166020820180517bffffffffffffffffffffffffffffffffffffffffffffffffffffffff8381831617835250505050604051620004699190620012f8565b600060405180830381855af49150503d8060008114620004a6576040519150601f19603f3d011682016040523d82523d6000602084013e620004ab565b606091505b50509050801562000516578173ffffffffffffffffffffffffffffffffffffffff163373ffffffffffffffffffffffffffffffffffffffff167f406c70a06d8422cfeb8281878b74e291f0feca05e5fd54df2cfbdc386611673660405160405180910390a362000555565b816040517ffe5dd8d30000000000000000000000000000000000000000000000000000000081526004016200054c91906200128e565b60405180910390fd5b5050565b7f440065d68f2dccb29aed41dfaf29b5137d728950be75f0f67945debd30068a6282826040516200058c92919062001311565b60405180910390a15050565b6000338b8b8b8b8b8b8b8b8b8b604051620005b39062000a56565b620005c99b9a99989796959493929190620014d2565b604051809103906000f080158015620005e6573d6000803e3d6000fd5b50905080600160008373ffffffffffffffffffffffffffffffffffffffff1673ffffffffffffffffffffffffffffffffffffffff16815260200190815260200160002060006101000a81548173ffffffffffffffffffffffffffffffffffffffff021916908373ffffffffffffffffffffffffffffffffffffffff16021790555060016000808282546200067b9190620015ec565b925050819055503373ffffffffffffffffffffffffffffffffffffffff168173ffffffffffffffffffffffffffffffffffffffff167fd1ef576cbb9cedc698256ae3d2464b38a636f26263382a3c2206c86d7c8c1fcf8b8b604051620006e392919062001649565b60405180910390a35050505050505050505050565b803373ffffffffffffffffffffffffffffffffffffffff16600160008373ffffffffffffffffffffffffffffffffffffffff1673ffffffffffffffffffffffffffffffffffffffff16815260200190815260200160002060009054906101000a900473ffffffffffffffffffffffffffffffffffffffff1673ffffffffffffffffffffffffffffffffffffffff1663b145603e6040518163ffffffff1660e01b815260040160206040518083038186803b158015620007b657600080fd5b505afa158015620007cb573d6000803e3d6000fd5b505050506040513d601f19601f82011682018060405250810190620007f19190620016c9565b73ffffffffffffffffffffffffffffffffffffffff16146200084e5733816040517fd9e20da800000000000000000000000000000000000000000000000000000000815260040162000845929190620016fb565b60405180910390fd5b6000600160008473ffffffffffffffffffffffffffffffffffffffff1673ffffffffffffffffffffffffffffffffffffffff16815260200190815260200160002060009054906101000a900473ffffffffffffffffffffffffffffffffffffffff1673ffffffffffffffffffffffffffffffffffffffff166360fa9a726040518163ffffffff1660e01b815260040160206040518083038186803b158015620008f657600080fd5b505afa1580156200090b573d6000803e3d6000fd5b505050506040513d601f19601f8201168201806040525081019062000931919062001750565b600281111562000946576200094562001782565b5b14156200098c57816040517fdfecfddd0000000000000000000000000000000000000000000000000000000081526004016200098391906200128e565b60405180910390fd5b600160008373ffffffffffffffffffffffffffffffffffffffff1673ffffffffffffffffffffffffffffffffffffffff16815260200190815260200160002060006101000a81549073ffffffffffffffffffffffffffffffffffffffff0219169055600160008082825462000a029190620017b1565b925050819055508173ffffffffffffffffffffffffffffffffffffffff167fd41d62ed7a46b1f2f4c0a4c0fa40c95bbe14a7d55034ff9817b743d6cb79353660405160405180910390a25050565b60005481565b61429280620017ed83390190565b6000604051905090565b600080fd5b600080fd5b600073ffffffffffffffffffffffffffffffffffffffff82169050919050565b600062000aa58262000a78565b9050919050565b62000ab78162000a98565b811462000ac357600080fd5b50565b60008135905062000ad78162000aac565b92915050565b600080fd5b600080fd5b6000601f19601f8301169050919050565b7f4e487b7100000000000000000000000000000000000000000000000000000000600052604160045260246000fd5b62000b328262000ae7565b810181811067ffffffffffffffff8211171562000b545762000b5362000af8565b5b80604052505050565b600062000b6962000a64565b905062000b77828262000b27565b919050565b600067ffffffffffffffff82111562000b9a5762000b9962000af8565b5b62000ba58262000ae7565b9050602081019050919050565b82818337600083830152505050565b600062000bd862000bd28462000b7c565b62000b5d565b90508281526020810184848401111562000bf75762000bf662000ae2565b5b62000c0484828562000bb2565b509392505050565b600082601f83011262000c245762000c2362000add565b5b813562000c3684826020860162000bc1565b91505092915050565b60008060008060008060c0878903121562000c5f5762000c5e62000a6e565b5b600062000c6f89828a0162000ac6565b965050602087013567ffffffffffffffff81111562000c935762000c9262000a73565b5b62000ca189828a0162000c0c565b955050604087013567ffffffffffffffff81111562000cc55762000cc462000a73565b5b62000cd389828a0162000c0c565b945050606087013567ffffffffffffffff81111562000cf75762000cf662000a73565b5b62000d0589828a0162000c0c565b935050608087013567ffffffffffffffff81111562000d295762000d2862000a73565b5b62000d3789828a0162000c0c565b92505060a087013567ffffffffffffffff81111562000d5b5762000d5a62000a73565b5b62000d6989828a0162000c0c565b9150509295509295509295565b6000806040838503121562000d905762000d8f62000a6e565b5b600062000da08582860162000ac6565b925050602062000db38582860162000ac6565b9150509250929050565b60006020828403121562000dd65762000dd562000a6e565b5b600062000de68482850162000ac6565b91505092915050565b6000806040838503121562000e095762000e0862000a6e565b5b600062000e198582860162000ac6565b925050602083013567ffffffffffffffff81111562000e3d5762000e3c62000a73565b5b62000e4b8582860162000c0c565b9150509250929050565b600067ffffffffffffffff82111562000e735762000e7262000af8565b5b602082029050602081019050919050565b600080fd5b600062000ea062000e9a8462000e55565b62000b5d565b9050808382526020820190506020840283018581111562000ec65762000ec562000e84565b5b835b8181101562000f1457803567ffffffffffffffff81111562000eef5762000eee62000add565b5b80860162000efe898262000c0c565b8552602085019450505060208101905062000ec8565b5050509392505050565b600082601f83011262000f365762000f3562000add565b5b813562000f4884826020860162000e89565b91505092915050565b6000819050919050565b62000f668162000f51565b811462000f7257600080fd5b50565b60008135905062000f868162000f5b565b92915050565b6000806000806000806000806000806101408b8d03121562000fb35762000fb262000a6e565b5b60008b013567ffffffffffffffff81111562000fd45762000fd362000a73565b5b62000fe28d828e0162000c0c565b9a505060208b013567ffffffffffffffff81111562001006576200100562000a73565b5b620010148d828e0162000c0c565b99505060408b013567ffffffffffffffff81111562001038576200103762000a73565b5b620010468d828e0162000c0c565b98505060608b013567ffffffffffffffff8111156200106a576200106962000a73565b5b620010788d828e0162000f1e565b97505060806200108b8d828e0162000f75565b96505060a06200109e8d828e0162000f75565b95505060c08b013567ffffffffffffffff811115620010c257620010c162000a73565b5b620010d08d828e0162000c0c565b94505060e08b013567ffffffffffffffff811115620010f457620010f362000a73565b5b620011028d828e0162000c0c565b935050610100620011168d828e0162000ac6565b9250506101206200112a8d828e0162000ac6565b9150509295989b9194979a5092959850565b620011478162000f51565b82525050565b60006020820190506200116460008301846200113c565b92915050565b600081519050919050565b600082825260208201905092915050565b60005b83811015620011a657808201518184015260208101905062001189565b83811115620011b6576000848401525b50505050565b6000620011c9826200116a565b620011d5818562001175565b9350620011e781856020860162001186565b620011f28162000ae7565b840191505092915050565b600060a0820190508181036000830152620012198188620011bc565b905081810360208301526200122f8187620011bc565b90508181036040830152620012458186620011bc565b905081810360608301526200125b8185620011bc565b90508181036080830152620012718184620011bc565b90509695505050505050565b620012888162000a98565b82525050565b6000602082019050620012a560008301846200127d565b92915050565b600081519050919050565b600081905092915050565b6000620012ce82620012ab565b620012da8185620012b6565b9350620012ec81856020860162001186565b80840191505092915050565b6000620013068284620012c1565b915081905092915050565b60006040820190506200132860008301856200127d565b81810360208301526200133c8184620011bc565b90509392505050565b6000819050919050565b6000620013706200136a620013648462000a78565b62001345565b62000a78565b9050919050565b600062001384826200134f565b9050919050565b6000620013988262001377565b9050919050565b620013aa816200138b565b82525050565b600081519050919050565b600082825260208201905092915050565b6000819050602082019050919050565b600082825260208201905092915050565b6000620013fa826200116a565b620014068185620013dc565b93506200141881856020860162001186565b620014238162000ae7565b840191505092915050565b60006200143c8383620013ed565b905092915050565b6000602082019050919050565b60006200145e82620013b0565b6200146a8185620013bb565b9350836020820285016200147e85620013cc565b8060005b85811015620014c057848403895281516200149e85826200142e565b9450620014ab8362001444565b925060208a0199505060018101905062001482565b50829750879550505050505092915050565b600061016082019050620014ea600083018e6200139f565b8181036020830152620014fe818d620011bc565b9050818103604083015262001514818c620011bc565b905081810360608301526200152a818b620011bc565b9050818103608083015262001540818a62001451565b90506200155160a08301896200113c565b6200156060c08301886200113c565b81810360e0830152620015748187620011bc565b90508181036101008301526200158b8186620011bc565b90506200159d6101208301856200127d565b620015ad6101408301846200127d565b9c9b505050505050505050505050565b7f4e487b7100000000000000000000000000000000000000000000000000000000600052601160045260246000fd5b6000620015f98262000f51565b9150620016068362000f51565b9250827fffffffffffffffffffffffffffffffffffffffffffffffffffffffffffffffff038211156200163e576200163d620015bd565b5b828201905092915050565b60006040820190508181036000830152620016658185620011bc565b905081810360208301526200167b818462001451565b90509392505050565b6000620016918262000a78565b9050919050565b620016a38162001684565b8114620016af57600080fd5b50565b600081519050620016c38162001698565b92915050565b600060208284031215620016e257620016e162000a6e565b5b6000620016f284828501620016b2565b91505092915050565b60006040820190506200171260008301856200127d565b6200172160208301846200127d565b9392505050565b600381106200173657600080fd5b50565b6000815190506200174a8162001728565b92915050565b60006020828403121562001769576200176862000a6e565b5b6000620017798482850162001739565b91505092915050565b7f4e487b7100000000000000000000000000000000000000000000000000000000600052602160045260246000fd5b6000620017be8262000f51565b9150620017cb8362000f51565b925082821015620017e157620017e0620015bd565b5b82820390509291505056fe6101006040526000600a60006101000a81548160ff021916908360028111156200002e576200002d6200036d565b5b02179055503480156200004057600080fd5b5060405162004292380380620042928339818101604052810190620000669190620006d5565b8a73ffffffffffffffffffffffffffffffffffffffff1660808173ffffffffffffffffffffffffffffffffffffffff1660601b815250508960009080519060200190620000b5929190620001e8565b508860019080519060200190620000ce929190620001e8565b508760029080519060200190620000e7929190620001e8565b5086600590805190602001906200010092919062000279565b50856006819055504260a081815250508460078190555060075460a051620001299190620008cb565b600981905550836003908051906020019062000147929190620001e8565b50826004908051906020019062000160929190620001e8565b5060006008819055508173ffffffffffffffffffffffffffffffffffffffff1660c08173ffffffffffffffffffffffffffffffffffffffff1660601b815250508073ffffffffffffffffffffffffffffffffffffffff1660e08173ffffffffffffffffffffffffffffffffffffffff1660601b8152505050505050505050505050506200098d565b828054620001f69062000957565b90600052602060002090601f0160209004810192826200021a576000855562000266565b82601f106200023557805160ff191683800117855562000266565b8280016001018555821562000266579182015b828111156200026557825182559160200191906001019062000248565b5b509050620002759190620002e0565b5090565b828054828255906000526020600020908101928215620002cd579160200282015b82811115620002cc578251829080519060200190620002bb929190620001e8565b50916020019190600101906200029a565b5b509050620002dc9190620002ff565b5090565b5b80821115620002fb576000816000905550600101620002e1565b5090565b5b8082111562000323576000818162000319919062000327565b5060010162000300565b5090565b508054620003359062000957565b6000825580601f106200034957506200036a565b601f016020900490600052602060002090810190620003699190620002e0565b5b50565b7f4e487b7100000000000000000000000000000000000000000000000000000000600052602160045260246000fd5b6000604051905090565b600080fd5b600080fd5b600073ffffffffffffffffffffffffffffffffffffffff82169050919050565b6000620003dd82620003b0565b9050919050565b620003ef81620003d0565b8114620003fb57600080fd5b50565b6000815190506200040f81620003e4565b92915050565b600080fd5b600080fd5b6000601f19601f8301169050919050565b7f4e487b7100000000000000000000000000000000000000000000000000000000600052604160045260246000fd5b6200046a826200041f565b810181811067ffffffffffffffff821117156200048c576200048b62000430565b5b80604052505050565b6000620004a16200039c565b9050620004af82826200045f565b919050565b600067ffffffffffffffff821115620004d257620004d162000430565b5b620004dd826200041f565b9050602081019050919050565b60005b838110156200050a578082015181840152602081019050620004ed565b838111156200051a576000848401525b50505050565b6000620005376200053184620004b4565b62000495565b9050828152602081018484840111156200055657620005556200041a565b5b62000563848285620004ea565b509392505050565b600082601f83011262000583576200058262000415565b5b81516200059584826020860162000520565b91505092915050565b600067ffffffffffffffff821115620005bc57620005bb62000430565b5b602082029050602081019050919050565b600080fd5b6000620005e9620005e3846200059e565b62000495565b905080838252602082019050602084028301858111156200060f576200060e620005cd565b5b835b818110156200065d57805167ffffffffffffffff81111562000638576200063762000415565b5b8086016200064789826200056b565b8552602085019450505060208101905062000611565b5050509392505050565b600082601f8301126200067f576200067e62000415565b5b815162000691848260208601620005d2565b91505092915050565b6000819050919050565b620006af816200069a565b8114620006bb57600080fd5b50565b600081519050620006cf81620006a4565b92915050565b60008060008060008060008060008060006101608c8e031215620006fe57620006fd620003a6565b5b60006200070e8e828f01620003fe565b9b505060208c015167ffffffffffffffff811115620007325762000731620003ab565b5b620007408e828f016200056b565b9a505060408c015167ffffffffffffffff811115620007645762000763620003ab565b5b620007728e828f016200056b565b99505060608c015167ffffffffffffffff811115620007965762000795620003ab565b5b620007a48e828f016200056b565b98505060808c015167ffffffffffffffff811115620007c857620007c7620003ab565b5b620007d68e828f0162000667565b97505060a0620007e98e828f01620006be565b96505060c0620007fc8e828f01620006be565b95505060e08c015167ffffffffffffffff81111562000820576200081f620003ab565b5b6200082e8e828f016200056b565b9450506101008c015167ffffffffffffffff811115620008535762000852620003ab565b5b620008618e828f016200056b565b935050610120620008758e828f01620003fe565b925050610140620008898e828f01620003fe565b9150509295989b509295989b9093969950565b7f4e487b7100000000000000000000000000000000000000000000000000000000600052601160045260246000fd5b6000620008d8826200069a565b9150620008e5836200069a565b9250827fffffffffffffffffffffffffffffffffffffffffffffffffffffffffffffffff038211156200091d576200091c6200089c565b5b828201905092915050565b7f4e487b7100000000000000000000000000000000000000000000000000000000600052602260045260246000fd5b600060028204905060018216806200097057607f821691505b6020821081141562000987576200098662000928565b5b50919050565b60805160601c60a05160c05160601c60e05160601c61386062000a3260003960008181610e130152610e7901526000610e38015260008181610cbe015261158a0152600081816106c501528181610c1d01528181610d8c01528181610f69015281816111100152818161127401528181611377015281816114280152818161161801528181611823015281816119df01528181611aef0152611c8601526138606000f3fe6080604052600436106101c25760003560e01c806363bd1d4a116100f7578063b145603e11610095578063e7cf1ab711610064578063e7cf1ab714610611578063ed88c68e1461063a578063f301af4214610644578063fa89401a14610686576101c2565b8063b145603e14610565578063bf66e2c814610590578063ce2a0572146105bb578063ce845d1d146105e6576101c2565b806371aac7f9116100d157806371aac7f9146104bd57806395086ed1146104d457806399a8502d146105115780639a9137931461053c576101c2565b806363bd1d4a1461042b57806369066ae9146104425780636e04ff0d1461047f576101c2565b80634278ac8b116101645780634d695bdb1161013e5780634d695bdb1461036f5780634ef897191461039857806360fa9a72146103c35780636235887a146103ee576101c2565b80634278ac8b14610304578063431f9a231461032f5780634585e33b14610346576101c2565b80631910bdc2116101a05780631910bdc2146102485780631b50ad09146102855780632636b945146102ae57806329dcb0cf146102d9576101c2565b80630c611f24146101c75780630fb5a6b4146101f257806315a46ee61461021d575b600080fd5b3480156101d357600080fd5b506101dc6106af565b6040516101e99190612927565b60405180910390f35b3480156101fe57600080fd5b50610207610af0565b6040516102149190612958565b60405180910390f35b34801561022957600080fd5b50610232610af6565b60405161023f91906129bd565b60405180910390f35b34801561025457600080fd5b5061026f600480360381019061026a9190612a1f565b610b84565b60405161027c9190612afb565b60405180910390f35b34801561029157600080fd5b506102ac60048036038101906102a79190612b49565b610c1b565b005b3480156102ba57600080fd5b506102c3610cf0565b6040516102d09190612958565b60405180910390f35b3480156102e557600080fd5b506102ee610cf6565b6040516102fb9190612958565b60405180910390f35b34801561031057600080fd5b50610319610cfc565b60405161032691906129bd565b60405180910390f35b34801561033b57600080fd5b50610344610d8a565b005b34801561035257600080fd5b5061036d60048036038101906103689190612bdb565b611010565b005b34801561037b57600080fd5b5061039660048036038101906103919190612d58565b61110e565b005b3480156103a457600080fd5b506103ad6111ad565b6040516103ba91906129bd565b60405180910390f35b3480156103cf57600080fd5b506103d861123b565b6040516103e59190612db0565b60405180910390f35b3480156103fa57600080fd5b5061041560048036038101906104109190612b49565b61124e565b6040516104229190612958565b60405180910390f35b34801561043757600080fd5b50610440611272565b005b34801561044e57600080fd5b5061046960048036038101906104649190612b49565b611499565b60405161047691906129bd565b60405180910390f35b34801561048b57600080fd5b506104a660048036038101906104a19190612e6c565b611545565b6040516104b4929190612f25565b60405180910390f35b3480156104c957600080fd5b506104d2611616565b005b3480156104e057600080fd5b506104fb60048036038101906104f69190612f55565b611762565b6040516105089190612958565b60405180910390f35b34801561051d57600080fd5b50610526611793565b60405161053391906129bd565b60405180910390f35b34801561054857600080fd5b50610563600480360381019061055e91906130a2565b611821565b005b34801561057157600080fd5b5061057a6119dd565b60405161058791906131e9565b60405180910390f35b34801561059c57600080fd5b506105a5611a01565b6040516105b29190612afb565b60405180910390f35b3480156105c757600080fd5b506105d0611a59565b6040516105dd91906129bd565b60405180910390f35b3480156105f257600080fd5b506105fb611ae7565b6040516106089190612958565b60405180910390f35b34801561061d57600080fd5b5061063860048036038101906106339190612b49565b611aed565b005b610642611c17565b005b34801561065057600080fd5b5061066b60048036038101906106669190612b49565b611ef1565b60405161067d96959493929190613204565b60405180910390f35b34801561069257600080fd5b506106ad60048036038101906106a89190612a1f565b61204a565b005b6106b76123a2565b6040518061018001604052807f000000000000000000000000000000000000000000000000000000000000000073ffffffffffffffffffffffffffffffffffffffff1681526020016000805461070c906132a2565b80601f0160208091040260200160405190810160405280929190818152602001828054610738906132a2565b80156107855780601f1061075a57610100808354040283529160200191610785565b820191906000526020600020905b81548152906001019060200180831161076857829003601f168201915b505050505081526020016001805461079c906132a2565b80601f01602080910402602001604051908101604052809291908181526020018280546107c8906132a2565b80156108155780601f106107ea57610100808354040283529160200191610815565b820191906000526020600020905b8154815290600101906020018083116107f857829003601f168201915b505050505081526020016002805461082c906132a2565b80601f0160208091040260200160405190810160405280929190818152602001828054610858906132a2565b80156108a55780601f1061087a576101008083540402835291602001916108a5565b820191906000526020600020905b81548152906001019060200180831161088857829003601f168201915b505050505081526020016005805480602002602001604051908101604052809291908181526020016000905b8282101561097d5783829060005260206000200180546108f0906132a2565b80601f016020809104026020016040519081016040528092919081815260200182805461091c906132a2565b80156109695780601f1061093e57610100808354040283529160200191610969565b820191906000526020600020905b81548152906001019060200180831161094c57829003601f168201915b5050505050815260200190600101906108d1565b505050508152602001600654815260200160075481526020016008548152602001600a60009054906101000a900460ff1660028111156109c0576109bf612789565b5b8152602001600380546109d2906132a2565b80601f01602080910402602001604051908101604052809291908181526020018280546109fe906132a2565b8015610a4b5780601f10610a2057610100808354040283529160200191610a4b565b820191906000526020600020905b815481529060010190602001808311610a2e57829003601f168201915b5050505050815260200160048054610a62906132a2565b80601f0160208091040260200160405190810160405280929190818152602001828054610a8e906132a2565b8015610adb5780601f10610ab057610100808354040283529160200191610adb565b820191906000526020600020905b815481529060010190602001808311610abe57829003601f168201915b50505050508152602001600954815250905090565b60075481565b60048054610b03906132a2565b80601f0160208091040260200160405190810160405280929190818152602001828054610b2f906132a2565b8015610b7c5780601f10610b5157610100808354040283529160200191610b7c565b820191906000526020600020905b815481529060010190602001808311610b5f57829003601f168201915b505050505081565b6060600d60008373ffffffffffffffffffffffffffffffffffffffff1673ffffffffffffffffffffffffffffffffffffffff168152602001908152602001600020805480602002602001604051908101604052809291908181526020018280548015610c0f57602002820191906000526020600020905b815481526020019060010190808311610bfb575b50505050509050919050565b7f000000000000000000000000000000000000000000000000000000000000000073ffffffffffffffffffffffffffffffffffffffff163373ffffffffffffffffffffffffffffffffffffffff1614610ca0576040517f778e4c5e00000000000000000000000000000000000000000000000000000000815260040160405180910390fd5b8060076000828254610cb29190613303565b925050819055506007547f0000000000000000000000000000000000000000000000000000000000000000610ce79190613303565b60098190555050565b60065481565b60095481565b60028054610d09906132a2565b80601f0160208091040260200160405190810160405280929190818152602001828054610d35906132a2565b8015610d825780601f10610d5757610100808354040283529160200191610d82565b820191906000526020600020905b815481529060010190602001808311610d6557829003601f168201915b505050505081565b7f000000000000000000000000000000000000000000000000000000000000000073ffffffffffffffffffffffffffffffffffffffff163373ffffffffffffffffffffffffffffffffffffffff1614610e0f576040517f778e4c5e00000000000000000000000000000000000000000000000000000000815260040160405180910390fd5b60007f0000000000000000000000000000000000000000000000000000000000000000905060007f0000000000000000000000000000000000000000000000000000000000000000905060008173ffffffffffffffffffffffffffffffffffffffff166370a082317f00000000000000000000000000000000000000000000000000000000000000006040518263ffffffff1660e01b8152600401610eb49190613368565b60206040518083038186803b158015610ecc57600080fd5b505afa158015610ee0573d6000803e3d6000fd5b505050506040513d601f19601f82011682018060405250810190610f049190613398565b11610f44576040517f08c379a0000000000000000000000000000000000000000000000000000000008152600401610f3b90613411565b60405180910390fd5b8173ffffffffffffffffffffffffffffffffffffffff166318a9fb8a6000306207a1207f0000000000000000000000000000000000000000000000000000000000000000678ac7230489e8000060006040518763ffffffff1660e01b8152600401610fb496959493929190613657565b602060405180830381600087803b158015610fce57600080fd5b505af1158015610fe2573d6000803e3d6000fd5b505050506040513d601f19601f820116820180604052508101906110069190613398565b600b819055505050565b600061102a60405180602001604052806000815250611545565b50905080611064576040517f311f87a100000000000000000000000000000000000000000000000000000000815260040160405180910390fd5b6001600a60006101000a81548160ff0219169083600281111561108a57611089612789565b5b02179055507f5cf8cd2bd40f758a95257bed666285eb82801f1bf9223b8ec1481e510ba2e82d306040516110be9190613368565b60405180910390a160065460085410611109577f5369558c667e962b633128a01c31764d053da51f61d17370d327ed17f77deccc306040516111009190613368565b60405180910390a15b505050565b7f000000000000000000000000000000000000000000000000000000000000000073ffffffffffffffffffffffffffffffffffffffff163373ffffffffffffffffffffffffffffffffffffffff1614611193576040517f778e4c5e00000000000000000000000000000000000000000000000000000000815260040160405180910390fd5b80600490805190602001906111a992919061242b565b5050565b600180546111ba906132a2565b80601f01602080910402602001604051908101604052809291908181526020018280546111e6906132a2565b80156112335780601f1061120857610100808354040283529160200191611233565b820191906000526020600020905b81548152906001019060200180831161121657829003601f168201915b505050505081565b600a60009054906101000a900460ff1681565b600e818154811061125e57600080fd5b906000526020600020016000915090505481565b7f000000000000000000000000000000000000000000000000000000000000000073ffffffffffffffffffffffffffffffffffffffff163373ffffffffffffffffffffffffffffffffffffffff16146112f7576040517f778e4c5e00000000000000000000000000000000000000000000000000000000815260040160405180910390fd5b6001600281111561130b5761130a612789565b5b600a60009054906101000a900460ff16600281111561132d5761132c612789565b5b14611364576040517ffa4021a300000000000000000000000000000000000000000000000000000000815260040160405180910390fd5b60006008549050600060088190555060007f000000000000000000000000000000000000000000000000000000000000000073ffffffffffffffffffffffffffffffffffffffff16826040516113b990613717565b60006040518083038185875af1925050503d80600081146113f6576040519150601f19603f3d011682016040523d82523d6000602084013e6113fb565b606091505b505090508015611463577fba5e837743d81ad0e6deb16089dbb65b549fdda8ad802fd8d4822884d70dc8b27f00000000000000000000000000000000000000000000000000000000000000003060405161145692919061372c565b60405180910390a1611495565b6040517f11456ffb00000000000000000000000000000000000000000000000000000000815260040160405180910390fd5b5050565b600581815481106114a957600080fd5b9060005260206000200160009150905080546114c4906132a2565b80601f01602080910402602001604051908101604052809291908181526020018280546114f0906132a2565b801561153d5780601f106115125761010080835404028352916020019161153d565b820191906000526020600020905b81548152906001019060200180831161152057829003601f168201915b505050505081565b60006060600080600281111561155e5761155d612789565b5b600a60009054906101000a900460ff1660028111156115805761157f612789565b5b14905060006007547f0000000000000000000000000000000000000000000000000000000000000000426115b49190613755565b119050600080471190508180156115c85750825b80156115d15750805b9450846040518060400160405280600381526020017f307830000000000000000000000000000000000000000000000000000000000081525094509450505050915091565b7f000000000000000000000000000000000000000000000000000000000000000073ffffffffffffffffffffffffffffffffffffffff163373ffffffffffffffffffffffffffffffffffffffff161461169b576040517f778e4c5e00000000000000000000000000000000000000000000000000000000815260040160405180910390fd5b600160028111156116af576116ae612789565b5b600a60009054906101000a900460ff1660028111156116d1576116d0612789565b5b1415611709576040517f651e73ae00000000000000000000000000000000000000000000000000000000815260040160405180910390fd5b6002600a60006101000a81548160ff0219169083600281111561172f5761172e612789565b5b02179055507fb83ebe09f40e9293bdea1d6567fae3175119d3d0ff13c4b4df15994837dd7f5160405160405180910390a1565b600d602052816000526040600020818154811061177e57600080fd5b90600052602060002001600091509150505481565b600080546117a0906132a2565b80601f01602080910402602001604051908101604052809291908181526020018280546117cc906132a2565b80156118195780601f106117ee57610100808354040283529160200191611819565b820191906000526020600020905b8154815290600101906020018083116117fc57829003601f168201915b505050505081565b7f000000000000000000000000000000000000000000000000000000000000000073ffffffffffffffffffffffffffffffffffffffff163373ffffffffffffffffffffffffffffffffffffffff16146118a6576040517f778e4c5e00000000000000000000000000000000000000000000000000000000815260040160405180910390fd5b600e889080600181540180825580915050600190039060005260206000200160009091909190915055604051806101000160405280898152602001888152602001878152602001868152602001858152602001848152602001831515815260200182815250600c60008a815260200190815260200160002060008201518160000155602082015181600101908051906020019061194492919061242b565b50604082015181600201908051906020019061196192919061242b565b50606082015181600301908051906020019061197e9291906124b1565b506080820151816004015560a0820151816005015560c08201518160060160006101000a81548160ff02191690831515021790555060e08201518160070190805190602001906119cf9291906124b1565b509050505050505050505050565b7f000000000000000000000000000000000000000000000000000000000000000081565b6060600e805480602002602001604051908101604052809291908181526020018280548015611a4f57602002820191906000526020600020905b815481526020019060010190808311611a3b575b5050505050905090565b60038054611a66906132a2565b80601f0160208091040260200160405190810160405280929190818152602001828054611a92906132a2565b8015611adf5780601f10611ab457610100808354040283529160200191611adf565b820191906000526020600020905b815481529060010190602001808311611ac257829003601f168201915b505050505081565b60085481565b7f000000000000000000000000000000000000000000000000000000000000000073ffffffffffffffffffffffffffffffffffffffff163373ffffffffffffffffffffffffffffffffffffffff1614611b72576040517f778e4c5e00000000000000000000000000000000000000000000000000000000815260040160405180910390fd5b6000600c6000838152602001908152602001600020600001541115611c1457600c6000828152602001908152602001600020600080820160009055600182016000611bbd9190612511565b600282016000611bcd9190612511565b600382016000611bdd9190612551565b600482016000905560058201600090556006820160006101000a81549060ff0219169055600782016000611c119190612551565b50505b50565b60006002811115611c2b57611c2a612789565b5b600a60009054906101000a900460ff166002811115611c4d57611c4c612789565b5b14611c84576040517ffa4021a300000000000000000000000000000000000000000000000000000000815260040160405180910390fd5b7f000000000000000000000000000000000000000000000000000000000000000073ffffffffffffffffffffffffffffffffffffffff163373ffffffffffffffffffffffffffffffffffffffff161415611d0a576040517f5b3890a000000000000000000000000000000000000000000000000000000000815260040160405180910390fd5b611d1f3460085461232490919063ffffffff16565b6008819055506000600c600034815260200190815260200160002060000154118015611d6c5750600c600034815260200190815260200160002060060160009054906101000a900460ff16155b15611e37576001600c600034815260200190815260200160002060050154611d949190613755565b506000600c60003481526020019081526020016000206005015411611e3657600c6000348152602001908152602001600020600080820160009055600182016000611ddf9190612511565b600282016000611def9190612511565b600382016000611dff9190612551565b600482016000905560058201600090556006820160006101000a81549060ff0219169055600782016000611e339190612551565b50505b5b600d60003373ffffffffffffffffffffffffffffffffffffffff1673ffffffffffffffffffffffffffffffffffffffff1681526020019081526020016000203490806001815401808255809150506001900390600052602060002001600090919091909150553373ffffffffffffffffffffffffffffffffffffffff167fe76ad748537a48e778fef43dda4a6bd1b50cd62385f9f21a9ca267492355120834600854604051611ee7929190613789565b60405180910390a2565b600c602052806000526040600020600091509050806000015490806001018054611f1a906132a2565b80601f0160208091040260200160405190810160405280929190818152602001828054611f46906132a2565b8015611f935780601f10611f6857610100808354040283529160200191611f93565b820191906000526020600020905b815481529060010190602001808311611f7657829003601f168201915b505050505090806002018054611fa8906132a2565b80601f0160208091040260200160405190810160405280929190818152602001828054611fd4906132a2565b80156120215780601f10611ff657610100808354040283529160200191612021565b820191906000526020600020905b81548152906001019060200180831161200457829003601f168201915b5050505050908060040154908060050154908060060160009054906101000a900460ff16905086565b6001600281111561205e5761205d612789565b5b600a60009054906101000a900460ff1660028111156120805761207f612789565b5b14156120b8576040517f651e73ae00000000000000000000000000000000000000000000000000000000815260040160405180910390fd5b6000600d60008373ffffffffffffffffffffffffffffffffffffffff1673ffffffffffffffffffffffffffffffffffffffff16815260200190815260200160002080549050141561214057806040517fc43858590000000000000000000000000000000000000000000000000000000081526004016121379190613368565b60405180910390fd5b60006121d8600d60008473ffffffffffffffffffffffffffffffffffffffff1673ffffffffffffffffffffffffffffffffffffffff1681526020019081526020016000208054806020026020016040519081016040528092919081815260200182805480156121ce57602002820191906000526020600020905b8154815260200190600101908083116121ba575b505050505061233a565b9050600d60008373ffffffffffffffffffffffffffffffffffffffff1673ffffffffffffffffffffffffffffffffffffffff16815260200190815260200160002060006122259190612572565b806008541015612261576040517f52c3b68400000000000000000000000000000000000000000000000000000000815260040160405180910390fd5b6122768160085461238c90919063ffffffff16565b60088190555060008273ffffffffffffffffffffffffffffffffffffffff16826040516122a290613717565b60006040518083038185875af1925050503d80600081146122df576040519150601f19603f3d011682016040523d82523d6000602084013e6122e4565b606091505b505090508061231f576040517f92e9f8f100000000000000000000000000000000000000000000000000000000815260040160405180910390fd5b505050565b600081836123329190613303565b905092915050565b600080600090505b82518110156123865782818151811061235e5761235d6137b2565b5b6020026020010151826123719190613303565b9150808061237e906137e1565b915050612342565b50919050565b6000818361239a9190613755565b905092915050565b604051806101800160405280600073ffffffffffffffffffffffffffffffffffffffff16815260200160608152602001606081526020016060815260200160608152602001600081526020016000815260200160008152602001600060028111156124105761240f612789565b5b81526020016060815260200160608152602001600081525090565b828054612437906132a2565b90600052602060002090601f01602090048101928261245957600085556124a0565b82601f1061247257805160ff19168380011785556124a0565b828001600101855582156124a0579182015b8281111561249f578251825591602001919060010190612484565b5b5090506124ad9190612593565b5090565b828054828255906000526020600020908101928215612500579160200282015b828111156124ff5782518290805190602001906124ef92919061242b565b50916020019190600101906124d1565b5b50905061250d91906125b0565b5090565b50805461251d906132a2565b6000825580601f1061252f575061254e565b601f01602090049060005260206000209081019061254d9190612593565b5b50565b508054600082559060005260206000209081019061256f91906125b0565b50565b50805460008255906000526020600020908101906125909190612593565b50565b5b808211156125ac576000816000905550600101612594565b5090565b5b808211156125d057600081816125c79190612511565b506001016125b1565b5090565b600073ffffffffffffffffffffffffffffffffffffffff82169050919050565b60006125ff826125d4565b9050919050565b61260f816125f4565b82525050565b600081519050919050565b600082825260208201905092915050565b60005b8381101561264f578082015181840152602081019050612634565b8381111561265e576000848401525b50505050565b6000601f19601f8301169050919050565b600061268082612615565b61268a8185612620565b935061269a818560208601612631565b6126a381612664565b840191505092915050565b600081519050919050565b600082825260208201905092915050565b6000819050602082019050919050565b60006126e68383612675565b905092915050565b6000602082019050919050565b6000612706826126ae565b61271081856126b9565b935083602082028501612722856126ca565b8060005b8581101561275e578484038952815161273f85826126da565b945061274a836126ee565b925060208a01995050600181019050612726565b50829750879550505050505092915050565b6000819050919050565b61278381612770565b82525050565b7f4e487b7100000000000000000000000000000000000000000000000000000000600052602160045260246000fd5b600381106127c9576127c8612789565b5b50565b60008190506127da826127b8565b919050565b60006127ea826127cc565b9050919050565b6127fa816127df565b82525050565b6000610180830160008301516128196000860182612606565b50602083015184820360208601526128318282612675565b9150506040830151848203604086015261284b8282612675565b915050606083015184820360608601526128658282612675565b9150506080830151848203608086015261287f82826126fb565b91505060a083015161289460a086018261277a565b5060c08301516128a760c086018261277a565b5060e08301516128ba60e086018261277a565b506101008301516128cf6101008601826127f1565b506101208301518482036101208601526128e98282612675565b9150506101408301518482036101408601526129058282612675565b91505061016083015161291c61016086018261277a565b508091505092915050565b600060208201905081810360008301526129418184612800565b905092915050565b61295281612770565b82525050565b600060208201905061296d6000830184612949565b92915050565b600082825260208201905092915050565b600061298f82612615565b6129998185612973565b93506129a9818560208601612631565b6129b281612664565b840191505092915050565b600060208201905081810360008301526129d78184612984565b905092915050565b6000604051905090565b600080fd5b600080fd5b6129fc816125f4565b8114612a0757600080fd5b50565b600081359050612a19816129f3565b92915050565b600060208284031215612a3557612a346129e9565b5b6000612a4384828501612a0a565b91505092915050565b600081519050919050565b600082825260208201905092915050565b6000819050602082019050919050565b6000612a84838361277a565b60208301905092915050565b6000602082019050919050565b6000612aa882612a4c565b612ab28185612a57565b9350612abd83612a68565b8060005b83811015612aee578151612ad58882612a78565b9750612ae083612a90565b925050600181019050612ac1565b5085935050505092915050565b60006020820190508181036000830152612b158184612a9d565b905092915050565b612b2681612770565b8114612b3157600080fd5b50565b600081359050612b4381612b1d565b92915050565b600060208284031215612b5f57612b5e6129e9565b5b6000612b6d84828501612b34565b91505092915050565b600080fd5b600080fd5b600080fd5b60008083601f840112612b9b57612b9a612b76565b5b8235905067ffffffffffffffff811115612bb857612bb7612b7b565b5b602083019150836001820283011115612bd457612bd3612b80565b5b9250929050565b60008060208385031215612bf257612bf16129e9565b5b600083013567ffffffffffffffff811115612c1057612c0f6129ee565b5b612c1c85828601612b85565b92509250509250929050565b600080fd5b7f4e487b7100000000000000000000000000000000000000000000000000000000600052604160045260246000fd5b612c6582612664565b810181811067ffffffffffffffff82111715612c8457612c83612c2d565b5b80604052505050565b6000612c976129df565b9050612ca38282612c5c565b919050565b600067ffffffffffffffff821115612cc357612cc2612c2d565b5b612ccc82612664565b9050602081019050919050565b82818337600083830152505050565b6000612cfb612cf684612ca8565b612c8d565b905082815260208101848484011115612d1757612d16612c28565b5b612d22848285612cd9565b509392505050565b600082601f830112612d3f57612d3e612b76565b5b8135612d4f848260208601612ce8565b91505092915050565b600060208284031215612d6e57612d6d6129e9565b5b600082013567ffffffffffffffff811115612d8c57612d8b6129ee565b5b612d9884828501612d2a565b91505092915050565b612daa816127df565b82525050565b6000602082019050612dc56000830184612da1565b92915050565b600067ffffffffffffffff821115612de657612de5612c2d565b5b612def82612664565b9050602081019050919050565b6000612e0f612e0a84612dcb565b612c8d565b905082815260208101848484011115612e2b57612e2a612c28565b5b612e36848285612cd9565b509392505050565b600082601f830112612e5357612e52612b76565b5b8135612e63848260208601612dfc565b91505092915050565b600060208284031215612e8257612e816129e9565b5b600082013567ffffffffffffffff811115612ea057612e9f6129ee565b5b612eac84828501612e3e565b91505092915050565b60008115159050919050565b612eca81612eb5565b82525050565b600081519050919050565b600082825260208201905092915050565b6000612ef782612ed0565b612f018185612edb565b9350612f11818560208601612631565b612f1a81612664565b840191505092915050565b6000604082019050612f3a6000830185612ec1565b8181036020830152612f4c8184612eec565b90509392505050565b60008060408385031215612f6c57612f6b6129e9565b5b6000612f7a85828601612a0a565b9250506020612f8b85828601612b34565b9150509250929050565b600067ffffffffffffffff821115612fb057612faf612c2d565b5b602082029050602081019050919050565b6000612fd4612fcf84612f95565b612c8d565b90508083825260208201905060208402830185811115612ff757612ff6612b80565b5b835b8181101561303e57803567ffffffffffffffff81111561301c5761301b612b76565b5b8086016130298982612d2a565b85526020850194505050602081019050612ff9565b5050509392505050565b600082601f83011261305d5761305c612b76565b5b813561306d848260208601612fc1565b91505092915050565b61307f81612eb5565b811461308a57600080fd5b50565b60008135905061309c81613076565b92915050565b600080600080600080600080610100898b0312156130c3576130c26129e9565b5b60006130d18b828c01612b34565b985050602089013567ffffffffffffffff8111156130f2576130f16129ee565b5b6130fe8b828c01612d2a565b975050604089013567ffffffffffffffff81111561311f5761311e6129ee565b5b61312b8b828c01612d2a565b965050606089013567ffffffffffffffff81111561314c5761314b6129ee565b5b6131588b828c01613048565b95505060806131698b828c01612b34565b94505060a061317a8b828c01612b34565b93505060c061318b8b828c0161308d565b92505060e089013567ffffffffffffffff8111156131ac576131ab6129ee565b5b6131b88b828c01613048565b9150509295985092959890939650565b60006131d3826125d4565b9050919050565b6131e3816131c8565b82525050565b60006020820190506131fe60008301846131da565b92915050565b600060c0820190506132196000830189612949565b818103602083015261322b8188612984565b9050818103604083015261323f8187612984565b905061324e6060830186612949565b61325b6080830185612949565b61326860a0830184612ec1565b979650505050505050565b7f4e487b7100000000000000000000000000000000000000000000000000000000600052602260045260246000fd5b600060028204905060018216806132ba57607f821691505b602082108114156132ce576132cd613273565b5b50919050565b7f4e487b7100000000000000000000000000000000000000000000000000000000600052601160045260246000fd5b600061330e82612770565b915061331983612770565b9250827fffffffffffffffffffffffffffffffffffffffffffffffffffffffffffffffff0382111561334e5761334d6132d4565b5b828201905092915050565b613362816125f4565b82525050565b600060208201905061337d6000830184613359565b92915050565b60008151905061339281612b1d565b92915050565b6000602082840312156133ae576133ad6129e9565b5b60006133bc84828501613383565b91505092915050565b7f6e6f2066756e6473000000000000000000000000000000000000000000000000600082015250565b60006133fb600883612973565b9150613406826133c5565b602082019050919050565b6000602082019050818103600083015261342a816133ee565b9050919050565b60008190508160005260206000209050919050565b60008154613453816132a2565b61345d8186612973565b94506001821660008114613478576001811461348a576134bd565b60ff19831686526020860193506134bd565b61349385613431565b60005b838110156134b557815481890152600182019150602081019050613496565b808801955050505b50505092915050565b7f3078000000000000000000000000000000000000000000000000000000000000600082015250565b60006134fc600283612edb565b9150613507826134c6565b602082019050919050565b6000819050919050565b600063ffffffff82169050919050565b6000819050919050565b600061355161354c61354784613512565b61352c565b61351c565b9050919050565b61356181613536565b82525050565b600061358261357d613578846125d4565b61352c565b6125d4565b9050919050565b600061359482613567565b9050919050565b60006135a682613589565b9050919050565b6135b68161359b565b82525050565b6000819050919050565b60006bffffffffffffffffffffffff82169050919050565b60006135f96135f46135ef846135bc565b61352c565b6135c6565b9050919050565b613609816135de565b82525050565b6000819050919050565b600060ff82169050919050565b600061364161363c6136378461360f565b61352c565b613619565b9050919050565b61365181613626565b82525050565b60006101008201905081810360008301526136728189613446565b90508181036020830152613685816134ef565b90506136946040830188613359565b6136a16060830187613558565b6136ae60808301866135ad565b81810360a08301526136bf816134ef565b90506136ce60c0830185613600565b6136db60e0830184613648565b979650505050505050565b600081905092915050565b50565b60006137016000836136e6565b915061370c826136f1565b600082019050919050565b6000613722826136f4565b9150819050919050565b600060408201905061374160008301856135ad565b61374e6020830184613359565b9392505050565b600061376082612770565b915061376b83612770565b92508282101561377e5761377d6132d4565b5b828203905092915050565b600060408201905061379e6000830185612949565b6137ab6020830184612949565b9392505050565b7f4e487b7100000000000000000000000000000000000000000000000000000000600052603260045260246000fd5b60006137ec82612770565b91507fffffffffffffffffffffffffffffffffffffffffffffffffffffffffffffffff82141561381f5761381e6132d4565b5b60018201905091905056fea26469706673582212207cb6638f2fa913e92264fd035dae7e8e7fafb39665808d2387fba594cb3cdab264736f6c63430008080033a2646970667358221220718aa39df8b7a064ed6b374be7f547c4eb569e55d3e3a7ae4b89fe45be811d5e64736f6c63430008080033",
  "devdoc": {
    "kind": "dev",
    "methods": {},
    "version": 1
  },
  "userdoc": {
    "kind": "user",
    "methods": {},
    "version": 1
  },
  "storageLayout": {
    "storage": [
      {
        "astId": 1487,
        "contract": "contracts/CrowdFunder.sol:CrowdFunder",
        "label": "campaignCounter",
        "offset": 0,
        "slot": "0",
        "type": "t_uint256"
      },
      {
        "astId": 1492,
        "contract": "contracts/CrowdFunder.sol:CrowdFunder",
        "label": "campaigns",
        "offset": 0,
        "slot": "1",
        "type": "t_mapping(t_address,t_contract(Campaign)1409)"
      }
    ],
    "types": {
      "t_address": {
        "encoding": "inplace",
        "label": "address",
        "numberOfBytes": "20"
      },
      "t_contract(Campaign)1409": {
        "encoding": "inplace",
        "label": "contract Campaign",
        "numberOfBytes": "20"
      },
      "t_mapping(t_address,t_contract(Campaign)1409)": {
        "encoding": "mapping",
        "key": "t_address",
        "label": "mapping(address => contract Campaign)",
        "numberOfBytes": "32",
        "value": "t_contract(Campaign)1409"
      },
      "t_uint256": {
        "encoding": "inplace",
        "label": "uint256",
        "numberOfBytes": "32"
      }
    }
  }
}