{
  "address": "0x7A9DCA3D445a851D80D359a9386Fd93F2b99956f",
  "abi": [
    {
      "inputs": [
        {
          "internalType": "address",
          "name": "_campaignAddress",
          "type": "address"
        }
      ],
      "name": "CrowdFunder__CampaignNotRefundable",
      "type": "error"
    },
    {
      "inputs": [
        {
          "internalType": "address",
          "name": "_campaignAddress",
          "type": "address"
        }
      ],
      "name": "CrowdFunder__CampaignStillActive",
      "type": "error"
    },
    {
      "inputs": [
        {
          "internalType": "address",
          "name": "_campaignAddress",
          "type": "address"
        }
      ],
      "name": "CrowdFunder__DonationFailed",
      "type": "error"
    },
    {
      "inputs": [
        {
          "internalType": "address",
          "name": "_caller",
          "type": "address"
        },
        {
          "internalType": "address",
          "name": "_campaignAddress",
          "type": "address"
        }
      ],
      "name": "CrowdFunder__NotCreator",
      "type": "error"
    },
    {
      "inputs": [
        {
          "internalType": "address",
          "name": "_campaignAddress",
          "type": "address"
        }
      ],
      "name": "CrowdFunder__RefundFailed",
      "type": "error"
    },
    {
      "anonymous": false,
      "inputs": [
        {
          "indexed": true,
          "internalType": "address",
          "name": "_campaignAddress",
          "type": "address"
        },
        {
          "indexed": true,
          "internalType": "address",
          "name": "_creator",
          "type": "address"
        },
        {
          "indexed": false,
          "internalType": "string",
          "name": "_title",
          "type": "string"
        },
        {
          "indexed": false,
          "internalType": "string",
          "name": "_description",
          "type": "string"
        },
        {
          "indexed": false,
          "internalType": "string",
          "name": "_category",
          "type": "string"
        },
        {
          "indexed": false,
          "internalType": "string[]",
          "name": "_tags",
          "type": "string[]"
        },
        {
          "indexed": false,
          "internalType": "uint256",
          "name": "_goalAmount",
          "type": "uint256"
        },
        {
          "indexed": false,
          "internalType": "uint256",
          "name": "_duration",
          "type": "uint256"
        },
        {
          "indexed": false,
          "internalType": "string",
          "name": "_campaignURI",
          "type": "string"
        }
      ],
      "name": "CampaignAdded",
      "type": "event"
    },
    {
      "anonymous": false,
      "inputs": [
        {
          "indexed": true,
          "internalType": "address",
          "name": "_campaignAddress",
          "type": "address"
        }
      ],
      "name": "CampaignCanceled",
      "type": "event"
    },
    {
      "anonymous": false,
      "inputs": [
        {
          "indexed": true,
          "internalType": "address",
          "name": "_funder",
          "type": "address"
        },
        {
          "indexed": true,
          "internalType": "address",
          "name": "_campaignAddress",
          "type": "address"
        }
      ],
      "name": "CampaignFunded",
      "type": "event"
    },
    {
      "anonymous": false,
      "inputs": [
        {
          "indexed": true,
          "internalType": "address",
          "name": "_withdrawer",
          "type": "address"
        },
        {
          "indexed": true,
          "internalType": "address",
          "name": "_campaignAddress",
          "type": "address"
        }
      ],
      "name": "CampaignShrunk",
      "type": "event"
    },
    {
      "anonymous": false,
      "inputs": [
        {
          "indexed": true,
          "internalType": "address",
          "name": "_address",
          "type": "address"
        },
        {
          "indexed": false,
          "internalType": "string",
          "name": "_username",
          "type": "string"
        },
        {
          "indexed": false,
          "internalType": "string",
          "name": "_twitter",
          "type": "string"
        },
        {
          "indexed": false,
          "internalType": "string",
          "name": "_email",
          "type": "string"
        },
        {
          "indexed": false,
          "internalType": "string",
          "name": "_bio",
          "type": "string"
        }
      ],
      "name": "UserAdded",
      "type": "event"
    },
    {
      "inputs": [
        {
          "internalType": "string",
          "name": "_title",
          "type": "string"
        },
        {
          "internalType": "string",
          "name": "_description",
          "type": "string"
        },
        {
          "internalType": "string",
          "name": "_category",
          "type": "string"
        },
        {
          "internalType": "string[]",
          "name": "_tags",
          "type": "string[]"
        },
        {
          "internalType": "uint256",
          "name": "_goalAmount",
          "type": "uint256"
        },
        {
          "internalType": "uint256",
          "name": "_duration",
          "type": "uint256"
        },
        {
          "internalType": "string",
          "name": "_campaignURI",
          "type": "string"
        },
        {
          "internalType": "address",
          "name": "_registryAddress",
          "type": "address"
        },
        {
          "internalType": "address",
          "name": "_linkTokenAddress",
          "type": "address"
        }
      ],
      "name": "addCampaign",
      "outputs": [],
      "stateMutability": "nonpayable",
      "type": "function"
    },
    {
      "inputs": [
        {
          "internalType": "address",
          "name": "_address",
          "type": "address"
        },
        {
          "internalType": "string",
          "name": "_username",
          "type": "string"
        },
        {
          "internalType": "string",
          "name": "_twitter",
          "type": "string"
        },
        {
          "internalType": "string",
          "name": "_email",
          "type": "string"
        },
        {
          "internalType": "string",
          "name": "_bio",
          "type": "string"
        }
      ],
      "name": "addUser",
      "outputs": [],
      "stateMutability": "nonpayable",
      "type": "function"
    },
    {
      "inputs": [
        {
          "internalType": "address",
          "name": "_campaignAddress",
          "type": "address"
        }
      ],
      "name": "cancelCampaign",
      "outputs": [],
      "stateMutability": "nonpayable",
      "type": "function"
    },
    {
      "inputs": [
        {
          "internalType": "address",
          "name": "_campaignAddress",
          "type": "address"
        }
      ],
      "name": "donateToCampaign",
      "outputs": [],
      "stateMutability": "payable",
      "type": "function"
    },
    {
      "inputs": [
        {
          "internalType": "address",
          "name": "_campaignAddress",
          "type": "address"
        }
      ],
      "name": "getCampaign",
      "outputs": [
        {
          "components": [
            {
              "internalType": "address",
              "name": "creator",
              "type": "address"
            },
            {
              "internalType": "string",
              "name": "title",
              "type": "string"
            },
            {
              "internalType": "string",
              "name": "description",
              "type": "string"
            },
            {
              "internalType": "string",
              "name": "category",
              "type": "string"
            },
            {
              "internalType": "string[]",
              "name": "tags",
              "type": "string[]"
            },
            {
              "internalType": "uint256",
              "name": "goalAmount",
              "type": "uint256"
            },
            {
              "internalType": "uint256",
              "name": "duration",
              "type": "uint256"
            },
            {
              "internalType": "uint256",
              "name": "currentBalance",
              "type": "uint256"
            },
            {
              "internalType": "enum Campaign.State",
              "name": "currentState",
              "type": "uint8"
            },
            {
              "internalType": "bool",
              "name": "nowRefundable",
              "type": "bool"
            }
          ],
          "internalType": "struct Campaign.CampaignObject",
          "name": "",
          "type": "tuple"
        }
      ],
      "stateMutability": "view",
      "type": "function"
    },
    {
      "inputs": [
        {
          "internalType": "address",
          "name": "_campaignAddress",
          "type": "address"
        },
        {
          "internalType": "address",
          "name": "_donator",
          "type": "address"
        }
      ],
      "name": "refundFromCampaign",
      "outputs": [],
      "stateMutability": "nonpayable",
      "type": "function"
    }
  ],
  "transactionHash": "0x134705bc6a37200e400da1710fa738165aa54b54b293a67ae46c206a0028bdfa",
  "args": [],
  "numDeployments": 5,
  "solcInputHash": "3cb2efce1290dfddb4344202b7a1a264",
  "bytecode": "0x608060405234801561001057600080fd5b50615e79806100206000396000f3fe6080604052600436106200005c5760003560e01c80630d6454a414620000615780630ddc7426146200008f578063359c4f3214620000bd578063731301cf14620000eb5780637c6abc82146200012f578063cd274a40146200014f575b600080fd5b3480156200006e57600080fd5b506200008d600480360381019062000087919062000d39565b6200017d565b005b3480156200009c57600080fd5b50620000bb6004803603810190620000b5919062001004565b620004b7565b005b348015620000ca57600080fd5b50620000e96004803603810190620000e391906200117e565b62000602565b005b348015620000f857600080fd5b5062000117600480360381019062000111919062000d39565b620008d6565b604051620001269190620014ea565b60405180910390f35b6200014d600480360381019062000147919062000d39565b620009cc565b005b3480156200015c57600080fd5b506200017b60048036038101906200017591906200150e565b62000bd5565b005b803373ffffffffffffffffffffffffffffffffffffffff166000808373ffffffffffffffffffffffffffffffffffffffff1673ffffffffffffffffffffffffffffffffffffffff16815260200190815260200160002060009054906101000a900473ffffffffffffffffffffffffffffffffffffffff1673ffffffffffffffffffffffffffffffffffffffff16630ee2cb106040518163ffffffff1660e01b815260040160206040518083038186803b1580156200023a57600080fd5b505afa1580156200024f573d6000803e3d6000fd5b505050506040513d601f19601f8201168201806040525081019062000275919062001629565b73ffffffffffffffffffffffffffffffffffffffff1614620002d25733816040517fd9e20da8000000000000000000000000000000000000000000000000000000008152600401620002c99291906200166c565b60405180910390fd5b60016000808473ffffffffffffffffffffffffffffffffffffffff1673ffffffffffffffffffffffffffffffffffffffff16815260200190815260200160002060009054906101000a900473ffffffffffffffffffffffffffffffffffffffff1673ffffffffffffffffffffffffffffffffffffffff16637fb3761e6040518163ffffffff1660e01b815260040160206040518083038186803b1580156200037957600080fd5b505afa1580156200038e573d6000803e3d6000fd5b505050506040513d601f19601f82011682018060405250810190620003b49190620016c1565b6001811115620003c957620003c86200134a565b5b14156200040f57816040517fdfecfddd000000000000000000000000000000000000000000000000000000008152600401620004069190620016f3565b60405180910390fd5b6000808373ffffffffffffffffffffffffffffffffffffffff1673ffffffffffffffffffffffffffffffffffffffff16815260200190815260200160002060006101000a81549073ffffffffffffffffffffffffffffffffffffffff02191690558173ffffffffffffffffffffffffffffffffffffffff167f3be3cf8b79824600b33b84642199163dc824bc8afdc691d0bcd8a849e39f92fc60405160405180910390a25050565b6000338a8a8a8a8a8a8a8a8a604051620004d19062000c32565b620004e69a9998979695949392919062001870565b604051809103906000f08015801562000503573d6000803e3d6000fd5b509050806000808373ffffffffffffffffffffffffffffffffffffffff1673ffffffffffffffffffffffffffffffffffffffff16815260200190815260200160002060006101000a81548173ffffffffffffffffffffffffffffffffffffffff021916908373ffffffffffffffffffffffffffffffffffffffff1602179055503373ffffffffffffffffffffffffffffffffffffffff168173ffffffffffffffffffffffffffffffffffffffff167f7565b777e0fa2e33fa9ae3171ecdb17380fe13af9eb9328e5d17900d12d8b7de8c8c8c8c8c8c8c604051620005ee979695949392919062001943565b60405180910390a350505050505050505050565b6000808373ffffffffffffffffffffffffffffffffffffffff1673ffffffffffffffffffffffffffffffffffffffff16815260200190815260200160002060009054906101000a900473ffffffffffffffffffffffffffffffffffffffff1673ffffffffffffffffffffffffffffffffffffffff1663eb8b60d76040518163ffffffff1660e01b815260040160206040518083038186803b158015620006a757600080fd5b505afa158015620006bc573d6000803e3d6000fd5b505050506040513d601f19601f82011682018060405250810190620006e2919062001a14565b15620008935760008273ffffffffffffffffffffffffffffffffffffffff1682604051602401620007149190620016f3565b6040516020818303038152906040527ffa89401a000000000000000000000000000000000000000000000000000000007bffffffffffffffffffffffffffffffffffffffffffffffffffffffff19166020820180517bffffffffffffffffffffffffffffffffffffffffffffffffffffffff8381831617835250505050604051620007a0919062001a93565b600060405180830381855af49150503d8060008114620007dd576040519150601f19603f3d011682016040523d82523d6000602084013e620007e2565b606091505b5050905080156200084d578273ffffffffffffffffffffffffffffffffffffffff163373ffffffffffffffffffffffffffffffffffffffff167f9054f43c2e3f0a33645e2d3215afde366ee1037949dd258158140d157d8614ce60405160405180910390a36200088c565b826040517f5bdf89f6000000000000000000000000000000000000000000000000000000008152600401620008839190620016f3565b60405180910390fd5b50620008d2565b816040517fac34b251000000000000000000000000000000000000000000000000000000008152600401620008c99190620016f3565b60405180910390fd5b5050565b620008e062000c40565b6000808373ffffffffffffffffffffffffffffffffffffffff1673ffffffffffffffffffffffffffffffffffffffff16815260200190815260200160002060009054906101000a900473ffffffffffffffffffffffffffffffffffffffff1673ffffffffffffffffffffffffffffffffffffffff16630c611f246040518163ffffffff1660e01b815260040160006040518083038186803b1580156200098557600080fd5b505afa1580156200099a573d6000803e3d6000fd5b505050506040513d6000823e3d601f19601f82011682018060405250810190620009c5919062001d9e565b9050919050565b6000808273ffffffffffffffffffffffffffffffffffffffff166040516024016040516020818303038152906040527fed88c68e000000000000000000000000000000000000000000000000000000007bffffffffffffffffffffffffffffffffffffffffffffffffffffffff19166020820180517bffffffffffffffffffffffffffffffffffffffffffffffffffffffff838183161783525050505060405162000a78919062001a93565b600060405180830381855af49150503d806000811462000ab5576040519150601f19603f3d011682016040523d82523d6000602084013e62000aba565b606091505b5091509150811562000b26578273ffffffffffffffffffffffffffffffffffffffff163373ffffffffffffffffffffffffffffffffffffffff167f406c70a06d8422cfeb8281878b74e291f0feca05e5fd54df2cfbdc386611673660405160405180910390a362000bd0565b60008151111562000b91578060405160200162000b44919062001a93565b6040516020818303038152906040526040517f08c379a000000000000000000000000000000000000000000000000000000000815260040162000b88919062001def565b60405180910390fd5b826040517ffe5dd8d300000000000000000000000000000000000000000000000000000000815260040162000bc79190620016f3565b60405180910390fd5b505050565b8473ffffffffffffffffffffffffffffffffffffffff167f10bb073e1ce0977d8bf7b641de8a59b02dd9c9d1c4badc9b30e5a48ac9fc8cb98585858560405162000c23949392919062001e13565b60405180910390a25050505050565b613fc78062001e7d83390190565b604051806101400160405280600073ffffffffffffffffffffffffffffffffffffffff168152602001606081526020016060815260200160608152602001606081526020016000815260200160008152602001600081526020016000600181111562000cb15762000cb06200134a565b5b81526020016000151581525090565b6000604051905090565b600080fd5b600080fd5b600073ffffffffffffffffffffffffffffffffffffffff82169050919050565b600062000d018262000cd4565b9050919050565b62000d138162000cf4565b811462000d1f57600080fd5b50565b60008135905062000d338162000d08565b92915050565b60006020828403121562000d525762000d5162000cca565b5b600062000d628482850162000d22565b91505092915050565b600080fd5b600080fd5b6000601f19601f8301169050919050565b7f4e487b7100000000000000000000000000000000000000000000000000000000600052604160045260246000fd5b62000dc08262000d75565b810181811067ffffffffffffffff8211171562000de25762000de162000d86565b5b80604052505050565b600062000df762000cc0565b905062000e05828262000db5565b919050565b600067ffffffffffffffff82111562000e285762000e2762000d86565b5b62000e338262000d75565b9050602081019050919050565b82818337600083830152505050565b600062000e6662000e608462000e0a565b62000deb565b90508281526020810184848401111562000e855762000e8462000d70565b5b62000e9284828562000e40565b509392505050565b600082601f83011262000eb25762000eb162000d6b565b5b813562000ec484826020860162000e4f565b91505092915050565b600067ffffffffffffffff82111562000eeb5762000eea62000d86565b5b602082029050602081019050919050565b600080fd5b600062000f1862000f128462000ecd565b62000deb565b9050808382526020820190506020840283018581111562000f3e5762000f3d62000efc565b5b835b8181101562000f8c57803567ffffffffffffffff81111562000f675762000f6662000d6b565b5b80860162000f76898262000e9a565b8552602085019450505060208101905062000f40565b5050509392505050565b600082601f83011262000fae5762000fad62000d6b565b5b813562000fc084826020860162000f01565b91505092915050565b6000819050919050565b62000fde8162000fc9565b811462000fea57600080fd5b50565b60008135905062000ffe8162000fd3565b92915050565b60008060008060008060008060006101208a8c0312156200102a576200102962000cca565b5b60008a013567ffffffffffffffff8111156200104b576200104a62000ccf565b5b620010598c828d0162000e9a565b99505060208a013567ffffffffffffffff8111156200107d576200107c62000ccf565b5b6200108b8c828d0162000e9a565b98505060408a013567ffffffffffffffff811115620010af57620010ae62000ccf565b5b620010bd8c828d0162000e9a565b97505060608a013567ffffffffffffffff811115620010e157620010e062000ccf565b5b620010ef8c828d0162000f96565b9650506080620011028c828d0162000fed565b95505060a0620011158c828d0162000fed565b94505060c08a013567ffffffffffffffff81111562001139576200113862000ccf565b5b620011478c828d0162000e9a565b93505060e06200115a8c828d0162000d22565b9250506101006200116e8c828d0162000d22565b9150509295985092959850929598565b6000806040838503121562001198576200119762000cca565b5b6000620011a88582860162000d22565b9250506020620011bb8582860162000d22565b9150509250929050565b620011d08162000cf4565b82525050565b600081519050919050565b600082825260208201905092915050565b60005b8381101562001212578082015181840152602081019050620011f5565b8381111562001222576000848401525b50505050565b60006200123582620011d6565b620012418185620011e1565b935062001253818560208601620011f2565b6200125e8162000d75565b840191505092915050565b600081519050919050565b600082825260208201905092915050565b6000819050602082019050919050565b6000620012a3838362001228565b905092915050565b6000602082019050919050565b6000620012c58262001269565b620012d1818562001274565b935083602082028501620012e58562001285565b8060005b8581101562001327578484038952815162001305858262001295565b94506200131283620012ab565b925060208a01995050600181019050620012e9565b50829750879550505050505092915050565b620013448162000fc9565b82525050565b7f4e487b7100000000000000000000000000000000000000000000000000000000600052602160045260246000fd5b600281106200138d576200138c6200134a565b5b50565b6000819050620013a08262001379565b919050565b6000620013b28262001390565b9050919050565b620013c481620013a5565b82525050565b60008115159050919050565b620013e181620013ca565b82525050565b600061014083016000830151620014026000860182620011c5565b50602083015184820360208601526200141c828262001228565b9150506040830151848203604086015262001438828262001228565b9150506060830151848203606086015262001454828262001228565b91505060808301518482036080860152620014708282620012b8565b91505060a08301516200148760a086018262001339565b5060c08301516200149c60c086018262001339565b5060e0830151620014b160e086018262001339565b50610100830151620014c8610100860182620013b9565b50610120830151620014df610120860182620013d6565b508091505092915050565b60006020820190508181036000830152620015068184620013e7565b905092915050565b600080600080600060a086880312156200152d576200152c62000cca565b5b60006200153d8882890162000d22565b955050602086013567ffffffffffffffff81111562001561576200156062000ccf565b5b6200156f8882890162000e9a565b945050604086013567ffffffffffffffff81111562001593576200159262000ccf565b5b620015a18882890162000e9a565b935050606086013567ffffffffffffffff811115620015c557620015c462000ccf565b5b620015d38882890162000e9a565b925050608086013567ffffffffffffffff811115620015f757620015f662000ccf565b5b620016058882890162000e9a565b9150509295509295909350565b600081519050620016238162000d08565b92915050565b60006020828403121562001642576200164162000cca565b5b6000620016528482850162001612565b91505092915050565b620016668162000cf4565b82525050565b60006040820190506200168360008301856200165b565b6200169260208301846200165b565b9392505050565b60028110620016a757600080fd5b50565b600081519050620016bb8162001699565b92915050565b600060208284031215620016da57620016d962000cca565b5b6000620016ea84828501620016aa565b91505092915050565b60006020820190506200170a60008301846200165b565b92915050565b6000819050919050565b60006200173b620017356200172f8462000cd4565b62001710565b62000cd4565b9050919050565b60006200174f826200171a565b9050919050565b6000620017638262001742565b9050919050565b620017758162001756565b82525050565b600082825260208201905092915050565b60006200179982620011d6565b620017a581856200177b565b9350620017b7818560208601620011f2565b620017c28162000d75565b840191505092915050565b600082825260208201905092915050565b6000620017eb8262001269565b620017f78185620017cd565b9350836020820285016200180b8562001285565b8060005b858110156200184d57848403895281516200182b858262001295565b94506200183883620012ab565b925060208a019950506001810190506200180f565b50829750879550505050505092915050565b6200186a8162000fc9565b82525050565b60006101408201905062001888600083018d6200176a565b81810360208301526200189c818c6200178c565b90508181036040830152620018b2818b6200178c565b90508181036060830152620018c8818a6200178c565b90508181036080830152620018de8189620017de565b9050620018ef60a08301886200185f565b620018fe60c08301876200185f565b81810360e08301526200191281866200178c565b9050620019246101008301856200165b565b620019346101208301846200165b565b9b9a5050505050505050505050565b600060e08201905081810360008301526200195f818a6200178c565b905081810360208301526200197581896200178c565b905081810360408301526200198b81886200178c565b90508181036060830152620019a18187620017de565b9050620019b260808301866200185f565b620019c160a08301856200185f565b81810360c0830152620019d581846200178c565b905098975050505050505050565b620019ee81620013ca565b8114620019fa57600080fd5b50565b60008151905062001a0e81620019e3565b92915050565b60006020828403121562001a2d5762001a2c62000cca565b5b600062001a3d84828501620019fd565b91505092915050565b600081519050919050565b600081905092915050565b600062001a698262001a46565b62001a75818562001a51565b935062001a87818560208601620011f2565b80840191505092915050565b600062001aa1828462001a5c565b915081905092915050565b600080fd5b600080fd5b600062001acd62001ac78462000e0a565b62000deb565b90508281526020810184848401111562001aec5762001aeb62000d70565b5b62001af9848285620011f2565b509392505050565b600082601f83011262001b195762001b1862000d6b565b5b815162001b2b84826020860162001ab6565b91505092915050565b600062001b4b62001b458462000ecd565b62000deb565b9050808382526020820190506020840283018581111562001b715762001b7062000efc565b5b835b8181101562001bbf57805167ffffffffffffffff81111562001b9a5762001b9962000d6b565b5b80860162001ba9898262001b01565b8552602085019450505060208101905062001b73565b5050509392505050565b600082601f83011262001be15762001be062000d6b565b5b815162001bf384826020860162001b34565b91505092915050565b60008151905062001c0d8162000fd3565b92915050565b6000610140828403121562001c2d5762001c2c62001aac565b5b62001c3a61014062000deb565b9050600062001c4c8482850162001612565b600083015250602082015167ffffffffffffffff81111562001c735762001c7262001ab1565b5b62001c818482850162001b01565b602083015250604082015167ffffffffffffffff81111562001ca85762001ca762001ab1565b5b62001cb68482850162001b01565b604083015250606082015167ffffffffffffffff81111562001cdd5762001cdc62001ab1565b5b62001ceb8482850162001b01565b606083015250608082015167ffffffffffffffff81111562001d125762001d1162001ab1565b5b62001d208482850162001bc9565b60808301525060a062001d368482850162001bfc565b60a08301525060c062001d4c8482850162001bfc565b60c08301525060e062001d628482850162001bfc565b60e08301525061010062001d7984828501620016aa565b6101008301525061012062001d9184828501620019fd565b6101208301525092915050565b60006020828403121562001db75762001db662000cca565b5b600082015167ffffffffffffffff81111562001dd85762001dd762000ccf565b5b62001de68482850162001c13565b91505092915050565b6000602082019050818103600083015262001e0b81846200178c565b905092915050565b6000608082019050818103600083015262001e2f81876200178c565b9050818103602083015262001e4581866200178c565b9050818103604083015262001e5b81856200178c565b9050818103606083015262001e7181846200178c565b90509594505050505056fe60806040526000600b60006101000a81548160ff021916908360018111156200002d576200002c620004f4565b5b02179055503480156200003f57600080fd5b5060405162003fc738038062003fc783398181016040528101906200006591906200085c565b896000806101000a81548173ffffffffffffffffffffffffffffffffffffffff021916908373ffffffffffffffffffffffffffffffffffffffff1602179055508860019080519060200190620000bd92919062000361565b508760029080519060200190620000d692919062000361565b508660039080519060200190620000ef92919062000361565b50856004908051906020019062000108929190620003f2565b50846005819055504260098190555062278d006009546200012a919062000a1c565b600a819055506200014e600954600a546200034960201b62001a4c1790919060201c565b841115620001805762000174600954600a546200034960201b62001a4c1790919060201c565b60068190555062000188565b836006819055505b8260079080519060200190620001a092919062000361565b5060006008819055506000600d60006101000a81548160ff0219169083151502179055506001600d60016101000a81548160ff02191690831515021790555060008282604051620001f19062000459565b620001fe92919062000a8a565b604051809103906000f0801580156200021b573d6000803e3d6000fd5b50905060008290508073ffffffffffffffffffffffffffffffffffffffff166323b872dd3384676f05b59d3b2000006040518463ffffffff1660e01b81526004016200026a9392919062000b04565b602060405180830381600087803b1580156200028557600080fd5b505af11580156200029a573d6000803e3d6000fd5b505050506040513d601f19601f82011682018060405250810190620002c0919062000b7e565b508173ffffffffffffffffffffffffffffffffffffffff1663c34f5c913060016113886040518463ffffffff1660e01b8152600401620003039392919062000d1a565b600060405180830381600087803b1580156200031e57600080fd5b505af115801562000333573d6000803e3d6000fd5b5050505050505050505050505050505062000d99565b6000818362000359919062000d5e565b905092915050565b8280546200036f9062000bdf565b90600052602060002090601f016020900481019282620003935760008555620003df565b82601f10620003ae57805160ff1916838001178555620003df565b82800160010185558215620003df579182015b82811115620003de578251825591602001919060010190620003c1565b5b509050620003ee919062000467565b5090565b82805482825590600052602060002090810192821562000446579160200282015b82811115620004455782518290805190602001906200043492919062000361565b509160200191906001019062000413565b5b50905062000455919062000486565b5090565b610b37806200349083390190565b5b808211156200048257600081600090555060010162000468565b5090565b5b80821115620004aa5760008181620004a09190620004ae565b5060010162000487565b5090565b508054620004bc9062000bdf565b6000825580601f10620004d05750620004f1565b601f016020900490600052602060002090810190620004f0919062000467565b5b50565b7f4e487b7100000000000000000000000000000000000000000000000000000000600052602160045260246000fd5b6000604051905090565b600080fd5b600080fd5b600073ffffffffffffffffffffffffffffffffffffffff82169050919050565b6000620005648262000537565b9050919050565b620005768162000557565b81146200058257600080fd5b50565b60008151905062000596816200056b565b92915050565b600080fd5b600080fd5b6000601f19601f8301169050919050565b7f4e487b7100000000000000000000000000000000000000000000000000000000600052604160045260246000fd5b620005f182620005a6565b810181811067ffffffffffffffff82111715620006135762000612620005b7565b5b80604052505050565b60006200062862000523565b9050620006368282620005e6565b919050565b600067ffffffffffffffff821115620006595762000658620005b7565b5b6200066482620005a6565b9050602081019050919050565b60005b838110156200069157808201518184015260208101905062000674565b83811115620006a1576000848401525b50505050565b6000620006be620006b8846200063b565b6200061c565b905082815260208101848484011115620006dd57620006dc620005a1565b5b620006ea84828562000671565b509392505050565b600082601f8301126200070a57620007096200059c565b5b81516200071c848260208601620006a7565b91505092915050565b600067ffffffffffffffff821115620007435762000742620005b7565b5b602082029050602081019050919050565b600080fd5b6000620007706200076a8462000725565b6200061c565b9050808382526020820190506020840283018581111562000796576200079562000754565b5b835b81811015620007e457805167ffffffffffffffff811115620007bf57620007be6200059c565b5b808601620007ce8982620006f2565b8552602085019450505060208101905062000798565b5050509392505050565b600082601f8301126200080657620008056200059c565b5b81516200081884826020860162000759565b91505092915050565b6000819050919050565b620008368162000821565b81146200084257600080fd5b50565b60008151905062000856816200082b565b92915050565b6000806000806000806000806000806101408b8d0312156200088357620008826200052d565b5b6000620008938d828e0162000585565b9a505060208b015167ffffffffffffffff811115620008b757620008b662000532565b5b620008c58d828e01620006f2565b99505060408b015167ffffffffffffffff811115620008e957620008e862000532565b5b620008f78d828e01620006f2565b98505060608b015167ffffffffffffffff8111156200091b576200091a62000532565b5b620009298d828e01620006f2565b97505060808b015167ffffffffffffffff8111156200094d576200094c62000532565b5b6200095b8d828e01620007ee565b96505060a06200096e8d828e0162000845565b95505060c0620009818d828e0162000845565b94505060e08b015167ffffffffffffffff811115620009a557620009a462000532565b5b620009b38d828e01620006f2565b935050610100620009c78d828e0162000585565b925050610120620009db8d828e0162000585565b9150509295989b9194979a5092959850565b7f4e487b7100000000000000000000000000000000000000000000000000000000600052601160045260246000fd5b600062000a298262000821565b915062000a368362000821565b9250827fffffffffffffffffffffffffffffffffffffffffffffffffffffffffffffffff0382111562000a6e5762000a6d620009ed565b5b828201905092915050565b62000a848162000557565b82525050565b600060408201905062000aa1600083018562000a79565b62000ab0602083018462000a79565b9392505050565b6000819050919050565b6000819050919050565b600062000aec62000ae662000ae08462000ab7565b62000ac1565b62000821565b9050919050565b62000afe8162000acb565b82525050565b600060608201905062000b1b600083018662000a79565b62000b2a602083018562000a79565b62000b39604083018462000af3565b949350505050565b60008115159050919050565b62000b588162000b41565b811462000b6457600080fd5b50565b60008151905062000b788162000b4d565b92915050565b60006020828403121562000b975762000b966200052d565b5b600062000ba78482850162000b67565b91505092915050565b7f4e487b7100000000000000000000000000000000000000000000000000000000600052602260045260246000fd5b6000600282049050600182168062000bf857607f821691505b6020821081141562000c0f5762000c0e62000bb0565b5b50919050565b600082825260208201905092915050565b60008190508160005260206000209050919050565b6000815462000c4a8162000bdf565b62000c56818662000c15565b9450600182166000811462000c74576001811462000c875762000cbe565b60ff198316865260208601935062000cbe565b62000c928562000c26565b60005b8381101562000cb65781548189015260018201915060208101905062000c95565b808801955050505b50505092915050565b6000819050919050565b600063ffffffff82169050919050565b600062000d0262000cfc62000cf68462000cc7565b62000ac1565b62000cd1565b9050919050565b62000d148162000ce1565b82525050565b600060608201905062000d31600083018662000a79565b818103602083015262000d45818562000c3b565b905062000d56604083018462000d09565b949350505050565b600062000d6b8262000821565b915062000d788362000821565b92508282101562000d8e5762000d8d620009ed565b5b828203905092915050565b6126e78062000da96000396000f3fe6080604052600436106101b75760003560e01c806363bd1d4a116100ec578063ce845d1d1161008a578063eb8b60d711610064578063eb8b60d7146105dd578063ed88c68e14610608578063ef430aa614610612578063fa89401a1461063d576101b7565b8063ce845d1d1461055e578063db912e3714610589578063ead1b1bf146105b4576101b7565b80637284e416116100c65780637284e416146104a05780637fb3761e146104cb578063c19d93fb146104f6578063cc6cb19a14610521576101b7565b806363bd1d4a146104345780636e04ff0d1461044b57806371aac7f914610489576101b7565b80631b50ad09116101595780634298b0cd116101335780634298b0cd1461038c5780634585e33b146103b75780634a79d50c146103e05780634d695bdb1461040b576101b7565b80631b50ad09146102fb57806320822abc146103245780632636b94514610361576101b7565b80630ee2cb10116101955780630ee2cb101461023d5780630fb5a6b41461026857806312065fe0146102935780631910bdc2146102be576101b7565b806302d05d3f146101bc5780630c611f24146101e75780630edd9cc214610212575b600080fd5b3480156101c857600080fd5b506101d1610666565b6040516101de9190611bd9565b60405180910390f35b3480156101f357600080fd5b506101fc61068a565b6040516102099190611f0a565b60405180910390f35b34801561021e57600080fd5b506102276109ba565b6040516102349190611f3b565b60405180910390f35b34801561024957600080fd5b506102526109cd565b60405161025f9190611f65565b60405180910390f35b34801561027457600080fd5b5061027d6109f6565b60405161028a9190611f8f565b60405180910390f35b34801561029f57600080fd5b506102a86109fc565b6040516102b59190611f8f565b60405180910390f35b3480156102ca57600080fd5b506102e560048036038101906102e09190611fea565b610a06565b6040516102f29190611f8f565b60405180910390f35b34801561030757600080fd5b50610322600480360381019061031d9190612043565b610a4f565b005b34801561033057600080fd5b5061034b60048036038101906103469190612043565b610b49565b60405161035891906120ba565b60405180910390f35b34801561036d57600080fd5b50610376610bf5565b6040516103839190611f8f565b60405180910390f35b34801561039857600080fd5b506103a1610bfb565b6040516103ae9190611f3b565b60405180910390f35b3480156103c357600080fd5b506103de60048036038101906103d99190612141565b610c0e565b005b3480156103ec57600080fd5b506103f5610d42565b60405161040291906120ba565b60405180910390f35b34801561041757600080fd5b50610432600480360381019061042d91906122be565b610dd0565b005b34801561044057600080fd5b50610449610e7a565b005b34801561045757600080fd5b50610472600480360381019061046d91906123a8565b6110ac565b604051610480929190612446565b60405180910390f35b34801561049557600080fd5b5061049e61115f565b005b3480156104ac57600080fd5b506104b561130d565b6040516104c291906120ba565b60405180910390f35b3480156104d757600080fd5b506104e061139b565b6040516104ed9190612485565b60405180910390f35b34801561050257600080fd5b5061050b6113b2565b6040516105189190612485565b60405180910390f35b34801561052d57600080fd5b5061054860048036038101906105439190611fea565b6113c5565b6040516105559190611f8f565b60405180910390f35b34801561056a57600080fd5b506105736113dd565b6040516105809190611f8f565b60405180910390f35b34801561059557600080fd5b5061059e6113e3565b6040516105ab91906120ba565b60405180910390f35b3480156105c057600080fd5b506105db60048036038101906105d69190612043565b611471565b005b3480156105e957600080fd5b506105f261150b565b6040516105ff9190611f3b565b60405180910390f35b610610611522565b005b34801561061e57600080fd5b5061062761172f565b60405161063491906120ba565b60405180910390f35b34801561064957600080fd5b50610664600480360381019061065f9190611fea565b6117bd565b005b60008054906101000a900473ffffffffffffffffffffffffffffffffffffffff1681565b610692611a78565b60405180610140016040528060008054906101000a900473ffffffffffffffffffffffffffffffffffffffff1673ffffffffffffffffffffffffffffffffffffffff168152602001600180546106e7906124cf565b80601f0160208091040260200160405190810160405280929190818152602001828054610713906124cf565b80156107605780601f1061073557610100808354040283529160200191610760565b820191906000526020600020905b81548152906001019060200180831161074357829003601f168201915b5050505050815260200160028054610777906124cf565b80601f01602080910402602001604051908101604052809291908181526020018280546107a3906124cf565b80156107f05780601f106107c5576101008083540402835291602001916107f0565b820191906000526020600020905b8154815290600101906020018083116107d357829003601f168201915b5050505050815260200160038054610807906124cf565b80601f0160208091040260200160405190810160405280929190818152602001828054610833906124cf565b80156108805780601f1061085557610100808354040283529160200191610880565b820191906000526020600020905b81548152906001019060200180831161086357829003601f168201915b505050505081526020016004805480602002602001604051908101604052809291908181526020016000905b828210156109585783829060005260206000200180546108cb906124cf565b80601f01602080910402602001604051908101604052809291908181526020018280546108f7906124cf565b80156109445780601f1061091957610100808354040283529160200191610944565b820191906000526020600020905b81548152906001019060200180831161092757829003601f168201915b5050505050815260200190600101906108ac565b505050508152602001600554815260200160065481526020016008548152602001600b60009054906101000a900460ff16600181111561099b5761099a611d89565b5b8152602001600d60019054906101000a900460ff161515815250905090565b600d60019054906101000a900460ff1681565b60008060009054906101000a900473ffffffffffffffffffffffffffffffffffffffff16905090565b60065481565b6000600854905090565b6000600c60008373ffffffffffffffffffffffffffffffffffffffff1673ffffffffffffffffffffffffffffffffffffffff168152602001908152602001600020549050919050565b60008054906101000a900473ffffffffffffffffffffffffffffffffffffffff1673ffffffffffffffffffffffffffffffffffffffff163373ffffffffffffffffffffffffffffffffffffffff1614610adf57336040517fef54c817000000000000000000000000000000000000000000000000000000008152600401610ad69190611f65565b60405180910390fd5b610af6600954600a54611a4c90919063ffffffff16565b60065482610b049190612530565b1115610b2c57610b21600954600a54611a4c90919063ffffffff16565b600681905550610b46565b8060066000828254610b3e9190612530565b925050819055505b50565b60048181548110610b5957600080fd5b906000526020600020016000915090508054610b74906124cf565b80601f0160208091040260200160405190810160405280929190818152602001828054610ba0906124cf565b8015610bed5780601f10610bc257610100808354040283529160200191610bed565b820191906000526020600020905b815481529060010190602001808311610bd057829003601f168201915b505050505081565b60055481565b600d60009054906101000a900460ff1681565b6000610c28604051806020016040528060008152506110ac565b50905080610c62576040517f311f87a100000000000000000000000000000000000000000000000000000000815260040160405180910390fd5b6001600d60006101000a81548160ff0219169083151502179055506000600d60016101000a81548160ff0219169083151502179055506001600b60006101000a81548160ff02191690836001811115610cbe57610cbd611d89565b5b02179055507f5cf8cd2bd40f758a95257bed666285eb82801f1bf9223b8ec1481e510ba2e82d30604051610cf29190611f65565b60405180910390a160055460085410610d3d577f5369558c667e962b633128a01c31764d053da51f61d17370d327ed17f77deccc30604051610d349190611f65565b60405180910390a15b505050565b60018054610d4f906124cf565b80601f0160208091040260200160405190810160405280929190818152602001828054610d7b906124cf565b8015610dc85780601f10610d9d57610100808354040283529160200191610dc8565b820191906000526020600020905b815481529060010190602001808311610dab57829003601f168201915b505050505081565b60008054906101000a900473ffffffffffffffffffffffffffffffffffffffff1673ffffffffffffffffffffffffffffffffffffffff163373ffffffffffffffffffffffffffffffffffffffff1614610e6057336040517fef54c817000000000000000000000000000000000000000000000000000000008152600401610e579190611f65565b60405180910390fd5b8060079080519060200190610e76929190611af5565b5050565b60008054906101000a900473ffffffffffffffffffffffffffffffffffffffff1673ffffffffffffffffffffffffffffffffffffffff163373ffffffffffffffffffffffffffffffffffffffff1614610f0a57336040517fef54c817000000000000000000000000000000000000000000000000000000008152600401610f019190611f65565b60405180910390fd5b600d60009054906101000a900460ff16610f5b57306040517f8019f726000000000000000000000000000000000000000000000000000000008152600401610f529190611f65565b60405180910390fd5b60006008549050600060088190555060008060009054906101000a900473ffffffffffffffffffffffffffffffffffffffff1673ffffffffffffffffffffffffffffffffffffffff1682604051610fb1906125b7565b60006040518083038185875af1925050503d8060008114610fee576040519150601f19603f3d011682016040523d82523d6000602084013e610ff3565b606091505b505090508015611076576000600d60016101000a81548160ff0219169083151502179055507fba5e837743d81ad0e6deb16089dbb65b549fdda8ad802fd8d4822884d70dc8b260008054906101000a900473ffffffffffffffffffffffffffffffffffffffff163060405161106992919061262b565b60405180910390a16110a8565b6040517f11456ffb00000000000000000000000000000000000000000000000000000000815260040160405180910390fd5b5050565b6000606060008060018111156110c5576110c4611d89565b5b600b60009054906101000a900460ff1660018111156110e7576110e6611d89565b5b1490506000600654600954426110fd9190612654565b119050600080471190508180156111115750825b801561111a5750805b9450846040518060400160405280600381526020017f307830000000000000000000000000000000000000000000000000000000000081525094509450505050915091565b60008054906101000a900473ffffffffffffffffffffffffffffffffffffffff1673ffffffffffffffffffffffffffffffffffffffff163373ffffffffffffffffffffffffffffffffffffffff16146111ef57336040517fef54c8170000000000000000000000000000000000000000000000000000000081526004016111e69190611f65565b60405180910390fd5b60018081111561120257611201611d89565b5b600b60009054906101000a900460ff16600181111561122457611223611d89565b5b141561126757306040517fd6d7e5c100000000000000000000000000000000000000000000000000000000815260040161125e9190611f65565b60405180910390fd5b6001600b60006101000a81548160ff0219169083600181111561128d5761128c611d89565b5b02179055506000600d60016101000a81548160ff021916908315150217905550600060085411156112d4576001600d60006101000a81548160ff0219169083151502179055505b7f5cf8cd2bd40f758a95257bed666285eb82801f1bf9223b8ec1481e510ba2e82d306040516113039190611f65565b60405180910390a1565b6002805461131a906124cf565b80601f0160208091040260200160405190810160405280929190818152602001828054611346906124cf565b80156113935780601f1061136857610100808354040283529160200191611393565b820191906000526020600020905b81548152906001019060200180831161137657829003601f168201915b505050505081565b6000600b60009054906101000a900460ff16905090565b600b60009054906101000a900460ff1681565b600c6020528060005260406000206000915090505481565b60085481565b600780546113f0906124cf565b80601f016020809104026020016040519081016040528092919081815260200182805461141c906124cf565b80156114695780601f1061143e57610100808354040283529160200191611469565b820191906000526020600020905b81548152906001019060200180831161144c57829003601f168201915b505050505081565b60008054906101000a900473ffffffffffffffffffffffffffffffffffffffff1673ffffffffffffffffffffffffffffffffffffffff163373ffffffffffffffffffffffffffffffffffffffff161461150157336040517fef54c8170000000000000000000000000000000000000000000000000000000081526004016114f89190611f65565b60405180910390fd5b8060058190555050565b6000600d60019054906101000a900460ff16905090565b6000600181111561153657611535611d89565b5b600b60009054906101000a900460ff16600181111561155857611557611d89565b5b1461159a57306040517fd6d7e5c10000000000000000000000000000000000000000000000000000000081526004016115919190611f65565b60405180910390fd5b60008054906101000a900473ffffffffffffffffffffffffffffffffffffffff1673ffffffffffffffffffffffffffffffffffffffff163373ffffffffffffffffffffffffffffffffffffffff16141561162b57336040517f911018950000000000000000000000000000000000000000000000000000000081526004016116229190611f65565b60405180910390fd5b61167d34600c60003373ffffffffffffffffffffffffffffffffffffffff1673ffffffffffffffffffffffffffffffffffffffff16815260200190815260200160002054611a6290919063ffffffff16565b600c60003373ffffffffffffffffffffffffffffffffffffffff1673ffffffffffffffffffffffffffffffffffffffff168152602001908152602001600020819055506116d534600854611a6290919063ffffffff16565b6008819055503373ffffffffffffffffffffffffffffffffffffffff167fe76ad748537a48e778fef43dda4a6bd1b50cd62385f9f21a9ca267492355120834600854604051611725929190612688565b60405180910390a2565b6003805461173c906124cf565b80601f0160208091040260200160405190810160405280929190818152602001828054611768906124cf565b80156117b55780601f1061178a576101008083540402835291602001916117b5565b820191906000526020600020905b81548152906001019060200180831161179857829003601f168201915b505050505081565b6001808111156117d0576117cf611d89565b5b600b60009054906101000a900460ff1660018111156117f2576117f1611d89565b5b141561183557306040517fd6d7e5c100000000000000000000000000000000000000000000000000000000815260040161182c9190611f65565b60405180910390fd5b6000600c60008373ffffffffffffffffffffffffffffffffffffffff1673ffffffffffffffffffffffffffffffffffffffff16815260200190815260200160002054116118b957806040517fc43858590000000000000000000000000000000000000000000000000000000081526004016118b09190611f65565b60405180910390fd5b6000600c60008373ffffffffffffffffffffffffffffffffffffffff1673ffffffffffffffffffffffffffffffffffffffff1681526020019081526020016000205490506000600c60008473ffffffffffffffffffffffffffffffffffffffff1673ffffffffffffffffffffffffffffffffffffffff1681526020019081526020016000208190555080600854101561198957306040517f6db510f50000000000000000000000000000000000000000000000000000000081526004016119809190611f65565b60405180910390fd5b61199e81600854611a4c90919063ffffffff16565b60088190555060008273ffffffffffffffffffffffffffffffffffffffff16826040516119ca906125b7565b60006040518083038185875af1925050503d8060008114611a07576040519150601f19603f3d011682016040523d82523d6000602084013e611a0c565b606091505b5050905080611a47576040517f92e9f8f100000000000000000000000000000000000000000000000000000000815260040160405180910390fd5b505050565b60008183611a5a9190612654565b905092915050565b60008183611a709190612530565b905092915050565b604051806101400160405280600073ffffffffffffffffffffffffffffffffffffffff1681526020016060815260200160608152602001606081526020016060815260200160008152602001600081526020016000815260200160006001811115611ae657611ae5611d89565b5b81526020016000151581525090565b828054611b01906124cf565b90600052602060002090601f016020900481019282611b235760008555611b6a565b82601f10611b3c57805160ff1916838001178555611b6a565b82800160010185558215611b6a579182015b82811115611b69578251825591602001919060010190611b4e565b5b509050611b779190611b7b565b5090565b5b80821115611b94576000816000905550600101611b7c565b5090565b600073ffffffffffffffffffffffffffffffffffffffff82169050919050565b6000611bc382611b98565b9050919050565b611bd381611bb8565b82525050565b6000602082019050611bee6000830184611bca565b92915050565b6000611bff82611b98565b9050919050565b611c0f81611bf4565b82525050565b600081519050919050565b600082825260208201905092915050565b60005b83811015611c4f578082015181840152602081019050611c34565b83811115611c5e576000848401525b50505050565b6000601f19601f8301169050919050565b6000611c8082611c15565b611c8a8185611c20565b9350611c9a818560208601611c31565b611ca381611c64565b840191505092915050565b600081519050919050565b600082825260208201905092915050565b6000819050602082019050919050565b6000611ce68383611c75565b905092915050565b6000602082019050919050565b6000611d0682611cae565b611d108185611cb9565b935083602082028501611d2285611cca565b8060005b85811015611d5e5784840389528151611d3f8582611cda565b9450611d4a83611cee565b925060208a01995050600181019050611d26565b50829750879550505050505092915050565b6000819050919050565b611d8381611d70565b82525050565b7f4e487b7100000000000000000000000000000000000000000000000000000000600052602160045260246000fd5b60028110611dc957611dc8611d89565b5b50565b6000819050611dda82611db8565b919050565b6000611dea82611dcc565b9050919050565b611dfa81611ddf565b82525050565b60008115159050919050565b611e1581611e00565b82525050565b600061014083016000830151611e346000860182611c06565b5060208301518482036020860152611e4c8282611c75565b91505060408301518482036040860152611e668282611c75565b91505060608301518482036060860152611e808282611c75565b91505060808301518482036080860152611e9a8282611cfb565b91505060a0830151611eaf60a0860182611d7a565b5060c0830151611ec260c0860182611d7a565b5060e0830151611ed560e0860182611d7a565b50610100830151611eea610100860182611df1565b50610120830151611eff610120860182611e0c565b508091505092915050565b60006020820190508181036000830152611f248184611e1b565b905092915050565b611f3581611e00565b82525050565b6000602082019050611f506000830184611f2c565b92915050565b611f5f81611bf4565b82525050565b6000602082019050611f7a6000830184611f56565b92915050565b611f8981611d70565b82525050565b6000602082019050611fa46000830184611f80565b92915050565b6000604051905090565b600080fd5b600080fd5b611fc781611bf4565b8114611fd257600080fd5b50565b600081359050611fe481611fbe565b92915050565b60006020828403121561200057611fff611fb4565b5b600061200e84828501611fd5565b91505092915050565b61202081611d70565b811461202b57600080fd5b50565b60008135905061203d81612017565b92915050565b60006020828403121561205957612058611fb4565b5b60006120678482850161202e565b91505092915050565b600082825260208201905092915050565b600061208c82611c15565b6120968185612070565b93506120a6818560208601611c31565b6120af81611c64565b840191505092915050565b600060208201905081810360008301526120d48184612081565b905092915050565b600080fd5b600080fd5b600080fd5b60008083601f840112612101576121006120dc565b5b8235905067ffffffffffffffff81111561211e5761211d6120e1565b5b60208301915083600182028301111561213a576121396120e6565b5b9250929050565b6000806020838503121561215857612157611fb4565b5b600083013567ffffffffffffffff81111561217657612175611fb9565b5b612182858286016120eb565b92509250509250929050565b600080fd5b7f4e487b7100000000000000000000000000000000000000000000000000000000600052604160045260246000fd5b6121cb82611c64565b810181811067ffffffffffffffff821117156121ea576121e9612193565b5b80604052505050565b60006121fd611faa565b905061220982826121c2565b919050565b600067ffffffffffffffff82111561222957612228612193565b5b61223282611c64565b9050602081019050919050565b82818337600083830152505050565b600061226161225c8461220e565b6121f3565b90508281526020810184848401111561227d5761227c61218e565b5b61228884828561223f565b509392505050565b600082601f8301126122a5576122a46120dc565b5b81356122b584826020860161224e565b91505092915050565b6000602082840312156122d4576122d3611fb4565b5b600082013567ffffffffffffffff8111156122f2576122f1611fb9565b5b6122fe84828501612290565b91505092915050565b600067ffffffffffffffff82111561232257612321612193565b5b61232b82611c64565b9050602081019050919050565b600061234b61234684612307565b6121f3565b9050828152602081018484840111156123675761236661218e565b5b61237284828561223f565b509392505050565b600082601f83011261238f5761238e6120dc565b5b813561239f848260208601612338565b91505092915050565b6000602082840312156123be576123bd611fb4565b5b600082013567ffffffffffffffff8111156123dc576123db611fb9565b5b6123e88482850161237a565b91505092915050565b600081519050919050565b600082825260208201905092915050565b6000612418826123f1565b61242281856123fc565b9350612432818560208601611c31565b61243b81611c64565b840191505092915050565b600060408201905061245b6000830185611f2c565b818103602083015261246d818461240d565b90509392505050565b61247f81611ddf565b82525050565b600060208201905061249a6000830184612476565b92915050565b7f4e487b7100000000000000000000000000000000000000000000000000000000600052602260045260246000fd5b600060028204905060018216806124e757607f821691505b602082108114156124fb576124fa6124a0565b5b50919050565b7f4e487b7100000000000000000000000000000000000000000000000000000000600052601160045260246000fd5b600061253b82611d70565b915061254683611d70565b9250827fffffffffffffffffffffffffffffffffffffffffffffffffffffffffffffffff0382111561257b5761257a612501565b5b828201905092915050565b600081905092915050565b50565b60006125a1600083612586565b91506125ac82612591565b600082019050919050565b60006125c282612594565b9150819050919050565b6000819050919050565b60006125f16125ec6125e784611b98565b6125cc565b611b98565b9050919050565b6000612603826125d6565b9050919050565b6000612615826125f8565b9050919050565b6126258161260a565b82525050565b6000604082019050612640600083018561261c565b61264d6020830184611f56565b9392505050565b600061265f82611d70565b915061266a83611d70565b92508282101561267d5761267c612501565b5b828203905092915050565b600060408201905061269d6000830185611f80565b6126aa6020830184611f80565b939250505056fea2646970667358221220c49a4d5161d41e03e986090e6113fe337dbbe2b0f0559b936b3df8af88bdea6764736f6c634300080800336080604052674563918244f40000600255606e600360006101000a81548160ff021916908360ff160217905550600160009054906101000a900473ffffffffffffffffffffffffffffffffffffffff16600360016101000a81548173ffffffffffffffffffffffffffffffffffffffff021916908373ffffffffffffffffffffffffffffffffffffffff16021790555034801561009b57600080fd5b50604051610b37380380610b3783398181016040528101906100bd91906101a8565b816000806101000a81548173ffffffffffffffffffffffffffffffffffffffff021916908373ffffffffffffffffffffffffffffffffffffffff16021790555080600160006101000a81548173ffffffffffffffffffffffffffffffffffffffff021916908373ffffffffffffffffffffffffffffffffffffffff16021790555050506101e8565b600080fd5b600073ffffffffffffffffffffffffffffffffffffffff82169050919050565b60006101758261014a565b9050919050565b6101858161016a565b811461019057600080fd5b50565b6000815190506101a28161017c565b92915050565b600080604083850312156101bf576101be610145565b5b60006101cd85828601610193565b92505060206101de85828601610193565b9150509250929050565b610940806101f76000396000f3fe608060405234801561001057600080fd5b50600436106100575760003560e01c8063501ad9da1461005c578063bd3bf7f31461007a578063c34f5c9114610098578063c791316e146100b4578063f230b4c2146100d2575b600080fd5b6100646100f0565b60405161007191906103a6565b60405180910390f35b610082610116565b60405161008f91906103a6565b60405180910390f35b6100b260048036038101906100ad9190610583565b61013a565b005b6100bc61034c565b6040516100c9919061060b565b60405180910390f35b6100da610352565b6040516100e79190610642565b60405180910390f35b600160009054906101000a900473ffffffffffffffffffffffffffffffffffffffff1681565b60008054906101000a900473ffffffffffffffffffffffffffffffffffffffff1681565b60008060009054906101000a900473ffffffffffffffffffffffffffffffffffffffff1673ffffffffffffffffffffffffffffffffffffffff16634d3f73346040518163ffffffff1660e01b815260040160206040518083038186803b1580156101a357600080fd5b505afa1580156101b7573d6000803e3d6000fd5b505050506040513d601f19601f820116820180604052508101906101db9190610672565b90506000600254905060007fc4110e5c9c8ef4fe31f40cd68aa0b3102f9897ff333658e269002c9ad25bb9f48587863386600360009054906101000a900460ff1660405160240161023196959493929190610783565b604051602081830303815290604052907bffffffffffffffffffffffffffffffffffffffffffffffffffffffff19166020820180517bffffffffffffffffffffffffffffffffffffffffffffffffffffffff83818316178352505050509050600360019054906101000a900473ffffffffffffffffffffffffffffffffffffffff1673ffffffffffffffffffffffffffffffffffffffff16634000aea084600254846040518463ffffffff1660e01b81526004016102f193929190610867565b602060405180830381600087803b15801561030b57600080fd5b505af115801561031f573d6000803e3d6000fd5b505050506040513d601f19601f8201168201806040525081019061034391906108dd565b50505050505050565b60025481565b600360009054906101000a900460ff1681565b600073ffffffffffffffffffffffffffffffffffffffff82169050919050565b600061039082610365565b9050919050565b6103a081610385565b82525050565b60006020820190506103bb6000830184610397565b92915050565b6000604051905090565b600080fd5b600080fd5b6103de81610385565b81146103e957600080fd5b50565b6000813590506103fb816103d5565b92915050565b600080fd5b600080fd5b6000601f19601f8301169050919050565b7f4e487b7100000000000000000000000000000000000000000000000000000000600052604160045260246000fd5b6104548261040b565b810181811067ffffffffffffffff821117156104735761047261041c565b5b80604052505050565b60006104866103c1565b9050610492828261044b565b919050565b600067ffffffffffffffff8211156104b2576104b161041c565b5b6104bb8261040b565b9050602081019050919050565b82818337600083830152505050565b60006104ea6104e584610497565b61047c565b90508281526020810184848401111561050657610505610406565b5b6105118482856104c8565b509392505050565b600082601f83011261052e5761052d610401565b5b813561053e8482602086016104d7565b91505092915050565b600063ffffffff82169050919050565b61056081610547565b811461056b57600080fd5b50565b60008135905061057d81610557565b92915050565b60008060006060848603121561059c5761059b6103cb565b5b60006105aa868287016103ec565b935050602084013567ffffffffffffffff8111156105cb576105ca6103d0565b5b6105d786828701610519565b92505060406105e88682870161056e565b9150509250925092565b6000819050919050565b610605816105f2565b82525050565b600060208201905061062060008301846105fc565b92915050565b600060ff82169050919050565b61063c81610626565b82525050565b60006020820190506106576000830184610633565b92915050565b60008151905061066c816103d5565b92915050565b600060208284031215610688576106876103cb565b5b60006106968482850161065d565b91505092915050565b600081519050919050565b600082825260208201905092915050565b60005b838110156106d95780820151818401526020810190506106be565b838111156106e8576000848401525b50505050565b60006106f98261069f565b61070381856106aa565b93506107138185602086016106bb565b61071c8161040b565b840191505092915050565b50565b60006107376000836106aa565b915061074282610727565b600082019050919050565b61075681610547565b82525050565b60006bffffffffffffffffffffffff82169050919050565b61077d8161075c565b82525050565b600061010082019050818103600083015261079e81896106ee565b905081810360208301526107b18161072a565b90506107c06040830188610397565b6107cd606083018761074d565b6107da6080830186610397565b81810360a08301526107eb8161072a565b90506107fa60c0830185610774565b61080760e0830184610633565b979650505050505050565b600081519050919050565b600082825260208201905092915050565b600061083982610812565b610843818561081d565b93506108538185602086016106bb565b61085c8161040b565b840191505092915050565b600060608201905061087c6000830186610397565b61088960208301856105fc565b818103604083015261089b818461082e565b9050949350505050565b60008115159050919050565b6108ba816108a5565b81146108c557600080fd5b50565b6000815190506108d7816108b1565b92915050565b6000602082840312156108f3576108f26103cb565b5b6000610901848285016108c8565b9150509291505056fea264697066735822122077df321876ff2f4ea04629b08cc89c2d9a22d6e56f6de8c33e72e02416902ea564736f6c63430008080033a2646970667358221220758f4d352a6744f92db11f9ea249307b1f923e33514f1a810e2c5ae0f0d06c4d64736f6c63430008080033",
  "devdoc": {
    "kind": "dev",
    "methods": {},
    "version": 1
  },
  "userdoc": {
    "kind": "user",
    "methods": {},
    "version": 1
  },
  "storageLayout": {
    "storage": [
      {
        "astId": 1163,
        "contract": "contracts/CrowdFunder.sol:CrowdFunder",
        "label": "campaigns",
        "offset": 0,
        "slot": "0",
        "type": "t_mapping(t_address,t_contract(Campaign)1080)"
      },
      {
        "astId": 1168,
        "contract": "contracts/CrowdFunder.sol:CrowdFunder",
        "label": "campaignsBacked",
        "offset": 0,
        "slot": "1",
        "type": "t_mapping(t_address,t_array(t_address)dyn_storage)"
      }
    ],
    "types": {
      "t_address": {
        "encoding": "inplace",
        "label": "address",
        "numberOfBytes": "20"
      },
      "t_array(t_address)dyn_storage": {
        "base": "t_address",
        "encoding": "dynamic_array",
        "label": "address[]",
        "numberOfBytes": "32"
      },
      "t_contract(Campaign)1080": {
        "encoding": "inplace",
        "label": "contract Campaign",
        "numberOfBytes": "20"
      },
      "t_mapping(t_address,t_array(t_address)dyn_storage)": {
        "encoding": "mapping",
        "key": "t_address",
        "label": "mapping(address => address[])",
        "numberOfBytes": "32",
        "value": "t_array(t_address)dyn_storage"
      },
      "t_mapping(t_address,t_contract(Campaign)1080)": {
        "encoding": "mapping",
        "key": "t_address",
        "label": "mapping(address => contract Campaign)",
        "numberOfBytes": "32",
        "value": "t_contract(Campaign)1080"
      }
    }
  }
}