{
  "address": "0x3A7ec66b1054330976E2F0fD1296720e3eBc0Ff8",
  "abi": [
    {
      "inputs": [
        {
          "internalType": "address",
          "name": "_link",
          "type": "address"
        },
        {
          "internalType": "address",
          "name": "_registrar",
          "type": "address"
        },
        {
          "internalType": "address",
          "name": "_registry",
          "type": "address"
        }
      ],
      "stateMutability": "nonpayable",
      "type": "constructor"
    },
    {
      "inputs": [],
      "name": "i_link",
      "outputs": [
        {
          "internalType": "contract LinkTokenInterface",
          "name": "",
          "type": "address"
        }
      ],
      "stateMutability": "view",
      "type": "function"
    },
    {
      "inputs": [],
      "name": "i_registry",
      "outputs": [
        {
          "internalType": "contract AutomationRegistryInterface",
          "name": "",
          "type": "address"
        }
      ],
      "stateMutability": "view",
      "type": "function"
    },
    {
      "inputs": [
        {
          "internalType": "string",
          "name": "name",
          "type": "string"
        },
        {
          "internalType": "bytes",
          "name": "encryptedEmail",
          "type": "bytes"
        },
        {
          "internalType": "address",
          "name": "upkeepContract",
          "type": "address"
        },
        {
          "internalType": "uint32",
          "name": "gasLimit",
          "type": "uint32"
        },
        {
          "internalType": "address",
          "name": "adminAddress",
          "type": "address"
        },
        {
          "internalType": "bytes",
          "name": "checkData",
          "type": "bytes"
        },
        {
          "internalType": "uint96",
          "name": "amount",
          "type": "uint96"
        },
        {
          "internalType": "uint8",
          "name": "source",
          "type": "uint8"
        }
      ],
      "name": "registerAndPredictID",
      "outputs": [
        {
          "internalType": "uint256",
          "name": "",
          "type": "uint256"
        }
      ],
      "stateMutability": "nonpayable",
      "type": "function"
    },
    {
      "inputs": [],
      "name": "registrar",
      "outputs": [
        {
          "internalType": "address",
          "name": "",
          "type": "address"
        }
      ],
      "stateMutability": "view",
      "type": "function"
    }
  ],
  "transactionHash": "0xfaee7c6823b481205940e694ff63213cc3f67676f52af41dceddedde356388a0",
  "args": [
    "0x326C977E6efc84E512bB9C30f76E30c160eD06FB",
    "0x9806cf6fBc89aBF286e8140C42174B94836e36F2",
    "0x02777053d6764996e594c3E88AF1D58D5363a2e6"
  ],
  "numDeployments": 1,
  "solcInputHash": "2c0dea4059a0f8496145998cde7d76e5",
  "bytecode": "0x60e0604052633659d66660e01b6000806101000a81548163ffffffff021916908360e01c02179055503480156200003557600080fd5b506040516200153c3803806200153c83398181016040528101906200005b919062000173565b8273ffffffffffffffffffffffffffffffffffffffff1660808173ffffffffffffffffffffffffffffffffffffffff1660601b815250508173ffffffffffffffffffffffffffffffffffffffff1660a08173ffffffffffffffffffffffffffffffffffffffff1660601b815250508073ffffffffffffffffffffffffffffffffffffffff1660c08173ffffffffffffffffffffffffffffffffffffffff1660601b81525050505050620001cf565b600080fd5b600073ffffffffffffffffffffffffffffffffffffffff82169050919050565b60006200013b826200010e565b9050919050565b6200014d816200012e565b81146200015957600080fd5b50565b6000815190506200016d8162000142565b92915050565b6000806000606084860312156200018f576200018e62000109565b5b60006200019f868287016200015c565b9350506020620001b2868287016200015c565b9250506040620001c5868287016200015c565b9150509250925092565b60805160601c60a05160601c60c05160601c6113126200022a6000396000818160e3015281816102d1015281816103b3015261045a01526000818161020f015261047e0152600081816101d301526104a201526113126000f3fe608060405234801561001057600080fd5b506004361061004c5760003560e01c806318a9fb8a146100515780632a663606146100815780632b20e3971461009f5780637d253aff146100bd575b600080fd5b61006b60048036038101906100669190610795565b6100db565b60405161007891906108c1565b60405180910390f35b610089610458565b604051610096919061093b565b60405180910390f35b6100a761047c565b6040516100b49190610965565b60405180910390f35b6100c56104a0565b6040516100d291906109a1565b60405180910390f35b6000806000807f000000000000000000000000000000000000000000000000000000000000000073ffffffffffffffffffffffffffffffffffffffff16631865c57d6040518163ffffffff1660e01b815260040160006040518083038186803b15801561014757600080fd5b505afa15801561015b573d6000803e3d6000fd5b505050506040513d6000823e3d601f19601f820116820180604052508101906101849190610cfe565b9250925092506000836000015163ffffffff16905060008f8f8f8f8f8f8f8f8f8f306040516020016101c09b9a99989796959493929190610e62565b60405160208183030381529060405290507f000000000000000000000000000000000000000000000000000000000000000073ffffffffffffffffffffffffffffffffffffffff16634000aea07f00000000000000000000000000000000000000000000000000000000000000008a60008054906101000a900460e01b8560405160200161024f929190610f9c565b6040516020818303038152906040526040518463ffffffff1660e01b815260040161027c9392919061102e565b602060405180830381600087803b15801561029657600080fd5b505af11580156102aa573d6000803e3d6000fd5b505050506040513d601f19601f820116820180604052508101906102ce91906110a4565b507f000000000000000000000000000000000000000000000000000000000000000073ffffffffffffffffffffffffffffffffffffffff16631865c57d6040518163ffffffff1660e01b815260040160006040518083038186803b15801561033557600080fd5b505afa158015610349573d6000803e3d6000fd5b505050506040513d6000823e3d601f19601f820116820180604052508101906103729190610cfe565b8095508196508297505050506000856000015163ffffffff16905060018361039a9190611100565b81141561040f5760006001436103b09190611156565b407f0000000000000000000000000000000000000000000000000000000000000000856040516020016103e593929190611233565b6040516020818303038152906040528051906020012060001c90508097505050505050505061044a565b6040517f08c379a0000000000000000000000000000000000000000000000000000000008152600401610441906112bc565b60405180910390fd5b9a9950505050505050505050565b7f000000000000000000000000000000000000000000000000000000000000000081565b7f000000000000000000000000000000000000000000000000000000000000000081565b7f000000000000000000000000000000000000000000000000000000000000000081565b6000604051905090565b600080fd5b600080fd5b600080fd5b600080fd5b6000601f19601f8301169050919050565b7f4e487b7100000000000000000000000000000000000000000000000000000000600052604160045260246000fd5b61052b826104e2565b810181811067ffffffffffffffff8211171561054a576105496104f3565b5b80604052505050565b600061055d6104c4565b90506105698282610522565b919050565b600067ffffffffffffffff821115610589576105886104f3565b5b610592826104e2565b9050602081019050919050565b82818337600083830152505050565b60006105c16105bc8461056e565b610553565b9050828152602081018484840111156105dd576105dc6104dd565b5b6105e884828561059f565b509392505050565b600082601f830112610605576106046104d8565b5b81356106158482602086016105ae565b91505092915050565b600080fd5b600080fd5b60008083601f84011261063e5761063d6104d8565b5b8235905067ffffffffffffffff81111561065b5761065a61061e565b5b60208301915083600182028301111561067757610676610623565b5b9250929050565b600073ffffffffffffffffffffffffffffffffffffffff82169050919050565b60006106a98261067e565b9050919050565b6106b98161069e565b81146106c457600080fd5b50565b6000813590506106d6816106b0565b92915050565b600063ffffffff82169050919050565b6106f5816106dc565b811461070057600080fd5b50565b600081359050610712816106ec565b92915050565b60006bffffffffffffffffffffffff82169050919050565b61073981610718565b811461074457600080fd5b50565b60008135905061075681610730565b92915050565b600060ff82169050919050565b6107728161075c565b811461077d57600080fd5b50565b60008135905061078f81610769565b92915050565b6000806000806000806000806000806101008b8d0312156107b9576107b86104ce565b5b60008b013567ffffffffffffffff8111156107d7576107d66104d3565b5b6107e38d828e016105f0565b9a505060208b013567ffffffffffffffff811115610804576108036104d3565b5b6108108d828e01610628565b995099505060406108238d828e016106c7565b97505060606108348d828e01610703565b96505060806108458d828e016106c7565b95505060a08b013567ffffffffffffffff811115610866576108656104d3565b5b6108728d828e01610628565b945094505060c06108858d828e01610747565b92505060e06108968d828e01610780565b9150509295989b9194979a5092959850565b6000819050919050565b6108bb816108a8565b82525050565b60006020820190506108d660008301846108b2565b92915050565b6000819050919050565b60006109016108fc6108f78461067e565b6108dc565b61067e565b9050919050565b6000610913826108e6565b9050919050565b600061092582610908565b9050919050565b6109358161091a565b82525050565b6000602082019050610950600083018461092c565b92915050565b61095f8161069e565b82525050565b600060208201905061097a6000830184610956565b92915050565b600061098b82610908565b9050919050565b61099b81610980565b82525050565b60006020820190506109b66000830184610992565b92915050565b600080fd5b6000815190506109d0816106ec565b92915050565b6000815190506109e581610730565b92915050565b6109f4816108a8565b81146109ff57600080fd5b50565b600081519050610a11816109eb565b92915050565b600060808284031215610a2d57610a2c6109bc565b5b610a376080610553565b90506000610a47848285016109c1565b6000830152506020610a5b848285016109d6565b6020830152506040610a6f84828501610a02565b6040830152506060610a8384828501610a02565b60608301525092915050565b600062ffffff82169050919050565b610aa781610a8f565b8114610ab257600080fd5b50565b600081519050610ac481610a9e565b92915050565b600061ffff82169050919050565b610ae181610aca565b8114610aec57600080fd5b50565b600081519050610afe81610ad8565b92915050565b600081519050610b13816106b0565b92915050565b60006101808284031215610b3057610b2f6109bc565b5b610b3b610180610553565b90506000610b4b848285016109c1565b6000830152506020610b5f848285016109c1565b6020830152506040610b7384828501610ab5565b6040830152506060610b87848285016109c1565b6060830152506080610b9b84828501610ab5565b60808301525060a0610baf84828501610aef565b60a08301525060c0610bc3848285016109d6565b60c08301525060e0610bd7848285016109c1565b60e083015250610100610bec84828501610a02565b61010083015250610120610c0284828501610a02565b61012083015250610140610c1884828501610b04565b61014083015250610160610c2e84828501610b04565b6101608301525092915050565b600067ffffffffffffffff821115610c5657610c556104f3565b5b602082029050602081019050919050565b6000610c7a610c7584610c3b565b610553565b90508083825260208201905060208402830185811115610c9d57610c9c610623565b5b835b81811015610cc65780610cb28882610b04565b845260208401935050602081019050610c9f565b5050509392505050565b600082601f830112610ce557610ce46104d8565b5b8151610cf5848260208601610c67565b91505092915050565b60008060006102208486031215610d1857610d176104ce565b5b6000610d2686828701610a17565b9350506080610d3786828701610b19565b92505061020084015167ffffffffffffffff811115610d5957610d586104d3565b5b610d6586828701610cd0565b9150509250925092565b600081519050919050565b600082825260208201905092915050565b60005b83811015610da9578082015181840152602081019050610d8e565b83811115610db8576000848401525b50505050565b6000610dc982610d6f565b610dd38185610d7a565b9350610de3818560208601610d8b565b610dec816104e2565b840191505092915050565b600082825260208201905092915050565b6000610e148385610df7565b9350610e2183858461059f565b610e2a836104e2565b840190509392505050565b610e3e816106dc565b82525050565b610e4d81610718565b82525050565b610e5c8161075c565b82525050565b6000610120820190508181036000830152610e7d818e610dbe565b90508181036020830152610e92818c8e610e08565b9050610ea1604083018b610956565b610eae606083018a610e35565b610ebb6080830189610956565b81810360a0830152610ece818789610e08565b9050610edd60c0830186610e44565b610eea60e0830185610e53565b610ef8610100830184610956565b9c9b505050505050505050505050565b60007fffffffff0000000000000000000000000000000000000000000000000000000082169050919050565b6000819050919050565b610f4f610f4a82610f08565b610f34565b82525050565b600081519050919050565b600081905092915050565b6000610f7682610f55565b610f808185610f60565b9350610f90818560208601610d8b565b80840191505092915050565b6000610fa88285610f3e565b600482019150610fb88284610f6b565b91508190509392505050565b6000610fdf610fda610fd584610718565b6108dc565b6108a8565b9050919050565b610fef81610fc4565b82525050565b600061100082610f55565b61100a8185610df7565b935061101a818560208601610d8b565b611023816104e2565b840191505092915050565b60006060820190506110436000830186610956565b6110506020830185610fe6565b81810360408301526110628184610ff5565b9050949350505050565b60008115159050919050565b6110818161106c565b811461108c57600080fd5b50565b60008151905061109e81611078565b92915050565b6000602082840312156110ba576110b96104ce565b5b60006110c88482850161108f565b91505092915050565b7f4e487b7100000000000000000000000000000000000000000000000000000000600052601160045260246000fd5b600061110b826108a8565b9150611116836108a8565b9250827fffffffffffffffffffffffffffffffffffffffffffffffffffffffffffffffff0382111561114b5761114a6110d1565b5b828201905092915050565b6000611161826108a8565b915061116c836108a8565b92508282101561117f5761117e6110d1565b5b828203905092915050565b6000819050919050565b6000819050919050565b6111af6111aa8261118a565b611194565b82525050565b60008160601b9050919050565b60006111cd826111b5565b9050919050565b60006111df826111c2565b9050919050565b6111f76111f28261069e565b6111d4565b82525050565b60008160e01b9050919050565b6000611215826111fd565b9050919050565b61122d611228826106dc565b61120a565b82525050565b600061123f828661119e565b60208201915061124f82856111e6565b60148201915061125f828461121c565b600482019150819050949350505050565b7f6175746f2d617070726f76652064697361626c65640000000000000000000000600082015250565b60006112a6601583610d7a565b91506112b182611270565b602082019050919050565b600060208201905081810360008301526112d581611299565b905091905056fea2646970667358221220242c5fa014d7028c30bddbc7659b52e220729c5c0a47e11fe4a02a3054f97e6564736f6c63430008080033",
  "devdoc": {
    "kind": "dev",
    "methods": {},
    "version": 1
  },
  "userdoc": {
    "kind": "user",
    "methods": {},
    "version": 1
  },
  "storageLayout": {
    "storage": [
      {
        "astId": 1667,
        "contract": "contracts/UpkeepIDConsumer.sol:UpkeepIDConsumer",
        "label": "registerSig",
        "offset": 0,
        "slot": "0",
        "type": "t_bytes4"
      }
    ],
    "types": {
      "t_bytes4": {
        "encoding": "inplace",
        "label": "bytes4",
        "numberOfBytes": "4"
      }
    }
  }
}